:020000040800F2
:1000000000500020A52C0008E52B0008EB2B000871
:10001000F12B0008F72B0008FD2B00080000000062
:10002000000000000000000000000000032C000899
:100030000F2C0008000000001B2C0008272C0008D3
:10004000ED2C0008ED2C0008ED2C0008ED2C00082C
:10005000ED2C0008ED2C0008ED2C0008ED2C00081C
:10006000ED2C0008ED2C0008ED2C0008352C0008C4
:10007000ED2C0008ED2C0008ED2C0008492C0008A0
:10008000ED2C0008ED2C0008ED2C0008ED2C0008EC
:100090005D2C0008ED2C0008ED2C0008ED2C00086C
:1000A000ED2C0008712C0008ED2C0008ED2C000848
:1000B000ED2C0008ED2C0008ED2C0008ED2C0008BC
:1000C000ED2C0008ED2C0008ED2C0008ED2C0008AC
:1000D000ED2C0008852C0008ED2C0008ED2C000804
:1000E000ED2C0008ED2C0008ED2C000800000000AD
:1000F0000000000000000000000000000000000000
:0C01000000000000000000005FF808F1A3
:10010C0010B5054C237833B9044B13B10448AFF345
:10011C0000800123237010BD94010020000000001A
:10012C00A0DC000808B5034B1BB103490348AFF32F
:10013C00008008BD0000000098010020A0DC000831
:10014C00034613F8012B002AFBD1181A013870470B
:10015C0080B582B000AF78603960124B00221A7003
:10016C00114B00221A704022796810480DF04CFD9A
:10017C000E4B002283F83F20202239680C480DF0EA
:10018C0043FD0B4B0022DA770A4B32221A60054BE7
:10019C000D221A70084B00221A7000BF0837BD469A
:1001AC0080BD00BFB0010020B4010020CC010020B4
:1001BC000C020020B8010020E803002080B582B0BA
:1001CC0000AF78600B467B8013463B801D4B5B6811
:1001DC00002B02D14FF0FF332FE03B88002B02D1D4
:1001EC0047F230533B80184B184A1A600F2279683B
:1001FC0017480DF009FD164B0022DA737B880A2292
:10020C00144918460DF0B4FC3B880A2212491846D2
:10021C000DF0AEFC114B1B78002B01D101230CE02F
:10022C000F4B1B7803F00203DBB2002B01D1002330
:10023C0003E00C4B09221A70062318460837BD46FA
:10024C0080BD00BFEC03002000000020554450008E
:10025C002C0200203C02002054020020CC01002083
:10026C00B4010020B001002080B400AF084B1B7813
:10027C0003F00203DBB2002B05D0064B1B78002BDE
:10028C0001D0044B00E000231846BD4680BC7047EB
:10029C00B40100204402002080B483B000AF0346B8
:1002AC00FB710B4B1B885A1C91B2094A11801946E1
:1002BC00084AFB795354064B1B88802B02D1044B04
:1002CC0000221A8000BF0C37BD4680BC704700BFAF
:1002DC00E00300206002002080B588B000AFF86019
:1002EC00084611461A4603467B810B463B81134652
:1002FC00FB80464B5B68002B02D14FF0FF3381E053
:10030C00434B1B7803F04003DBB2002B01D10523D8
:10031C0078E03F4B1B7803F00803DBB2002B68D16D
:10032C0000237B773B8907F110010A2218460DF058
:10033C001FFC07F110031846FFF702FF03467B77FB
:10034C007B7F042B02D87B7F002B01D10B2359E040
:10035C00304800F041FF07F11003184600F03CFF55
:10036C002D4800F039FF0023FB8320E07B895A1CC9
:10037C007A811A46FB681A44284B1B88591C88B290
:10038C002649088019461278254B5A54234B1B8852
:10039C00B3F5807F02D1214B00221A807A89FB8829
:1003AC009A4201D100237B81FB8B0133FB83FA8BB7
:1003BC003B899A42DAD3164A137843F0040313703C
:1003CC00134A137843F008031370164B1B68002B69
:1003DC000DD0144B1B6814489847124B1B6807F13F
:1003EC001002104698470F4B1B681048984709237A
:1003FC0008E00C4B1B68002B03D00A4B1B680C4805
:10040C009847082318462037BD4680BDEC030020D2
:10041C00B4010020DCDE0008B8DC0008E603002094
:10042C00E0020020C8010020BCDC0008D0DC000881
:10043C00D4DC000880B582B000AF78600C227968FB
:10044C0010480DF019FC104B00221A700F4B0022B3
:10045C001A700F4B00221A800E4B00221A800E4B82
:10046C0000221A800D4B00221A800D4B00221A70AC
:10047C000C4B00221A600C4B00221A6000BF08378C
:10048C00BD4680BDEC030020B00100205A020020C4
:10049C00E4030020E6030020E2030020E003002038
:1004AC00B4010020C4010020C801002080B400AFBA
:1004BC00124B1B68002B04D0104B1B68013B0F4ADE
:1004CC0013600F4B1B68002B0BD00D4B1B68013BB3
:1004DC000B4A13600A4B1B68002B02D1094B0022FC
:1004EC001A70094B1B68002B04D0074B1B68013B8F
:1004FC00054A136000BFBD4680BC7047B8010020A0
:10050C00BC0100205A020020C001002080B500AFC1
:10051C00084B1A88084B1B889A4201D000F01EF831
:10052C00064B1B68002B01D100F0D0FB00F0D8FD6E
:10053C0000BF80BDE2030020E0030020B8010020D2
:10054C0080B483B000AF7860034A7B68136000BF4F
:10055C000C37BD4680BC7047C401002080B582B00A
:10056C0000AF7F4B1B780D2B07D07D4B1B780E2BD0
:10057C0003D07B4B1B780F2B04D17A4B1A887A4B08
:10058C001A8083E3774B1B88FB80784B02221A601E
:10059C0076E3754B1B881A46754B9B5C7B71754BD0
:1005AC001B780C2B00F24D8301A252F823F000BFF4
:1005BC00F1050008E3060008C70800084F0C000806
:1005CC004F0C0008BF0A0008050B00081B0B0008A5
:1005DC00470B00084F0C0008930B0008BB0B0008DE
:1005EC00110C0008644B00221A70644B04221A7020
:1005FC003FE0614B1B781A46614B53F822305F4A3F
:10060C00127813441B787A799A422CD15A4B1B7866
:10061C001A465B4B53F822301B789BB2303B9AB294
:10062C00584B1A80574B1B881A46920013445B0098
:10063C009AB2544B1A80504B1B781A46504B53F8B5
:10064C00223001331B789AB24E4B1B8813449BB259
:10065C00303B9AB24B4B1A804A4B1B88013B9AB2E7
:10066C00484B1A800DE0444B1B780133DAB2424BF5
:10067C001A70414B1B781A46414B53F82230002B11
:10068C00B7D13D4B1B781A463D4B53F82230002B0B
:10069C0009D0384B01221A70384B1B780133DAB26F
:1006AC00364B1A70D4E2314B00221A60364B1B7851
:1006BC0003F00103DBB2002B00F0CA827B793E2BE6
:1006CC0040F0C682304A13786FF3000313702F4B3F
:1006DC0000221A60BCE2284B1B781A46284B53F8B0
:1006EC002230264A127813441B787A799A4233D1F5
:1006FC00244B1B88013B9AB2224B1A80214B1B883E
:10070C00002B03D07B790D2B40F0D0801A4B1B783B
:10071C001A461B4B53F8223002331B78303BDAB2AB
:10072C00144B1A70134B1B781A46920013445B003F
:10073C00DAB2104B1A70104B1B781A46104B53F848
:10074C00223003331A780B4B1B781344DBB2303B4B
:10075C00DAB2084B1A7086E2074B00221A7089E055
:10076C00B0010020E0030020E2030020BC010020C7
:10077C00600200205A020020F8030020F903002038
:10078C0000E000085C020020B4010020C001002041
:10079C00A54B1B781A46A54B53F822301B789BB2FD
:1007AC00303B9AB2A24B1A80A14B1B881A4692007E
:1007BC0013445B009AB29E4B1A809B4B1B781A46D3
:1007CC009A4B53F8223001331B789AB2984B1B8802
:1007DC0013449BB2303B9AB2954B1A80944B1A88B7
:1007EC00944B1B789BB2D31A9BB203339AB2904BA7
:1007FC001A808F4B1B887F2B36D88B4B1B781A4655
:10080C008A4B53F822308B4A127813441B787A792E
:10081C009A4229D1864B1B88002B34D1824B1B78F2
:10082C001A46824B53F8223002331B78303BDAB233
:10083C00814B1A70804B1B781A46920013445B0054
:10084C00DAB27D4B1A70784B1B781A46774B53F8FB
:10085C00223003331A78784B1B781344DBB2303BCD
:10086C00DAB2754B1A700EE06F4B1B780133DAB2AB
:10087C006D4B1A706C4B1B781A466C4B53F822302C
:10088C00002B85D100E000BF674B1B781A46674BE5
:10089C0053F82230002B09D1674B00221A70674B9A
:1008AC001B88013B9AB2654B1A80DCE1614B1B78CB
:1008BC000133DAB25F4B1A70D5E17B790A2B40F029
:1008CC00C9815D4B00221A70574B1B78112B00F21B
:1008DC00C18101A252F823F0A30A0008A30A000860
:1008EC002D0900084909000877090008A30A000827
:1008FC00AD090008AD090008E1090008ED09000880
:10090C00090A0008650A0008610C0008710A000851
:10091C00610C0008870A0008A30A0008A30A000853
:10092C00474B1B78022B40F0B880464B00221A60D4
:10093C00454A137843F020031370AEE0424B1B780A
:10094C0003F00803DBB2002B00F0A9803E4A1378B9
:10095C006FF3C30313703C4A13786FF38613137051
:10096C003A4B1A883A4B1A8099E0364B00221A609F
:10097C00334B1B78062B04D1334A137843F02003F6
:10098C001370314A137843F002031370314B1B6818
:10099C00002B00F086802F4B1B680320984780E0CB
:1009AC00294A13786FF386131370274A13786FF361
:1009BC0041031370274B1B68002B03D0254B1B687E
:1009CC00002098471E4B1B78062B6CD01C4B0F221B
:1009DC001A706DE01C4A13786FF38613137067E07E
:1009EC00194A13786FF3C30313701A4B1B68002B4F
:1009FC005BD0184B1B680A20984756E0114B00221D
:100A0C001A60114A137843F0200313700E4A1378BE
:100A1C0043F0400313700F4B1B68002B47D00D4B5A
:100A2C001B680720984742E0F803002000E000080C
:100A3C005C020020F90300205A020020E20300208F
:100A4C00B0010020B8010020B4010020E603002012
:100A5C00E4030020C40100208E4A13786FF3861340
:100A6C00137025E08B4A13786FF386131370894A41
:100A7C0013786FF3410313701AE0864A13786FF3FF
:100A8C0086131370834A13786FF341031370824BF0
:100A9C000F221A700CE000BFDCE000BFDAE000BFF0
:100AAC00D8E000BFD6E000BFD4E000BFD2E000BF6A
:100ABC00D0E07B792C2B0CD1784B06221A70784B1A
:100ACC001B68002B00F0C880754B1B687548984755
:100ADC00C2E0724B00221A70734B1B88013B9AB216
:100AEC00714B1A806E4B1B68002B00F0B5806C4B61
:100AFC001B686E489847AFE07B79222B40F0AE80A4
:100B0C00664B07221A706A4B00221A80A6E07B798A
:100B1C00222B03D0664B1B88102B03D15F4B082272
:100B2C001A70A0E0624B1B885A1C91B2604A11806B
:100B3C001946604A7B79535495E07B790A2B40F037
:100B4C008F80564B00221A70594B1B880F2B0ED8D6
:100B5C00574B1B881A46574B002199544D4A137812
:100B6C0043F020031370544B00221A6002E0514BE7
:100B7C0000221A70514B1B68002B71D04F4B1B6815
:100B8C00042098476CE07B792C2B06D1434B0B222D
:100B9C001A70474B00221A8065E0404B00221A70F5
:100BAC00414B1B88013B9AB23F4B1A805BE07B792F
:100BBC003A2B03D1394B0C221A7054E07B792F2B32
:100BCC0002D97B79392B09D9344B00221A70364B58
:100BDC001B88013B9AB2344B1A8044E0344B1B887F
:100BEC001A46920013445B009AB2314B1A807B79FF
:100BFC009AB22F4B1B8813449BB2303B9AB22C4BAE
:100C0C001A8030E02E4B9B68002B04D02C4B9B6839
:100C1C007A7910469847264B1B88013B9AB2244B95
:100C2C001A80234B1B88002B1CD11C4B00221A70E2
:100C3C001B4B1B68002B15D0194B1B682148984780
:100C4C0010E0164B00221A701F4B00221A600AE0AB
:100C5C0000BF08E000BF06E000BF04E000BF02E0F8
:100C6C0000BF00E000BF104B1B8801339AB20E4B43
:100C7C001A800D4B1B88802B02D10B4B00221A8043
:100C8C00094B1B88FA889A427FF483AC0837BD461F
:100C9C0080BD00BFB4010020B00100205A0200202A
:100CAC00C8010020ECDC0008E203002004DD000891
:100CBC005C02002044020020B8010020C401002086
:100CCC00EC03002018DD0008BC01002080B500AF4B
:100CDC009C4B64221A609C4B1B780F2B00F2E58115
:100CEC0001A252F823F000BF350D0008930D000847
:100CFC00E50D0008030E0008210E00083F0E000849
:100D0C00C50E0008E90E0008170F0008A50F000813
:100D1C00CD0F00085F1000087D1000083D0D000885
:100D2C005D0D0008850D0008864B00221A60BCE1A1
:100D3C00864B1B6800209847854B1B68002B03D003
:100D4C00834B1B68834898477F4B0E221A70ACE18B
:100D5C007E4B1B68012098477D4B1B68002B03D0F2
:100D6C007B4B1B687C489847774B0F221A70754B4E
:100D7C004FF4FA721A6098E1734B01221A70774B98
:100D8C0000221A7091E1754B1B78002B0DD0734B20
:100D9C001B78013BDAB2714B1A70704B1B78002B2D
:100DAC0006D1694B0D221A707FE16C4B04221A702C
:100DBC006B4A13786FF3451313706A4800F00CFA02
:100DCC00634B1B68002B03D0614B1B68664898472C
:100DDC005D4B02221A7068E1614B1B7803F0200313
:100DEC00DBB2002B03D0584B03221A705DE1564B3B
:100DFC0001221A7059E15D4800F0EEF9544B1B6862
:100E0C00002B03D0524B1B68594898474E4B042279
:100E1C001A704AE1574800F0DFF94D4B1B68002B64
:100E2C0003D04B4B1B6854489847474B05221A700C
:100E3C003BE14B4B1B7803F00203DBB2002B03D0DE
:100E4C00414B07221A7030E14C4B1B78002B00F001
:100E5C0029814B4800F0C0F9222000F0EDF94748F9
:100E6C0000F0BAF9222000F0E7F92C2000F0E4F9A8
:100E7C00222000F0E1F9434800F0AEF9222000F006
:100E8C00DBF90D2000F0D8F90A2000F0D5F9304B31
:100E9C001B68002B03D02E4B1B683B489847304AED
:100EAC0013786FF345131370274B06221A70254BDA
:100EBC0040F2DC521A60F8E0294B1B7803F0200357
:100ECC00DBB2002B06D0204B07221A70234B0422D6
:100EDC001A70EAE01C4B01221A70E6E02B4B002240
:100EEC001A702B4800F078F9194B1B68002B03D0B3
:100EFC00174B1B6827489847194A13786FF345130B
:100F0C001370114B08221A70CFE0154B1B7803F0AD
:100F1C002003DBB2002B03D00B4B09221A70C4E068
:100F2C000E4B1B78013BDAB20C4B1A700B4B1B7837
:100F3C00002B03D1044B01221A70B6E0024B07229E
:100F4C001A70B2E0B8010020B0010020EC030020C0
:100F5C00C80100202CDD000844DD0008E803002057
:100F6C00B40100207CDE00085CDD000894DE000883
:100F7C006CDD000884DE000880DD0008CC01002058
:100F8C00A4DE00080C02002094DD000844020020BE
:100F9C00B0DE0008A8DD0008454B1B78002B00F0E4
:100FAC008380444800F018F9434B1B68002B03D096
:100FBC00414B1B6841489847414B0A221A7074E018
:100FCC00404800F009F9222000F036F93E4800F0C4
:100FDC0003F9222000F030F92C2000F02DF922200A
:100FEC0000F02AF9324800F0F7F8222000F024F93A
:100FFC002C2000F021F9354800F0EEF82C2000F000
:10100C001BF9334800F0E8F82C2000F015F93020DB
:10101C0000F012F90D2000F00FF90A2000F00CF985
:10102C00254B1B68002B03D0234B1B682948984782
:10103C00294A13786FF345131370274A13786FF30B
:10104C00861313701E4B0B221A70244BC8221A6085
:10105C002BE0214B1B7803F02003DBB2002B03D0D9
:10106C00174B0C221A7020E0154B01221A701CE051
:10107C00194B1B7803F00203DBB2002B03D1104B8E
:10108C0001221A7011E0144B1B7803F04003DBB201
:10109C00002B03D10A4B09221A7006E00F4B0022D9
:1010AC001A6002E000BF00E000BF00BF80BD00BFBF
:1010BC002C020020CCDE0008C8010020BCDD00089A
:1010CC00B0010020BCDE0008000000203C02002023
:1010DC0054020020D4DD0008B4010020B801002027
:1010EC0080B582B000AF344B1B7803F00103DBB248
:1010FC00002B13D0314B1B68002B59D1304B1A8865
:10110C00304B1A802C4A13786FF3000313702E4B5C
:10111C0001221A702D4B0A221A6049E0294B1A88B9
:10112C00274B1B889A4244D0264B1B881A46284BC7
:10113C009B5CFB71204B1B7803F00403DBB2002B90
:10114C0004D0FB793E2B01D10A23FB71214B5B6848
:10115C00FA79104698470346002B2AD0164B1B7879
:10116C0003F00403DBB2002B13D0164B1B881A467A
:10117C00174B9B5C3E2B0CD10F4A13786FF38203F9
:10118C0013700D4A137843F0010313700B4B0522B7
:10119C001A600C4B1B8801339AB20A4B1A80094B0C
:1011AC001B88B3F5807F04D1064B00221A8000E027
:1011BC0000BF0837BD4680BDB4010020C00100202F
:1011CC00E6030020E4030020B0010020B801002059
:1011DC00E0020020EC03002080B485B000AF786002
:1011EC000023FB6017E0FB687A681A44104B1B88DD
:1011FC00591C88B20E490880194612780D4B5A5466
:10120C000B4B1B88B3F5807F02D1094B00221A804F
:10121C00FB680133FB60FB687A6813441B78002B76
:10122C00E1D100BF00BF1437BD4680BC704700BF82
:10123C00E6030020E002002080B483B000AF034638
:10124C00FB710B4B1B885A1C91B2094A1180194631
:10125C00084AFB795354064B1B88B3F5807F02D1A7
:10126C00034B00221A8000BF0C37BD4680BC704770
:10127C00E6030020E002002080B588B004AF78605F
:10128C000023FB734FF47A7302930123019307F14C
:10129C000F03009301237522D021786803F00CF919
:1012AC00FB7B682B2FD10023FB734FF47A730293D3
:1012BC000123019307F10F03009301236B22D0212B
:1012CC00786802F0FFFF0023FB734FF47A730293EC
:1012DC000123019307F10F03009301231C22D0215A
:1012EC00786802F0EFFF0023FB734FF47A730293DC
:1012FC000123019307F10F03009301231B22D0213B
:10130C00786802F0DFFF00BF1037BD4680BD0000DB
:10131C0080B584B002AF78600E230193054B009327
:10132C0001233B22D021786803F02EFB00BF083745
:10133C00BD4680BDFC03002080B483B000AF786054
:10134C001A4B5A781A4B1A73184B1A78184B5A7343
:10135C00164BDA78164B9A73144B9A78144BDA7343
:10136C00124B5A79124B1A74104B1A79104B5A743F
:10137C000E4B5A7A0E4B9A740C4B1A7A0C4BDA743D
:10138C000A4BDA7A0A4B1A75084B9A7A084B5A753B
:10139C00064B5A7B064B9A75044B1A7B044BDA7539
:1013AC0000BF0C37BD4680BC704700BFFC0300205B
:1013BC00980B002080B584B000AF78607B689B7977
:1013CC00FB73B5E07B681B687A68527913441B7811
:1013DC00BB737B689B7A062B00F28D8001A252F8BE
:1013EC0023F000BF0D14000831140008311400085C
:1013FC00311400087114000831140008AF140008EF
:10140C007B689B7A1A46504B9B5CBA7B9A4276D18E
:10141C007B6801229A727B680522DA727B68BA7B40
:10142C001A736CE07B689B7A1A46474B9B5CBA7BC1
:10143C009A420DD17B681A7BBB7B5340DAB27B6836
:10144C001A737B689B7A0133DAB27B689A7259E023
:10145C007B6800229A727B685B79013BDAB27B680D
:10146C005A714FE07B681A7BBB7B5340DAB27B68C6
:10147C001A737B68BA7B5A727B685B790233DAB277
:10148C007B68DA717B68DA797B681B791340DAB296
:10149C007B68DA717B6800221A727B6805229A726B
:1014AC0030E07B685B7A013BDAB27B685A727B680E
:1014BC005B7A002B07D07B681A7BBB7B5340DAB27C
:1014CC007B681A731DE07B6800229A727B681B7B19
:1014DC00BA7B9A4215D17B689B69002B07D07B683D
:1014EC009B697A68D27911467868984709E07B68DD
:1014FC0001221A7205E07B6800229A7202E000BF9A
:10150C0000E000BF7B685A797B681B791340DAB224
:10151C007B685A717B685B790133DAB27B685A71EC
:10152C007B685A797B681B791340DAB27B685A71F5
:10153C007B685B79FA7B9A427FF444AF00BF00BFB3
:10154C001037BD4680BD00BF0400002080B483B0BE
:10155C0000AF78607B6800229A727B6800225A7117
:10156C007B6800229A717B6800221A727B680022C9
:10157C005A757B6800229A757B68062283F82020B6
:10158C0000BF0C37BD4680BC704790B486B000AF2E
:10159C00F860B9601346FB710023FB751CE0FB7D02
:1015AC00BA681A44FB681969FB6893F82030581C18
:1015BC00C4B2F86880F820400B4412781A70FB68AB
:1015CC0093F82020FB681B7D1340DAB2FB6883F88C
:1015DC002020FB7D0133FB75FA7DFB799A42DED32B
:1015EC0000BF00BF1837BD4690BC704780B483B0B5
:1015FC0000AF78600B46FB707B681A697B6893F8C8
:10160C002030591CC8B2796881F820001344FA784C
:10161C001A707B6893F820207B681B7D1340DAB22C
:10162C007B6883F8202000BF0C37BD4680BC704718
:10163C0080B485B000AF78600B46FB701346BB706E
:10164C007B689B7D0733FB737B681A7DFB7B1340A8
:10165C00FB737B6893F82030FA7B9A4263D0BB789B
:10166C000133DAB2324B1A71314AFB7893717B68D1
:10167C000022DA75BB780633BB700023FB7328E0BD
:10168C00FB7B062B08D8FA7B7B681B697968897D04
:10169C000B4427498A5C1A707B68DA7D7B681B696E
:1016AC007968897D0B441B785340DAB27B68DA7514
:1016BC007B689B7D0133DAB27B689A757B689A7D77
:1016CC007B681B7D1340DAB27B689A75FB7B013318
:1016DC00FB73FA7BBB789A42D2D37B681A697B681E
:1016EC009B7D591CC8B27968887513447A68D27D81
:1016FC001A707B689A7D7B681B7D1340DAB27B681D
:10170C009A757B689B7D0733DAB27B6883F820205F
:10171C007B6893F820207B681B7D1340DAB27B68D2
:10172C0083F8202000E000BF1437BD4680BC704712
:10173C000400002080B483B000AF78600B46FB70CF
:10174C007B681A687B689B79591CC8B27968887168
:10175C001344FA781A707B689A797B681B7913406A
:10176C00DAB27B689A7100BF0C37BD4680BC7047FB
:10177C0090B486B000AFF860B9601346FB710023DB
:10178C00FB7518E0FB7DBA681A44FB681968FB68A6
:10179C009B79581CC4B2F86884710B4412781A7087
:1017AC00FB689A79FB681B791340DAB2FB689A7173
:1017BC00FB7D0133FB75FA7DFB799A42E2D300BFC6
:1017CC0000BF1837BD4690BC7047000080B483B092
:1017DC0000AF78607B681A687B68DB79591CC8B2EB
:1017EC007968C87113441A78084B1A707B68DA79D7
:1017FC007B681B791340DAB27B68DA71034B1B7878
:10180C0018460C37BD4680BC704700BF0C04002046
:10181C0080B582B000AF78607B685A797B689B7921
:10182C009A4202D07868FFF7C5FD7B68DB69002B14
:10183C0020D07B685A7D7B689B7D9A421AD07B684E
:10184C00DB697A6812697968497D0A441278104616
:10185C0098470346002B0DD07B685B7D0133DAB2D1
:10186C007B685A757B685A7D7B681B7D1340DAB2A6
:10187C007B685A7500BF0837BD4680BD80B483B005
:10188C0000AF78607B68DB7A002B0CD07B68DB7A4E
:10189C00013BDAB27B68DA727B68DB7A002B02D10F
:1018AC007B6800229A7200BF0C37BD4680BC704723
:1018BC0080B483B000AF78607B6800221A707B68BC
:1018CC0000225A707B6802229A707B6800225A6050
:1018DC007B6800229A6000BF0C37BD4680BC704705
:1018EC0080B483B000AF78607B685B78032B47D8FB
:1018FC0001A252F823F000BF151900084519000881
:10190C0029190008651900087B681A78224B1B7886
:10191C009A4239D17B6802225A7035E07B681A787A
:10192C001D4B1B789A4203D17B6801225A702EE022
:10193C007B6800225A702AE07B681B781A46164B8B
:10194C001B78002B0CBF01230023DBB29A421DD164
:10195C007B6803225A7019E07B681B781A460E4B81
:10196C001B78002B0CBF01230023DBB29A4203D15E
:10197C007B6800225A700AE07B6801225A7006E0EC
:10198C007B6800225A7002E000BF00E000BF00BF7D
:10199C000C37BD4680BC70471004002080B582B067
:1019AC0000AF78607B681B680E4A934216D10E4BD1
:1019BC001B78013BDAB20C4B1A700B4B1B78002BCB
:1019CC0007D10A4A137843F001031370064B2822FF
:1019DC001A7008220649074801F0E2FA00BF0837DE
:1019EC00BD4680BD002C01400B00002028060020C5
:1019FC008C0600201404002080B485B000AF786001
:101A0C000023FB735BE0FB7B314A03F5857352F8D3
:101A1C002320FB7BF97B2E48415C08462C499B011B
:101A2C000344143331F813301946FB7B521A2849FE
:101A3C0003F5857341F82320FB7B254A03F5857359
:101A4C0052F82320FB7B2249043331F8133019461A
:101A5C00FB7B0A441E4903F5857341F82320FA7B6E
:101A6C00FB7BF97B1A48415C08461949043231F872
:101A7C001210174A9B010344143322F81310FB7BFA
:101A8C00134A03F5857352F823309A09FB7B91B204
:101A9C000F4A0C3322F81310FB7B0D4AD25C013237
:101AAC00D1B20B4AD154FB7B094AD25CFB7B02F0CE
:101ABC003F02D1B2064AD154FB7B0133FB73FB7B53
:101ACC00072BA0D900BF00BF1437BD4680BC7047A0
:101ADC008406002080B582B000AF78607B681B68FC
:101AEC00084A934209D1084B1B781846FEF7D4FBE1
:101AFC0001220549054806F0CDFE00BF0837BD465A
:101B0C0080BD00BF00380140300E0020E0050020F1
:101B1C0080B582B000AF0346FB71FB791A464FF4D7
:101B2C008071034802F071FA00BF0837BD4680BDD2
:101B3C000008014080B483B000AF0346FB71094B31
:101B4C001B681B6803F08003802B04D1064AFB79C9
:101B5C005360012300E0002318460C37BD4680BCBF
:101B6C00704700BFE00500200038014080B582B00E
:101B7C0000AF0346FB71FB7919460348FFF7DAFD0A
:101B8C0000BF0837BD4680BD6006002080B483B01E
:101B9C0000AF0346FB7197F90730072B22D801A23F
:101BAC0052F823F0E91B0008F11B0008F11B000898
:101BBC00D11B0008F11B0008E11B0008F11B0008F9
:101BCC00D91B00080A4B0B4A1A600BE0084B0A4A57
:101BDC001A6007E0064B074A1A6003E0044B074AF9
:101BEC001A6000BF00BF0C37BD4680BC704700BFF9
:101BFC0010000020A0A0A0F0AAF0AAF000F0A0F025
:101C0C0080B584B000AF78600B46FB700023FB738B
:101C1C007868FFF7DBFD03467B737B7BE03B132B84
:101C2C0064D801A252F823F0851C0008F91C0008A6
:101C3C00F91C0008F91C0008F91C0008F91C000824
:101C4C00F91C0008F91C0008F91C0008F91C000814
:101C5C00F91C0008F91C0008F91C0008F91C000804
:101C6C00F91C0008F91C00089B1C0008F91C000852
:101C7C00A91C0008E91C0008FEF7F6FA034610221E
:101C8C0019467868FFF781FC1123FB732FE00D21B7
:101C9C007868FFF7ABFC0223FB7328E00023BB73CF
:101CAC0016E0BB7B184A0C3332F813301A46174B2C
:101CBC001A60164B1B7819467868FFF797FC134B84
:101CCC005B7819467868FFF791FCBB7B0133BB73DB
:101CDC00BB7B072BE5D91123FB7308E00C220C49C5
:101CEC007868FFF752FC0D23FB7300E000BFFB7B11
:101CFC00002B05D0FA7B7B7B19467868FFF798FCA4
:101D0C0000BF1037BD4680BD840600202C06002085
:101D1C00A40B002080B500AF0C4A13786FF30003BE
:101D2C0013700B4B1B78002B05D0094B1B78013B18
:101D3C00DAB2074B1A70FEF7B9FB0648FFF79EFDA7
:101D4C000548FFF79BFD00BF80BD00BF28060020A3
:101D5C000C000020600600203C06002080B500AF7F
:101D6C001E4B0A221A701E4B1A681E4B1B6813401E
:101D7C00002B06D000224FF400511B4802F045F90D
:101D8C0005E001224FF40051174802F03EF9144BC4
:101D9C001B685B08124A1360114B1B68002B03D1A4
:101DAC000F4B4FF000421A60104B1B78002B05D0E4
:101DBC000E4B1B78013BDAB20C4B1A700C4B1B7898
:101DCC00002B05D00A4B1B78013BDAB2084B1A707A
:101DDC000848FFF79DFA00BF80BD00BF0C00002033
:101DEC001400002010000020001001400E00002004
:101DFC000D000020B804002080B582B000AF7860E0
:101E0C000B467B807B88DBB21A4679680348FFF768
:101E1C00AFFC00BF0837BD4680BD00BF3C060020AC
:101E2C0080B582B000AF7860174B04221A704FF463
:101E3C008051164802F0D2F803461A46144B1A7019
:101E4C001348FFF74DFD7B685B78012B02D0032B09
:101E5C0007D014E000224FF400510E4802F0D5F8E0
:101E6C000DE00D4B1B780133DAB20B4B1A700A4B99
:101E7C001B78032B02D1084B00221A7000BF00BF45
:101E8C000837BD4680BD00BF0D000020000C01408E
:101E9C008C0B002000100140320E002080B500AFEA
:101EAC00354B5A7D344B9B7D9A4225D0324B9A7DD3
:101EBC00314B5B7DD31ADAB2304B1A702F4B1A7838
:101ECC002D4B1B7D1340DAB22C4B1A702A4B186920
:101EDC00294B5B7D99B2294B1B789AB2264B1B7D03
:101EEC009BB201339BB2FEF7F7F90346092B03D1E2
:101EFC00214B9A7D204B5A75214B5A7D204B9B7D53
:101F0C009A4237D01E4B5A7D1D4B9B7D9A4208D26C
:101F1C001B4B9A7D1A4B5B7DD31ADAB2174B1A7096
:101F2C0009E0174B1A7D164B5B7DD31ADBB20133DC
:101F3C00DAB2124B1A70124B1B69114A527D1344C0
:101F4C000E4A127892B2114618460BF00DFA03465F
:101F5C00002B0FD10A4B5A7D084B1B781344DAB275
:101F6C00074B5A75064B5A7D054B1B7D1340DAB255
:101F7C00034B5A7500BF80BD600600202C06002064
:101F8C003C060020B0B487B000AF0F4B3C461D465A
:101F9C000FCD0FC42B6823600023FB750AE0FA7D7C
:101FAC00FB7D18323A4412F8181C084AD154FB7DB8
:101FBC000133FB75FB7D132BF1D900BF00BF1C3720
:101FCC00BD46B0BC704700BFECDD0008CC0A002059
:101FDC0080B500AF00F086FE4FF47A7000F0E4FE9E
:101FEC00524B534A1A60514B524A9A604F4B524AC9
:101FFC005A604E48FEF71EFA5048FEF7A1FA5049B7
:10200C005048FEF7A5F847F2305247F230514E488F
:10201C00FEF7D4F84D4B4E4A9A614C4B0022DA61D4
:10202C004A4B4C4A1A60494B7F221A71474B4A4A19
:10203C001A61464B7F221A754448FFF787FA474BC3
:10204C00434A9A61454B0022DA61444B444A1A6078
:10205C00424B7F221A71414B424A1A613F4BFF227D
:10206C001A753E48FFF772FA3F48FFF721FCFFF75D
:10207C0089FF00F08DF800F011FB00F0E9FA00F098
:10208C00F3F900F0BBFA0BF049F800F0DFF800F0C0
:10209C007FF900F039FA00F0B9F934480BF08AF9FD
:1020AC0001223349334806F0F5FB334805F05AFD5D
:1020BC003248FFF7E1F8324B1B78002B14D10D217D
:1020CC002248FFF793FA0222F0212048FFF7B0FADA
:1020DC000D212248FFF78AFA0222F0211F48FFF750
:1020EC00A7FA274B32221A70264B1B78002B02D1F1
:1020FC001D48FFF795FE244B1B78002B01D1FFF7F1
:10210C002DFE224B1B7803F00103DBB2002B01D018
:10211C00FFF700FEFFF7C2FEFEF7F8F90B48FFF7DA
:10212C0077FB0E48FFF774FBC5E700BF30060020B5
:10213C001D1B0008791B0008411B0008991B000897
:10214C0000DE000810DE000828DE00086006002013
:10215C000D1C0008300D0020B00D00203C060020A6
:10216C00B00B0020300C00208C0B0020051E00084A
:10217C00300E0020E005002050050020B80400209F
:10218C000E0000200D0000200C000020280600206E
:10219C0080B594B000AF07F128032822002118461F
:1021AC000BF02AFD07F1140300221A605A609A60A2
:1021BC00DA601A613B1D00221A605A609A60DA607C
:1021CC000123BB624FF48033FB6200233B6301238A
:1021DC00BB6302237B644FF48033BB644FF4E01386
:1021EC00FB6407F12803184604F0A6FF0346002BF6
:1021FC0001D000F0F1FA0F237B610223BB610023B5
:10220C00FB614FF480633B6200237B6207F1140394
:10221C000221184605F012FA0346002B01D000F0FB
:10222C00DBFA12237B604FF40043FB6000233B611D
:10223C003B1D184605F090FB0346002B01D000F027
:10224C00CBFA00BF5037BD4680BD000080B584B0CE
:10225C0000AF3B1D00221A605A609A604A4B4B4AF1
:10226C001A60494B4FF480729A60474B00221A73E4
:10227C00454B00221A75444B4FF46022DA61424BF5
:10228C0000225A60404B08221A613F4800F0B0FD12
:10229C000346002B01D000F09FFA00237B60012342
:1022AC00BB600223FB603B1D1946374800F068FFFA
:1022BC000346002B01D000F08FFA01237B60022330
:1022CC00BB603B1D1946304800F05AFF0346002BFB
:1022DC0001D000F081FA02237B600323BB603B1D1D
:1022EC001946294800F04CFF0346002B01D000F0A2
:1022FC0073FA03237B600423BB603B1D1946224801
:10230C0000F03EFF0346002B01D000F065FA0423D9
:10231C007B600523BB603B1D19461B4800F030FF5A
:10232C000346002B01D000F057FA05237B600623EF
:10233C00BB603B1D1946144800F022FF0346002BDE
:10234C0001D000F049FA06237B600723BB603B1DDC
:10235C0019460D4800F014FF0346002B01D000F085
:10236C003BFA07237B600823BB603B1D19460648DC
:10237C0000F006FF0346002B01D000F02DFA00BF41
:10238C001037BD4680BD00BF14040020002401405E
:10239C0080B584B000AF3B1D00221A605A609A6071
:1023AC00184B194A1A60174B00229A60154B0022E1
:1023BC001A73144B00221A75124B4FF46022DA6117
:1023CC00104B00225A600F4B01221A610D4800F08D
:1023DC000FFD0346002B01D000F0FEF902237B60B9
:1023EC000123BB600023FB603B1D1946054800F030
:1023FC00C7FE0346002B01D000F0EEF900BF1037EA
:10240C00BD4680BD440400200028014080B500AFCB
:10241C00124B134A1A60114B124A5A600F4B00228E
:10242C009A600E4B0022DA600C4B4FF480421A611A
:10243C000A4B00225A61094B00229A61074B002279
:10244C00DA61064B00221A62044801F0F7FD0346DC
:10245C00002B01D000F0C0F900BF80BDB8040020F3
:10246C0000580040A086010080B586B000AF07F18F
:10247C00080300221A605A609A60DA603B46002218
:10248C001A605A601E4B1F4A1A601D4B47225A6035
:10249C001B4B00229A601A4BFA22DA60184B00226E
:1024AC001A61174B00225A61154B00229A6114488D
:1024BC0005F008FB0346002B01D000F08DF94FF41A
:1024CC008053BB6007F1080319460D4805F0B6FDB3
:1024DC000346002B01D000F07FF900233B60002362
:1024EC007B603B461946064806F014F90346002B60
:1024FC0001D000F071F900BF1837BD4680BD00BF98
:10250C0050050020002C014080B58AB000AF07F1C7
:10251C00200300221A605A603B1D00221A605A6088
:10252C009A60DA601A615A619A61324B324A1A60C7
:10253C00304B00225A602F4B00229A602D4B4FF6E5
:10254C00FF72DA602B4B00221A612A4B00229A612F
:10255C00284805F059FB0346002B01D000F03CF94C
:10256C0000233B6200237B6207F1200319462148BC
:10257C0006F0D0F80346002B01D000F02DF96023B3
:10258C007B600023BB600023FB6000237B613B1D51
:10259C0000221946174805F08FFC0346002B01D08A
:1025AC0000F01AF93B1D04221946124805F084FC70
:1025BC000346002B01D000F00FF93B1D08221946F1
:1025CC000C4805F079FC0346002B01D000F004F90F
:1025DC003B1D0C221946074805F06EFC0346002BE8
:1025EC0001D000F0F9F8034800F06EFA00BF28376C
:1025FC00BD4680BD980500200008004080B500AFA6
:10260C00114B124A1A60104B4FF4E1325A600E4BC8
:10261C0000229A600C4B0022DA600B4B00221A61EC
:10262C00094B0C225A61084B00229A61064B00227E
:10263C00DA61054806F0DEF80346002B01D000F005
:10264C00CBF800BF80BD00BFE00500200038014082
:10265C0080B582B000AF104B5B690F4A43F00103A9
:10266C0053610D4B5B6903F001037B607B680022B7
:10267C0000210B2001F055F80B2001F06EF8002220
:10268C0000210F2001F04DF80F2001F066F800BF7B
:10269C000837BD4680BD00BF0010024080B58AB02F
:1026AC0000AF07F1140300221A605A609A60DA60D6
:1026BC00444B9B69434A43F010039361414B9B6924
:1026CC0003F010033B613B693E4B9B693D4A43F071
:1026DC00200393613B4B9B6903F02003FB60FB6879
:1026EC00384B9B69374A43F004039361354B9B6924
:1026FC0003F00403BB60BB68324B9B69314A43F067
:10270C00080393612F4B9B6903F008037B607B6884
:10271C0001224FF400512C4801F077FC00224FF4B9
:10272C0080712A4801F071FC4FF400537B61012346
:10273C00BB610023FB6102233B6207F114031946C2
:10274C00214801F0C7FA4FF480537B610023BB6131
:10275C000123FB6107F1140319461D4801F0BAFA75
:10276C004FF480737B610123BB610023FB61022367
:10277C003B6207F114031946144801F0ABFA3023FD
:10278C007B610223BB6102233B6207F114031946F0
:10279C000F4801F09FFA0F4B5B687B627B6A23F456
:1027AC0040637B627B6A43F0E0637B627B6A43F449
:1027BC0000637B62074A7B6A536000BF2837BD46C3
:1027CC0080BD00BF00100240001001400008014015
:1027DC00000C01400000014080B400AF72B600BF95
:1027EC00FEE7000080B485B000AF154B9B69144A1E
:1027FC0043F001039361124B9B6903F00103BB602F
:10280C00BB680F4BDB690E4A43F08053D3610C4B12
:10281C00DB6903F080537B607B680A4B5B68FB6071
:10282C00FB6823F0E063FB60FB6843F00073FB6024
:10283C00044AFB68536000BF1437BD4680BC704728
:10284C00001002400000014080B58AB000AF7860F3
:10285C0007F1180300221A605A609A60DA607B68EC
:10286C001B683C4A93424AD13B4B9B693A4A43F41E
:10287C0000739361384B9B6903F400737B617B6934
:10288C00354B9B69344A43F004039361324B9B698B
:10289C0003F004033B613B69FF23BB610323FB6132
:1028AC0007F1180319462D4801F014FA2C4B2D4A48
:1028BC001A602B4B00225A60294B00229A60284B3D
:1028CC008022DA60264B4FF480721A61244B4FF44D
:1028DC0080625A61224B00229A61214B0022DA61FC
:1028EC001F4800F055FF0346002B01D0FFF774FF83
:1028FC007B681B4A1A621A4A7B68536226E07B6823
:10290C001B68194A934221D1134B9B69124A43F419
:10291C0080639361104B9B6903F48063FB60FB68DD
:10292C000D4B9B690C4A43F0040393610A4B9B6962
:10293C0003F00403BB60BB680423BB610323FB618E
:10294C0007F118031946054801F0C4F900BF2837F0
:10295C00BD4680BD0024014000100240000801402B
:10296C0074040020080002400028014080B588B0A3
:10297C0000AF786007F1100300221A605A609A6069
:10298C00DA607B681B68294A93424BD1284B9B69C0
:10299C00274A43F008039361254B9B6903F0080316
:1029AC00FB60FB684FF440633B6112237B610323A4
:1029BC00FB6107F1100319461E4801F08BF91C4B03
:1029CC00DB691B4A43F48003D361194BDB6903F4C5
:1029DC008003BB60BB68184B184A1A60164B002268
:1029EC005A60154B00229A60134B8022DA60124B0E
:1029FC004FF400721A61104B00225A610E4B0022E8
:102A0C009A610D4B0022DA610B4800F0C1FE0346BF
:102A1C00002B01D0FFF7E0FE7B68074A9A63064A59
:102A2C007B68536200BF2037BD4680BD0058004014
:102A3C0000100240000C01400C0500205800024020
:102A4C0080B584B000AF78607B681B680D4A9342F8
:102A5C0013D10D4B9B690C4A43F4006393610A4BF1
:102A6C009B6903F40063FB60FB68002200211920C2
:102A7C0000F057FE192000F070FE00BF1037BD4665
:102A8C0080BD00BF002C01400010024080B485B016
:102A9C0000AF78607B681B68094A93420BD1094BE5
:102AAC00DB69084A43F00403D361064BDB6903F08E
:102ABC000403FB60FB6800BF1437BD4680BC704745
:102ACC00000800400010024080B588B000AF78606C
:102ADC0007F1100300221A605A609A60DA607B6872
:102AEC001B68104A934218D10F4B9B690E4A43F056
:102AFC00080393610C4B9B6903F00803FB60FB68B4
:102B0C004FF470733B6102237B610223FB6107F17D
:102B1C0010031946054801F0DDF800BF2037BD460B
:102B2C0080BD00BF0008004000100240000C0140B6
:102B3C0080B588B000AF786007F1100300221A60EE
:102B4C005A609A60DA607B681B68204A934239D1DC
:102B5C001F4B9B691E4A43F4804393611C4B9B693A
:102B6C0003F48043FB60FB68194B9B69184A43F0E4
:102B7C0004039361164B9B6903F00403BB60BB68B1
:102B8C004FF400733B6102237B610323FB6107F16C
:102B9C00100319460F4801F09DF84FF480633B6118
:102BAC0000237B610023BB6107F110031946094820
:102BBC0001F090F800220021252000F0B2FD252024
:102BCC0000F0CBFD00BF2037BD4680BD0038014072
:102BDC00001002400008014080B400AFFEE780B452
:102BEC0000AFFEE780B400AFFEE780B400AFFEE7B5
:102BFC0080B400AFFEE780B400AF00BFBD4680BC20
:102C0C00704780B400AF00BFBD4680BC704780B435
:102C1C0000AF00BFBD4680BC704780B500AF00F070
:102C2C00A7F800BF80BD000080B500AF024800F0DF
:102C3C001DFF00BF80BD00BF7404002080B500AF35
:102C4C00024800F013FF00BF80BD00BF0C05002040
:102C5C0080B500AF024802F025FE00BF80BD00BF6A
:102C6C000C15002080B500AF024805F01CF800BF21
:102C7C0080BD00BF5005002080B500AF024805F0B4
:102C8C002FFE00BF80BD00BFE005002080B400AF68
:102C9C0000BFBD4680BC7047FFF7F8FF0B480C49DE
:102CAC000C4A002302E0D458C4500433C4188C429C
:102CBC00F9D3094A094C002301E013600432A24203
:102CCC00FBD30AF0B5FFFFF783F970470000002033
:102CDC0094010020A4E00008940100201C1A00209C
:102CEC00FEE7000080B500AF084B1B68074A43F0B5
:102CFC0010031360032000F009FD0F2000F008F80A
:102D0C00FFF770FD0023184680BD00BF0020024075
:102D1C0080B582B000AF7860124B1A68124B1B78EA
:102D2C0019464FF47A73B3FBF1F3B2FBF3F3184685
:102D3C0000F021FD0346002B01D001230EE07B683F
:102D4C000F2B0AD8002279684FF0FF3000F0E9FC15
:102D5C00064A7B681360002300E0012318460837FD
:102D6C00BD4680BD18000020200000201C00002063
:102D7C0080B400AF054B1B781A46054B1B681344F7
:102D8C00034A136000BFBD4680BC70472000002082
:102D9C00340E002080B400AF024B1B681846BD46B1
:102DAC0080BC7047340E002080B584B000AF7860D2
:102DBC00FFF7F0FFB8607B68FB60FB68B3F1FF3F87
:102DCC0005D00A4B1B781A46FB681344FB6000BF06
:102DDC00FFF7E0FF0246BB68D31AFA689A42F7D8AD
:102DEC0000BF00BF1037BD4680BD00BF20000020D3
:102DFC0080B586B000AF78600023FB7500233B6183
:102E0C000023BB600023FB607B68002B01D10123F6
:102E1C00BEE07B689B68002B7B689B6A002B09D10A
:102E2C007B680022DA627B68002283F824207868B1
:102E3C00FFF70AFD786800F0F5FA0346FB757B682E
:102E4C009B6A03F01003002B40F09980FB7D002B54
:102E5C0040F095807B689B6A23F4885323F002032F
:102E6C0043F002027B689A627B685A687B68DB6974
:102E7C001A437B681B7B5B001343BA681343BB602C
:102E8C007B689B68B3F5807F03D07B689B68012BC4
:102E9C0002D14FF4807300E000233A6913433B6185
:102EAC007B681B7D012B19D17B681B7B002B09D107
:102EBC007B689B69013B5A033B69134343F40063F2
:102ECC003B610BE07B689B6A43F020027B689A6253
:102EDC007B68DB6A43F001027B68DA627B681B6803
:102EEC005B6823F469417B681B683A690A435A6042
:102EFC007B681B689A68284B13407A681268B9681B
:102F0C000B4393607B689B68B3F5807F03D07B6831
:102F1C009B68012B04D17B681B69013B1B05FB6083
:102F2C007B681B68DB6A23F470017B681B68FA689A
:102F3C000A43DA627B681B689A68184B1340BA68BC
:102F4C009A420BD17B680022DA627B689B6A23F081
:102F5C00030343F001027B689A6218E07B689B6A6A
:102F6C0023F0120343F010027B689A627B68DB6AE1
:102F7C0043F001027B68DA620123FB7507E07B6892
:102F8C009B6A43F010027B689A620123FB75FB7D00
:102F9C0018461837BD4680BDFDF7E1FFFE0E1FFF3A
:102FAC0080B586B000AFF860B9607A600023FB751D
:102FBC00FB681B68644A934204D0FB681B68634A35
:102FCC00934206D1604B5B6803F47023002B40F0F6
:102FDC00B380FB6893F82430012B01D10223AEE0BF
:102FEC00FB68012283F82420F86800F0C1F903463D
:102FFC00FB75FB7D002B40F09A80FB689B6A23F4E9
:10300C00706323F0010343F48072FB689A62FB68DF
:10301C001B684E4A934205D14B4B5B6803F47023FB
:10302C00002B15D1FB689B6A23F48012FB689A6213
:10303C00FB681B685B6803F48063002B26D0FB687D
:10304C009B6A23F4405343F48052FB689A621DE060
:10305C00FB689B6A43F48012FB689A62FB681B68EE
:10306C00394A934204D0FB681B68384A93420DD10D
:10307C00354B5B6803F48063002B07D0FB689B6ABD
:10308C0023F4405343F48052FB689A62FB689B6ABA
:10309C0003F48053002B06D0FB68DB6A23F0060296
:1030AC00FB68DA6202E0FB680022DA62FB6800224D
:1030BC0083F82420FB681B6A254A9A62FB681B6A0A
:1030CC00244ADA62FB681B6A234A1A63FB681B6892
:1030DC006FF002021A60FB681B689A68FB681B6839
:1030EC0042F480729A60FB68186AFB681B684C3368
:1030FC001946BA687B6800F0A5FBFB681B689B68E7
:10310C0003F46023B3F5602F08D1FB681B689A6841
:10311C00FB681B6842F4A0029A600FE0FB681B6816
:10312C009A68FB681B6842F480129A6006E0FB68A0
:10313C00002283F8242001E00123FB75FB7D184657
:10314C001837BD4680BD00BF002401400028014057
:10315C00B33400082F3500084B35000880B483B019
:10316C0000AF786000BF0C37BD4680BC704780B4A0
:10317C0083B000AF786000BF0C37BD4680BC704791
:10318C0080B485B000AF786039600023FB730023F6
:10319C00BB607B6893F82430012B01D10223DCE067
:1031AC007B68012283F824203B685B68062B1CD8C3
:1031BC007B681B68596B3B685A6813469B00134429
:1031CC00053B1F2202FA03F3DB4319403B681868E6
:1031DC003B685A6813469B001344053B00FA03F204
:1031EC007B681B680A435A633CE03B685B680C2BAA
:1031FC001CD87B681B68196B3B685A6813469B008C
:10320C001344233B1F2202FA03F3DB4319403B68B0
:10321C0018683B685A6813469B001344233B00FA1A
:10322C0003F27B681B680A431A631BE07B681B680C
:10323C00D96A3B685A6813469B001344413B1F22D2
:10324C0002FA03F3DB4319403B6818683B685A6881
:10325C0013469B001344413B00FA03F27B681B6846
:10326C000A43DA623B681B68092B1CD97B681B6814
:10327C00D9683B681A6813465B0013441E3B07224F
:10328C0002FA03F3DB4319403B6898683B681A6801
:10329C0013465B0013441E3B00FA03F27B681B6869
:1032AC000A43DA6019E07B681B6819693B681A6885
:1032BC0013465B001344072202FA03F3DB43194065
:1032CC003B6898683B681A6813465B00134400FA25
:1032DC0003F27B681B680A431A613B681B68102B5E
:1032EC0003D03B681B68112B32D17B681B681D4ACD
:1032FC00934225D17B681B689B6803F40003002B69
:10330C0026D17B681B689A687B681B6842F40002B4
:10331C009A603B681B68102B1AD1134B1B68134A1D
:10332C00A2FB03239A0C13469B0013445B00BB6067
:10333C0002E0BB68013BBB60BB68002BF9D107E026
:10334C007B689B6A43F020027B689A620123FB73C3
:10335C007B68002283F82420FB7B18461437BD467B
:10336C0080BC7047002401401800002083DE1B4302
:10337C0080B584B000AF78600023FB600023BB6095
:10338C007B681B689B6803F00103012B40D07B68B2
:10339C001B689A687B681B6842F001029A601F4B9D
:1033AC001B681F4AA2FB03239B0CBB6002E0BB689B
:1033BC00013BBB60BB68002BF9D1FFF7EBFCF8605D
:1033CC001FE0FFF7E7FC0246FB68D31A022B18D963
:1033DC007B681B689B6803F00103012B11D07B6891
:1033EC009B6A43F010027B689A627B68DB6A43F04D
:1033FC0001027B68DA627B68002283F824200123B7
:10340C0007E07B681B689B6803F00103012BD8D194
:10341C00002318461037BD4680BD00BF18000020A1
:10342C0083DE1B4380B584B000AF78600023FB6063
:10343C007B681B689B6803F00103012B2ED17B6812
:10344C001B689A687B681B6822F001029A60FFF780
:10345C00A1FCF8601BE0FFF79DFC0246FB68D31A49
:10346C00022B14D97B681B689B6803F00103012BAA
:10347C000DD17B689B6A43F010027B689A627B6873
:10348C00DB6A43F001027B68DA62012307E07B68A8
:10349C001B689B6803F00103012BDCD0002318464A
:1034AC001037BD4680BD80B584B000AF78607B68B6
:1034BC005B6AFB60FB689B6A03F05003002B27D10F
:1034CC00FB689B6A43F40072FB689A62FB681B689A
:1034DC009B6803F46023B3F5602F15D1FB681B7B4D
:1034EC00002B11D1FB689B6A23F48072FB689A62F3
:1034FC00FB689B6A03F48053002B05D1FB689B6A25
:10350C0043F00102FB689A62F868FEF775FA04E072
:10351C00FB681B6A1B6B7868984700BF1037BD4669
:10352C0080BD80B584B000AF78607B685B6AFB605F
:10353C00F868FFF713FE00BF1037BD4680BD80B59D
:10354C0084B000AF78607B685B6AFB60FB689B6A49
:10355C0043F04002FB689A62FB68DB6A43F00402AA
:10356C00FB68DA62F868FFF702FE00BF1037BD4651
:10357C0080BD000080B485B000AF78607B6803F03C
:10358C000703FB600C4BDB68BB60BA684FF6FF03AC
:10359C001340BB60FB681A02BB68134343F0BF6364
:1035AC0043F40033BB60044ABB68D36000BF1437DC
:1035BC00BD4680BC704700BF00ED00E080B400AF9A
:1035CC00044BDB681B0A03F007031846BD4680BC9E
:1035DC00704700BF00ED00E080B483B000AF03463D
:1035EC00FB7197F90730002B0BDBFB7903F01F0203
:1035FC00064997F907305B09012000FA02F241F8FD
:10360C00232000BF0C37BD4680BC704700E100E0B2
:10361C0080B483B000AF03463960FB7197F9073073
:10362C00002B0ADB3B68DAB20C4997F90730120120
:10363C00D2B20B4483F800230AE03B68DAB20849A3
:10364C00FB7903F00F03043B1201D2B20B441A7640
:10365C0000BF0C37BD4680BC704700BF00E100E0E6
:10366C0000ED00E080B489B000AFF860B9607A601A
:10367C00FB6803F00703FB61FB69C3F10703042B31
:10368C0028BF0423BB61FB690433062B02D9FB69F9
:10369C00033B00E000237B614FF0FF32BB6902FA71
:1036AC0003F3DA43BB681A407B699A404FF0FF3151
:1036BC007B6901FA03F3D9437B680B40134318462B
:1036CC002437BD4680BC704780B582B000AF7860AF
:1036DC007B68013BB3F1807F01D301230FE00A4AE1
:1036EC007B68013B53600F214FF0FF30FFF790FFD9
:1036FC00054B00229A60044B07221A6000231846DF
:10370C000837BD4680BD00BF10E000E080B582B038
:10371C0000AF78607868FFF72DFF00BF0837BD4613
:10372C0080BD80B586B000AF0346B9607A60FB738C
:10373C0000237B61FFF742FF78617A68B96878698A
:10374C00FFF790FF024697F90F3011461846FFF726
:10375C005FFF00BF1837BD4680BD80B582B000AF9B
:10376C000346FB7197F907301846FFF735FF00BF8A
:10377C000837BD4680BD80B582B000AF78607868F0
:10378C00FFF7A2FF034618460837BD4680BD000070
:10379C0080B485B000AF78600023FB607B68002BA1
:1037AC0001D1012343E07B681B681A46224B13446A
:1037BC00224AA2FB03231B099A007B681A647B68CC
:1037CC001F4ADA637B68022283F821207B681B681E
:1037DC001B68FB60FB6823F47F5323F03003FB6012
:1037EC007B685A687B689B681A437B68DB681A4362
:1037FC007B681B691A437B685B691A437B689B690E
:10380C001A437B68DB691343FA681343FB607B68DC
:10381C001B68FA681A607B6800229A637B68012235
:10382C0083F821207B68002283F82020002318468F
:10383C001437BD4680BC7047F8FFFDBFCDCCCCCC57
:10384C000000024080B586B000AFF860B9607A60C5
:10385C003B600023FB75FB6893F82030012B01D1F2
:10386C0002234BE0FB68012283F82020FB6893F8CD
:10387C002130DBB2012B3AD1FB68022283F82120E4
:10388C00FB6800229A63FB681B681A68FB681B685C
:10389C0022F001021A603B687A68B968F86800F097
:1038AC00EBF9FB68DB6A002B08D0FB681B681A6815
:1038BC00FB681B6842F00E021A600FE0FB681B6885
:1038CC001A68FB681B6822F004021A60FB681B680C
:1038DC001A68FB681B6842F00A021A60FB681B68D6
:1038EC001A68FB681B6842F001021A6005E0FB686D
:1038FC00002283F820200223FB75FB7D1846183725
:10390C00BD4680BD80B485B000AF78600023FB73EA
:10391C007B6893F82130DBB2022B08D07B68042241
:10392C009A637B68002283F82020012320E07B68C7
:10393C001B681A687B681B6822F00E021A607B6891
:10394C001B681A687B681B6822F001021A607B688E
:10395C001A6C7B68DB6B012101FA02F25A607B68FE
:10396C00012283F821207B68002283F82020FB7B36
:10397C0018461437BD4680BC7047000080B584B033
:10398C0000AF78600023FB737B6893F82130DBB2C7
:10399C00022B05D07B6804229A630123FB7351E050
:1039AC007B681B681A687B681B6822F00E021A6021
:1039BC007B681B681A687B681B6822F001021A601E
:1039CC007B681B68224A934229D07B681B68214A7A
:1039DC00934222D07B681B681F4A93421AD07B68A3
:1039EC001B681E4A934212D07B681B681C4A934288
:1039FC000AD07B681B681B4A934202D14FF4801398
:103A0C000EE04FF080730BE04FF4803308E04FF47E
:103A1C00805305E04FF4807302E0102300E0012393
:103A2C00114A53607B68012283F821207B680022B5
:103A3C0083F820207B685B6B002B03D07B685B6B6F
:103A4C0078689847FB7B18461037BD4680BD00BF91
:103A5C00080002401C0002403000024044000240BA
:103A6C00580002406C0002400000024080B584B057
:103A7C0000AF78607B68DB6B1B68FB607B681B6846
:103A8C001B68BB607B681B6C04229A40FB6813406C
:103A9C00002B4FD0BB6803F00403002B4AD07B688B
:103AAC001B681B6803F02003002B07D17B681B6885
:103ABC001A687B681B6822F004021A607B681B681A
:103ACC00664A934229D07B681B68654A934222D090
:103ADC007B681B68634A93421AD07B681B68624AF6
:103AEC00934212D07B681B68604A93420AD07B6871
:103AFC001B685F4A934202D14FF480030EE04FF0F3
:103B0C0080630BE04FF4802308E04FF4804305E022
:103B1C004FF4806302E0402300E00423554A5360D5
:103B2C007B68DB6A002B00F094807B68DB6A78682A
:103B3C0098478EE07B681B6C02229A40FB6813400E
:103B4C00002B56D0BB6803F00203002B51D07B68CE
:103B5C001B681B6803F02003002B0BD17B681B68D0
:103B6C001A687B681B6822F00A021A607B680122C3
:103B7C0083F821207B681B68384A934229D07B68E4
:103B8C001B68374A934222D07B681B68354A9342A4
:103B9C001AD07B681B68344A934212D07B681B682E
:103BAC00324A93420AD07B681B68314A934202D155
:103BBC004FF400130EE04FF000730BE04FF40033A2
:103BCC0008E04FF4005305E04FF4007302E02023AB
:103BDC0000E00223274A53607B68002283F82020F0
:103BEC007B689B6A002B34D07B689B6A786898470B
:103BFC002FE07B681B6C08229A40FB681340002B5B
:103C0C0028D0BB6803F00803002B23D07B681B680B
:103C1C001A687B681B6822F00E021A607B681A6CAB
:103C2C007B68DB6B012101FA02F25A607B6801228E
:103C3C009A637B68012283F821207B68002283F839
:103C4C0020207B681B6B002B04D07B681B6B786877
:103C5C00984700BF00BF1037BD4680BD080002402A
:103C6C001C00024030000240440002405800024058
:103C7C006C0002400000024080B485B000AFF860D8
:103C8C00B9607A603B60FB681A6CFB68DB6B0121E6
:103C9C0001FA02F25A60FB681B683A685A60FB68CA
:103CAC005B68102B08D1FB681B687A689A60FB680C
:103CBC001B68BA68DA6007E0FB681B68BA689A6030
:103CCC00FB681B687A68DA6000BF1437BD4680BC9D
:103CDC007047000080B48BB000AF7860396000236F
:103CEC007B6200233B6269E101227B6A02FA03F3E7
:103CFC00FB613B681B68FA691340BB61BA69FB69DD
:103D0C009A4240F058813B685B689A4A93425ED075
:103D1C00984A934275D8984A934258D0964A9342FF
:103D2C006FD8964A934252D0944A934269D8944A97
:103D3C0093424CD0924A934263D8924A934246D0D3
:103D4C00904A93425DD8122B2AD8122B59D801A233
:103D5C0052F823F0DB3D0008B53D0008C73D0008D4
:103D6C00093E00080F3E00080F3E00080F3E0008F9
:103D7C000F3E00080F3E00080F3E00080F3E0008E3
:103D8C000F3E00080F3E00080F3E00080F3E0008D3
:103D9C000F3E00080F3E0008BD3D0008D13D000855
:103DAC00794A934213D02CE03B68DB683B6229E0F4
:103DBC003B68DB6804333B6224E03B68DB68083318
:103DCC003B621FE03B68DB680C333B621AE03B68EC
:103DDC009B68002B02D104233B6213E03B689B6879
:103DEC00012B05D108233B627B68FA691A6109E053
:103DFC0008233B627B68FA695A6103E000233B624B
:103E0C0000E000BFBB69FF2B01D87B6801E07B6839
:103E1C0004337B61BB69FF2B02D87B6A9B0002E0F9
:103E2C007B6A083B9B003B617B691A680F213B69ED
:103E3C0001FA03F3DB431A40396A3B6901FA03F3D5
:103E4C001A437B691A603B685B6803F08053002B54
:103E5C0000F0B1804D4B9B694C4A43F001039361D8
:103E6C004A4B9B6903F00103BB60BB68484A7B6A01
:103E7C009B08023352F82330FB607B6A03F0030388
:103E8C009B000F2202FA03F3DB43FA681340FB603A
:103E9C007B68404A934213D07B683F4A93420DD0D3
:103EAC007B683E4A934207D07B683D4A934201D1DE
:103EBC00032306E0042304E0022302E0012300E0D4
:103ECC0000237A6A02F0030292009340FA681343CB
:103EDC00FB602F497B6A9B080233FA6841F8232068
:103EEC003B685B6803F48013002B06D02D4B9A685B
:103EFC002C49BB6913438B6006E02A4B9A68BB695B
:103F0C00DB43284913408B603B685B6803F4001368
:103F1C00002B06D0234BDA682249BB691343CB60D4
:103F2C0006E0204BDA68BB69DB431E491340CB60CB
:103F3C003B685B6803F40033002B06D0194B5A68BE
:103F4C001849BB6913434B6006E0164B5A68BB69B2
:103F5C00DB43144913404B603B685B6803F48033CC
:103F6C00002B21D00F4B1A680E49BB6913430B6011
:103F7C0021E000BF000032100000311000002210C0
:103F8C00000021100000121000001110001002405F
:103F9C000000014000080140000C014000100140ED
:103FAC0000140140000401400B4B1A68BB69DB4351
:103FBC00094913400B607B6A01337B623B681A68CA
:103FCC007B6A22FA03F3002B7FF48EAE00BF00BF96
:103FDC002C37BD4680BC70470004014080B485B0CE
:103FEC0000AF78600B467B807B689A687B881340B7
:103FFC00002B02D00123FB7301E00023FB73FB7B3E
:10400C0018461437BD4680BC704780B483B000AFEF
:10401C0078600B467B8013467B707B78002B03D03B
:10402C007A887B681A6103E07B881A047B681A61C2
:10403C0000BF0C37BD4680BC7047000080B584B013
:10404C0000AF78607B68002B01D101232BE17B68EA
:10405C0093F83D30DBB2002B06D17B68002283F84D
:10406C003C207868FEF782FC7B68242283F83D2094
:10407C007B681B681A687B681B6822F001021A6057
:10408C007B681B681A687B681B6842F400421A60E4
:10409C007B681B681A687B681B6822F400421A60F4
:1040AC0003F014FCF8607B685B68814A934207D884
:1040BC00FB68804A934294BF01230023DBB206E0E5
:1040CC00FB687D4A934294BF01230023DBB2002B93
:1040DC0001D00123E7E0FB68784AA2FB03239B0C89
:1040EC00BB607B681B685B6823F03F017B681B68C7
:1040FC00BA680A435A607B681B681B6A23F03F014D
:10410C007B685B686A4A934202D8BB68013309E05A
:10411C00BB684FF4967202FB03F3694AA2FB0323BC
:10412C009B0901337A6812680B4313627B681B6826
:10413C00DB6923F44F4222F0FF027B685B685C4929
:10414C008B4219D8FB68591E7B685B685B00B1FB1E
:10415C00F3F3591C40F6FC730B40002B0AD0FB68A0
:10416C00591E7B685B685B00B1FBF3F30133C3F34F
:10417C000B0351E004234FE07B689B68002B11D1AB
:10418C00FB68581E7B6859680B465B000B44B0FB00
:10419C00F3F30133C3F30B03002B0CBF01230023F8
:1041AC00DBB212E0FB68581E7B6859680B469B001B
:1041BC000B4499000B44B0FBF3F30133C3F30B0333
:1041CC00002B0CBF01230023DBB2002B01D00123F9
:1041DC0022E07B689B68002B0ED1FB68581E7B6825
:1041EC0059680B465B000B44B0FBF3F30133C3F38C
:1041FC000B0343F400430FE0FB68581E7B685968BF
:10420C000B469B000B4499000B44B0FBF3F30133BA
:10421C00C3F30B0343F44043796809681343CB6140
:10422C007B681B681B6823F0C0017B68DA697B68BC
:10423C001B6A1A437B681B680A431A607B681B68FD
:10424C009B6823F4034323F0FF037A6811697A68AF
:10425C00D26811437A6812680B4393607B681B68C1
:10426C00DB6823F0FF017B685A697B689B691A4302
:10427C007B681B680A43DA607B681B681A687B687A
:10428C001B6842F001021A607B6800221A647B688A
:10429C00202283F83D207B6800221A637B68002271
:1042AC0083F83E20002318461037BD4680BD00BF62
:1042BC00A08601007F841E00FF083D0083DE1B43A7
:1042CC00D34D621080B588B002AFF8600846114635
:1042DC001A4603467B810B463B811346FB80FEF757
:1042EC0059FD7861FB6893F83D30DBB2202B40F030
:1042FC00D9807B690093192301226D49F86800F07D
:10430C0077FF0346002B01D00223CCE0FB6893F827
:10431C003C30012B01D10223C5E0FB68012283F85C
:10432C003C20FB681B681B6803F00103012B07D0C2
:10433C00FB681B681A68FB681B6842F001021A6074
:10434C00FB681B681A68FB681B6822F400621A6021
:10435C00FB68212283F83D20FB68402283F83E2035
:10436C00FB6800221A64FB683A6A5A62FB68BA8CD2
:10437C005A85FB685B8D9AB2FB681A85FB684D4ABF
:10438C00DA62F8883A8979897B690193BB6A009370
:10439C000346F86800F0A2FC0346002B52D0012320
:1043AC0081E07A69B96AF86801F03CF80346002BA1
:1043BC000DD0FB681B6C042B07D1FB681B681A68BB
:1043CC00FB681B6842F400721A6001236BE0FB6807
:1043DC005B6A1A78FB681B681A61FB685B6A5A1C7B
:1043EC00FB685A62FB681B8D013B9AB2FB681A850D
:1043FC00FB685B8D9BB2013B9AB2FB685A85FB68EC
:10440C001B685B6903F00403042B1BD1FB681B8D39
:10441C00002B17D0FB685B6A1A78FB681B681A6163
:10442C00FB685B6A5A1CFB685A62FB681B8D013B7C
:10443C009AB2FB681A85FB685B8D9BB2013B9AB202
:10444C00FB685A85FB681B8D002BAAD17A69B96A67
:10445C00F86801F02FF80346002B0DD0FB681B6C9D
:10446C00042B07D1FB681B681A68FB681B6842F4B5
:10447C0000721A60012316E0FB681B681A68FB685F
:10448C001B6842F400721A60FB68202283F83D20FE
:10449C00FB68002283F83E20FB68002283F83C2056
:1044AC00002300E0022318461837BD4680BD00BF2C
:1044BC00020010000000FFFF80B58CB002AFF86066
:1044CC00084611461A4603467B810B463B81134630
:1044DC00FB8000233B62FEF75DFC7862FB6893F87F
:1044EC003D30DBB2202B40F044827B6A00931923D1
:1044FC0001228249F86800F07BFE0346002B01D0B4
:10450C00022337E2FB6893F83C30012B01D10223E4
:10451C0030E2FB68012283F83C20FB681B681B68B7
:10452C0003F00103012B07D0FB681B681A68FB68BA
:10453C001B6842F001021A60FB681B681A68FB6872
:10454C001B6822F400621A60FB68222283F83D206B
:10455C00FB68402283F83E20FB6800221A64FB684B
:10456C003A6B5A62FB68BA8E5A85FB685B8D9AB2BD
:10457C00FB681A85FB68624ADA62F8883A8979899D
:10458C007B6A0193BB6B00930346F86800F03CFC1C
:10459C000346002B01D00123ECE1FB681B8D002BA3
:1045AC0013D10023FB61FB681B685B69FB61FB6833
:1045BC001B689B69FB61FB69FB681B681A68FB68DD
:1045CC001B6842F400721A60C0E1FB681B8D012B62
:1045DC001ED1FB681B681A68FB681B6822F480629A
:1045EC001A6072B600BF0023BB61FB681B685B6975
:1045FC00BB61FB681B689B69BB61BB69FB681B6883
:10460C001A68FB681B6842F400721A6062B635E0E7
:10461C00FB681B8D022B1ED1FB681B681A68FB689C
:10462C001B6842F400621A6072B600BF00237B6103
:10463C00FB681B685B697B61FB681B689B697B6122
:10464C007B69FB681B681A68FB681B6822F4806234
:10465C001A6062B612E0FB681B681A68FB681B687C
:10466C0042F480621A6000233B61FB681B685B6943
:10467C003B61FB681B689B693B613B6966E1FB68BE
:10468C001B8D032B00F21F81FB681B8D012B23D18B
:10469C007A6AB96BF86800F055FF0346002B01D01D
:1046AC00012367E1FB681B681A69FB685B6AD2B27D
:1046BC001A70FB685B6A5A1CFB685A62FB681B8D9C
:1046CC00013B9AB2FB681A85FB685B8D9BB2013B80
:1046DC009AB2FB685A8539E1FB681B8D022B52D1CB
:1046EC007B6A0093BB6B00220649F86800F080FDE2
:1046FC000346002B08D001233CE100BF0200100050
:10470C000000FFFF0400010072B600BFFB681B68CD
:10471C001A68FB681B6842F400721A60FB681B681D
:10472C001A69FB685B6AD2B21A70FB685B6A5A1C26
:10473C00FB685A62FB681B8D013B9AB2FB681A85B9
:10474C00FB685B8D9BB2013B9AB2FB685A8562B6E3
:10475C0000BFFB681B681A69FB685B6AD2B21A70EF
:10476C00FB685B6A5A1CFB685A62FB681B8D013B39
:10477C009AB2FB681A85FB685B8D9BB2013B9AB2BF
:10478C00FB685A85E2E07B6A0093BB6B00227B4995
:10479C00F86800F02DFD0346002B01D00123E9E061
:1047AC00FB681B681A68FB681B6822F480621A603D
:1047BC0072B600BFFB681B681A69FB685B6AD2B2F1
:1047CC001A70FB685B6A5A1CFB685A62FB681B8D8B
:1047DC00013B9AB2FB681A85FB685B8D9BB2013B6F
:1047EC009AB2FB685A85664B1B68DB08654AA2FBCC
:1047FC0003231A0A13469B001344DA00D31A3B62B4
:10480C003B6A013B3B623B6A002B18D1FB680022E0
:10481C001A63FB68202283F83D20FB68002283F892
:10482C003E20FB681B6C43F02002FB681A6462B6E6
:10483C0000BFFB68002283F83C2001239AE0FB6850
:10484C001B685B6903F00403042BD9D1FB681B685C
:10485C001A68FB681B6842F400721A60FB681B68DC
:10486C001A69FB685B6AD2B21A70FB685B6A5A1CE5
:10487C00FB685A62FB681B8D013B9AB2FB681A8578
:10488C00FB685B8D9BB2013B9AB2FB685A8562B6A2
:10489C0000BFFB681B681A69FB685B6AD2B21A70AE
:1048AC00FB685B6A5A1CFB685A62FB681B8D013BF8
:1048BC009AB2FB681A85FB685B8D9BB2013B9AB27E
:1048CC00FB685A8542E07A6AB96BF86800F03AFEE8
:1048DC000346002B01D001234CE0FB681B681A69CE
:1048EC00FB685B6AD2B21A70FB685B6A5A1CFB6885
:1048FC005A62FB681B8D013B9AB2FB681A85FB68F8
:10490C005B8D9BB2013B9AB2FB685A85FB681B68B6
:10491C005B6903F00403042B18D1FB681B681A694C
:10492C00FB685B6AD2B21A70FB685B6A5A1CFB6844
:10493C005A62FB681B8D013B9AB2FB681A85FB68B7
:10494C005B8D9BB2013B9AB2FB685A85FB681B8D51
:10495C00002B7FF494AEFB68202283F83D20FB688B
:10496C00002283F83E20FB68002283F83C200023C1
:10497C0000E0022318462837BD4680BD0400010024
:10498C001800002089B5F81480B58CB002AFF8601F
:10499C00084611461A4603467B810B463B8113465B
:1049AC00FB80FEF7F7F978620023FB61FB6893F854
:1049BC003D30DBB2202B40F06881984B1B68DB0844
:1049CC00974AA2FB03231A0A13469B0013449A002E
:1049DC001344FB61FB69013BFB61FB69002B12D1AA
:1049EC00FB6800221A63FB68202283F83D20FB68D9
:1049FC00002283F83E20FB681B6C43F02002FB680E
:104A0C001A64022342E1FB681B689B6903F00203F2
:104A1C00022BDFD0FB6893F83C30012B01D1022331
:104A2C0034E1FB68012283F83C20FB681B681B689F
:104A3C0003F00103012B07D0FB681B681A68FB68A5
:104A4C001B6842F001021A60FB681B681A68FB685D
:104A5C001B6822F400621A60FB68222283F83D2056
:104A6C00FB68402283F83E20FB6800221A64FB6836
:104A7C003A6B5A62FB68BA8E5A85FB685B8D9AB2A8
:104A8C00FB681A85FB68674ADA627A89FB685A64A4
:104A9C003A89FB689A64FA88FB68DA64FB6800223E
:104AAC001A65FB681B8D002B00F0C280FB689B6BAA
:104ABC00002B24D0FB689B6B5B4A9A62FB689B6B58
:104ACC005A4A1A63FB689B6B0022DA62FB689B6B89
:104ADC0000225A63FB68986BFB681B6810331946FD
:104AEC00FB685B6A1A46FB681B8DFEF7ABFE034640
:104AFC0087F8233097F82330002B7BD113E0FB6829
:104B0C00202283F83D20FB68002283F83E20FB68BE
:104B1C001B6C43F08002FB681A64FB68002283F86C
:104B2C003C200123B2E0F8883A8979897B6A0193A9
:104B3C00232300930346F86800F066F90346002B24
:104B4C0023D0FB689B6B1846FEF718FF034687F8CB
:104B5C002330FB689B6B00229A62FB681B681A6807
:104B6C00FB681B6822F480621A60FB6800221A85BD
:104B7C00FB6800225A85FB681B681A68FB681B6877
:104B8C0022F001021A60012380E0FB681B8D012BCF
:104B9C0008D1FB681B681A68FB681B6822F48062EA
:104BAC001A6007E0FB681B685A68FB681B6842F4D4
:104BBC0080525A600023BB61FB681B685B69BB6158
:104BCC00FB681B689B69BB61BB69FB68002283F8AF
:104BDC003C20FB681B685A68FB681B6842F48072B7
:104BEC005A60FB681B685A68FB681B6842F40062D9
:104BFC005A6048E0FB68202283F83D20FB680022C5
:104C0C0083F83E20FB681B6C43F01002FB681A64AF
:104C1C00FB68002283F83C20012337E018000020B9
:104C2C0089B5F8140000FFFFE54F00088F5100080C
:104C3C00F8883A8979897B6A019323230093034688
:104C4C00F86800F0E1F80346002B01D001231DE0C9
:104C5C0000237B61FB681B685B697B61FB681B68DD
:104C6C009B697B617B69FB681B681A68FB681B6826
:104C7C0042F400721A60FB68202283F83D20FB6826
:104C8C00002283F83C20002300E00223184628373A
:104C9C00BD4680BD80B483B000AF786000BF0C37D8
:104CAC00BD4680BC704780B483B000AF786000BF55
:104CBC000C37BD4680BC704780B483B000AF7860C1
:104CCC0000BF0C37BD4680BC704780B483B000AFCA
:104CDC00786000BF0C37BD4680BC704780B588B08B
:104CEC0002AFF860084611461A4603467B810B4614
:104CFC003B811346FB80FB681B681A68FB681B68CA
:104D0C0042F480721A607B6A00933B6A00224FF077
:104D1C000111F86800F06CFA0346002B0DD0FB680B
:104D2C001B681B6803F48073B3F5807F03D1FB68A9
:104D3C004FF400721A6403235FE07B89DBB21A46DE
:104D4C00FB681B6802F0FE021A617B6A3A6A2D4905
:104D5C00F86800F0C7FA0346002B01D001234CE0A1
:104D6C0000237B61FB681B685B697B61FB681B68CC
:104D7C009B697B617B697A6A396AF86800F052FB3F
:104D8C000346002B0DD0FB681B6C042B07D1FB6872
:104D9C001B681A68FB681B6842F400721A600123D6
:104DAC002BE0FB88012B05D13B89DAB2FB681B6831
:104DBC001A6121E03B891B0A9BB2DAB2FB681B68C3
:104DCC001A617A6A396AF86800F02CFB0346002BEA
:104DDC000DD0FB681B6C042B07D1FB681B681A6891
:104DEC00FB681B6842F400721A60012305E03B89E2
:104DFC00DAB2FB681B681A61002318461837BD46E7
:104E0C0080BD00BF0200010080B588B002AFF86021
:104E1C00084611461A4603467B810B463B811346D6
:104E2C00FB80FB681B681A68FB681B6842F4806295
:104E3C001A60FB681B681A68FB681B6842F4807276
:104E4C001A607B6A00933B6A00224FF00111F868EC
:104E5C0000F0CEF90346002B0DD0FB681B681B68D5
:104E6C0003F48073B3F5807F03D1FB684FF40072B9
:104E7C001A640323AAE07B89DBB21A46FB681B6821
:104E8C0002F0FE021A617B6A3A6A5249F86800F035
:104E9C0029FA0346002B01D0012397E000237B6104
:104EAC00FB681B685B697B61FB681B689B697B61AA
:104EBC007B697A6A396AF86800F0B4FA0346002B09
:104ECC000DD0FB681B6C042B07D1FB681B681A68A0
:104EDC00FB681B6842F400721A60012376E0FB88C1
:104EEC00012B05D13B89DAB2FB681B681A6121E002
:104EFC003B891B0A9BB2DAB2FB681B681A617A6A9F
:104F0C00396AF86800F08EFA0346002B0DD0FB6866
:104F1C001B6C042B07D1FB681B681A68FB681B68A9
:104F2C0042F400721A60012350E03B89DAB2FB684C
:104F3C001B681A617A6A396AF86800F073FA0346DA
:104F4C00002B0DD0FB681B6C042B07D1FB681B6876
:104F5C001A68FB681B6842F400721A60012335E082
:104F6C00FB681B681A68FB681B6842F480721A6045
:104F7C007B6A00933B6A00224FF00111F86800F045
:104F8C0037F90346002B0DD0FB681B681B6803F434
:104F9C008073B3F5807F03D1FB684FF400721A6401
:104FAC00032313E07B89DBB243F00103DAB2FB6825
:104FBC001B681A617B6A3A6A0649F86800F092F934
:104FCC000346002B01D0012300E0002318461837BC
:104FDC00BD4680BD0200010080B586B000AF786090
:104FEC007B685B6A7B617B6993F83D30FB747B6902
:104FFC0093F83E30BB747B69DB6AFB607B691B6892
:10500C005A687B691B6822F440725A607B695B6B3F
:10501C00002B03D07B695B6B00229A627B699B6BD4
:10502C00002B03D07B699B6B00229A62FB7C03F004
:10503C002103212B07D0FB7C03F02203222B31D13F
:10504C00BB7C202B2ED17B691B685A687B691B6843
:10505C0022F400625A607B6900225A85FB7C292B62
:10506C000AD17B6921221A637B69282283F83D20AF
:10507C007869FFF718FE0CE0FB7C2A2B09D17B69C1
:10508C0022221A637B69282283F83D207869FFF776
:10509C0013FE7B691B685A687B691B6842F440727B
:1050AC005A606AE07B6993F83E30DBB2002B64D027
:1050BC007B695B8D9BB2012B07D17B691B681A68DE
:1050CC007B691B6822F480621A607B691B685A68D2
:1050DC007B691B6822F440725A60FB6813F5803FB1
:1050EC0009D0FB68082B06D0FB68B3F12A4F02D01D
:1050FC00FB68202B07D17B691B681A687B691B68CE
:10510C0042F400721A607B691B685A687B691B68E1
:10511C0022F480525A607B691B685A687B691B6851
:10512C0022F400625A607B6900225A857B691B6CF1
:10513C00002B03D07869FFF7C8FD1EE07B692022A5
:10514C0083F83D207B6993F83E30DBB2402B0AD1CB
:10515C007B69002283F83E207B6900221A63786900
:10516C00FCF7EAF809E07B69002283F83E207B69B2
:10517C0012221A637869FFF78DFD00BF1837BD4600
:10518C0080BD80B584B000AF78607B685B6AFB60E3
:10519C00FB685B6B002B03D0FB685B6B00229A6295
:1051AC00FB689B6B002B03D0FB689B6B00229A6205
:1051BC00FB681B681A68FB681B6822F480621A6023
:1051CC00FB6800225A85FB68202283F83D20FB688F
:1051DC00002283F83E20FB681B6C43F01002FB6836
:1051EC001A64F868FFF771FD00BF1037BD4680BD2B
:1051FC0080B584B000AFF860B9603B601346FB71BA
:10520C0048E03B68B3F1FF3F44D0FDF7C3FD0246D5
:10521C00BB69D31A3A689A4202D33B68002B39D146
:10522C00BB681B0CDBB2012B0DD1FB681B685B69E7
:10523C00DA43BB6813409BB2002B0CBF0123002345
:10524C00DBB21A460CE0FB681B689B69DA43BB684F
:10525C0013409BB2002B0CBF01230023DBB21A4678
:10526C00FB799A4216D1FB6800221A63FB68202254
:10527C0083F83D20FB68002283F83E20FB681B6C02
:10528C0043F02002FB681A64FB68002283F83C2080
:10529C00012323E0BB681B0CDBB2012B0DD1FB6897
:1052AC001B685B69DA43BB6813409BB2002B0CBFD5
:1052BC0001230023DBB21A460CE0FB681B689B69D8
:1052CC00DA43BB6813409BB2002B0CBF01230023B5
:1052DC00DBB21A46FB799A4293D00023184610375A
:1052EC00BD4680BD80B584B000AFF860B9607A600F
:1052FC003B6071E0FB681B685B6903F48063B3F58A
:10530C00806F23D1FB681B681A68FB681B6842F42A
:10531C0000721A60FB681B686FF480625A61FB684C
:10532C0000221A63FB68202283F83D20FB680022D0
:10533C0083F83E20FB681B6C43F00402FB681A6484
:10534C00FB68002283F83C20012367E07B68B3F103
:10535C00FF3F41D0FDF71EFD02463B68D31A7A6829
:10536C009A4202D37B68002B36D1BB681B0CDBB294
:10537C00012B0CD1FB681B685B69DA43BB681340DB
:10538C009BB2002B14BF01230023DBB20BE0FB68A4
:10539C001B689B69DA43BB6813409BB2002B14BF9C
:1053AC0001230023DBB2002B16D0FB6800221A630A
:1053BC00FB68202283F83D20FB68002283F83E2006
:1053CC00FB681B6C43F02002FB681A64FB6800222C
:1053DC0083F83C20012321E0BB681B0CDBB2012BC2
:1053EC000CD1FB681B685B69DA43BB6813409BB24A
:1053FC00002B14BF01230023DBB20BE0FB681B68FE
:10540C009B69DA43BB6813409BB2002B14BF01238A
:10541C000023DBB2002B7FF46DAF0023184610374E
:10542C00BD4680BD80B584B000AFF860B9607A60CD
:10543C0034E0F86800F0E3F80346002B01D00123B8
:10544C0034E0BB68B3F1FF3F28D0FDF7A3FC024664
:10545C007B68D31ABA689A4202D3BB68002B1DD161
:10546C00FB681B685B6903F08003802B16D0FB681C
:10547C0000221A63FB68202283F83D20FB6800227F
:10548C0083F83E20FB681B6C43F02002FB681A6417
:10549C00FB68002283F83C20012307E0FB681B68B3
:1054AC005B6903F08003802BC3D1002318461037AF
:1054BC00BD4680BD80B584B000AFF860B9607A603D
:1054CC0034E0F86800F09BF80346002B01D0012370
:1054DC0034E0BB68B3F1FF3F28D0FDF75BFC02461C
:1054EC007B68D31ABA689A4202D3BB68002B1DD1D1
:1054FC00FB681B685B6903F00403042B16D0FB6884
:10550C0000221A63FB68202283F83D20FB680022EE
:10551C0083F83E20FB681B6C43F02002FB681A6486
:10552C00FB68002283F83C20012307E0FB681B6822
:10553C005B6903F00403042BC3D100231846103716
:10554C00BD4680BD80B584B000AFF860B9607A60AC
:10555C0049E0FB681B685B6903F01003102B19D141
:10556C00FB681B686FF010025A61FB6800221A631B
:10557C00FB68202283F83D20FB68002283F83E2044
:10558C00FB681A6CFB681A64FB68002283F83C20E9
:10559C00012330E0FDF7FEFB02467B68D31ABA68A4
:1055AC009A4202D3BB68002B1DD1FB681B685B6958
:1055BC0003F04003402B16D0FB6800221A63FB68F3
:1055CC00202283F83D20FB68002283F83E20FB68F4
:1055DC001B6C43F02002FB681A64FB68002283F802
:1055EC003C20012307E0FB681B685B6903F0400368
:1055FC00402BAED1002318461037BD4680BD80B479
:10560C0083B000AF78607B681B685B6903F48063D0
:10561C00B3F5806F1BD17B681B686FF480625A6195
:10562C007B6800221A637B68202283F83D207B680C
:10563C00002283F83E207B681B6C43F004027B68DD
:10564C001A647B68002283F83C20012300E00023CD
:10565C0018460C37BD4680BC7047F0B58BB006AF12
:10566C0078607B68002B01D10123F1E07B6893F813
:10567C00A932DBB2002B06D17B68002283F8A8226A
:10568C00786807F0B3FF7B68032283F8A9227B6854
:10569C001B68184603F05CFE7B681B683B607E68E9
:1056AC006D4606F110040FCC0FC523682B60331D1B
:1056BC000ECB386803F026FE0346002B05D07B6822
:1056CC00022283F8A9220123C2E07B681B68002117
:1056DC00184603F057FE0023FB7340E0FB7B796810
:1056EC005A1C13469B001344DB000B44013301226C
:1056FC001A70FB7B79685A1C13469B001344DB0021
:10570C000B44FA7B1A70FB7B79685A1C13469B007E
:10571C001344DB000B44033300221A70FA7B7968C4
:10572C0013469B001344DB000B44383300221A60F1
:10573C00FA7B796813469B001344DB000B443C3323
:10574C0000221A60FA7B796813469B001344DB0035
:10575C000B44403300221A60FB7B0133FB73FA7B52
:10576C007B685B689A42B9D30023FB7344E0FA7BF5
:10577C00796813469B001344DB000B4403F2691356
:10578C0000221A70FA7B796813469B001344DB00E5
:10579C000B4403F5B473FA7B1A70FA7B79681346E1
:1057AC009B001344DB000B4403F26B1300221A70B2
:1057BC00FA7B796813469B001344DB000B4403F51A
:1057CC00BC7300221A60FA7B796813469B00134461
:1057DC00DB000B4403F5BE7300221A60FA7B796878
:1057EC0013469B001344DB000B4403F5C0730022EB
:1057FC001A60FB7B0133FB73FA7B7B685B689A4214
:10580C00B5D37B681B683B607E686D4606F110045F
:10581C000FCC0FC523682B60331D0ECB386803F0FB
:10582C00BDFD0346002B05D07B68022283F8A9221C
:10583C0001230DE07B68002283F824207B68012281
:10584C0083F8A9227B681B68184606F03EF80023F3
:10585C0018461437BD46F0BD80B582B000AF7860F5
:10586C007B6893F8A832012B01D1022316E07B68E8
:10587C00012283F8A8227B681B68184603F052FDAE
:10588C000121786808F025F97B681B68184606F03A
:10589C0012F87B68002283F8A822002318460837E8
:1058AC00BD4680BD80B588B000AF78607B681B6852
:1058BC00184606F014F8B861BB6903F40043002BDA
:1058CC0003D0786800F01BFB19E1BB6903F480631B
:1058DC00002B13D07B681B68B3F844309AB27B68FA
:1058EC001B6822F4806292B2A3F84420786807F017
:1058FC00F8FE0021786800F005F900E1BB6903F4BB
:10590C008043002B0CD07B681B68B3F844309AB2F0
:10591C007B681B6822F4804292B2A3F84420EEE02C
:10592C00BB6903F40053002B0CD07B681B68B3F8E5
:10593C0044309AB27B681B6822F4005292B2A3F8EE
:10594C004420DCE0BB6903F48053002B27D07B6838
:10595C001B68B3F840309AB27B681B6822F00402D3
:10596C0092B2A3F840207B681B68B3F840309AB21F
:10597C007B681B6822F0080292B2A3F8402078687A
:10598C0007F0E8FE7B681B68B3F844309AB27B687A
:10599C001B6822F4805292B2A3F84420AFE0BB699A
:1059AC0003F40063002B00F083800023FB7710E0EE
:1059BC007B681B681A46FB7F9B001A44FB7F12888E
:1059CC0092B25B0020333B4423F8182CFB7F01334D
:1059DC00FB77FB7F072BEBD97B681B68B3F8403058
:1059EC009AB27B681B6842F0010292B2A3F8402085
:1059FC007B681B68B3F840309AB27B681B6822F056
:105A0C00010292B2A3F8402000BF7B681B68B3F878
:105A1C0044309BB203F48063002BF6D07B681B6888
:105A2C00B3F844309AB27B681B6822F4806292B25D
:105A3C00A3F844200023FB770FE0FB7F7A68126801
:105A4C001146FA7F92000A445B0020333B4433F842
:105A5C00183C1380FB7F0133FB77FB7F072BECD9C2
:105A6C007B681B68B3F840309AB27B681B6842F0C5
:105A7C00080292B2A3F840207B681B68B3F844304C
:105A8C009AB27B681B6822F4006292B2A3F844209D
:105A9C007B681B68B3F840309AB27B681B6842F095
:105AAC00040292B2A3F84020786807F039FE26E091
:105ABC00BB6903F40073002B0FD07B681B68B3F831
:105ACC0044309AB27B681B6822F4007292B2A3F83D
