:020000040800F2
:10000000005000201D2500087124000877240008F6
:100010007D240008832400088924000800000000D3
:100020000000000000000000000000008F24000815
:100030009B24000800000000A7240008B324000847
:100040006525000865250008652500086525000868
:100050006525000865250008652500086525000858
:10006000652500086525000865250008C1240008ED
:100070006525000865250008652500086525000838
:100080006525000865250008652500086525000828
:10009000D5240008652500086525000865250008A9
:1000A00065250008E9240008652500086525000885
:1000B00065250008652500086525000865250008F8
:1000C00065250008652500086525000865250008E8
:1000D00065250008FD240008652500086525000841
:1000E000652500086525000865250008000000005A
:1000F0000000000000000000000000000000000000
:0C01000000000000000000005FF808F1A3
:10010C0010B5054C237833B9044B13B10448AFF345
:10011C0000800123237010BD980100200000000016
:10012C00B0BE000808B5034B1BB103490348AFF33D
:10013C00008008BD000000009C010020B0BE00083B
:10014C0080B582B000AF78603960124B00221A7013
:10015C00114B00221A704022796810480BF05CFE9B
:10016C000E4B002283F83F20202239680C480BF0FC
:10017C0053FE0B4B0022DA770A4B32221A60054BE6
:10018C000D221A70084B00221A7000BF0837BD46AA
:10019C0080BD00BFB4010020B8010020D0010020B8
:1001AC0010020020BC010020EC03002080B582B0BE
:1001BC0000AF78600B467B8013463B801D4B5B6821
:1001CC00002B02D14FF0FF332FE03B88002B02D1E4
:1001DC0047F230533B80184B184A1A600F2279684B
:1001EC0017480BF019FE164B0022DA737B880A2293
:1001FC00144918460BF0C4FD3B880A2212491846D4
:10020C000BF0BEFD114B1B78002B01D101230CE030
:10021C000F4B1B7803F00203DBB2002B01D1002340
:10022C0003E00C4B09221A70062318460837BD460A
:10023C0080BD00BFF003002000000020554450009A
:10024C00300200204002002058020020D001002083
:10025C00B8010020B401002080B483B000AF034685
:10026C00FB710B4B1B885A1C91B2094A1180194621
:10027C00084AFB795354064B1B88802B02D1044B44
:10028C0000221A8000BF0C37BD4680BC704700BFEF
:10029C00E40300206402002080B582B000AF7860D7
:1002AC000C22796810480BF0EFFD104B00221A70ED
:1002BC000F4B00221A700F4B00221A800E4B00229B
:1002CC001A800E4B00221A800D4B00221A800D4B07
:1002DC0000221A700C4B00221A600C4B00221A6080
:1002EC0000BF0837BD4680BDF0030020B4010020DC
:1002FC005E020020E8030020EA030020E603002051
:10030C00E4030020B8010020C8010020CC0100202B
:10031C0080B500AF084B1A88084B1B889A4201D055
:10032C0000F010F8064B1B68002B01D100F0C2FB4B
:10033C0000F0CAFD00BF80BDE6030020E4030020EE
:10034C00BC01002080B582B000AF7F4B1B780D2B19
:10035C0007D07D4B1B780E2B03D07B4B1B780F2BC0
:10036C0004D17A4B1A887A4B1A8083E3774B1B881B
:10037C00FB80784B02221A6076E3754B1B881A4679
:10038C00754B9B5C7B71754B1B780C2B00F24D8372
:10039C0001A252F823F000BFD9030008CB040008D7
:1003AC00AF060008370A0008370A0008A70800083B
:1003BC00ED080008030900082F090008370A000897
:1003CC007B090008A3090008F9090008644B002206
:1003DC001A70644B04221A703FE0614B1B781A466A
:1003EC00614B53F822305F4A127813441B787A79A8
:1003FC009A422CD15A4B1B781A465B4B53F822303D
:10040C001B789BB2303B9AB2584B1A80574B1B88C7
:10041C001A46920013445B009AB2544B1A80504B0C
:10042C001B781A46504B53F8223001331B789AB282
:10043C004E4B1B8813449BB2303B9AB24B4B1A80E9
:10044C004A4B1B88013B9AB2484B1A800DE0444B37
:10045C001B780133DAB2424B1A70414B1B781A46A7
:10046C00414B53F82230002BB7D13D4B1B781A4629
:10047C003D4B53F82230002B09D0384B01221A7017
:10048C00384B1B780133DAB2364B1A70D4E2314B4D
:10049C0000221A60364B1B7803F00103DBB2002BF1
:1004AC0000F0CA827B793E2B40F0C682304A13782A
:1004BC006FF3000313702F4B00221A60BCE2284B21
:1004CC001B781A46284B53F82230264A12781344CC
:1004DC001B787A799A4233D1244B1B88013B9AB210
:1004EC00224B1A80214B1B88002B03D07B790D2BC0
:1004FC0040F0D0801A4B1B781A461B4B53F8223015
:10050C0002331B78303BDAB2144B1A70134B1B7846
:10051C001A46920013445B00DAB2104B1A70104B5F
:10052C001B781A46104B53F8223003331A780B4BB6
:10053C001B781344DBB2303BDAB2084B1A7086E2FC
:10054C00074B00221A7089E0B4010020E40300205C
:10055C00E6030020C0010020640200205E0200209F
:10056C00FC030020FD03002000C2000860020020F4
:10057C00B8010020C4010020A54B1B781A46A54BDE
:10058C0053F822301B789BB2303B9AB2A24B1A80A4
:10059C00A14B1B881A46920013445B009AB29E4BE7
:1005AC001A809B4B1B781A469A4B53F82230013316
:1005BC001B789AB2984B1B8813449BB2303B9AB26F
:1005CC00954B1A80944B1A88944B1B789BB2D31A78
:1005DC009BB203339AB2904B1A808F4B1B887F2BA4
:1005EC0036D88B4B1B781A468A4B53F822308B4AE1
:1005FC00127813441B787A799A4229D1864B1B883E
:10060C00002B34D1824B1B781A46824B53F8223084
:10061C0002331B78303BDAB2814B1A70804B1B785B
:10062C001A46920013445B00DAB27D4B1A70784B79
:10063C001B781A46774B53F8223003331A78784BD1
:10064C001B781344DBB2303BDAB2754B1A700EE0F8
:10065C006F4B1B780133DAB26D4B1A706C4B1B78F5
:10066C001A466C4B53F82230002B85D100E000BFAA
:10067C00674B1B781A46674B53F82230002B09D175
:10068C00674B00221A70674B1B88013B9AB2654B73
:10069C001A80DCE1614B1B780133DAB25F4B1A70C4
:1006AC00D5E17B790A2B40F0C9815D4B00221A7091
:1006BC00574B1B78112B00F2C18101A252F823F089
:1006CC008B0800088B080008150700083107000884
:1006DC005F0700088B0800089507000895070008BD
:1006EC00C9070008D5070008F10700084D080008E5
:1006FC00490A000859080008490A00086F08000850
:10070C008B0800088B080008474B1B78022B40F025
:10071C00B880464B00221A60454A137843F02003F8
:10072C001370AEE0424B1B7803F00803DBB2002BD6
:10073C0000F0A9803E4A13786FF3C30313703C4A50
:10074C0013786FF3861313703A4B1A883A4B1A804E
:10075C0099E0364B00221A60334B1B78062B04D1E0
:10076C00334A137843F020031370314A137843F063
:10077C0002031370314B1B68002B00F086802F4B4B
:10078C001B680320984780E0294A13786FF386137F
:10079C001370274A13786FF341031370274B1B68B0
:1007AC00002B03D0254B1B68002098471E4B1B7851
:1007BC00062B6CD01C4B0F221A706DE01C4A137860
:1007CC006FF38613137067E0194A13786FF3C30342
:1007DC0013701A4B1B68002B5BD0184B1B680A203C
:1007EC00984756E0114B00221A60114A137843F0D7
:1007FC00200313700E4A137843F0400313700F4B11
:10080C001B68002B47D00D4B1B680720984742E014
:10081C00FC03002000C2000860020020FD03002041
:10082C005E020020E6030020B4010020BC01002081
:10083C00B8010020EA030020E8030020C8010020D2
:10084C008E4A13786FF38613137025E08B4A137856
:10085C006FF386131370894A13786FF34103137087
:10086C001AE0864A13786FF386131370834A137851
:10087C006FF341031370824B0F221A700CE000BF10
:10088C00DCE000BFDAE000BFD8E000BFD6E000BF7C
:10089C00D4E000BFD2E000BFD0E07B792C2B0CD190
:1008AC00784B06221A70784B1B68002B00F0C8801E
:1008BC00754B1B6875489847C2E0724B00221A7042
:1008CC00734B1B88013B9AB2714B1A806E4B1B68A1
:1008DC00002B00F0B5806C4B1B686E489847AFE05E
:1008EC007B79222B40F0AE80664B07221A706A4B44
:1008FC0000221A80A6E07B79222B03D0664B1B8842
:10090C00102B03D15F4B08221A70A0E0624B1B889E
:10091C005A1C91B2604A11801946604A7B79535433
:10092C0095E07B790A2B40F08F80564B00221A7091
:10093C00594B1B880F2B0ED8574B1B881A46574BFD
:10094C00002199544D4A137843F020031370544BF3
:10095C0000221A6002E0514B00221A70514B1B68A6
:10096C00002B71D04F4B1B68042098476CE07B79AF
:10097C002C2B06D1434B0B221A70474B00221A80AA
:10098C0065E0404B00221A70414B1B88013B9AB228
:10099C003F4B1A805BE07B793A2B03D1394B0C220D
:1009AC001A7054E07B792F2B02D97B79392B09D91A
:1009BC00344B00221A70364B1B88013B9AB2344BD5
:1009CC001A8044E0344B1B881A46920013445B0097
:1009DC009AB2314B1A807B799AB22F4B1B881344F5
:1009EC009BB2303B9AB22C4B1A8030E02E4B9B685A
:1009FC00002B04D02C4B9B687A7910469847264BD9
:100A0C001B88013B9AB2244B1A80234B1B88002B6A
:100A1C001CD11C4B00221A701B4B1B68002B15D0D1
:100A2C00194B1B682148984710E0164B00221A708E
:100A3C001F4B00221A600AE000BF08E000BF06E06E
:100A4C0000BF04E000BF02E000BF00E000BF104B9D
:100A5C001B8801339AB20E4B1A800D4B1B88802BCE
:100A6C0002D10B4B00221A80094B1B88FA889A4240
:100A7C007FF483AC0837BD4680BD00BFB8010020B1
:100A8C00B40100205E020020CC010020FCBE000856
:100A9C00E603002014BF000860020020480200207A
:100AAC00BC010020C8010020F003002028BF000872
:100ABC00C001002080B500AF9C4B64221A609C4B97
:100ACC001B780F2B00F2E58101A252F823F000BF36
:100ADC001D0B00087B0B0008CD0B0008EB0B00086E
:100AEC00090C0008270C0008AD0C0008D10C0008FC
:100AFC00FF0C00088D0D0008B50D0008470E00080E
:100B0C00650E0008250B0008450B00086D0B00084E
:100B1C00864B00221A60BCE1864B1B68002098476C
:100B2C00854B1B68002B03D0834B1B68834898476D
:100B3C007F4B0E221A70ACE17E4B1B68012098474C
:100B4C007D4B1B68002B03D07B4B1B687C48984764
:100B5C00774B0F221A70754B4FF4FA721A6098E1AA
:100B6C00734B01221A70774B00221A7091E1754B6E
:100B7C001B78002B0DD0734B1B78013BDAB2714BF9
:100B8C001A70704B1B78002B06D1694B0D221A7012
:100B9C007FE16C4B04221A706B4A13786FF3451388
:100BAC0013706A4800F00CFA634B1B68002B03D0DF
:100BBC00614B1B68664898475D4B02221A7068E1CE
:100BCC00614B1B7803F02003DBB2002B03D0584B96
:100BDC0003221A705DE1564B01221A7059E15D48EF
:100BEC0000F0EEF9544B1B68002B03D0524B1B68E2
:100BFC00594898474E4B04221A704AE1574800F066
:100C0C00DFF94D4B1B68002B03D04B4B1B68544832
:100C1C009847474B05221A703BE14B4B1B7803F06E
:100C2C000203DBB2002B03D0414B07221A7030E1D8
:100C3C004C4B1B78002B00F029814B4800F0C0F97D
:100C4C00222000F0EDF9474800F0BAF9222000F01C
:100C5C00E7F92C2000F0E4F9222000F0E1F94348F8
:100C6C0000F0AEF9222000F0DBF90D2000F0D8F9ED
:100C7C000A2000F0D5F9304B1B68002B03D02E4B0B
:100C8C001B683B489847304A13786FF34513137031
:100C9C00274B06221A70254B40F2DC521A60F8E002
:100CAC00294B1B7803F02003DBB2002B06D0204B22
:100CBC0007221A70234B04221A70EAE01C4B012203
:100CCC001A70E6E02B4B00221A702B4800F078F9D2
:100CDC00194B1B68002B03D0174B1B6827489847F0
:100CEC00194A13786FF345131370114B08221A70BD
:100CFC00CFE0154B1B7803F02003DBB2002B03D0A5
:100D0C000B4B09221A70C4E00E4B1B78013BDAB274
:100D1C000C4B1A700B4B1B78002B03D1044B01228C
:100D2C001A70B6E0024B07221A70B2E0BC01002028
:100D3C00B4010020F0030020CC0100203CBF0008CF
:100D4C0054BF0008EC030020B801002088C0000844
:100D5C006CBF0008A0C000087CBF000890C0000851
:100D6C0090BF0008D0010020B0C000081002002085
:100D7C00A4BF000848020020BCC00008B8BF00088F
:100D8C00454B1B78002B00F08380444800F018F989
:100D9C00434B1B68002B03D0414B1B6841489847C1
:100DAC00414B0A221A7074E0404800F009F92220E5
:100DBC0000F036F93E4800F003F9222000F030F93B
:100DCC002C2000F02DF9222000F02AF9324800F0F6
:100DDC00F7F8222000F024F92C2000F021F93548F6
:100DEC0000F0EEF82C2000F01BF9334800F0E8F886
:100DFC002C2000F015F9302000F012F90D2000F035
:100E0C000FF90A2000F00CF9254B1B68002B03D0BE
:100E1C00234B1B6829489847294A13786FF34513CD
:100E2C001370274A13786FF3861313701E4B0B2223
:100E3C001A70244BC8221A602BE0214B1B7803F04C
:100E4C002003DBB2002B03D0174B0C221A7020E0CE
:100E5C00154B01221A701CE0194B1B7803F002038E
:100E6C00DBB2002B03D1104B01221A7011E0144B92
:100E7C001B7803F04003DBB2002B03D10A4B092291
:100E8C001A7006E00F4B00221A6002E000BF00E06F
:100E9C0000BF00BF80BD00BF30020020D8C00008DA
:100EAC00CC010020CCBF0008B4010020C8C0000851
:100EBC00000000204002002058020020E4BF00087F
:100ECC00B8010020BC01002080B582B000AF344BCB
:100EDC001B7803F00103DBB2002B13D0314B1B68E2
:100EEC00002B59D1304B1A88304B1A802C4A13786E
:100EFC006FF3000313702E4B01221A702D4B0A2234
:100F0C001A6049E0294B1A88274B1B889A4244D017
:100F1C00264B1B881A46284B9B5CFB71204B1B787D
:100F2C0003F00403DBB2002B04D0FB793E2B01D180
:100F3C000A23FB71214B5B68FA79104698470346EC
:100F4C00002B2AD0164B1B7803F00403DBB2002BCA
:100F5C0013D0164B1B881A46174B9B5C3E2B0CD19F
:100F6C000F4A13786FF3820313700D4A137843F012
:100F7C00010313700B4B05221A600C4B1B880133B9
:100F8C009AB20A4B1A80094B1B88B3F5807F04D1A7
:100F9C00064B00221A8000E000BF0837BD4680BD1A
:100FAC00B8010020C4010020EA030020E80300205F
:100FBC00B4010020BC010020E4020020F00300205A
:100FCC0080B485B000AF78600023FB6017E0FB684D
:100FDC007A681A44104B1B88591C88B20E49088039
:100FEC00194612780D4B5A540B4B1B88B3F5807F66
:100FFC0002D1094B00221A80FB680133FB60FB68AD
:10100C007A6813441B78002BE1D100BF00BF143762
:10101C00BD4680BC704700BFEA030020E4020020FC
:10102C0080B483B000AF0346FB710B4B1B885A1C7A
:10103C0091B2094A11801946084AFB795354064B60
:10104C001B88B3F5807F02D1034B00221A8000BFAE
:10105C000C37BD4680BC7047EA030020E402002038
:10106C0080B483B000AF78607B6800221A707B6814
:10107C0000225A707B6802229A707B6800225A60A8
:10108C007B6800229A6000BF0C37BD4680BC70475D
:10109C0080B483B000AF78607B685B78032B47D853
:1010AC0001A252F823F000BFC5100008F51000088B
:1010BC00D9100008151100087B681A78224B1B7890
:1010CC009A4239D17B6802225A7035E07B681A78D3
:1010DC001D4B1B789A4203D17B6801225A702EE07B
:1010EC007B6800225A702AE07B681B781A46164BE4
:1010FC001B78002B0CBF01230023DBB29A421DD1BD
:10110C007B6803225A7019E07B681B781A460E4BD9
:10111C001B78002B0CBF01230023DBB29A4203D1B6
:10112C007B6800225A700AE07B6801225A7006E044
:10113C007B6800225A7002E000BF00E000BF00BFD5
:10114C000C37BD4680BC7047FE03002080B582B0D2
:10115C0000AF78607B681B680D4A934214D10D4B2D
:10116C001B78002B05D00B4B1B78013BDAB2094BDB
:10117C001A70094B93F810341B01074A13440822C8
:10118C001946064801F024FB00BF0837BD4680BD58
:10119C00002C014004000020A00B002000040020C3
:1011AC0080B483B000AF78600A4B93F810340133ED
:1011BC00DAB2084B83F81024064B93F8103403F082
:1011CC003F03DAB2034B83F8102400BF0C37BD4643
:1011DC0080BC7047A00B002080B582B000AF786057
:1011EC007B681B68134A93421FD1134BDB78013386
:1011FC00DAB2114BDA70104BDB781A460E4B1344F3
:10120C000733012219460D4805F04CFC0C4BDB78DA
:10121C000133DAB20A4BDA70094BDB781A46084B09
:10122C001344DB791846FFF717F800BF0837BD46A3
:10123C0080BD00BF00380140880500203405002027
:10124C009809002080B582B000AF78600B467B8097
:10125C000C4BDB781A460B4B134407337A887968AE
:10126C0018460AF011FE074BDA787B88DBB2134480
:10127C00DAB2044BDA70034B01221A7000BF083744
:10128C00BD4680BD9007002080B500AF114B1A6899
:10129C00114B1B681340002B06D000224FF4005159
:1012AC000E4802F0CAFA05E001224FF400510B4837
:1012BC0002F0C3FA084B1B685B08074A1360064B25
:1012CC001B68002B03D1044B4FF000421A6000BF87
:1012DC0080BD00BF18000020140000200010014049
:1012EC0080B400AF034B28221A7000BFBD4680BCEF
:1012FC00704700BF0400002080B500AF0F4B1B7877
:10130C00002B12D14FF480510D4802F07FFA0346A6
:10131C001A460C4B1A700B48FFF7BAFE094800F03E
:10132C003DFB064B04221A7005E0044B1B78013B75
:10133C00DAB2024B1A7000BF80BD00BF050000205E
:10134C00000C01407C05002080B500AF104B1B78D1
:10135C00002B15D100F04AFBFFF796FF0D4BDB7805
:10136C0004330C4A1344F222DA710A4BDA78094B33
:10137C005A70084800F02CF9054B0A221A7005E047
:10138C00034B1B78013BDAB2014B1A7000BF80BDD6
:10139C00060000208805002080B500AF0E4B1B789E
:1013AC00002B11D10D4BDB7804330C4A1344F02283
:1013BC00DA710A4BDA78094B5A70084800F008F9D0
:1013CC00054B32221A7005E0034B1B78013BDAB255
:1013DC00014B1A7000BF80BD070000209809002047
:1013EC0080B584B000AF78607B68DB78FB73DFE09E
:1013FC00754B1B78062B00F2D78001A252F823F014
:10140C00291400085114000885140008B9140008A8
:10141C00ED14000815150008571500087B681B799A
:10142C005A1CD1B27A6811711A467B681344DB7965
:10143C00552B40F0BD80644B01221A707B68002252
:10144C009A70B5E07B681B795A1CD1B27A6811711D
:10145C001A467B681344DB794E2B03D15A4B02227C
:10146C001A70A5E07B681B79013BDAB27B681A71B4
:10147C00554B00221A709BE07B681B795A1CD1B229
:10148C007A6811711A467B681344DB79452B03D1BA
:10149C004D4B03221A708BE07B681B79013BDAB24F
:1014AC007B681A71484B00221A7081E07B681B79AB
:1014BC005A1CD1B27A6811711A467B681344DB79D5
:1014CC00522B03D1404B04221A7071E07B681B79BC
:1014DC00013BDAB27B681A713B4B00221A7067E051
:1014EC007B681A797B685A707B681B795A1CD1B25D
:1014FC007A6811711A467B681344DA79334B1A7087
:10150C00314B05221A7053E07B681B795A1CD1B2FF
:10151C007A6811711A467B681344DB793A2B0AD12D
:10152C00294B06221A70294B1B7883F03603DAB24A
:10153C007B689A703CE07B681B79013BDAB27B6874
:10154C001A71214B00221A7032E0204B1B78012BB0
:10155C000FD97B681B795A1CD1B27A6811711A4663
:10156C007B681344DA797B689B785340DAB27B68EA
:10157C009A70164B1B78013BDAB2144B1A70134B52
:10158C001B78002B14D1104B00221A707B689A78B0
:10159C007B681B7919467B680B44DB799A4207D12F
:1015AC00786800F015F803E0074B00221A7000BFB2
:1015BC007B681B79FA7B9A427FF41AAF00BF00BF9D
:1015CC001037BD4680BD00BFD00F0020D20F0020C9
:1015DC0080B491B000AF7860002387F83F3097F863
:1015EC003F305A1C87F83F2040333B44552203F8C8
:1015FC00382C97F83F305A1C87F83F2040333B4437
:10160C004E2203F8382C97F83F305A1C87F83F20AD
:10161C0040333B44452203F8382C97F83F305A1C92
:10162C0087F83F2040333B44522203F8382C97F87C
:10163C003F305A1C87F83F2040333B44002203F8CC
:10164C00382C97F83F305A1C87F83F2040333B44E6
:10165C003A2203F8382C97F83F305A1C87F83F2071
:10166C0040333B44392203F8382C97F83F305A1C4E
:10167C0087F83F2040333B44372203F8382C7B68F3
:10168C005B7804337A681344DB79F22B2BD0F22B82
:10169C0000F3E980F02B02D0F12B17D0E3E097F8A0
:1016AC003F305A1C87F83F2040333B44F02203F86C
:1016BC00382C97F83F305A1C87F83F2040333B4476
:1016CC000D2203F8382C05233B73D9E097F83F30F3
:1016DC005A1C87F83F2040333B44F12203F8382C46
:1016EC0004233B73CCE097F83F305A1C87F83F201B
:1016FC0040333B44F22203F8382C002387F83D306A
:10170C00A9E0022387F83C306FE097F83D307D4A22
:10171C0003F50073002122F8131097F83D30794A35
:10172C0003F5007332F8131097F83C2097F83D300E
:10173C007448D200134430F8132097F83D300A4413
:10174C0091B2704A03F5007322F8131097F83D30EC
:10175C006C4A03F5007332F8131097F83C305A1E9C
:10176C0097F83D306748D200134430F8132097F8AF
:10177C003D300A4491B2634A03F5007322F813100A
:10178C0097F83D305F4A03F5007332F8131097F861
:10179C003C309A1E97F83D305A48D200134430F82A
:1017AC00132097F83D300A4491B2564A03F5007362
:1017BC0022F8131097F83D30524A03F5007332F8B3
:1017CC00131097F83C2097F83D304F48A0FB0101CF
:1017DC00490888B24B49D2001344024621F8132021
:1017EC0097F83C30013387F83C3097F83C303F2B6E
:1017FC008BD997F83D2097F83D30424902F5FC72A1
:10180C0031F81210414A22F8131097F83D2097F83E
:10181C003F30591C87F83F1019463C4B13F81220E7
:10182C0001F140033B4403F8382C97F83D2097F81E
:10183C003F30591C87F83F101846344953000B446D
:10184C005A7800F140033B4403F8382C97F83D30AC
:10185C00013387F83D3097F83D30072B7FF651AFB9
:10186C0014233B730CE097F83F305A1C87F83F2049
:10187C0040333B44FF2203F8382C04233B7300BF56
:10188C00002387F83E30002387F83B3021E097F89F
:10189C003B3040333B4413F8382C97F83E305340E0
:1018AC0087F83E3097F83B207B685B79591CC8B2AF
:1018BC0079684871194602F140033B4413F8382CFF
:1018CC007B680B4483F8072197F83B30013387F88A
:1018DC003B3097F83B2097F83F309A42D7D37B6840
:1018EC005B795A1CD1B27A6851711A467B681344E1
:1018FC0097F83E2083F8072100BF4437BD4680BCD3
:10190C00704700BFA00B0020ABAAAAAAC00F0020F2
:10191C0080B582B000AF78600B46FB707B681A799B
:10192C007B68DB789A4202D07868FFF759FD7B68B8
:10193C009A797B685B799A4213D0144B1B681B68AD
:10194C0003F08003802B0CD17B689B795A1CD1B29D
:10195C007A6891711A467B68134493F807210C4BF3
:10196C005A607B681B78012B0CD10A4BDB789BB23D
:10197C001946094809F000FE0346002B02D17B688A
:10198C0000221A7000BF0837BD4680BD3405002008
:10199C0000380140900700209707002080B582B0E6
:1019AC0000AF78607B685B78012B02D0032B07D0EB
:1019BC0014E000224FF400510A4801F03EFF0DE004
:1019CC00094B1B780133DAB2074B1A70064B1B78A4
:1019DC00032B02D1044B00221A7000BF00BF083742
:1019EC00BD4680BD00100140D10F002080B400AF77
:1019FC000F4B1B78022B10D0022B13DC002B02D0C8
:101A0C00012B05D00EE00B4B1B680B4A13600AE050
:101A1C000A4B1B68084A136005E0094B1B68064A11
:101A2C00136000E000BF00BFBD4680BC704700BF24
:101A3C00D10F002008000020180000200C0000200E
:101A4C001000002080B500AF00F088FD00F07AF89F
:101A5C0000F0C8FA00F0A8FA00F0B2F900F07AFA37
:101A6C0009F064FC00F0CCF800F06CF900F0F8F927
:101A7C00264804F07FF9264809F0A4FD2548FFF715
:101A8C00EFFA254BDB781A46234B1344073301221C
:101A9C001946224805F006F8214BDB781A46204BF4
:101AAC0013440733012219461C4804F0FBFF08229B
:101ABC001C491D4800F08CFE1C48FEF7EDFB1C4930
:101ACC001C48FEF73DFB47F2305247F230511A48A2
:101ADC00FEF76CFB194B1B78002B07D1FFF700FCB2
:101AEC00FFF70AFCFFF730FCFFF756FC00210A4811
:101AFC00FFF70EFF01210A48FFF70AFF02211048E9
:101B0C00FFF706FFFEF704FCE4E700BFA404002087
:101B1C00511200087C0500208805002034050020A7
:101B2C0098090020A00B002000040020B40F002016
:101B3C0010C0000820C0000830C0000804000020BD
:101B4C009007002080B594B000AF07F1280328223D
:101B5C00002118460AF058F907F1140300221A6004
:101B6C005A609A60DA601A613B1D00221A605A6052
:101B7C009A60DA600123BB624FF48033FB6200236E
:101B8C003B630123BB6302237B644FF48033BB6450
:101B9C004FF4E013FB6407F12803184603F0D4FB61
:101BAC000346002B01D000F0C7FA0F237B61022300
:101BBC00BB610023FB614FF480633B6200237B62BB
:101BCC0007F114030221184603F040FE0346002BD4
:101BDC0001D000F0B1FA12237B604FF40043FB609C
:101BEC0000233B613B1D184603F0BEFF0346002B50
:101BFC0001D000F0A1FA00BF5037BD4680BD0000F7
:101C0C0080B584B000AF3B1D00221A605A609A6008
:101C1C004A4B4B4A1A60494B4FF480729A60474BBF
:101C2C0000221A73454B00221A75444B4FF4602264
:101C3C00DA61424B00225A60404B08221A613F483D
:101C4C0000F0EEFC0346002B01D000F075FA0023E7
:101C5C007B600123BB600223FB603B1D19463748A8
:101C6C0000F0A6FE0346002B01D000F065FA01231C
:101C7C007B600223BB603B1D1946304800F098FE88
:101C8C000346002B01D000F057FA02237B6003239C
:101C9C00BB603B1D1946294800F08AFE0346002B09
:101CAC0001D000F049FA03237B600423BB603B1D89
:101CBC001946224800F07CFE0346002B01D000F0B0
:101CCC003BFA04237B600523BB603B1D19461B4874
:101CDC0000F06EFE0346002B01D000F02DFA052318
:101CEC007B600623BB603B1D1946144800F060FE68
:101CFC000346002B01D000F01FFA06237B6007235C
:101D0C00BB603B1D19460D4800F052FE0346002BEC
:101D1C0001D000F011FA07237B600823BB603B1D48
:101D2C001946064800F044FE0346002B01D000F093
:101D3C0003FA00BF1037BD4680BD00BF0004002071
:101D4C000024014080B584B000AF3B1D00221A6016
:101D5C005A609A60184B194A1A60174B00229A6005
:101D6C00154B00221A73144B00221A75124B4FF4A8
:101D7C006022DA61104B00225A600F4B01221A616B
:101D8C000D4800F04DFC0346002B01D000F0D4F9B7
:101D9C0002237B600123BB600023FB603B1D1946C3
:101DAC00054800F005FE0346002B01D000F0C4F9F5
:101DBC0000BF1037BD4680BD300400200028014014
:101DCC0080B586B000AF07F1080300221A605A6094
:101DDC009A60DA603B4600221A605A601E4B1F4A1A
:101DEC001A601D4B47225A601B4B00229A601A4BFB
:101DFC00FA22DA60184B00221A61174B00225A6142
:101E0C00154B00229A61144803F064FF0346002B23
:101E1C0001D000F091F94FF48053BB6007F1080337
:101E2C0019460D4804F012FA0346002B01D000F0BD
:101E3C0083F900233B6000237B603B461946064830
:101E4C0004F070FD0346002B01D000F075F900BFC3
:101E5C001837BD4680BD00BFA4040020002C0140F3
:101E6C0080B58AB000AF07F1200300221A605A60D7
:101E7C003B1D00221A605A609A60DA601A615A613E
:101E8C009A61324B324A1A60304B00225A602F4B07
:101E9C0000229A602D4B4FF6FF72DA602B4B00221A
:101EAC001A612A4B00229A61284803F0B5FF0346B9
:101EBC00002B01D000F040F900233B6200237B6231
:101ECC0007F120031946214804F02CFD0346002B92
:101EDC0001D000F031F960237B600023BB6000234C
:101EEC00FB6000237B613B1D00221946174804F060
:101EFC00EBF80346002B01D000F01EF93B1D042229
:101F0C001946124804F0E0F80346002B01D000F00B
:101F1C0013F93B1D082219460C4804F0D5F803466A
:101F2C00002B01D000F008F93B1D0C221946074884
:101F3C0004F0CAF80346002B01D000F0FDF803486A
:101F4C0000F008FA00BF2837BD4680BDEC04002025
:101F5C000008004080B500AF114B124A1A60104BBC
:101F6C004FF4E1325A600E4B00229A600C4B002267
:101F7C00DA600B4B00221A61094B0C225A61084B98
:101F8C0000229A61064B0022DA61054804F03AFD02
:101F9C000346002B01D000F0CFF800BF80BD00BF7E
:101FAC00340500200038014080B582B000AF0C4BE6
:101FBC005B690B4A43F001035361094B5B6903F006
:101FCC0001037B607B68002200210B2000F0C1FF25
:101FDC000B2000F0DAFF00BF0837BD4680BD00BF04
:101FEC000010024080B58AB000AF07F11403002244
:101FFC001A605A609A60DA604A4B9B69494A43F00E
:10200C0010039361474B9B6903F010033B613B69E1
:10201C00444B9B69434A43F020039361414B9B69BA
:10202C0003F02003FB60FB683E4B9B693D4A43F089
:10203C00040393613B4B9B6903F00403BB60BB68D7
:10204C00384B9B69374A43F008039361354B9B69C6
:10205C0003F008037B607B6801224FF40051324887
:10206C0001F0EBFB00224FF48071304801F0E5FBEE
:10207C004FF400537B610123BB610023FB610223FE
:10208C003B6207F114031946274801F03BFA4FF461
:10209C0040637B611223BB6103233B6207F1140392
:1020AC001946234801F02EFA4FF480537B6100232C
:1020BC00BB610123FB6107F1140319461C4801F0B5
:1020CC0021FA4FF480737B610123BB610023FB6118
:1020DC0002233B6207F114031946144801F012FA6B
:1020EC0030237B610223BB6102233B6207F11403A3
:1020FC0019460F4801F006FA0E4B5B687B627B6A4F
:10210C0023F440637B627B6A43F0E0637B627B6A0F
:10211C0043F400637B62074A7B6A536000BF283735
:10212C00BD4680BD00100240001001400008014077
:10213C00000C01400000014080B400AF72B600BF3B
:10214C00FEE7000080B485B000AF154B9B69144AC4
:10215C0043F001039361124B9B6903F00103BB60D5
:10216C00BB680F4BDB690E4A43F08053D3610C4BB9
:10217C00DB6903F080537B607B680A4B5B68FB6018
:10218C00FB6823F0E063FB60FB6843F00073FB60CB
:10219C00044AFB68536000BF1437BD4680BC7047CF
:1021AC00001002400000014080B58AB000AF78609A
:1021BC0007F1180300221A605A609A60DA607B6893
:1021CC001B683C4A93424AD13B4B9B693A4A43F4C5
:1021DC0000739361384B9B6903F400737B617B69DB
:1021EC00354B9B69344A43F004039361324B9B6932
:1021FC0003F004033B613B69FF23BB610323FB61D9
:10220C0007F1180319462D4801F07CF92C4B2D4A87
:10221C001A602B4B00225A60294B00229A60284BE3
:10222C008022DA60264B4FF480721A61244B4FF4F3
:10223C0080625A61224B00229A61214B0022DA61A2
:10224C001F4800F0BDFE0346002B01D0FFF774FFC2
:10225C007B681B4A1A621A4A7B68536226E07B68C9
:10226C001B68194A934221D1134B9B69124A43F4C0
:10227C0080639361104B9B6903F48063FB60FB6884
:10228C000D4B9B690C4A43F0040393610A4B9B6909
:10229C0003F00403BB60BB680423BB610323FB6135
:1022AC0007F118031946054801F02CF900BF28372F
:1022BC00BD4680BD002401400010024000080140D2
:1022CC0060040020080002400028014080B584B062
:1022DC0000AF78607B681B680D4A934213D10D4B9D
:1022EC009B690C4A43F4006393610A4B9B6903F4AA
:1022FC000063FB60FB6800220021192000F029FE1E
:10230C00192000F042FE00BF1037BD4680BD00BF53
:10231C00002C01400010024080B485B000AF786002
:10232C007B681B68094A93420BD1094BDB69084A4D
:10233C0043F00403D361064BDB6903F00403FB6039
:10234C00FB6800BF1437BD4680BC704700080040D6
:10235C000010024080B588B000AF786007F1100320
:10236C0000221A605A609A60DA607B681B68104A17
:10237C00934218D10F4B9B690E4A43F008039361AB
:10238C000C4B9B6903F00803FB60FB684FF4707304
:10239C003B6102237B610223FB6107F110031946A9
:1023AC00054801F0AFF800BF2037BD4680BD00BF27
:1023BC000008004000100240000C014080B588B0BD
:1023CC0000AF786007F1100300221A605A609A601F
:1023DC00DA607B681B68204A934239D11F4B9B699A
:1023EC001E4A43F4804393611C4B9B6903F4804366
:1023FC00FB60FB68194B9B69184A43F0040393611B
:10240C00164B9B6903F00403BB60BB684FF400736D
:10241C003B6102237B610323FB6107F11003194627
:10242C000F4801F06FF84FF480633B6100237B6130
:10243C000023BB6107F110031946094801F062F84B
:10244C0000220021252000F084FD252000F09DFDB8
:10245C0000BF2037BD4680BD00380140001002404F
:10246C000008014080B400AFFEE780B400AFFEE787
:10247C0080B400AFFEE780B400AFFEE780B400AFDD
:10248C00FEE780B400AF00BFBD4680BC704780B48F
:10249C0000AF00BFBD4680BC704780B400AF00BF2A
:1024AC00BD4680BC704780B500AF00F09DF800BF02
:1024BC0080BD000080B500AF024800F0EFFE00BF09
:1024CC0080BD00BF6004002080B500AF024801F061
:1024DC00F1FA00BF80BD00BFAC16002080B500AF84
:1024EC00024803F0E8FC00BF80BD00BFA40400203C
:1024FC0080B500AF024804F0FBFA00BF80BD00BFFE
:10250C003405002080B400AF00BFBD4680BC7047CE
:10251C00FFF7F8FF0B480C490C4A002302E0D45893
:10252C00C4500433C4188C42F9D3094A094C002313
:10253C0001E013600432A242FBD309F081FCFFF7E7
:10254C0081FA70470000002098010020A4C2000806
:10255C0098010020BC1B0020FEE7000080B500AFF6
:10256C00084B1B68074A43F010031360032000F06C
:10257C00E5FC0F2000F008F8FFF7E4FD00231846F7
:10258C0080BD00BF0020024080B582B000AF7860F3
:10259C00124B1A68124B1B7819464FF47A73B3FB23
:1025AC00F1F3B2FBF3F3184600F0FDFC0346002BED
:1025BC0001D001230EE07B680F2B0AD8002279682A
:1025CC004FF0FF3000F0C5FC064A7B681360002317
:1025DC0000E0012318460837BD4680BD1C000020D2
:1025EC00240000202000002080B400AF054B1B7895
:1025FC001A46054B1B681344034A136000BFBD46C3
:10260C0080BC704724000020D40F002080B400AFA1
:10261C00024B1B681846BD4680BC7047D40F002087
:10262C0080B586B000AF78600023FB7500233B615A
:10263C000023BB600023FB607B68002B01D10123CE
:10264C00BEE07B689B68002B7B689B6A002B09D1E2
:10265C007B680022DA627B68002283F82420786889
:10266C00FFF7A2FD786800F0F5FA0346FB757B686E
:10267C009B6A03F01003002B40F09980FB7D002B2C
:10268C0040F095807B689B6A23F4885323F0020307
:10269C0043F002027B689A627B685A687B68DB694C
:1026AC001A437B681B7B5B001343BA681343BB6004
:1026BC007B689B68B3F5807F03D07B689B68012B9C
:1026CC0002D14FF4807300E000233A6913433B615D
:1026DC007B681B7D012B19D17B681B7B002B09D1DF
:1026EC007B689B69013B5A033B69134343F40063CA
:1026FC003B610BE07B689B6A43F020027B689A622B
:10270C007B68DB6A43F001027B68DA627B681B68DA
:10271C005B6823F469417B681B683A690A435A6019
:10272C007B681B689A68284B13407A681268B968F2
:10273C000B4393607B689B68B3F5807F03D07B6809
:10274C009B68012B04D17B681B69013B1B05FB605B
:10275C007B681B68DB6A23F470017B681B68FA6872
:10276C000A43DA627B681B689A68184B1340BA6894
:10277C009A420BD17B680022DA627B689B6A23F059
:10278C00030343F001027B689A6218E07B689B6A42
:10279C0023F0120343F010027B689A627B68DB6AB9
:1027AC0043F001027B68DA620123FB7507E07B686A
:1027BC009B6A43F010027B689A620123FB75FB7DD8
:1027CC0018461837BD4680BDFDF7E1FFFE0E1FFF12
:1027DC0080B586B000AFF860B9607A600023FB75F5
:1027EC00FB681B68644A934204D0FB681B68634A0D
:1027FC00934206D1604B5B6803F47023002B40F0CE
:10280C00B380FB6893F82430012B01D10223AEE096
:10281C00FB68012283F82420F86800F0C1F9034614
:10282C00FB75FB7D002B40F09A80FB689B6A23F4C0
:10283C00706323F0010343F48072FB689A62FB68B7
:10284C001B684E4A934205D14B4B5B6803F47023D3
:10285C00002B15D1FB689B6A23F48012FB689A62EB
:10286C00FB681B685B6803F48063002B26D0FB6855
:10287C009B6A23F4405343F48052FB689A621DE038
:10288C00FB689B6A43F48012FB689A62FB681B68C6
:10289C00394A934204D0FB681B68384A93420DD1E5
:1028AC00354B5B6803F48063002B07D0FB689B6A95
:1028BC0023F4405343F48052FB689A62FB689B6A92
:1028CC0003F48053002B06D0FB68DB6A23F006026E
:1028DC00FB68DA6202E0FB680022DA62FB68002225
:1028EC0083F82420FB681B6A254A9A62FB681B6AE2
:1028FC00244ADA62FB681B6A234A1A63FB681B686A
:10290C006FF002021A60FB681B689A68FB681B6810
:10291C0042F480729A60FB68186AFB681B684C333F
:10292C001946BA687B6800F0A5FBFB681B689B68BE
:10293C0003F46023B3F5602F08D1FB681B689A6819
:10294C00FB681B6842F4A0029A600FE0FB681B68EE
:10295C009A68FB681B6842F480129A6006E0FB6878
:10296C00002283F8242001E00123FB75FB7D18462F
:10297C001837BD4680BD00BF00240140002801402F
:10298C00E32C00085F2D00087B2D000880B483B079
:10299C0000AF786000BF0C37BD4680BC704780B478
:1029AC0083B000AF786000BF0C37BD4680BC704769
:1029BC0080B485B000AF786039600023FB730023CE
:1029CC00BB607B6893F82430012B01D10223DCE03F
:1029DC007B68012283F824203B685B68062B1CD89B
:1029EC007B681B68596B3B685A6813469B00134401
:1029FC00053B1F2202FA03F3DB4319403B681868BE
:102A0C003B685A6813469B001344053B00FA03F2DB
:102A1C007B681B680A435A633CE03B685B680C2B81
:102A2C001CD87B681B68196B3B685A6813469B0063
:102A3C001344233B1F2202FA03F3DB4319403B6888
:102A4C0018683B685A6813469B001344233B00FAF2
:102A5C0003F27B681B680A431A631BE07B681B68E4
:102A6C00D96A3B685A6813469B001344413B1F22AA
:102A7C0002FA03F3DB4319403B6818683B685A6859
:102A8C0013469B001344413B00FA03F27B681B681E
:102A9C000A43DA623B681B68092B1CD97B681B68EC
:102AAC00D9683B681A6813465B0013441E3B072227
:102ABC0002FA03F3DB4319403B6898683B681A68D9
:102ACC0013465B0013441E3B00FA03F27B681B6841
:102ADC000A43DA6019E07B681B6819693B681A685D
:102AEC0013465B001344072202FA03F3DB4319403D
:102AFC003B6898683B681A6813465B00134400FAFD
:102B0C0003F27B681B680A431A613B681B68102B35
:102B1C0003D03B681B68112B32D17B681B681D4AA4
:102B2C00934225D17B681B689B6803F40003002B40
:102B3C0026D17B681B689A687B681B6842F400028C
:102B4C009A603B681B68102B1AD1134B1B68134AF5
:102B5C00A2FB03239A0C13469B0013445B00BB603F
:102B6C0002E0BB68013BBB60BB68002BF9D107E0FE
:102B7C007B689B6A43F020027B689A620123FB739B
:102B8C007B68002283F82420FB7B18461437BD4653
:102B9C0080BC7047002401401C00002083DE1B43D6
:102BAC0080B584B000AF78600023FB600023BB606D
:102BBC007B681B689B6803F00103012B40D07B688A
:102BCC001B689A687B681B6842F001029A601F4B75
:102BDC001B681F4AA2FB03239B0CBB6002E0BB6873
:102BEC00013BBB60BB68002BF9D1FFF70FFDF86010
:102BFC001FE0FFF70BFD0246FB68D31A022B18D916
:102C0C007B681B689B6803F00103012B11D07B6868
:102C1C009B6A43F010027B689A627B68DB6A43F024
:102C2C0001027B68DA627B68002283F8242001238E
:102C3C0007E07B681B689B6803F00103012BD8D16C
:102C4C00002318461037BD4680BD00BF1C00002075
:102C5C0083DE1B4380B584B000AF78600023FB603B
:102C6C007B681B689B6803F00103012B2ED17B68EA
:102C7C001B689A687B681B6822F001029A60FFF758
:102C8C00C5FCF8601BE0FFF7C1FC0246FB68D31AD9
:102C9C00022B14D97B681B689B6803F00103012B82
:102CAC000DD17B689B6A43F010027B689A627B684B
:102CBC00DB6A43F001027B68DA62012307E07B6880
:102CCC001B689B6803F00103012BDCD00023184622
:102CDC001037BD4680BD80B584B000AF78607B688E
:102CEC005B6AFB60FB689B6A03F05003002B27D1E7
:102CFC00FB689B6A43F40072FB689A62FB681B6872
:102D0C009B6803F46023B3F5602F15D1FB681B7B24
:102D1C00002B11D1FB689B6A23F48072FB689A62CA
:102D2C00FB689B6A03F48053002B05D1FB689B6AFC
:102D3C0043F00102FB689A62F868FEF731FA04E08E
:102D4C00FB681B6A1B6B7868984700BF1037BD4641
:102D5C0080BD80B584B000AF78607B685B6AFB6037
:102D6C00F868FFF713FE00BF1037BD4680BD80B575
:102D7C0084B000AF78607B685B6AFB60FB689B6A21
:102D8C0043F04002FB689A62FB68DB6A43F0040282
:102D9C00FB68DA62F868FFF702FE00BF1037BD4629
:102DAC0080BD000080B485B000AF78607B6803F014
:102DBC000703FB600C4BDB68BB60BA684FF6FF0384
:102DCC001340BB60FB681A02BB68134343F0BF633C
:102DDC0043F40033BB60044ABB68D36000BF1437B4
:102DEC00BD4680BC704700BF00ED00E080B400AF72
:102DFC00044BDB681B0A03F007031846BD4680BC76
:102E0C00704700BF00ED00E080B483B000AF034614
:102E1C00FB7197F90730002B0BDBFB7903F01F02DA
:102E2C00064997F907305B09012000FA02F241F8D4
:102E3C00232000BF0C37BD4680BC704700E100E08A
:102E4C0080B483B000AF03463960FB7197F907304B
:102E5C00002B0ADB3B68DAB20C4997F907301201F8
:102E6C00D2B20B4483F800230AE03B68DAB208497B
:102E7C00FB7903F00F03043B1201D2B20B441A7618
:102E8C0000BF0C37BD4680BC704700BF00E100E0BE
:102E9C0000ED00E080B489B000AFF860B9607A60F2
:102EAC00FB6803F00703FB61FB69C3F10703042B09
:102EBC0028BF0423BB61FB690433062B02D9FB69D1
:102ECC00033B00E000237B614FF0FF32BB6902FA49
:102EDC0003F3DA43BB681A407B699A404FF0FF3129
:102EEC007B6901FA03F3D9437B680B401343184603
:102EFC002437BD4680BC704780B582B000AF786087
:102F0C007B68013BB3F1807F01D301230FE00A4AB8
:102F1C007B68013B53600F214FF0FF30FFF790FFB0
:102F2C00054B00229A60044B07221A6000231846B6
:102F3C000837BD4680BD00BF10E000E080B582B010
:102F4C0000AF78607868FFF72DFF00BF0837BD46EB
:102F5C0080BD80B586B000AF0346B9607A60FB7364
:102F6C0000237B61FFF742FF78617A68B968786962
:102F7C00FFF790FF024697F90F3011461846FFF7FE
:102F8C005FFF00BF1837BD4680BD80B582B000AF73
:102F9C000346FB7197F907301846FFF735FF00BF62
:102FAC000837BD4680BD80B582B000AF78607868C8
:102FBC00FFF7A2FF034618460837BD4680BD000048
:102FCC0080B485B000AF78600023FB607B68002B79
:102FDC0001D1012343E07B681B681A46224B134442
:102FEC00224AA2FB03231B099A007B681A647B68A4
:102FFC001F4ADA637B68022283F821207B681B68F6
:10300C001B68FB60FB6823F47F5323F03003FB60E9
:10301C007B685A687B689B681A437B68DB681A4339
:10302C007B681B691A437B685B691A437B689B69E5
:10303C001A437B68DB691343FA681343FB607B68B4
:10304C001B68FA681A607B6800229A637B6801220D
:10305C0083F821207B68002283F820200023184667
:10306C001437BD4680BC7047F8FFFDBFCDCCCCCC2F
:10307C000000024080B586B000AFF860B9607A609D
:10308C003B600023FB75FB6893F82030012B01D1CA
:10309C0002234BE0FB68012283F82020FB6893F8A5
:1030AC002130DBB2012B3AD1FB68022283F82120BC
:1030BC00FB6800229A63FB681B681A68FB681B6834
:1030CC0022F001021A603B687A68B968F86800F06F
:1030DC00EBF9FB68DB6A002B08D0FB681B681A68ED
:1030EC00FB681B6842F00E021A600FE0FB681B685D
:1030FC001A68FB681B6822F004021A60FB681B68E4
:10310C001A68FB681B6842F00A021A60FB681B68AD
:10311C001A68FB681B6842F001021A6005E0FB6844
:10312C00002283F820200223FB75FB7D18461837FC
:10313C00BD4680BD80B485B000AF78600023FB73C2
:10314C007B6893F82130DBB2022B08D07B68042219
:10315C009A637B68002283F82020012320E07B689F
:10316C001B681A687B681B6822F00E021A607B6869
:10317C001B681A687B681B6822F001021A607B6866
:10318C001A6C7B68DB6B012101FA02F25A607B68D6
:10319C00012283F821207B68002283F82020FB7B0E
:1031AC0018461437BD4680BC7047000080B584B00B
:1031BC0000AF78600023FB737B6893F82130DBB29F
:1031CC00022B05D07B6804229A630123FB7351E028
:1031DC007B681B681A687B681B6822F00E021A60F9
:1031EC007B681B681A687B681B6822F001021A60F6
:1031FC007B681B68224A934229D07B681B68214A52
:10320C00934222D07B681B681F4A93421AD07B687A
:10321C001B681E4A934212D07B681B681C4A93425F
:10322C000AD07B681B681B4A934202D14FF480136F
:10323C000EE04FF080730BE04FF4803308E04FF456
:10324C00805305E04FF4807302E0102300E001236B
:10325C00114A53607B68012283F821207B6800228D
:10326C0083F820207B685B6B002B03D07B685B6B47
:10327C0078689847FB7B18461037BD4680BD00BF69
:10328C00080002401C000240300002404400024092
:10329C00580002406C0002400000024080B584B02F
:1032AC0000AF78607B68DB6B1B68FB607B681B681E
:1032BC001B68BB607B681B6C04229A40FB68134044
:1032CC00002B4FD0BB6803F00403002B4AD07B6863
:1032DC001B681B6803F02003002B07D17B681B685D
:1032EC001A687B681B6822F004021A607B681B68F2
:1032FC00664A934229D07B681B68654A934222D068
:10330C007B681B68634A93421AD07B681B68624ACD
:10331C00934212D07B681B68604A93420AD07B6848
:10332C001B685F4A934202D14FF480030EE04FF0CA
:10333C0080630BE04FF4802308E04FF4804305E0FA
:10334C004FF4806302E0402300E00423554A5360AD
:10335C007B68DB6A002B00F094807B68DB6A786802
:10336C0098478EE07B681B6C02229A40FB681340E6
:10337C00002B56D0BB6803F00203002B51D07B68A6
:10338C001B681B6803F02003002B0BD17B681B68A8
:10339C001A687B681B6822F00A021A607B6801229B
:1033AC0083F821207B681B68384A934229D07B68BC
:1033BC001B68374A934222D07B681B68354A93427C
:1033CC001AD07B681B68344A934212D07B681B6806
:1033DC00324A93420AD07B681B68314A934202D12D
:1033EC004FF400130EE04FF000730BE04FF400337A
:1033FC0008E04FF4005305E04FF4007302E0202383
:10340C0000E00223274A53607B68002283F82020C7
:10341C007B689B6A002B34D07B689B6A78689847E2
:10342C002FE07B681B6C08229A40FB681340002B32
:10343C0028D0BB6803F00803002B23D07B681B68E3
:10344C001A687B681B6822F00E021A607B681A6C83
:10345C007B68DB6B012101FA02F25A607B68012266
:10346C009A637B68012283F821207B68002283F811
:10347C0020207B681B6B002B04D07B681B6B78684F
:10348C00984700BF00BF1037BD4680BD0800024002
:10349C001C00024030000240440002405800024030
:1034AC006C0002400000024080B485B000AFF860B0
:1034BC00B9607A603B60FB681A6CFB68DB6B0121BE
:1034CC0001FA02F25A60FB681B683A685A60FB68A2
:1034DC005B68102B08D1FB681B687A689A60FB68E4
:1034EC001B68BA68DA6007E0FB681B68BA689A6008
:1034FC00FB681B687A68DA6000BF1437BD4680BC75
:10350C007047000080B48BB000AF78603960002346
:10351C007B6200233B6269E101227B6A02FA03F3BE
:10352C00FB613B681B68FA691340BB61BA69FB69B4
:10353C009A4240F058813B685B689A4A93425ED04D
:10354C00984A934275D8984A934258D0964A9342D7
:10355C006FD8964A934252D0944A934269D8944A6F
:10356C0093424CD0924A934263D8924A934246D0AB
:10357C00904A93425DD8122B2AD8122B59D801A20B
:10358C0052F823F00B360008E5350008F735000833
:10359C00393600083F3600083F3600083F36000831
:1035AC003F3600083F3600083F3600083F3600081B
:1035BC003F3600083F3600083F3600083F3600080B
:1035CC003F3600083F360008ED350008013600088C
:1035DC00794A934213D02CE03B68DB683B6229E0CC
:1035EC003B68DB6804333B6224E03B68DB680833F0
:1035FC003B621FE03B68DB680C333B621AE03B68C4
:10360C009B68002B02D104233B6213E03B689B6850
:10361C00012B05D108233B627B68FA691A6109E02A
:10362C0008233B627B68FA695A6103E000233B6222
:10363C0000E000BFBB69FF2B01D87B6801E07B6811
:10364C0004337B61BB69FF2B02D87B6A9B0002E0D1
:10365C007B6A083B9B003B617B691A680F213B69C5
:10366C0001FA03F3DB431A40396A3B6901FA03F3AD
:10367C001A437B691A603B685B6803F08053002B2C
:10368C0000F0B1804D4B9B694C4A43F001039361B0
:10369C004A4B9B6903F00103BB60BB68484A7B6AD9
:1036AC009B08023352F82330FB607B6A03F0030360
:1036BC009B000F2202FA03F3DB43FA681340FB6012
:1036CC007B68404A934213D07B683F4A93420DD0AB
:1036DC007B683E4A934207D07B683D4A934201D1B6
:1036EC00032306E0042304E0022302E0012300E0AC
:1036FC0000237A6A02F0030292009340FA681343A3
:10370C00FB602F497B6A9B080233FA6841F823203F
:10371C003B685B6803F48013002B06D02D4B9A6832
:10372C002C49BB6913438B6006E02A4B9A68BB6932
:10373C00DB43284913408B603B685B6803F4001340
:10374C00002B06D0234BDA682249BB691343CB60AC
:10375C0006E0204BDA68BB69DB431E491340CB60A3
:10376C003B685B6803F40033002B06D0194B5A6896
:10377C001849BB6913434B6006E0164B5A68BB698A
:10378C00DB43144913404B603B685B6803F48033A4
:10379C00002B21D00F4B1A680E49BB6913430B60E9
:1037AC0021E000BF00003210000031100000221098
:1037BC000000211000001210000011100010024037
:1037CC000000014000080140000C014000100140C5
:1037DC0000140140000401400B4B1A68BB69DB4329
:1037EC00094913400B607B6A01337B623B681A68A2
:1037FC007B6A22FA03F3002B7FF48EAE00BF00BF6E
:10380C002C37BD4680BC70470004014080B485B0A5
:10381C0000AF78600B467B807B689A687B8813408E
:10382C00002B02D00123FB7301E00023FB73FB7B15
:10383C0018461437BD4680BC704780B483B000AFC7
:10384C0078600B467B8013467B707B78002B03D013
:10385C007A887B681A6103E07B881A047B681A619A
:10386C0000BF0C37BD4680BC7047F0B58BB006AFBF
:10387C0078607B68002B01D10123F1E07B6893F821
:10388C00A932DBB2002B06D17B68002283F8A82278
:10389C00786807F0B3FF7B68032283F8A9227B6862
:1038AC001B68184603F05CFE7B681B683B607E68F7
:1038BC006D4606F110040FCC0FC523682B60331D29
:1038CC000ECB386803F026FE0346002B05D07B6830
:1038DC00022283F8A9220123C2E07B681B68002125
:1038EC00184603F057FE0023FB7340E0FB7B79681E
:1038FC005A1C13469B001344DB000B44013301227A
:10390C001A70FB7B79685A1C13469B001344DB002E
:10391C000B44FA7B1A70FB7B79685A1C13469B008C
:10392C001344DB000B44033300221A70FA7B7968D2
:10393C0013469B001344DB000B44383300221A60FF
:10394C00FA7B796813469B001344DB000B443C3331
:10395C0000221A60FA7B796813469B001344DB0043
:10396C000B44403300221A60FB7B0133FB73FA7B60
:10397C007B685B689A42B9D30023FB7344E0FA7B03
:10398C00796813469B001344DB000B4403F2691364
:10399C0000221A70FA7B796813469B001344DB00F3
:1039AC000B4403F5B473FA7B1A70FA7B79681346EF
:1039BC009B001344DB000B4403F26B1300221A70C0
:1039CC00FA7B796813469B001344DB000B4403F528
:1039DC00BC7300221A60FA7B796813469B0013446F
:1039EC00DB000B4403F5BE7300221A60FA7B796886
:1039FC0013469B001344DB000B4403F5C0730022F9
:103A0C001A60FB7B0133FB73FA7B7B685B689A4221
:103A1C00B5D37B681B683B607E686D4606F110046D
:103A2C000FCC0FC523682B60331D0ECB386803F009
:103A3C00BDFD0346002B05D07B68022283F8A9222A
:103A4C0001230DE07B68002283F824207B6801228F
:103A5C0083F8A9227B681B68184606F03EF8002301
:103A6C0018461437BD46F0BD80B582B000AF786003
:103A7C007B6893F8A832012B01D1022316E07B68F6
:103A8C00012283F8A8227B681B68184603F052FDBC
:103A9C000121786808F025F97B681B68184606F048
:103AAC0012F87B68002283F8A822002318460837F6
:103ABC00BD4680BD80B588B000AF78607B681B6860
:103ACC00184606F014F8B861BB6903F40043002BE8
:103ADC0003D0786800F01BFB19E1BB6903F4806329
:103AEC00002B13D07B681B68B3F844309AB27B6808
:103AFC001B6822F4806292B2A3F84420786807F025
:103B0C00F8FE0021786800F005F900E1BB6903F4C8
:103B1C008043002B0CD07B681B68B3F844309AB2FE
:103B2C007B681B6822F4804292B2A3F84420EEE03A
:103B3C00BB6903F40053002B0CD07B681B68B3F8F3
:103B4C0044309AB27B681B6822F4005292B2A3F8FC
:103B5C004420DCE0BB6903F48053002B27D07B6846
:103B6C001B68B3F840309AB27B681B6822F00402E1
:103B7C0092B2A3F840207B681B68B3F840309AB22D
:103B8C007B681B6822F0080292B2A3F84020786888
:103B9C0007F0E8FE7B681B68B3F844309AB27B6888
:103BAC001B6822F4805292B2A3F84420AFE0BB69A8
:103BBC0003F40063002B00F083800023FB7710E0FC
:103BCC007B681B681A46FB7F9B001A44FB7F12889C
:103BDC0092B25B0020333B4423F8182CFB7F01335B
:103BEC00FB77FB7F072BEBD97B681B68B3F8403066
:103BFC009AB27B681B6842F0010292B2A3F8402093
:103C0C007B681B68B3F840309AB27B681B6822F063
:103C1C00010292B2A3F8402000BF7B681B68B3F886
:103C2C0044309BB203F48063002BF6D07B681B6896
:103C3C00B3F844309AB27B681B6822F4806292B26B
:103C4C00A3F844200023FB770FE0FB7F7A6812680F
:103C5C001146FA7F92000A445B0020333B4433F850
:103C6C00183C1380FB7F0133FB77FB7F072BECD9D0
:103C7C007B681B68B3F840309AB27B681B6842F0D3
:103C8C00080292B2A3F840207B681B68B3F844305A
:103C9C009AB27B681B6822F4006292B2A3F84420AB
:103CAC007B681B68B3F840309AB27B681B6842F0A3
:103CBC00040292B2A3F84020786807F039FE26E09F
:103CCC00BB6903F40073002B0FD07B681B68B3F83F
:103CDC0044309AB27B681B6822F4007292B2A3F84B
:103CEC004420786807F0F7FD11E0BB6903F480739A
:103CFC00002B0CD07B681B68B3F844309AB27B68FD
:103D0C001B6822F4807292B2A3F8442000BF2037C3
:103D1C00BD4680BD80B582B000AF78600B46FB70AD
:103D2C007B6893F8A832012B01D1022313E07B6846
:103D3C00012283F8A8227B68FA7883F824207B6818
:103D4C001B68FA781146184605F0AAFE7B6800221B
:103D5C0083F8A822002318460837BD4680BD80B5DD
:103D6C0084B000AF7860084611461A460346FB70D3
:103D7C000B463B801346BB700023FB7297F9033054
:103D8C00002B0EDAFB7803F007035A1C13469B003A
:103D9C001344DB007A681344FB60FB6801225A7001
:103DAC000EE0FB7803F0070213469B001344DB0084
:103DBC0003F5B4737A681344FB60FB6800225A70F5
:103DCC00FB7803F00703DAB2FB681A703A88FB68D9
:103DDC001A61FB68BA78DA70BB78022B02D1FB68E7
:103DEC0000221A717B6893F8A832012B01D10223AF
:103DFC000EE07B68012283F8A8227B681B68F968B7
:103E0C00184603F0F3FB7B68002283F8A822FB7AA8
:103E1C0018461037BD4680BD80B584B000AF7860C1
:103E2C000B46FB7097F90330002B0EDAFB7803F08E
:103E3C0007035A1C13469B001344DB007A68134497
:103E4C00FB60FB6801225A700EE0FB7803F007025E
:103E5C0013469B001344DB0003F5B4737A681344D8
:103E6C00FB60FB6800225A70FB7803F00703DAB2A0
:103E7C00FB681A707B6893F8A832012B01D10223DE
:103E8C000EE07B68012283F8A8227B681B68F96826
:103E9C00184603F06BFF7B68002283F8A8220023EE
:103EAC0018461037BD4680BD80B586B000AFF860AF
:103EBC007A603B600B46FB72FB7A03F007021346F9
:103ECC009B001344DB0003F5B473FA6813447B6165
:103EDC007B697A685A617B693A689A617B690022CE
:103EEC00DA617B6900225A70FB7A03F00703DAB2BD
:103EFC007B691A70FB681B687969184604F022F913
:103F0C00002318461837BD4680BD80B483B000AF7F
:103F1C0078600B46FB70FB7803F007027968134658
:103F2C009B001344DB000B4403F5C2731B6818465B
:103F3C000C37BD4680BC704780B586B000AFF860CA
:103F4C007A603B600B46FB72FB7A03F007035A1C4A
:103F5C0013469B001344DB00FA6813447B617B69B6
:103F6C007A685A617B693A689A617B69012283F8A5
:103F7C0024207B693A681A627B690022DA617B69CA
:103F8C0001225A70FB7A03F00703DAB27B691A70CC
:103F9C00FB681B687969184604F0D4F800231846AE
:103FAC001837BD4680BD80B584B000AF78600B4635
:103FBC00FB70FB7803F007027B685B689A4201D9BF
:103FCC0001234CE097F90330002B0EDAFB7803F059
:103FDC0007035A1C13469B001344DB007A681344F6
:103FEC00FB60FB6801225A700CE0FA7813469B00C8
:103FFC001344DB0003F5B4737A681344FB60FB686D
:10400C0000225A70FB6801229A70FB7803F00703B8
:10401C00DAB2FB681A707B6893F8A832012B01D1D5
:10402C0002231CE07B68012283F8A8227B681B68B2
:10403C00F968184605F037FCFB7803F00703002BF2
:10404C0008D17B681A687B6803F52C7319461046F7
:10405C0005F05CFD7B68002283F8A822002318463B
:10406C001037BD4680BD80B584B000AF78600B467C
:10407C00FB70FB7803F00F027B685B689A4201D9F6
:10408C00012340E097F90330002B0EDAFB7803F0A4
:10409C0007035A1C13469B001344DB007A68134435
:1040AC00FB60FB6801225A700EE0FB7803F00702FC
:1040BC0013469B001344DB0003F5B4737A68134476
:1040CC00FB60FB6800225A70FB6800229A70FB7838
:1040DC0003F00703DAB2FB681A707B6893F8A83216
:1040EC00012B01D102230EE07B68012283F8A82268
:1040FC007B681B68F968184605F025FC7B68002274
:10410C0083F8A822002318461037BD4680BD80B521
:10411C0096B000AF7860BFE37B681B68B3F844309F
:10412C00A7F84E30B7F84E30DBB203F00F0387F828
:10413C004D3097F84D30002B40F07981B7F84E3068
:10414C0003F01003002B52D17B681B681B889BB2B9
:10415C0023F4E14323F07003FB817B681A68FB892D
:10416C006FEA43436FEA53439BB213807B68283357
:10417C007B657B681B68B3F850309BB21A467B6D2D
:10418C001B78DB00134402335B007A68126813441B
:10419C0003F580631B88C3F309027B6DDA617B6DC9
:1041AC005A697B6DDB691A447B6D5A610021786812
:1041BC0007F077FB7B6893F82430DBB2002B00F020
:1041CC006B837B6D9B69002B40F066837B6893F857
:1041DC002430DBB263F07F03DAB27B681B6892B2E7
:1041EC00A3F84C207B68002283F8242054E37B68DE
:1041FC0003F5B4737B657B681B681B88A7F84A3092
:10420C00B7F84A3003F40063002B34D07B681B688A
:10421C00B3F850309BB21A467B6D1B78DB0013440D
:10422C0006335B007A681268134403F580631B88BD
:10423C00C3F309027B6DDA617B6818687B6803F550
:10424C002C717B6DDA887B6DDB699BB205F0AEFC63
:10425C007B681B681B889AB240F68F7313403B82B5
:10426C007B681B683A8A42F0800292B21A807868A6
:10427C0007F0EAFA10E3B7F94A30002B80F20C830E
:10428C007B681B681B889AB240F68F731340FB83C4
:10429C007B681B68FA8B42F0800292B21A807B68B2
:1042AC001B68B3F850309BB21A467B6D1B78DB0051
:1042BC00134406335B007A681268134403F5806379
:1042CC001B88C3F309027B6DDA617B6DDB69002B04
:1042DC0019D07B6D5B69002B15D07B6818687B6DE2
:1042EC0059697B6DDA887B6DDB699BB205F05EFCEE
:1042FC007B6D5A697B6DDB691A447B6D5A610021B9
:10430C00786807F0B3FA7B681B681B88A7F84A30FB
:10431C00B7F84A3003F40063002B40F0BD82B7F8C5
:10432C004A3003F44053B3F5405F00F0B5827B682C
:10433C001B68BB617B681B68B3F850309BB21A4694
:10434C00BB691344BB61BB6903F20C437B617B69A2
:10435C001B889BB2C3F309039AB27B691A807B6DED
:10436C001B693E2B1DD97B6D1B695B097B647B6DC7
:10437C001B6903F01F03002B02D17B6C013B7B6498
:10438C007B691B889AB27B6C9BB29B029BB21343DA
:10439C009BB26FEA43436FEA53439AB27B691A802C
:1043AC0026E07B6D1B69002B0AD17B691B889BB2B5
:1043BC006FEA43436FEA53439AB27B691A8017E062
:1043CC007B6D1B695B087B647B6D1B6903F00103D0
:1043DC00002B02D07B6C01337B647B691B889AB207
:1043EC007B6C9BB29B029BB213439AB27B691A8083
:1043FC007B681B681B889BB223F4804323F07003FB
:10440C007B827B8A83F480537B827B8A83F4005388
:10441C007B827B681A687B8A43F07F4343F47F037B
:10442C0043F4004343F080039BB2138034E27B6877
:10443C001B681A4697F84D309B0013441B88A7F84D
:10444C004A30B7F94A30002B80F2FC807B681B683D
:10445C001A4697F84D309B0013441B889AB240F6CD
:10446C008F731340A7F848307B681B681A4697F87F
:10447C004D309B001344B7F8482042F0800292B2B2
:10448C001A8097F84D2013469B001344DB0003F56C
:10449C00B4737A6813447B657B6D1B7B002B25D131
:1044AC007B681B68B3F850309BB21A467B6D1B7847
:1044BC00DB00134406335B007A681268134403F57F
:1044CC0080631B88C3F30903A7F85030B7F850304A
:1044DC00002B00F092807B6818687B6D59697B6DAE
:1044EC00DA88B7F8503005F061FB86E07B6DDB783D
:1044FC00022B0AD1B7F84A301A46796D786800F069
:10450C00D9F90346A7F8503077E07B681B681A4648
:10451C007B6D1B789B0013441B889BB223F4E043F8
:10452C0023F07003A7F852307B681B681A467B6D2A
:10453C001B789B001A44B7F8523043F07F4343F486
:10454C007F0343F4004343F0C0039BB213807B68AA
:10455C001B681A467B6D1B789B0013441B889BB20F
:10456C0003F48043002B24D07B681B68B3F85030D5
:10457C009BB21A467B6D1B78DB00134402335B0045
:10458C007A681268134403F580631B88C3F309032C
:10459C00A7F85030B7F85030002B2ED07B68186835
:1045AC007B6D59697B6D1A89B7F8503005F0FEFAAE
:1045BC0023E07B681B68B3F850309BB21A467B6DC6
:1045CC001B78DB00134406335B007A6812681344D3
:1045DC0003F580631B88C3F30903A7F85030B7F8C1
:1045EC005030002B09D07B6818687B6D59697B6D46
:1045FC005A89B7F8503005F0D9FA7B6DDA69B7F8FB
:10460C0050301A447B6DDA617B6D5A69B7F85030C3
:10461C001A447B6D5A617B6D9B69002B05D0B7F8F2
:10462C0050207B6D1B699A4206D27B6D1B78194614
:10463C00786807F01BF905E07B681B68796D1846F4
:10464C0003F080FDB7F84A3003F08003002B00F034
:10465C00238197F84D305A1C13469B001344DB0002
:10466C007A6813447B657B681B681A4697F84D3053
:10467C009B0013441B889BB223F4E14323F070038B
:10468C00A7F842307B681B681A4697F84D309B00A0
:10469C001A44B7F842306FEA43436FEA53439BB274
:1046AC0013807B6DDB78012B40F0A2807B6D0022A8
:1046BC009A617B6D1B7B002B00F09380B7F84A301E
:1046CC0003F04003002B46D07B6D5B78002B26D18A
:1046DC007B681B687B627B681B68B3F850309BB2AD
:1046EC001A467B6A13447B627B6D1B781A017B6ACA
:1046FC00134403F204433B623B6A1B889BB2C3F333
:10470C0009039AB23B6A1A803B6A1B889BB26FEA18
:10471C0043436FEA53439AB23B6A1A8061E07B6D64
:10472C005B78012B5DD17B681B68FB627B681B6827
:10473C00B3F850309BB21A46FB6A1344FB627B6D94
:10474C001B781A01FB6A134403F20443BB62BB6A75
:10475C0000221A8045E07B681B68FB637B6D5B78ED
:10476C00002B26D17B681B687B637B681B68B3F8C6
:10477C0050309BB21A467B6B13447B637B6D1B786A
:10478C001A017B6B134403F20C433B633B6B1B889A
:10479C009BB2C3F309039AB23B6B1A803B6B1B8829
:1047AC009BB26FEA43436FEA53439AB23B6B1A8056
:1047BC0017E07B6D5B78012B13D17B681B68B3F81A
:1047CC0050309BB21A46FB6B1344FB637B6D1B781A
:1047DC001A01FB6B134403F20C43BB63BB6B00224B
:1047EC001A807B6D1B781946786807F05AF853E0ED
:1047FC00B7F84A3003F48073002B46D17B681B68F2
:10480C00B3F850309BB21A467B6D1B78DB00134417
:10481C0002335B007A681268134403F580631B88CB
:10482C00C3F30903A7F840307B6D9A69B7F84030A1
:10483C009A4207D97B6D9A69B7F84030D21A7B6DD2
:10484C009A6102E07B6D00229A617B6D9B69002B63
:10485C0006D17B6D1B781946786807F022F81BE0AF
:10486C007B6D5A69B7F840301A447B6D5A617B6D89
:10487C00DA69B7F840301A447B6DDA617B681B68E3
:10488C00796D184603F05EFC06E0B7F84A301A461C
:10489C00796D786800F01BF97B681B68B3F84430BD
:1048AC009BB21BB2002BFFF637AC002318465837CF
:1048BC00BD4680BD80B588B000AFF860B9601346C6
:1048CC00FB80FB8803F48043002B7ED0FB681B68C5
:1048DC00B3F850309BB21A46BB681B78DB0013440C
:1048EC0002335B00FA681268134403F580631B887B
:1048FC00C3F309037B83BB689A697B8B9A4206D30B
:10490C00BB689A697B8BD21ABB689A6102E0BB6860
:10491C0000229A61BB689B69002B23D1FB681B6842
:10492C001A46BB681B789B0013441B889BB223F46C
:10493C00804323F070033B833B8B83F400533B8316
:10494C00FB681B681A46BB681B789B001A443B8BA0
:10495C0043F07F4343F47F0343F4004343F080036D
:10496C009BB21380FB8803F04003002B1FD0FB6825
:10497C001B681A46BB681B789B0013441B889BB2B0
:10498C0023F4E04323F07003FB82FB681B681A4698
:10499C00BB681B789B001A44FB8A43F07F4343F4AB
:1049AC007F0343F4004343F0C0039BB213807B8B23
:1049BC00002B00F08780FB681868BB685969BB68DE
:1049CC001A897B8B05F0F2F87CE0FB681B68B3F866
:1049DC0050309BB21A46BB681B78DB00134406337D
:1049EC005B00FA681268134403F580631B88C3F3F9
:1049FC0009037B83BB689A697B8B9A4206D3BB689D
:104A0C009A697B8BD21ABB689A6102E0BB68002260
:104A1C009A61BB689B69002B23D1FB681B681A4603
:104A2C00BB681B789B0013441B889BB223F4804308
:104A3C0023F07003FB83FB8B83F40053FB83FB6835
:104A4C001B681A46BB681B789B001A44FB8B43F00F
:104A5C007F4343F47F0343F4004343F080039BB252
:104A6C001380FB8803F04003002B1FD1FB681B68ED
:104A7C001A46BB681B789B0013441B889BB223F41B
:104A8C00E04323F07003BB83FB681B681A46BB68CA
:104A9C001B789B001A44BB8B43F07F4343F47F038A
:104AAC0043F4004343F0C0039BB213807B8B002B79
:104ABC0008D0FB681868BB685969BB685A897B8B3E
:104ACC0005F074F87B8B18462037BD4680BD80B549
:104ADC00A4B000AFF860B9601346FB80FB8803F00C
:104AEC004003002B00F0DD81FB681B68B3F85030ED
:104AFC009BB21A46BB681B78DB00134402335B0085
:104B0C00FA681268134403F580631B88C3F3090326
:104B1C00A7F88630BB689A69B7F886309A4207D9ED
:104B2C00BB689A69B7F88630D21ABB689A6102E002
:104B3C00BB6800229A61BB689B69002B40F0B9806E
:104B4C00BB685B78002B26D1FB681B68FB62FB689B
:104B5C001B68B3F850309BB21A46FB6A1344FB62D5
:104B6C00BB681B781A01FB6A134403F20443BB6253
:104B7C00BB6A1B889BB2C3F309039AB2BB6A1A8047
:104B8C00BB6A1B889BB26FEA43436FEA53439AB2EA
:104B9C00BB6A1A801AE0BB685B78012B16D1FB68E4
:104BAC001B687B63FB681B68B3F850309BB21A46DA
:104BBC007B6B13447B63BB681B781A017B6B1344C0
:104BCC0003F204433B633B6B00221A80FB681B68B7
:104BDC007B62BB685B78002B26D1FB681B68FB6192
:104BEC00FB681B68B3F850309BB21A46FB69134440
:104BFC00FB61BB681B781A01FB69134403F20C437D
:104C0C00BB61BB691B889BB2C3F309039AB2BB6936
:104C1C001A80BB691B889BB26FEA43436FEA53430C
:104C2C009AB2BB691A8017E0BB685B78012B13D171
:104C3C00FB681B68B3F850309BB21A467B6A13446E
:104C4C007B62BB681B781A017B6A134403F20C432A
:104C5C003B623B6A00221A80BB681B781946F868D5
:104C6C0006F01FFEFB8803F48043002B00F0FC824F
:104C7C00FB681B681A46BB681B789B0013441B8897
:104C8C009BB223F4E04323F07003FB82FB681B68A8
:104C9C001A46BB681B789B001A44FB8A43F07F437F
:104CAC0043F47F0343F4404343F080039BB21380EF
:104CBC00DAE2FB8803F48043002B21D0FB681B68ED
:104CCC001A46BB681B789B0013441B889BB223F4C9
:104CDC00E04323F07003A7F88A30FB681B681A4680
:104CEC00BB681B789B001A44B7F88A3043F07F43AB
:104CFC0043F47F0343F4404343F080039BB213809F
:104D0C00BB6893F82430012B40F0AE82BB685A6923
:104D1C00B7F886301A44BB685A61BB68DA69B7F8D1
:104D2C0086301A44BB68DA61BB681A6ABB681B69B7
:104D3C009A420BD3BB681B69C7F88C30BB681A6AE4
:104D4C00D7F88C30D21ABB681A6217E0BB681B6AA2
:104D5C00002B08D1B7F88630C7F88C30BB6800221E
:104D6C0083F824200AE0BB68002283F82420BB6867
:104D7C001B6AC7F88C30BB6800221A62BB685B7870
:104D8C00002B65D1FB681B68FB63FB681B68B3F8E1
:104D9C0050309BB21A46FB6B1344FB63BB681B7809
:104DAC001A01FB6B134403F20443BB63BB6B1B88FC
:104DBC009BB2C3F309039AB2BB6B1A80D7F88C3041
:104DCC003E2B1DD9D7F88C305B09BB64D7F88C30DF
:104DDC0003F01F03002B02D1BB6C013BBB64BB6B0C
:104DEC001B889AB2BB6C9BB29B029BB213439BB2C7
:104DFC006FEA43436FEA53439AB2BB6B1A8044E0A9
:104E0C00D7F88C30002B0AD1BB6B1B889BB26FEA96
:104E1C0043436FEA53439AB2BB6B1A8035E0D7F821
:104E2C008C305B08BB64D7F88C3003F00103002B8B
:104E3C0002D0BB6C0133BB64BB6B1B889AB2BB6CDE
:104E4C009BB29B029BB213439AB2BB6B1A801CE0C1
:104E5C00BB685B78012B18D1FB681B687B64FB6813
:104E6C001B68B3F850309BB21A467B6C13447B64BE
:104E7C00BB681B781A017B6C134403F204433B643C
:104E8C00D7F88C309AB23B6C1A80FB681868BB68F8
:104E9C005969BB681A89D7F88C309BB204F041FE73
:104EAC00E2E1FB681B68B3F850309BB21A46BB6852
:104EBC001B78DB00134406335B00FA68126813445A
:104ECC0003F580631B88C3F30903A7F88630BB681E
:104EDC009A69B7F886309A4207D3BB689A69B7F8D3
:104EEC008630D21ABB689A6102E0BB6800229A61D4
:104EFC00BB689B69002B40F0C080BB685B78002BC3
:104F0C0026D1FB681B68FB67FB681B68B3F8503045
:104F1C009BB21A46FB6F1344FB67BB681B781A01E4
:104F2C00FB6F134403F20443BB67BB6F1B889BB23C
:104F3C00C3F309039AB2BB6F1A80BB6F1B889BB279
:104F4C006FEA43436FEA53439AB2BB6F1A801AE07D
:104F5C00BB685B78012B16D1FB681B687B66FB6812
:104F6C001B68B3F850309BB21A467B6E13447B66B9
:104F7C00BB681B781A017B6E134403F204433B6637
:104F8C003B6E00221A80FB681B687B67BB685B78F2
:104F9C00002B2BD1FB681B68FB66FB681B68B3F806
:104FAC0050309BB21A46FB6E1344FB66BB681B78F1
:104FBC001A01FB6E134403F20C43C7F88030D7F888
:104FCC0080301B889BB2C3F309039AB2D7F88030A8
:104FDC001A80D7F880301B889BB26FEA43436FEA84
:104FEC0053439AB2D7F880301A8017E0BB685B78CD
:104FFC00012B13D1FB681B68B3F850309BB21A46D7
:10500C007B6F13447B67BB681B781A017B6F13445F
:10501C0003F20C433B673B6F00221A80BB681B7882
:10502C001946F86806F03DFCFB8803F48043002B1E
:10503C0040F01A81FB681B681A46BB681B789B0002
:10504C0013441B889BB223F4E04323F07003A7F8AE
:10505C008830FB681B681A46BB681B789B001A4497
:10506C00B7F8883043F07F4343F47F0343F4404365
:10507C0043F080039BB21380F6E0FB8803F480437B
:10508C00002B21D1FB681B681A46BB681B789B0060
:10509C0013441B889BB223F4E04323F07003A7F85E
:1050AC004E30FB681B681A46BB681B789B001A4481
:1050BC00B7F84E3043F07F4343F47F0343F440434F
:1050CC0043F080039BB21380BB6893F82430012B10
:1050DC0040F0CA80BB685A69B7F886301A44BB687E
:1050EC005A61BB68DA69B7F886301A44BB68DA6172
:1050FC00BB681A6ABB681B699A420BD3BB681B69F5
:10510C00C7F88C30BB681A6AD7F88C30D21ABB68D7
:10511C001A6217E0BB681B6A002B08D1B7F88630FF
:10512C00C7F88C30BB68002283F824200AE0BB68E7
:10513C001B6AC7F88C30BB6800221A62BB6800225D
:10514C0083F82420FB681B687B65BB685B78002BAD
:10515C0065D1FB681B68FB65FB681B68B3F85030B6
:10516C009BB21A46FB6D1344FB65BB681B781A0196
:10517C00FB6D134403F20C43BB65BB6D1B889BB2E8
:10518C00C3F309039AB2BB6D1A80D7F88C303E2B4F
:10519C001DD9D7F88C305B09BB66D7F88C3003F07F
:1051AC001F03002B02D1BB6E013BBB66BB6D1B8882
:1051BC009AB2BB6E9BB29B029BB213439BB26FEA3B
:1051CC0043436FEA53439AB2BB6D1A8041E0D7F860
:1051DC008C30002B0AD1BB6D1B889BB26FEA43430A
:1051EC006FEA53439AB2BB6D1A8032E0D7F88C3019
:1051FC005B08BB66D7F88C3003F00103002B02D0A0
:10520C00BB6E0133BB66BB6D1B889AB2BB6E9BB287
:10521C009B029BB213439AB2BB6D1A8019E0BB6818
:10522C005B78012B15D1FB681B68B3F850309BB22F
:10523C001A467B6D13447B65BB681B781A017B6D2A
:10524C00134403F20C433B65D7F88C309AB23B6D98
:10525C001A80FB681868BB685969BB685A89D7F80B
:10526C008C309BB204F05DFCFB681B681A46BB6873
:10527C001B789B0013441B889BB223F4E04323F060
:10528C004003BB82BB8A83F01003BB82BB8A83F0D2
:10529C002003BB82FB681B681A46BB681B789B000B
:1052AC001A44BB8A43F07F4343F47F0343F4004327
:1052BC0043F080039BB21380002318469037BD4601
:1052CC0080BD80B487B000AFF8607B600B467B81FB
:1052DC0013463B817B8903F080039BB2002B0BD0E0
:1052EC007B8903F007035A1C13469B001344DB0015
:1052FC00FA6813447B6109E07A8913469B001344D6
:10530C00DB0003F5B473FA6813447B613B89002B13
:10531C0007D17B6900221A737B689AB27B69DA80A9
:10532C000BE07B6901221A737B689AB27B691A8144
:10533C007B681B0C9AB27B695A81002318461C3778
:10534C00BD4680BC7047000080B586B000AF786069
:10535C007B68002B01D1012372E27B681B6803F090
:10536C000103002B00F08780924B5B6803F00C0369
:10537C00042B0CD08F4B5B6803F00C03082B12D161
:10538C008C4B5B6803F48033B3F5803F0BD1894BB6
:10539C001B6803F40033002B6CD07B685B68002B1C
:1053AC0068D101234CE27B685B68B3F5803F06D182
:1053BC00804B1B687F4A43F4803313602EE07B687C
:1053CC005B68002B0CD17B4B1B687A4A23F480332F
:1053DC001360784B1B68774A23F4802313601DE01D
:1053EC007B685B68B3F5A02F0CD1724B1B68714ABC
:1053FC0043F4802313606F4B1B686E4A43F4803375
:10540C0013600BE06B4B1B686A4A23F48033136008
:10541C00684B1B68674A23F4802313607B685B68C6
:10542C00002B13D0FDF7F2F8386108E0FDF7EEF829
:10543C0002463B69D31A642B01D9032300E25D4B6E
:10544C001B6803F40033002BF0D014E0FDF7DEF8FA
:10545C00386108E0FDF7DAF802463B69D31A642B91
:10546C0001D90323ECE1534B1B6803F40033002BED
:10547C00F0D100E000BF7B681B6803F00203002B37
:10548C0063D04C4B5B6803F00C03002B0BD0494BE7
:10549C005B6803F00C03082B1CD1464B5B6803F4D0
:1054AC008033002B16D1434B1B6803F00203002BF7
:1054BC0005D07B681B69012B01D00123C0E13D4B5A
:1054CC001B6823F0F8027B685B69DB0039491343E6
:1054DC000B603AE07B681B69002B20D0364B012215
:1054EC001A60FDF793F8386108E0FDF78FF8024673
:1054FC003B69D31A022B01D90323A1E12D4B1B6865
:10550C0003F00203002BF0D02A4B1B6823F0F802A7
:10551C007B685B69DB00274913430B6015E0264B66
:10552C0000221A60FDF772F8386108E0FDF76EF89A
:10553C0002463B69D31A022B01D9032380E11D4B90
:10554C001B6803F00203002BF0D17B681B6803F08F
:10555C000803002B3AD07B689B69002B19D0174BA2
:10556C0001221A60FDF752F8386108E0FDF74EF899
:10557C0002463B69D31A022B01D9032360E10D4B80
:10558C005B6A03F00203002BF0D0012000F0CEFA8E
:10559C001CE00A4B00221A60FDF738F838610FE066
:1055AC00FDF734F802463B69D31A022B08D90323C2
:1055BC0046E100BF0010024000004242800442421B
:1055CC00924B5B6A03F00203002BE9D17B681B68EA
:1055DC0003F00403002B00F0A6800023FB758B4B1B
:1055EC00DB6903F08053002B0DD1884BDB69874AB4
:1055FC0043F08053D361854BDB6903F08053BB6070
:10560C00BB680123FB75824B1B6803F48073002B72
:10561C0018D17F4B1B687E4A43F480731360FCF7F0
:10562C00F5FF386108E0FCF7F1FF02463B69D31A3D
:10563C00642B01D9032303E1754B1B6803F48073BE
:10564C00002BF0D07B68DB68012B06D16F4B1B6AFB
:10565C006E4A43F0010313622DE07B68DB68002B7C
:10566C000CD16A4B1B6A694A23F001031362674B26
:10567C001B6A664A23F0040313621CE07B68DB6838
:10568C00052B0CD1614B1B6A604A43F00403136277
:10569C005E4B1B6A5D4A43F0010313620BE05B4BEC
:1056AC001B6A5A4A23F001031362584B1B6A574A70
:1056BC0023F0040313627B68DB68002B15D0FCF726
:1056CC00A5FF38610AE0FCF7A1FF02463B69D31A3B
:1056DC0041F28832934201D90323B1E04B4B1B6A50
:1056EC0003F00203002BEED014E0FCF78FFF3861BF
:1056FC000AE0FCF78BFF02463B69D31A41F2883271
:10570C00934201D903239BE0404B1B6A03F0020335
:10571C00002BEED1FB7D012B05D13C4BDB693B4AC9
:10572C0023F08053D3617B68DB69002B00F087800A
:10573C00364B5B6803F00C03082B61D07B68DB698C
:10574C00022B46D1334B00221A60FCF75FFF386105
:10575C0008E0FCF75BFF02463B69D31A022B01D928
:10576C0003236DE0294B1B6803F00073002BF0D171
:10577C007B681B6AB3F5803F08D1244B5B6823F42C
:10578C0000327B689B68214913434B601F4B5B685D
:10579C0023F474127B68196A7B685B6A0B431B49A0
:1057AC0013434B601B4B01221A60FCF72FFF38612F
:1057BC0008E0FCF72BFF02463B69D31A022B01D9F8
:1057CC0003233DE0114B1B6803F00073002BF0D05A
:1057DC0035E0104B00221A60FCF718FF386108E026
:1057EC00FCF714FF02463B69D31A022B01D90323A1
:1057FC0026E0064B1B6803F00073002BF0D11EE073
:10580C007B68DB69012B07D1012319E000100240F2
:10581C0000700040600042420B4B5B68FB60FB6811
:10582C0003F480327B681B6A9A4206D1FB6803F44E
:10583C0070127B685B6A9A4201D0012300E000235E
:10584C0018461837BD4680BD0010024080B584B0A4
:10585C0000AF786039607B68002B01D10123D0E068
:10586C006A4B1B6803F007033A689A4210D9674BDE
:10587C001B6823F0070265493B6813430B60634BBD
:10588C001B6803F007033A689A4201D00123B8E081
:10589C007B681B6803F00203002B20D07B681B681D
:1058AC0003F00403002B05D0594B5B68584A43F4B2
:1058BC00E06353607B681B6803F00803002B05D082
:1058CC00534B5B68524A43F460535360504B5B68D4
:1058DC0023F0F0027B689B684D4913434B607B6857
:1058EC001B6803F00103002B40D07B685B68012B25
:1058FC0007D1474B1B6803F40033002B15D1012350
:10590C007FE07B685B68022B07D1414B1B6803F07F
:10591C000073002B09D1012373E03D4B1B6803F08E
:10592C000203002B01D101236BE0394B5B6823F0A0
:10593C0003027B685B68364913434B60FCF766FED9
:10594C00F8600AE0FCF762FE0246FB68D31A41F2EB
:10595C008832934201D9032353E02D4B5B6803F04B
:10596C000C027B685B689B009A42EBD1274B1B684F
:10597C0003F007033A689A4210D2244B1B6823F0B9
:10598C00070222493B6813430B60204B1B6803F052
:10599C0007033A689A4201D0012332E07B681B6806
:1059AC0003F00403002B08D0194B5B6823F4E0626E
:1059BC007B68DB68164913434B607B681B6803F0FC
:1059CC000803002B09D0124B5B6823F460527B68F0
:1059DC001B69DB000E4913434B6000F021F80246B3
:1059EC000B4B5B681B0903F00F030A49CB5C22FAD3
:1059FC0003F3094A1360094B1B681846FCF7C4FDF6
:105A0C00002318461037BD4680BD00BF0020024061
:105A1C00001002404CC200081C0000202000002096
:105A2C0080B487B000AF0023FB600023BB60002371
:105A3C007B6100237B6000233B611E4B5B68FB603A
:105A4C00FB6803F00C03042B02D0082B03D027E0D7
:105A5C00194B3B6127E0FB689B0C03F00F03174AC3
:105A6C00D35C7B60FB6803F48033002B10D0114BAC
:105A7C005B685B0C03F00103114AD35CBB607B6871
:105A8C000D4A03FB02F2BB68B2FBF3F37B6104E04B
:105A9C007B680C4A02FB03F37B617B693B6102E090
:105AAC00054B3B6100BF3B6918461C37BD4680BCAB
:105ABC00704700BF0010024000127A0064C2000858
:105ACC0074C2000800093D0080B400AF024B1B6893
