:020000040800F2
:100000000050002075110008C9100008CF1000082A
:10001000D5100008DB100008E11000080000000007
:10002000000000000000000000000000E7100008D1
:10003000F310000800000000FF1000080B1100087A
:10004000BD110008BD110008BD110008BD11000858
:10005000BD110008BD110008BD110008BD11000848
:10006000BD110008BD110008BD11000819110008DC
:10007000BD110008BD110008BD110008BD11000828
:10008000BD110008BD110008BD110008BD11000818
:100090002D110008BD110008BD110008BD11000898
:1000A000BD11000841110008BD110008BD11000874
:1000B000BD110008BD110008BD110008BD110008E8
:1000C000BD110008BD110008BD110008BD110008D8
:1000D000BD11000855110008BD110008BD11000830
:1000E000BD110008BD110008BD110008000000008E
:1000F0000000000000000000000000000000000000
:0C01000000000000000000005FF808F1A3
:10010C0010B5054C237833B9044B13B10448AFF345
:10011C0000800123237010BD880100200000000026
:10012C00F8A9000808B5034B1BB103490348AFF30A
:10013C00008008BD000000008C010020F8A9000818
:10014C0080B483B000AF78607B681B68084A934228
:10015C0009D1084B1B78002B05D0064B1B78013BB3
:10016C00DAB2044B1A7000BF0C37BD4680BC704726
:10017C00002C01400000002080B582B000AF7860F8
:10018C007B681B680B4A934210D10B4BDB78013315
:10019C00DAB2094BDA70084BDB781A46064B13447B
:1001AC00073301221946054805F090FA00BF0837BD
:1001BC00BD4680BD0038014024030020D802002039
:1001CC0080B582B000AF78600B467B800C4BDB783F
:1001DC001A460B4B134407337A88796818460AF091
:1001EC00F7FB074BDA787B88DBB21344DAB2044BAB
:1001FC00DA70034B01221A7000BF0837BD4680BD70
:10020C002C05002080B483B000AF786000BF0C37A1
:10021C00BD4680BC7047000080B500AF114B1A681A
:10022C00114B1B681340002B06D000224FF40051D9
:10023C000E4802F017F905E001224FF400510B486B
:10024C0002F010F9084B1B685B08074A1360064B59
:10025C001B68002B03D1044B4FF000421A6000BF07
:10026C0080BD00BF080000200400002000100140E9
:10027C0080B584B000AF78607B68DB78FB73DFE01F
:10028C00754B1B78062B00F2D78001A252F823F095
:10029C00B9020008E1020008150300084903000830
:1002AC007D030008A5030008E70300087B681B79A1
:1002BC005A1CD1B27A6811711A467B681344DB79E7
:1002CC00552B40F0BD80644B01221A707B680022D4
:1002DC009A70B5E07B681B795A1CD1B27A6811719F
:1002EC001A467B681344DB794E2B03D15A4B0222FE
:1002FC001A70A5E07B681B79013BDAB27B681A7136
:10030C00554B00221A709BE07B681B795A1CD1B2AA
:10031C007A6811711A467B681344DB79452B03D13B
:10032C004D4B03221A708BE07B681B79013BDAB2D0
:10033C007B681A71484B00221A7081E07B681B792C
:10034C005A1CD1B27A6811711A467B681344DB7956
:10035C00522B03D1404B04221A7071E07B681B793D
:10036C00013BDAB27B681A713B4B00221A7067E0D2
:10037C007B681A797B685A707B681B795A1CD1B2DE
:10038C007A6811711A467B681344DA79334B1A7008
:10039C00314B05221A7053E07B681B795A1CD1B281
:1003AC007A6811711A467B681344DB793A2B0AD1AF
:1003BC00294B06221A70294B1B7883F03603DAB2CC
:1003CC007B689A703CE07B681B79013BDAB27B68F6
:1003DC001A71214B00221A7032E0204B1B78012B32
:1003EC000FD97B681B795A1CD1B27A6811711A46E5
:1003FC007B681344DA797B689B785340DAB27B686C
:10040C009A70164B1B78013BDAB2144B1A70134BD3
:10041C001B78002B14D1104B00221A707B689A7831
:10042C007B681B7919467B680B44DB799A4207D1B0
:10043C00786800F015F803E0074B00221A7000BF33
:10044C007B681B79FA7B9A427FF41AAF00BF00BF1E
:10045C001037BD4680BD00BF20030020440700209C
:10046C0080B491B000AF7860002387F83F3097F8E4
:10047C003F305A1C87F83F2040333B44552203F849
:10048C00382C97F83F305A1C87F83F2040333B44B8
:10049C004E2203F8382C97F83F305A1C87F83F202F
:1004AC0040333B44452203F8382C97F83F305A1C14
:1004BC0087F83F2040333B44522203F8382C97F8FE
:1004CC003F305A1C87F83F2040333B44002203F84E
:1004DC00382C97F83F305A1C87F83F2040333B4468
:1004EC003A2203F8382C97F83F305A1C87F83F20F3
:1004FC0040333B44392203F8382C97F83F305A1CD0
:10050C0087F83F2040333B44372203F8382C7B6874
:10051C005B7804337A681344DB79F02B02D0F12B2F
:10052C0017D023E097F83F305A1C87F83F20403310
:10053C003B44F02203F8382C97F83F305A1C87F8CC
:10054C003F2040333B440D2203F8382C05233B73EA
:10055C0019E097F83F305A1C87F83F2040333B4452
:10056C00F12203F8382C04233B730CE097F83F304E
:10057C005A1C87F83F2040333B44FF2203F8382CA9
:10058C0004233B7300BF002387F83E30002387F819
:10059C003D3021E097F83D3040333B4413F8382C84
:1005AC0097F83E30534087F83E3097F83D207B68F3
:1005BC005B79591CC8B279684871194602F140033D
:1005CC003B4413F8382C7B680B4483F8072197F8CD
:1005DC003D30013387F83D3097F83D2097F83F3098
:1005EC009A42D7D37B685B795A1CD1B27A68517125
:1005FC001A467B68134497F83E2083F8072100BF06
:10060C004437BD4680BC704780B582B000AF78607F
:10061C000B46FB707B681A797B68DB789A4202D0B8
:10062C007868FFF725FEFB78002B1AD17B689A7946
:10063C007B685B799A4228D0164B1B681B6803F0C9
:10064C008003802B21D17B689B795A1CD1B27A68AC
:10065C0091711A467B68134493F807210E4B5A602C
:10066C0013E0FB78022B10D17B681B78012B0CD18B
:10067C000A4BDB789BB21946094809F091FD0346F9
:10068C00002B02D17B6800221A7000BF0837BD46D0
:10069C0080BD00BFD8020020003801402C0500208E
:1006AC003305002080B500AF00F084FD00F076F833
:1006BC0000F0C4FA00F0A4FA00F0AEF900F076FAFB
:1006CC0009F048FC00F0C8F800F068F900F0F4F903
:1006DC00284804F063F9284BDB781A46264B134460
:1006EC00073301221946254804F0F0FF244809F08D
:1006FC007DFD08222349244800F096FE234B1B78ED
:10070C00002B2ED1224B1B78002B21D1FFF784FD1F
:10071C001F4B0A221A701F4B1B78002B11D1164B42
:10072C00DB780433144A1344F022DA71124BDA7872
:10073C00114B5A701048FFF793FE164B05221A7096
:10074C000CE0144B1B78013BDAB2124B1A7005E02B
:10075C000F4B1B78013BDAB20D4B1A700B4B282256
:10076C001A7000210448FFF74FFF02210A48FFF7D7
:10077C004BFFC3E74802002024030020D8020020CE
:10078C00CD01000834070020A40100200000002047
:10079C0001000020020000202C05002080B594B040
:1007AC0000AF07F128032822002118460AF0E4F8CC
:1007BC0007F1140300221A605A609A60DA601A6119
:1007CC003B1D00221A605A609A60DA600123BB62FA
:1007DC004FF48033FB6200233B630123BB63022392
:1007EC007B644FF48033BB644FF4E013FB6407F17C
:1007FC002803184603F0BCFB0346002B01D000F085
:10080C00C7FA0F237B610223BB610023FB614FF40A
:10081C0080633B6200237B6207F1140302211846BC
:10082C0003F028FE0346002B01D000F0B1FA12238E
:10083C007B604FF40043FB6000233B613B1D18467B
:10084C0003F0A6FF0346002B01D000F0A1FA00BF75
:10085C005037BD4680BD000080B584B000AF3B1D55
:10086C0000221A605A609A604A4B4B4A1A60494BF4
:10087C004FF480729A60474B00221A73454B00224A
:10088C001A75444B4FF46022DA61424B00225A60D5
:10089C00404B08221A613F4800F0EEFC0346002B47
:1008AC0001D000F075FA00237B600123BB600023AC
:1008BC00FB603B1D1946374800F0A6FE0346002B93
:1008CC0001D000F065FA01237B600223BB603B1D65
:1008DC001946304800F098FE0346002B01D000F07A
:1008EC0057FA02237B600323BB603B1D1946294842
:1008FC0000F08AFE0346002B01D000F049FA0323D6
:10090C007B600423BB603B1D1946224800F07CFE33
:10091C000346002B01D000F03BFA04237B60052337
:10092C00BB603B1D19461B4800F06EFE0346002BB6
:10093C0001D000F02DFA05237B600623BB603B1D24
:10094C001946144800F060FE0346002B01D000F05D
:10095C001FFA06237B600723BB603B1D19460D481D
:10096C0000F052FE0346002B01D000F011FA0723D1
:10097C007B600823BB603B1D1946064800F044FE13
:10098C000346002B01D000F003FA00BF1037BD4620
:10099C0080BD00BFA40100200024014080B584B0BC
:1009AC0000AF3B1D00221A605A609A60184B194A1E
:1009BC001A60174B00229A60154B00221A73144BC5
:1009CC0000221A75124B4FF46022DA61104B002290
:1009DC005A600F4B01221A610D4800F04DFC034682
:1009EC00002B01D000F0D4F902237B600123BB6003
:1009FC000023FB603B1D1946054800F005FE03462D
:100A0C00002B01D000F0C4F900BF1037BD4680BDEB
:100A1C00D40100200028014080B586B000AF07F15A
:100A2C00080300221A605A609A60DA603B46002282
:100A3C001A605A601E4B1F4A1A601D4B47225A609F
:100A4C001B4B00229A601A4BFA22DA60184B0022D8
:100A5C001A61174B00225A61154B00229A611448F7
:100A6C0003F04CFF0346002B01D000F091F94FF43A
:100A7C008053BB6007F1080319460D4804F0FAF9DE
:100A8C000346002B01D000F083F900233B600023C8
:100A9C007B603B461946064804F058FD0346002B84
:100AAC0001D000F075F900BF1837BD4680BD00BFFE
:100ABC0048020020002C014080B58AB000AF07F13D
:100ACC00200300221A605A603B1D00221A605A60F3
:100ADC009A60DA601A615A619A61324B324A1A6032
:100AEC00304B00225A602F4B00229A602D4B4FF650
:100AFC00FF72DA602B4B00221A612A4B00229A619A
:100B0C00284803F09DFF0346002B01D000F040F96C
:100B1C0000233B6200237B6207F120031946214826
:100B2C0004F014FD0346002B01D000F031F96023D2
:100B3C007B600023BB600023FB6000237B613B1DBB
:100B4C0000221946174804F0D3F80346002B01D0B5
:100B5C0000F01EF93B1D04221946124804F0C8F897
:100B6C000346002B01D000F013F93B1D0822194657
:100B7C000C4804F0BDF80346002B01D000F008F936
:100B8C003B1D0C221946074804F0B2F80346002B13
:100B9C0001D000F0FDF8034800F008FA00BF283738
:100BAC00BD4680BD900200200008004080B500AF1B
:100BBC00114B124A1A60104B4FF4E1325A600E4B33
:100BCC0000229A600C4B0022DA600B4B00221A6157
:100BDC00094B0C225A61084B00229A61064B0022E9
:100BEC00DA61054804F022FD0346002B01D000F029
:100BFC00CFF800BF80BD00BFD802002000380140F4
:100C0C0080B582B000AF0C4B5B690B4A43F001031B
:100C1C005361094B5B6903F001037B607B68002225
:100C2C0000210B2000F0C1FF0B2000F0DAFF00BF09
:100C3C000837BD4680BD00BF0010024080B58AB0A9
:100C4C0000AF07F1140300221A605A609A60DA6050
:100C5C004A4B9B69494A43F010039361474B9B698C
:100C6C0003F010033B613B69444B9B69434A43F0DF
:100C7C0020039361414B9B6903F02003FB60FB68ED
:100C8C003E4B9B693D4A43F0040393613B4B9B698C
:100C9C0003F00403BB60BB68384B9B69374A43F0D5
:100CAC0008039361354B9B6903F008037B607B68F9
:100CBC0001224FF40051324801F0D4FB00224FF4D2
:100CCC008071304801F0CEFB4FF400537B6101235F
:100CDC00BB610023FB6102233B6207F1140319463D
:100CEC00274801F03BFA4FF440637B611223BB6150
:100CFC0003233B6207F114031946234801F02EFA33
:100D0C004FF480537B610023BB610123FB6107F12E
:100D1C00140319461C4801F021FA4FF480737B61CF
:100D2C000123BB610023FB6102233B6207F1140327
:100D3C001946144801F012FA30237B610223BB617F
:100D4C0002233B6207F1140319460F4801F006FA1F
:100D5C000E4B5B687B627B6A23F440637B627B6A2D
:100D6C0043F0E0637B627B6A43F400637B62074A77
:100D7C007B6A536000BF2837BD4680BD001002401F
:100D8C000010014000080140000C0140000001402F
:100D9C0080B400AF72B600BFFEE7000080B485B02F
:100DAC0000AF154B9B69144A43F001039361124B3E
:100DBC009B6903F00103BB60BB680F4BDB690E4AF8
:100DCC0043F08053D3610C4BDB6903F080537B60A1
:100DDC007B680A4B5B68FB60FB6823F0E063FB609D
:100DEC00FB6843F00073FB60044AFB68536000BF70
:100DFC001437BD4680BC7047001002400000014013
:100E0C0080B58AB000AF786007F1180300221A6031
:100E1C005A609A60DA607B681B683C4A93424AD1FC
:100E2C003B4B9B693A4A43F400739361384B9B6983
:100E3C0003F400737B617B69354B9B69344A43F047
:100E4C0004039361324B9B6903F004033B613B69E0
:100E5C00FF23BB610323FB6107F1180319462D48DF
:100E6C0001F07CF92C4B2D4A1A602B4B00225A6056
:100E7C00294B00229A60284B8022DA60264B4FF4D3
:100E8C0080721A61244B4FF480625A61224B00220B
:100E9C009A61214B0022DA611F4800F0BDFE034627
:100EAC00002B01D0FFF774FF7B681B4A1A621A4AA9
:100EBC007B68536226E07B681B68194A934221D1F8
:100ECC00134B9B69124A43F480639361104B9B69EB
:100EDC0003F48063FB60FB680D4B9B690C4A43F089
:100EEC00040393610A4B9B6903F00403BB60BB686A
:100EFC000423BB610323FB6107F118031946054862
:100F0C0001F02CF900BF2837BD4680BD00240140FC
:100F1C0000100240000801400402002008000240BA
:100F2C000028014080B584B000AF78607B681B68F6
:100F3C000D4A934213D10D4B9B690C4A43F4006349
:100F4C0093610A4B9B6903F40063FB60FB6800220E
:100F5C000021192000F029FE192000F042FE00BFEC
:100F6C001037BD4680BD00BF002C01400010024070
:100F7C0080B485B000AF78607B681B68094A9342E7
:100F8C000BD1094BDB69084A43F00403D361064BD0
:100F9C00DB6903F00403FB60FB6800BF1437BD463C
:100FAC0080BC7047000800400010024080B588B03B
:100FBC0000AF786007F1100300221A605A609A6043
:100FCC00DA607B681B68104A934218D10F4B9B69FF
:100FDC000E4A43F0080393610C4B9B6903F0080322
:100FEC00FB60FB684FF470733B6102237B6102234F
:100FFC00FB6107F110031946054801F0AFF800BF7B
:10100C002037BD4680BD00BF0008004000100240E4
:10101C00000C014080B588B000AF786007F1100378
:10102C0000221A605A609A60DA607B681B68204A5A
:10103C00934239D11F4B9B691E4A43F48043936101
:10104C001C4B9B6903F48043FB60FB68194B9B6949
:10105C00184A43F004039361164B9B6903F0040395
:10106C00BB60BB684FF400733B6102237B610323BD
:10107C00FB6107F1100319460F4801F06FF84FF4AC
:10108C0080633B6100237B610023BB6107F110038C
:10109C001946094801F062F800220021252000F0D1
:1010AC0084FD252000F09DFD00BF2037BD4680BD8E
:1010BC0000380140001002400008014080B400AF2D
:1010CC00FEE780B400AFFEE780B400AFFEE780B46B
:1010DC0000AFFEE780B400AFFEE780B400AF00BF06
:1010EC00BD4680BC704780B400AF00BFBD4680BC1D
:1010FC00704780B400AF00BFBD4680BC704780B560
:10110C0000AF00F09DF800BF80BD000080B500AFBF
:10111C00024800F0EFFE00BF80BD00BF04020020BB
:10112C0080B500AF024801F0DAFA00BF80BD00BF05
:10113C00200E002080B500AF024803F0D0FC00BFA9
:10114C0080BD00BF4802002080B500AF024804F00B
:10115C00E3FA00BF80BD00BFD802002080B400AF0E
:10116C0000BFBD4680BC7047FFF7F8FF0B480C4929
:10117C000C4A002302E0D458C4500433C4188C42E7
:10118C00F9D3094A094C002301E013600432A2424E
:10119C00FBD309F0F9FBFFF785FA7047000000203C
:1011AC00880100208CAA0008880100203013002040
:1011BC00FEE7000080B500AF084B1B68074A43F000
:1011CC0010031360032000F0E5FC0F2000F008F87A
:1011DC00FFF7E4FD0023184680BD00BF002002404D
:1011EC0080B582B000AF7860124B1A68124B1B7836
:1011FC0019464FF47A73B3FBF1F3B2FBF3F31846D1
:10120C0000F0FDFC0346002B01D001230EE07B68AF
:10121C000F2B0AD8002279684FF0FF3000F0C5FC84
:10122C00064A7B681360002300E001231846083748
:10123C00BD4680BD0C0000201400002010000020D2
:10124C0080B400AF054B1B781A46054B1B68134442
:10125C00034A136000BFBD4680BC704714000020D9
:10126C004807002080B400AF024B1B681846BD46EF
:10127C0080BC70474807002080B586B000AF78600E
:10128C000023FB7500233B610023BB600023FB6044
:10129C007B68002B01D10123BEE07B689B68002B8F
:1012AC007B689B6A002B09D17B680022DA627B6821
:1012BC00002283F824207868FFF7A2FD786800F0FC
:1012CC00F5FA0346FB757B689B6A03F01003002B51
:1012DC0040F09980FB7D002B40F095807B689B6AE9
:1012EC0023F4885323F0020343F002027B689A62D2
:1012FC007B685A687B68DB691A437B681B7B5B00E5
:10130C001343BA681343BB607B689B68B3F5807F5B
:10131C0003D07B689B68012B02D14FF4807300E0F3
:10132C0000233A6913433B617B681B7D012B19D168
:10133C007B681B7B002B09D17B689B69013B5A03A3
:10134C003B69134343F400633B610BE07B689B6A8E
:10135C0043F020027B689A627B68DB6A43F00102EF
:10136C007B68DA627B681B685B6823F469417B6885
:10137C001B683A690A435A607B681B689A68284B59
:10138C0013407A681268B9680B4393607B689B685A
:10139C00B3F5807F03D07B689B68012B04D17B68FD
:1013AC001B69013B1B05FB607B681B68DB6A23F434
:1013BC0070017B681B68FA680A43DA627B681B68F9
:1013CC009A68184B1340BA689A420BD17B6800227A
:1013DC00DA627B689B6A23F0030343F001027B68AB
:1013EC009A6218E07B689B6A23F0120343F01002A8
:1013FC007B689A627B68DB6A43F001027B68DA6285
:10140C000123FB7507E07B689B6A43F010027B6845
:10141C009A620123FB75FB7D18461837BD4680BDCB
:10142C00FDF7E1FFFE0E1FFF80B586B000AFF86040
:10143C00B9607A600023FB75FB681B68644A9342B1
:10144C0004D0FB681B68634A934206D1604B5B680F
:10145C0003F47023002B40F0B380FB6893F8243026
:10146C00012B01D10223AEE0FB68012283F824207A
:10147C00F86800F0C1F90346FB75FB7D002B40F0CA
:10148C009A80FB689B6A23F4706323F0010343F496
:10149C008072FB689A62FB681B684E4A934205D1C6
:1014AC004B4B5B6803F47023002B15D1FB689B6AD4
:1014BC0023F48012FB689A62FB681B685B6803F478
:1014CC008063002B26D0FB689B6A23F4405343F4C3
:1014DC008052FB689A621DE0FB689B6A43F48012A1
:1014EC00FB689A62FB681B68394A934204D0FB681C
:1014FC001B68384A93420DD1354B5B6803F480630B
:10150C00002B07D0FB689B6A23F4405343F48052B2
:10151C00FB689A62FB689B6A03F48053002B06D02D
:10152C00FB68DB6A23F00602FB68DA6202E0FB6808
:10153C000022DA62FB68002283F82420FB681B6A15
:10154C00254A9A62FB681B6A244ADA62FB681B6AAA
:10155C00234A1A63FB681B686FF002021A60FB686F
:10156C001B689A68FB681B6842F480729A60FB687F
:10157C00186AFB681B684C331946BA687B6800F024
:10158C00A5FBFB681B689B6803F46023B3F5602F15
:10159C0008D1FB681B689A68FB681B6842F4A002C0
:1015AC009A600FE0FB681B689A68FB681B6842F442
:1015BC0080129A6006E0FB68002283F8242001E088
:1015CC000123FB75FB7D18461837BD4680BD00BF57
:1015DC0000240140002801403B190008B7190008FD
:1015EC00D319000880B483B000AF786000BF0C370B
:1015FC00BD4680BC704780B483B000AF786000BF3C
:10160C000C37BD4680BC704780B485B000AF7860A5
:10161C0039600023FB730023BB607B6893F8243094
:10162C00012B01D10223DCE07B68012283F824200A
:10163C003B685B68062B1CD87B681B68596B3B6846
:10164C005A6813469B001344053B1F2202FA03F30E
:10165C00DB4319403B6818683B685A6813469B008B
:10166C001344053B00FA03F27B681B680A435A6378
:10167C003CE03B685B680C2B1CD87B681B68196BC7
:10168C003B685A6813469B001344233B1F2202FA03
:10169C0003F3DB4319403B6818683B685A681346F0
:1016AC009B001344233B00FA03F27B681B680A433C
:1016BC001A631BE07B681B68D96A3B685A6813463F
:1016CC009B001344413B1F2202FA03F3DB431940F6
:1016DC003B6818683B685A6813469B001344413BAF
:1016EC0000FA03F27B681B680A43DA623B681B68EA
:1016FC00092B1CD97B681B68D9683B681A68134690
:10170C005B0013441E3B072202FA03F3DB43194030
:10171C003B6898683B681A6813465B0013441E3B91
:10172C0000FA03F27B681B680A43DA6019E07B68F5
:10173C001B6819693B681A6813465B00134407223F
:10174C0002FA03F3DB4319403B6898683B681A685C
:10175C0013465B00134400FA03F27B681B680A43D0
:10176C001A613B681B68102B03D03B681B68112B5C
:10177C0032D17B681B681D4A934225D17B681B685C
:10178C009B6803F40003002B26D17B681B689A68C6
:10179C007B681B6842F400029A603B681B68102B44
:1017AC001AD1134B1B68134AA2FB03239A0C134642
:1017BC009B0013445B00BB6002E0BB68013BBB6059
:1017CC00BB68002BF9D107E07B689B6A43F02002D1
:1017DC007B689A620123FB737B68002283F82420C8
:1017EC00FB7B18461437BD4680BC70470024014073
:1017FC000C00002083DE1B4380B584B000AF786002
:10180C000023FB600023BB607B681B689B6803F0B4
:10181C000103012B40D07B681B689A687B681B68AE
:10182C0042F001029A601F4B1B681F4AA2FB032364
:10183C009B0CBB6002E0BB68013BBB60BB68002B30
:10184C00F9D1FFF70FFDF8601FE0FFF70BFD024623
:10185C00FB68D31A022B18D97B681B689B6803F0B2
:10186C000103012B11D07B689B6A43F010027B684B
:10187C009A627B68DB6A43F001027B68DA627B6800
:10188C00002283F82420012307E07B681B689B68F7
:10189C0003F00103012BD8D1002318461037BD46A5
:1018AC0080BD00BF0C00002083DE1B4380B584B0DC
:1018BC0000AF78600023FB607B681B689B6803F0BB
:1018CC000103012B2ED17B681B689A687B681B680F
:1018DC0022F001029A60FFF7C5FCF8601BE0FFF7ED
:1018EC00C1FC0246FB68D31A022B14D97B681B6817
:1018FC009B6803F00103012B0DD17B689B6A43F0BD
:10190C0010027B689A627B68DB6A43F001027B6899
:10191C00DA62012307E07B681B689B6803F0010314
:10192C00012BDCD0002318461037BD4680BD80B596
:10193C0084B000AF78607B685B6AFB60FB689B6A75
:10194C0003F05003002B27D1FB689B6A43F4007211
:10195C00FB689A62FB681B689B6803F46023B3F511
:10196C00602F15D1FB681B7B002B11D1FB689B6A88
:10197C0023F48072FB689A62FB689B6A03F48053C1
:10198C00002B05D1FB689B6A43F00102FB689A624D
:10199C00F868FEF737FC04E0FB681B6A1B6B786881
:1019AC00984700BF1037BD4680BD80B584B000AFEE
:1019BC0078607B685B6AFB60F868FFF713FE00BF1A
:1019CC001037BD4680BD80B584B000AF78607B68B1
:1019DC005B6AFB60FB689B6A43F04002FB689A629F
:1019EC00FB68DB6A43F00402FB68DA62F868FFF715
:1019FC0002FE00BF1037BD4680BD000080B485B02C
:101A0C0000AF78607B6803F00703FB600C4BDB686E
:101A1C00BB60BA684FF6FF031340BB60FB681A0249
:101A2C00BB68134343F0BF6343F40033BB60044A09
:101A3C00BB68D36000BF1437BD4680BC704700BF85
:101A4C0000ED00E080B400AF044BDB681B0A03F030
:101A5C0007031846BD4680BC704700BF00ED00E090
:101A6C0080B483B000AF0346FB7197F90730002BAD
:101A7C000BDBFB7903F01F02064997F907305B0972
:101A8C00012000FA02F241F8232000BF0C37BD46BA
:101A9C0080BC704700E100E080B483B000AF034627
:101AAC003960FB7197F90730002B0ADB3B68DAB21F
:101ABC000C4997F907301201D2B20B4483F800237A
:101ACC000AE03B68DAB20849FB7903F00F03043BE8
:101ADC001201D2B20B441A7600BF0C37BD4680BC43
:101AEC00704700BF00E100E000ED00E080B489B079
:101AFC0000AFF860B9607A60FB6803F00703FB6124
:101B0C00FB69C3F10703042B28BF0423BB61FB69EA
:101B1C000433062B02D9FB69033B00E000237B61F5
:101B2C004FF0FF32BB6902FA03F3DA43BB681A4089
:101B3C007B699A404FF0FF317B6901FA03F3D9437B
:101B4C007B680B40134318462437BD4680BC704756
:101B5C0080B582B000AF78607B68013BB3F1807FC9
:101B6C0001D301230FE00A4A7B68013B53600F212C
:101B7C004FF0FF30FFF790FF054B00229A60044BAB
:101B8C0007221A60002318460837BD4680BD00BFE7
:101B9C0010E000E080B582B000AF78607868FFF7A5
:101BAC002DFF00BF0837BD4680BD80B586B000AFA5
:101BBC000346B9607A60FB7300237B61FFF742FF39
:101BCC0078617A68B9687869FFF790FF024697F9EF
:101BDC000F3011461846FFF75FFF00BF1837BD46A0
:101BEC0080BD80B582B000AF0346FB7197F907301A
:101BFC001846FFF735FF00BF0837BD4680BD80B5DE
:101C0C0082B000AF78607868FFF7A2FF03461846F1
:101C1C000837BD4680BD000080B485B000AF786049
:101C2C000023FB607B68002B01D1012343E07B6820
:101C3C001B681A46224B1344224AA2FB03231B099E
:101C4C009A007B681A647B681F4ADA637B680222FD
:101C5C0083F821207B681B681B68FB60FB6823F4FE
:101C6C007F5323F03003FB607B685A687B689B686A
:101C7C001A437B68DB681A437B681B691A437B68D1
:101C8C005B691A437B689B691A437B68DB69134366
:101C9C00FA681343FB607B681B68FA681A607B6800
:101CAC0000229A637B68012283F821207B68002242
:101CBC0083F82020002318461437BD4680BC70479B
:101CCC00F8FFFDBFCDCCCCCC0000024080B586B077
:101CDC0000AFF860B9607A603B600023FB75FB686D
:101CEC0093F82030012B01D102234BE0FB68012239
:101CFC0083F82020FB6893F82130DBB2012B3AD11A
:101D0C00FB68022283F82120FB6800229A63FB689F
:101D1C001B681A68FB681B6822F001021A603B689A
:101D2C007A68B968F86800F0EBF9FB68DB6A002B9D
:101D3C0008D0FB681B681A68FB681B6842F00E022F
:101D4C001A600FE0FB681B681A68FB681B6822F0BE
:101D5C0004021A60FB681B681A68FB681B6842F077
:101D6C000A021A60FB681B681A68FB681B6842F061
:101D7C0001021A6005E0FB68002283F82020022390
:101D8C00FB75FB7D18461837BD4680BD80B485B009
:101D9C0000AF78600023FB737B6893F82130DBB2D3
:101DAC00022B08D07B6804229A637B68002283F89C
:101DBC002020012320E07B681B681A687B681B6865
:101DCC0022F00E021A607B681B681A687B681B681D
:101DDC0022F001021A607B681A6C7B68DB6B0121B4
:101DEC0001FA02F25A607B68012283F821207B6899
:101DFC00002283F82020FB7B18461437BD4680BC9C
:101E0C007047000080B584B000AF78600023FB738E
:101E1C007B6893F82130DBB2022B05D07B6804225F
:101E2C009A630123FB7351E07B681B681A687B681B
:101E3C001B6822F00E021A607B681B681A687B68AC
:101E4C001B6822F001021A607B681B68224A9342CD
:101E5C0029D07B681B68214A934222D07B681B687F
:101E6C001F4A93421AD07B681B681E4A934212D0B9
:101E7C007B681B681C4A93420AD07B681B681B4A10
:101E8C00934202D14FF480130EE04FF080730BE0BD
:101E9C004FF4803308E04FF4805305E04FF4807327
:101EAC0002E0102300E00123114A53607B680122F9
:101EBC0083F821207B68002283F820207B685B6BF1
:101ECC00002B03D07B685B6B78689847FB7B1846CC
:101EDC001037BD4680BD00BF080002401C00024008
:101EEC003000024044000240580002406C000240A6
:101EFC000000024080B584B000AF78607B68DB6B7B
:101F0C001B68FB607B681B681B68BB607B681B6C79
:101F1C0004229A40FB681340002B4FD0BB6803F09F
:101F2C000403002B4AD07B681B681B6803F020035A
:101F3C00002B07D17B681B681A687B681B6822F032
:101F4C0004021A607B681B68664A934229D07B683E
:101F5C001B68654A934222D07B681B68634A934294
:101F6C001AD07B681B68624A934212D07B681B684C
:101F7C00604A93420AD07B681B685F4A934202D145
:101F8C004FF480030EE04FF080630BE04FF480239E
:101F9C0008E04FF4804305E04FF4806302E04023F7
:101FAC0000E00423554A53607B68DB6A002B00F089
:101FBC0094807B68DB6A786898478EE07B681B6C42
:101FCC0002229A40FB681340002B56D0BB6803F0EA
:101FDC000203002B51D07B681B681B6803F02003A5
:101FEC00002B0BD17B681B681A687B681B6822F07E
:101FFC000A021A607B68012283F821207B681B6827
:10200C00384A934229D07B681B68374A934222D0C6
:10201C007B681B68354A93421AD07B681B68344A2C
:10202C00934212D07B681B68324A93420AD07B6879
:10203C001B68314A934202D14FF400130EE04FF06B
:10204C0000730BE04FF4003308E04FF4005305E04D
:10205C004FF4007302E0202300E00223274A536070
:10206C007B68002283F820207B689B6A002B34D08D
:10207C007B689B6A786898472FE07B681B6C08220A
:10208C009A40FB681340002B28D0BB6803F0080370
:10209C00002B23D07B681B681A687B681B6822F0B6
:1020AC000E021A607B681A6C7B68DB6B012101FAEB
:1020BC0002F25A607B6801229A637B68012283F8E2
:1020CC0021207B68002283F820207B681B6B002B6F
:1020DC0004D07B681B6B7868984700BF00BF103733
:1020EC00BD4680BD080002401C000240300002408A
:1020FC0044000240580002406C00024000000240C4
:10210C0080B485B000AFF860B9607A603B60FB6862
:10211C001A6CFB68DB6B012101FA02F25A60FB6856
:10212C001B683A685A60FB685B68102B08D1FB6827
:10213C001B687A689A60FB681B68BA68DA6007E00B
:10214C00FB681B68BA689A60FB681B687A68DA607F
:10215C0000BF1437BD4680BC7047000080B48BB004
:10216C0000AF7860396000237B6200233B6269E139
:10217C0001227B6A02FA03F3FB613B681B68FA6974
:10218C001340BB61BA69FB699A4240F058813B68C5
:10219C005B689A4A93425ED0984A934275D8984AA3
:1021AC00934258D0964A93426FD8964A934252D053
:1021BC00944A934269D8944A93424CD0924A93429F
:1021CC0063D8924A934246D0904A93425DD8122BE0
:1021DC002AD8122B59D801A252F823F063220008F6
:1021EC003D2200084F220008912200089722000887
:1021FC0097220008972200089722000897220008CF
:10220C0097220008972200089722000897220008BE
:10221C0097220008972200089722000897220008AE
:10222C004522000859220008794A934213D02CE029
:10223C003B68DB683B6229E03B68DB6804333B624C
:10224C0024E03B68DB6808333B621FE03B68DB68DB
:10225C000C333B621AE03B689B68002B02D10423D1
:10226C003B6213E03B689B68012B05D108233B6262
:10227C007B68FA691A6109E008233B627B68FA699A
:10228C005A6103E000233B6200E000BFBB69FF2BF7
:10229C0001D87B6801E07B6804337B61BB69FF2B51
:1022AC0002D87B6A9B0002E07B6A083B9B003B6187
:1022BC007B691A680F213B6901FA03F3DB431A406F
:1022CC00396A3B6901FA03F31A437B691A603B686C
:1022DC005B6803F08053002B00F0B1804D4B9B6981
:1022EC004C4A43F0010393614A4B9B6903F0010391
:1022FC00BB60BB68484A7B6A9B08023352F82330A8
:10230C00FB607B6A03F003039B000F2202FA03F3CA
:10231C00DB43FA681340FB607B68404A934213D05E
:10232C007B683F4A93420DD07B683E4A934207D06C
:10233C007B683D4A934201D1032306E0042304E069
:10234C00022302E0012300E000237A6A02F0030278
:10235C0092009340FA681343FB602F497B6A9B08F9
:10236C000233FA6841F823203B685B6803F480135E
:10237C00002B06D02D4B9A682C49BB6913438B60FC
:10238C0006E02A4B9A68BB69DB43284913408B60F3
:10239C003B685B6803F40013002B06D0234BDA6810
:1023AC002249BB691343CB6006E0204BDA68BB695A
:1023BC00DB431E491340CB603B685B6803F400337E
:1023CC00002B06D0194B5A681849BB6913434B6054
:1023DC0006E0164B5A68BB69DB43144913404B604B
:1023EC003B685B6803F48033002B21D00F4B1A68D9
:1023FC000E49BB6913430B6021E000BF0000321093
:10240C0000003110000022100000211000001210FA
:10241C0000001110001002400000014000080140B3
:10242C00000C014000100140001401400004014068
:10243C000B4B1A68BB69DB43094913400B607B6A81
:10244C0001337B623B681A687B6A22FA03F3002B28
:10245C007FF48EAE00BF00BF2C37BD4680BC7047EA
:10246C000004014080B483B000AF78600B467B80E1
:10247C0013467B707B78002B03D07A887B681A61BB
:10248C0003E07B881A047B681A6100BF0C37BD46D9
:10249C0080BC7047F0B58BB006AF78607B68002BC2
:1024AC0001D10123F1E07B6893F8A932DBB2002B58
:1024BC0006D17B68002283F8A822786807F0B2FF67
:1024CC007B68032283F8A9227B681B68184603F0FB
:1024DC005BFE7B681B683B607E686D4606F11004F2
:1024EC000FCC0FC523682B60331D0ECB386803F05F
:1024FC0025FE0346002B05D07B68022283F8A92217
:10250C000123C2E07B681B680021184603F056FECD
:10251C000023FB7340E0FB7B79685A1C13469B003D
:10252C001344DB000B44013301221A70FB7B7968E6
:10253C005A1C13469B001344DB000B44FA7B1A70A5
:10254C00FB7B79685A1C13469B001344DB000B443D
:10255C00033300221A70FA7B796813469B001344EC
:10256C00DB000B44383300221A60FA7B796813467F
:10257C009B001344DB000B443C3300221A60FA7BB3
:10258C00796813469B001344DB000B444033002254
:10259C001A60FB7B0133FB73FA7B7B685B689A42A6
:1025AC00B9D30023FB7344E0FA7B796813469B0094
:1025BC001344DB000B4403F2691300221A70FA7BFC
:1025CC00796813469B001344DB000B4403F5B4738A
:1025DC00FA7B1A70FA7B796813469B001344DB0074
:1025EC000B4403F26B1300221A70FA7B79681346C2
:1025FC009B001344DB000B4403F5BC7300221A60F0
:10260C00FA7B796813469B001344DB000B4403F5FB
:10261C00BE7300221A60FA7B796813469B00134440
:10262C00DB000B4403F5C07300221A60FB7B013303
:10263C00FB73FA7B7B685B689A42B5D37B681B683B
:10264C003B607E686D4606F110040FCC0FC5236805
:10265C002B60331D0ECB386803F0BCFD0346002BFA
:10266C0005D07B68022283F8A92201230DE07B6848
:10267C00002283F824207B68012283F8A9227B683E
:10268C001B68184606F03DF8002318461437BD4663
:10269C00F0BD80B582B000AF78607B6893F8A8324B
:1026AC00012B01D1022316E07B68012283F8A822BA
:1026BC007B681B68184603F051FD0121786808F00F
:1026CC0024F97B681B68184606F011F87B68002219
:1026DC0083F8A822002318460837BD4680BD80B574
:1026EC0088B000AF78607B681B68184606F013F85A
:1026FC00B861BB6903F40043002B03D0786800F089
:10270C001BFB19E1BB6903F48063002B13D07B68BE
:10271C001B68B3F844309AB27B681B6822F4806261
:10272C0092B2A3F84420786807F0F7FE002178688D
:10273C0000F005F900E1BB6903F48043002B0CD0D9
:10274C007B681B68B3F844309AB27B681B6822F430
:10275C00804292B2A3F84420EEE0BB6903F400532C
:10276C00002B0CD07B681B68B3F844309AB27B68A2
:10277C001B6822F4005292B2A3F84420DCE0BB693F
:10278C0003F48053002B27D07B681B68B3F84030D0
:10279C009AB27B681B6822F0040292B2A3F8402024
:1027AC007B681B68B3F840309AB27B681B6822F0D8
:1027BC00080292B2A3F84020786807F0E7FE7B6825
:1027CC001B68B3F844309AB27B681B6822F48052C1
:1027DC0092B2A3F84420AFE0BB6903F40063002B72
:1027EC0000F083800023FB7710E07B681B681A469F
:1027FC00FB7F9B001A44FB7F128892B25B00203354
:10280C003B4423F8182CFB7F0133FB77FB7F072B12
:10281C00EBD97B681B68B3F840309AB27B681B68B5
:10282C0042F0010292B2A3F840207B681B68B3F817
:10283C0040309AB27B681B6822F0010292B2A3F876
:10284C00402000BF7B681B68B3F844309BB203F494
:10285C008063002BF6D07B681B68B3F844309AB2C7
:10286C007B681B6822F4806292B2A3F84420002398
:10287C00FB770FE0FB7F7A6812681146FA7F9200B3
:10288C000A445B0020333B4433F8183C1380FB7F35
:10289C000133FB77FB7F072BECD97B681B68B3F804
:1028AC0040309AB27B681B6842F0080292B2A3F8DF
:1028BC0040207B681B68B3F844309AB27B681B6875
:1028CC0022F4006292B2A3F844207B681B68B3F830
:1028DC0040309AB27B681B6842F0040292B2A3F8B3
:1028EC004020786807F038FE26E0BB6903F40073DB
:1028FC00002B0FD07B681B68B3F844309AB27B680E
:10290C001B6822F4007292B2A3F84420786807F096
:10291C00F6FD11E0BB6903F48073002B0CD07B68CF
:10292C001B68B3F844309AB27B681B6822F480723F
:10293C0092B2A3F8442000BF2037BD4680BD80B5BD
:10294C0082B000AF78600B46FB707B6893F8A832BE
:10295C00012B01D1022313E07B68012283F8A8220A
:10296C007B68FA7883F824207B681B68FA78114618
:10297C00184605F0A9FE7B68002283F8A8220023E4
:10298C0018460837BD4680BD80B584B000AF78606E
:10299C00084611461A460346FB700B463B8013460D
:1029AC00BB700023FB7297F90330002B0EDAFB7817
:1029BC0003F007035A1C13469B001344DB007A6890
:1029CC001344FB60FB6801225A700EE0FB7803F0A5
:1029DC00070213469B001344DB0003F5B4737A68BB
:1029EC001344FB60FB6800225A70FB7803F007036A
:1029FC00DAB2FB681A703A88FB681A61FB68BA781D
:102A0C00DA70BB78022B02D1FB6800221A717B684A
:102A1C0093F8A832012B01D102230EE07B6801222E
:102A2C0083F8A8227B681B68F968184603F0F2FB50
:102A3C007B68002283F8A822FB7A18461037BD4623
:102A4C0080BD80B584B000AF78600B46FB7097F901
:102A5C000330002B0EDAFB7803F007035A1C1346E5
:102A6C009B001344DB007A681344FB60FB68012273
:102A7C005A700EE0FB7803F0070213469B001344D8
:102A8C00DB0003F5B4737A681344FB60FB68002227
:102A9C005A70FB7803F00703DAB2FB681A707B6894
:102AAC0093F8A832012B01D102230EE07B6801229E
:102ABC0083F8A8227B681B68F968184603F06AFF44
:102ACC007B68002283F8A822002318461037BD46E5
:102ADC0080BD80B586B000AFF8607A603B600B4675
:102AEC00FB72FB7A03F0070213469B001344DB00D6
:102AFC0003F5B473FA6813447B617B697A685A6195
:102B0C007B693A689A617B690022DA617B690022F1
:102B1C005A70FB7A03F00703DAB27B691A70FB6810
:102B2C001B687969184604F021F9002318461837F8
:102B3C00BD4680BD80B483B000AF78600B46FB709F
:102B4C00FB7803F00702796813469B001344DB0003
:102B5C000B4403F5C2731B6818460C37BD4680BC8A
:102B6C00704780B586B000AFF8607A603B600B466A
:102B7C00FB72FB7A03F007035A1C13469B001344A9
:102B8C00DB00FA6813447B617B697A685A617B6964
:102B9C003A689A617B69012283F824207B693A6840
:102BAC001A627B690022DA617B6901225A70FB7A16
:102BBC0003F00703DAB27B691A70FB681B6879694A
:102BCC00184604F0D3F8002318461837BD4680BDCC
:102BDC0080B584B000AF78600B46FB70FB7803F0D7
:102BEC0007027B685B689A4201D901234CE097F994
:102BFC000330002B0EDAFB7803F007035A1C134644
:102C0C009B001344DB007A681344FB60FB680122D1
:102C1C005A700CE0FA7813469B001344DB0003F562
:102C2C00B4737A681344FB60FB6800225A70FB682B
:102C3C0001229A70FB7803F00703DAB2FB681A7072
:102C4C007B6893F8A832012B01D102231CE07B682E
:102C5C00012283F8A8227B681B68F968184605F0E6
:102C6C0036FCFB7803F00703002B08D17B681A684D
:102C7C007B6803F52C731946104605F05BFD7B68E9
:102C8C00002283F8A822002318461037BD4680BDC9
:102C9C0080B584B000AF78600B46FB70FB7803F016
:102CAC000F027B685B689A4201D9012340E097F9D7
:102CBC000330002B0EDAFB7803F007035A1C134683
:102CCC009B001344DB007A681344FB60FB68012211
:102CDC005A700EE0FB7803F0070213469B00134476
:102CEC00DB0003F5B4737A681344FB60FB680022C5
:102CFC005A70FB6800229A70FB7803F00703DAB273
:102D0C00FB681A707B6893F8A832012B01D102235F
:102D1C000EE07B68012283F8A8227B681B68F968A7
:102D2C00184605F024FC7B68002283F8A8220023B7
:102D3C0018461037BD4680BD80B596B000AF7860A0
:102D4C00BFE37B681B68B3F84430A7F84E30B7F884
:102D5C004E30DBB203F00F0387F84D3097F84D304F
:102D6C00002B40F07981B7F84E3003F01003002BA4
:102D7C0052D17B681B681B889BB223F4E14323F080
:102D8C007003FB817B681A68FB896FEA43436FEA27
:102D9C0053439BB213807B6828337B657B681B682D
:102DAC00B3F850309BB21A467B6D1B78DB00134492
:102DBC0002335B007A681268134403F580631B8846
:102DCC00C3F309027B6DDA617B6D5A697B6DDB693C
:102DDC001A447B6D5A610021786807F076FB7B689A
:102DEC0093F82430DBB2002B00F06B837B6D9B6976
:102DFC00002B40F066837B6893F82430DBB263F0E1
:102E0C007F03DAB27B681B6892B2A3F84C207B6814
:102E1C00002283F8242054E37B6803F5B4737B65AC
:102E2C007B681B681B88A7F84A30B7F84A3003F454
:102E3C000063002B34D07B681B68B3F850309BB216
:102E4C001A467B6D1B78DB00134406335B007A68F3
:102E5C001268134403F580631B88C3F309027B6D6E
:102E6C00DA617B6818687B6803F52C717B6DDA88F6
:102E7C007B6DDB699BB205F0ADFC7B681B681B8826
:102E8C009AB240F68F7313403B827B681B683A8A78
:102E9C0042F0800292B21A80786807F0E9FA10E3E7
:102EAC00B7F94A30002B80F20C837B681B681B88B7
:102EBC009AB240F68F731340FB837B681B68FA8BC6
:102ECC0042F0800292B21A807B681B68B3F85030D3
:102EDC009BB21A467B6D1B78DB00134406335B00F8
:102EEC007A681268134403F580631B88C3F30902E4
:102EFC007B6DDA617B6DDB69002B19D07B6D5B69B7
:102F0C00002B15D07B6818687B6D59697B6DDA884E
:102F1C007B6DDB699BB205F05DFC7B6D5A697B6D4B
:102F2C00DB691A447B6D5A610021786807F0B2FAAC
:102F3C007B681B681B88A7F84A30B7F84A3003F443
:102F4C000063002B40F0BD82B7F84A3003F44053C5
:102F5C00B3F5405F00F0B5827B681B68BB617B6892
:102F6C001B68B3F850309BB21A46BB691344BB6163
:102F7C00BB6903F20C437B617B691B889BB2C3F377
:102F8C0009039AB27B691A807B6D1B693E2B1DD994
:102F9C007B6D1B695B097B647B6D1B6903F01F03F5
:102FAC00002B02D17B6C013B7B647B691B889AB242
:102FBC007B6C9BB29B029BB213439BB26FEA434365
:102FCC006FEA53439AB27B691A8026E07B6D1B69CA
:102FDC00002B0AD17B691B889BB26FEA43436FEAD3
:102FEC0053439AB27B691A8017E07B6D1B695B08AF
:102FFC007B647B6D1B6903F00103002B02D07B6C9F
:10300C0001337B647B691B889AB27B6C9BB29B02FD
:10301C009BB213439AB27B691A807B681B681B882E
:10302C009BB223F4804323F070037B827B8A83F46E
:10303C0080537B827B8A83F400537B827B681A6883
:10304C007B8A43F07F4343F47F0343F4004343F014
:10305C0080039BB2138034E27B681B681A4697F896
:10306C004D309B0013441B88A7F84A30B7F94A30FF
:10307C00002B80F2FC807B681B681A4697F84D3059
:10308C009B0013441B889AB240F68F731340A7F829
:10309C0048307B681B681A4697F84D309B001344E8
:1030AC00B7F8482042F0800292B21A8097F84D206F
:1030BC0013469B001344DB0003F5B4737A68134486
:1030CC007B657B6D1B7B002B25D17B681B68B3F864
:1030DC0050309BB21A467B6D1B78DB0013440633D1
:1030EC005B007A681268134403F580631B88C3F392
:1030FC000903A7F85030B7F85030002B00F092803D
:10310C007B6818687B6D59697B6DDA88B7F850302D
:10311C0005F060FB86E07B6DDB78022B0AD1B7F8FB
:10312C004A301A46796D786800F0D9F90346A7F849
:10313C00503077E07B681B681A467B6D1B789B00D0
:10314C0013441B889BB223F4E04323F07003A7F8CD
:10315C0052307B681B681A467B6D1B789B001A44A7
:10316C00B7F8523043F07F4343F47F0343F40043FA
:10317C0043F0C0039BB213807B681B681A467B6DBF
:10318C001B789B0013441B889BB203F48043002BD9
:10319C0024D07B681B68B3F850309BB21A467B6D09
:1031AC001B78DB00134402335B007A68126813440B
:1031BC0003F580631B88C3F30903A7F85030B7F8F5
:1031CC005030002B2ED07B6818687B6D59697B6D55
:1031DC001A89B7F8503005F0FDFA23E07B681B68BC
:1031EC00B3F850309BB21A467B6D1B78DB0013444E
:1031FC0006335B007A681268134403F580631B88FE
:10320C00C3F30903A7F85030B7F85030002B09D09E
:10321C007B6818687B6D59697B6D5A89B7F850309B
:10322C0005F0D8FA7B6DDA69B7F850301A447B6D2B
:10323C00DA617B6D5A69B7F850301A447B6D5A616C
:10324C007B6D9B69002B05D0B7F850207B6D1B69FB
:10325C009A4206D27B6D1B781946786807F01AF9EA
:10326C0005E07B681B68796D184603F07FFDB7F8A5
:10327C004A3003F08003002B00F0238197F84D3087
:10328C005A1C13469B001344DB007A6813447B657D
:10329C007B681B681A4697F84D309B0013441B88BB
:1032AC009BB223F4E14323F07003A7F842307B6810
:1032BC001B681A4697F84D309B001A44B7F84230F9
:1032CC006FEA43436FEA53439BB213807B6DDB7809
:1032DC00012B40F0A2807B6D00229A617B6D1B7BE1
:1032EC00002B00F09380B7F84A3003F04003002B1A
:1032FC0046D07B6D5B78002B26D17B681B687B628C
:10330C007B681B68B3F850309BB21A467B6A134437
:10331C007B627B6D1B781A017B6A134403F20443B6
:10332C003B623B6A1B889BB2C3F309039AB23B6AAC
:10333C001A803B6A1B889BB26FEA43436FEA534384
:10334C009AB23B6A1A8061E07B6D5B78012B5DD190
:10335C007B681B68FB627B681B68B3F850309BB2C0
:10336C001A46FB6A1344FB627B6D1B781A01FB6ADD
:10337C00134403F20443BB62BB6A00221A8045E08B
:10338C007B681B68FB637B6D5B78002B26D17B68AD
:10339C001B687B637B681B68B3F850309BB21A4682
:1033AC007B6B13447B637B6D1B781A017B6B134423
:1033BC0003F20C433B633B6B1B889BB2C3F30903C7
:1033CC009AB23B6B1A803B6B1B889BB26FEA4343F0
:1033DC006FEA53439AB23B6B1A8017E07B6D5B78B4
:1033EC00012B13D17B681B68B3F850309BB21A4683
:1033FC00FB6B1344FB637B6D1B781A01FB6B134453
:10340C0003F20C43BB63BB6B00221A807B6D1B78F1
:10341C001946786807F059F853E0B7F84A3003F4C6
:10342C008073002B46D17B681B68B3F850309BB27D
:10343C001A467B6D1B78DB00134402335B007A6801
:10344C001268134403F580631B88C3F30903A7F8C0
:10345C0040307B6D9A69B7F840309A4207D97B6D42
:10346C009A69B7F84030D21A7B6D9A6102E07B6D95
:10347C0000229A617B6D9B69002B06D17B6D1B78BA
:10348C001946786807F021F81BE07B6D5A69B7F88C
:10349C0040301A447B6D5A617B6DDA69B7F8403065
:1034AC001A447B6DDA617B681B68796D184603F0F2
:1034BC005DFC06E0B7F84A301A46796D786800F082
:1034CC001BF97B681B68B3F844309BB21BB2002B12
:1034DC00FFF637AC002318465837BD4680BD80B583
:1034EC0088B000AFF860B9601346FB80FB8803F42A
:1034FC008043002B7ED0FB681B68B3F850309BB226
:10350C001A46BB681B78DB00134402335B00FA6875
:10351C001268134403F580631B88C3F309037B8390
:10352C00BB689A697B8B9A4206D3BB689A697B8B82
:10353C00D21ABB689A6102E0BB6800229A61BB6830
:10354C009B69002B23D1FB681B681A46BB681B7850
:10355C009B0013441B889BB223F4804323F070031D
:10356C003B833B8B83F400533B83FB681B681A46FD
:10357C00BB681B789B001A443B8B43F07F4343F49E
:10358C007F0343F4004343F080039BB21380FB881A
:10359C0003F04003002B1FD0FB681B681A46BB6866
:1035AC001B789B0013441B889BB223F4E04323F04D
:1035BC007003FB82FB681B681A46BB681B789B0078
:1035CC001A44FB8A43F07F4343F47F0343F40043E4
:1035DC0043F0C0039BB213807B8B002B00F08780E1
:1035EC00FB681868BB685969BB681A897B8B05F046
:1035FC00F1F87CE0FB681B68B3F850309BB21A46BC
:10360C00BB681B78DB00134406335B00FA68126856
:10361C00134403F580631B88C3F309037B83BB68E6
:10362C009A697B8B9A4206D3BB689A697B8BD21AB8
:10363C00BB689A6102E0BB6800229A61BB689B6917
:10364C00002B23D1FB681B681A46BB681B789B00B8
:10365C0013441B889BB223F4804323F07003FB8339
:10366C00FB8B83F40053FB83FB681B681A46BB6817
:10367C001B789B001A44FB8B43F07F4343F47F037E
:10368C0043F4004343F080039BB21380FB8803F0A8
:10369C004003002B1FD1FB681B681A46BB681B78C4
:1036AC009B0013441B889BB223F4E04323F070036C
:1036BC00BB83FB681B681A46BB681B789B001A44CB
:1036CC00BB8B43F07F4343F47F0343F4004343F04D
:1036DC00C0039BB213807B8B002B08D0FB6818684F
:1036EC00BB685969BB685A897B8B05F073F87B8B77
:1036FC0018462037BD4680BD80B5A4B000AFF86039
:10370C00B9601346FB80FB8803F04003002B00F0EC
:10371C00DD81FB681B68B3F850309BB21A46BB685E
:10372C001B78DB00134402335B00FA681268134405
:10373C0003F580631B88C3F30903A7F88630BB68C5
:10374C009A69B7F886309A4207D9BB689A69B7F874
:10375C008630D21ABB689A6102E0BB6800229A617B
:10376C00BB689B69002B40F0B980BB685B78002B71
:10377C0026D1FB681B68FB62FB681B68B3F85030F2
:10378C009BB21A46FB6A1344FB62BB681B781A0196
:10379C00FB6A134403F20443BB62BB6A1B889BB2F3
:1037AC00C3F309039AB2BB6A1A80BB6A1B889BB22B
:1037BC006FEA43436FEA53439AB2BB6A1A801AE02A
:1037CC00BB685B78012B16D1FB681B687B63FB68BD
:1037DC001B68B3F850309BB21A467B6B13447B6367
:1037EC00BB681B781A017B6B134403F204433B63E5
:1037FC003B6B00221A80FB681B687B62BB685B78A2
:10380C00002B26D1FB681B68FB61FB681B68B3F8B7
:10381C0050309BB21A46FB691344FB61BB681B78A2
:10382C001A01FB69134403F20C43BB61BB691B888F
:10383C009BB2C3F309039AB2BB691A80BB691B889C
:10384C009BB26FEA43436FEA53439AB2BB691A8047
:10385C0017E0BB685B78012B13D1FB681B68B3F8CE
:10386C0050309BB21A467B6A13447B62BB681B7850
:10387C001A017B6A134403F20C433B623B6A00223D
:10388C001A80BB681B781946F86806F01EFEFB8888
:10389C0003F48043002B00F0FC82FB681B681A4683
:1038AC00BB681B789B0013441B889BB223F4E0433A
:1038BC0023F07003FB82FB681B681A46BB681B78FD
:1038CC009B001A44FB8A43F07F4343F47F0343F489
:1038DC00404343F080039BB21380DAE2FB8803F48D
:1038EC008043002B21D0FB681B681A46BB681B78F1
:1038FC009B0013441B889BB223F4E04323F070031A
:10390C00A7F88A30FB681B681A46BB681B789B00BB
:10391C001A44B7F88A3043F07F4343F47F0343F4EF
:10392C00404343F080039BB21380BB6893F8243070
:10393C00012B40F0AE82BB685A69B7F886301A4446
:10394C00BB685A61BB68DA69B7F886301A44BB6841
:10395C00DA61BB681A6ABB681B699A420BD3BB68F5
:10396C001B69C7F88C30BB681A6AD7F88C30D21A2E
:10397C00BB681A6217E0BB681B6A002B08D1B7F84A
:10398C008630C7F88C30BB68002283F824200AE00C
:10399C00BB68002283F82420BB681B6AC7F88C30F4
:1039AC00BB6800221A62BB685B78002B65D1FB6890
:1039BC001B68FB63FB681B68B3F850309BB21A465C
:1039CC00FB6B1344FB63BB681B781A01FB6B134442
:1039DC0003F20443BB63BB6B1B889BB2C3F30903A9
:1039EC009AB2BB6B1A80D7F88C303E2B1DD9D7F806
:1039FC008C305B09BB64D7F88C3003F01F03002BB1
:103A0C0002D1BB6C013BBB64BB6B1B889AB2BB6C19
:103A1C009BB29B029BB213439BB26FEA43436FEA88
:103A2C0053439AB2BB6B1A8044E0D7F88C30002B0E
:103A3C000AD1BB6B1B889BB26FEA43436FEA5343BB
:103A4C009AB2BB6B1A8035E0D7F88C305B08BB643C
:103A5C00D7F88C3003F00103002B02D0BB6C013380
:103A6C00BB64BB6B1B889AB2BB6C9BB29B029BB2B8
:103A7C0013439AB2BB6B1A801CE0BB685B78012BBA
:103A8C0018D1FB681B687B64FB681B68B3F850306B
:103A9C009BB21A467B6C13447B64BB681B781A017F
:103AAC007B6C134403F204433B64D7F88C309AB21A
:103ABC003B6C1A80FB681868BB685969BB681A892B
:103ACC00D7F88C309BB204F040FEE2E1FB681B6837
:103ADC00B3F850309BB21A46BB681B78DB0013441A
:103AEC0006335B00FA681268134403F580631B8885
:103AFC00C3F30903A7F88630BB689A69B7F8863018
:103B0C009A4207D3BB689A69B7F88630D21ABB6859
:103B1C009A6102E0BB6800229A61BB689B69002B2A
:103B2C0040F0C080BB685B78002B26D1FB681B681B
:103B3C00FB67FB681B68B3F850309BB21A46FB6FEF
:103B4C001344FB67BB681B781A01FB6F134403F229
:103B5C000443BB67BB6F1B889BB2C3F309039AB2C8
:103B6C00BB6F1A80BB6F1B889BB26FEA43436FEA33
:103B7C0053439AB2BB6F1A801AE0BB685B78012B77
:103B8C0016D1FB681B687B66FB681B68B3F850306A
:103B9C009BB21A467B6E13447B66BB681B781A017A
:103BAC007B6E134403F204433B663B6E00221A8087
:103BBC00FB681B687B67BB685B78002B2BD1FB68B1
:103BCC001B68FB66FB681B68B3F850309BB21A4647
:103BDC00FB6E1344FB66BB681B781A01FB6E134427
:103BEC0003F20C43C7F88030D7F880301B889BB2A7
:103BFC00C3F309039AB2D7F880301A80D7F8803013
:103C0C001B889BB26FEA43436FEA53439AB2D7F8CF
:103C1C0080301A8017E0BB685B78012B13D1FB68EE
:103C2C001B68B3F850309BB21A467B6F13447B670A
:103C3C00BB681B781A017B6F134403F20C433B6780
:103C4C003B6F00221A80BB681B781946F86806F097
:103C5C003CFCFB8803F48043002B40F01A81FB688A
:103C6C001B681A46BB681B789B0013441B889BB2CD
:103C7C0023F4E04323F07003A7F88830FB681B683B
:103C8C001A46BB681B789B001A44B7F8883043F07F
:103C9C007F4343F47F0343F4404343F080039BB2E0
:103CAC001380F6E0FB8803F48043002B21D1FB68E2
:103CBC001B681A46BB681B789B0013441B889BB27D
:103CCC0023F4E04323F07003A7F84E30FB681B6825
:103CDC001A46BB681B789B001A44B7F84E3043F069
:103CEC007F4343F47F0343F4404343F080039BB290
:103CFC001380BB6893F82430012B40F0CA80BB685A
:103D0C005A69B7F886301A44BB685A61BB68DA69DD
:103D1C00B7F886301A44BB68DA61BB681A6ABB68AC
:103D2C001B699A420BD3BB681B69C7F88C30BB6804
:103D3C001A6AD7F88C30D21ABB681A6217E0BB68C3
:103D4C001B6A002B08D1B7F88630C7F88C30BB68DB
:103D5C00002283F824200AE0BB681B6AC7F88C3069
:103D6C00BB6800221A62BB68002283F82420FB681F
:103D7C001B687B65BB685B78002B65D1FB681B6897
:103D8C00FB65FB681B68B3F850309BB21A46FB6DA1
:103D9C001344FB65BB681B781A01FB6D134403F2DB
:103DAC000C43BB65BB6D1B889BB2C3F309039AB272
:103DBC00BB6D1A80D7F88C303E2B1DD9D7F88C30C0
:103DCC005B09BB66D7F88C3003F01F03002B02D1C4
:103DDC00BB6E013BBB66BB6D1B889AB2BB6E9BB2C4
:103DEC009B029BB213439BB26FEA43436FEA53436C
:103DFC009AB2BB6D1A8041E0D7F88C30002B0AD1F7
:103E0C00BB6D1B889BB26FEA43436FEA53439AB274
:103E1C00BB6D1A8032E0D7F88C305B08BB66D7F8E4
:103E2C008C3003F00103002B02D0BB6E0133BB6658
:103E3C00BB6D1B889AB2BB6E9BB29B029BB21343A9
:103E4C009AB2BB6D1A8019E0BB685B78012B15D157
:103E5C00FB681B68B3F850309BB21A467B6D134459
:103E6C007B65BB681B781A017B6D134403F20C4312
:103E7C003B65D7F88C309AB23B6D1A80FB6818689A
:103E8C00BB685969BB685A89D7F88C309BB204F06F
:103E9C005CFCFB681B681A46BB681B789B001344D0
:103EAC001B889BB223F4E04323F04003BB82BB8A04
:103EBC0083F01003BB82BB8A83F02003BB82FB68B8
:103ECC001B681A46BB681B789B001A44BB8A43F0DC
:103EDC007F4343F47F0343F4004343F080039BB2DE
:103EEC001380002318469037BD4680BD80B487B040
:103EFC0000AFF8607B600B467B8113463B817B896E
:103F0C0003F080039BB2002B0BD07B8903F00703DB
:103F1C005A1C13469B001344DB00FA6813447B6164
:103F2C0009E07A8913469B001344DB0003F5B47354
:103F3C00FA6813447B613B89002B07D17B69002213
:103F4C001A737B689AB27B69DA800BE07B69012279
:103F5C001A737B689AB27B691A817B681B0C9AB2C4
:103F6C007B695A81002318461C37BD4680BC7047BC
:103F7C0080B586B000AF78607B68002B01D101233F
:103F8C0072E27B681B6803F00103002B00F0878052
:103F9C00924B5B6803F00C03042B0CD08F4B5B68CB
:103FAC0003F00C03082B12D18C4B5B6803F48033A9
:103FBC00B3F5803F0BD1894B1B6803F40033002B06
:103FCC006CD07B685B68002B68D101234CE27B686A
:103FDC005B68B3F5803F06D1804B1B687F4A43F486
:103FEC00803313602EE07B685B68002B0CD17B4B1D
:103FFC001B687A4A23F480331360784B1B68774A2A
:10400C0023F4802313601DE07B685B68B3F5A02F5D
:10401C000CD1724B1B68714A43F4802313606F4BB5
:10402C001B686E4A43F4803313600BE06B4B1B68C8
:10403C006A4A23F480331360684B1B68674A23F485
:10404C00802313607B685B68002B13D0FDF70AF9A3
:10405C00386108E0FDF706F902463B69D31A642B78
:10406C0001D9032300E25D4B1B6803F40033002BE2
:10407C00F0D014E0FDF7F6F8386108E0FDF7F2F83F
:10408C0002463B69D31A642B01D90323ECE1534B51
:10409C001B6803F40033002BF0D100E000BF7B68F9
:1040AC001B6803F00203002B63D04C4B5B6803F0DE
:1040BC000C03002B0BD0494B5B6803F00C03082B53
:1040CC001CD1464B5B6803F48033002B16D1434B59
:1040DC001B6803F00203002B05D07B681B69012BC6
:1040EC0001D00123C0E13D4B1B6823F0F8027B6833
:1040FC005B69DB00394913430B603AE07B681B6951
:10410C00002B20D0364B01221A60FDF7ABF838613A
:10411C0008E0FDF7A7F802463B69D31A022B01D938
:10412C000323A1E12D4B1B6803F00203002BF0D0FD
:10413C002A4B1B6823F0F8027B685B69DB0027497C
:10414C0013430B6015E0264B00221A60FDF78AF82A
:10415C00386108E0FDF786F802463B69D31A022B5A
:10416C0001D9032380E11D4B1B6803F00203002BD4
:10417C00F0D17B681B6803F00803002B3AD07B68F6
:10418C009B69002B19D0174B01221A60FDF76AF8B6
:10419C00386108E0FDF766F802463B69D31A022B3A
:1041AC0001D9032360E10D4B5B6A03F00203002B82
:1041BC00F0D0012000F0CEFA1CE00A4B00221A606D
:1041CC00FDF750F838610FE0FDF74CF802463B69FB
:1041DC00D31A022B08D9032346E100BF001002407A
:1041EC000000424280044242924B5B6A03F002039D
:1041FC00002BE9D17B681B6803F00403002B00F053
:10420C00A6800023FB758B4BDB6903F08053002BDE
:10421C000DD1884BDB69874A43F08053D361854BC2
:10422C00DB6903F08053BB60BB680123FB75824BD9
:10423C001B6803F48073002B18D17F4B1B687E4ADC
:10424C0043F480731360FDF70DF8386108E0FDF757
:10425C0009F802463B69D31A642B01D9032303E105
:10426C00754B1B6803F48073002BF0D07B68DB6804
:10427C00012B06D16F4B1B6A6E4A43F0010313628C
:10428C002DE07B68DB68002B0CD16A4B1B6A694AFA
:10429C0023F001031362674B1B6A664A23F0040385
:1042AC0013621CE07B68DB68052B0CD1614B1B6A2D
:1042BC00604A43F0040313625E4B1B6A5D4A43F091
:1042CC00010313620BE05B4B1B6A5A4A23F0010398
:1042DC001362584B1B6A574A23F0040313627B6822
:1042EC00DB68002B15D0FCF7BDFF38610AE0FCF74A
:1042FC00B9FF02463B69D31A41F28832934201D985
:10430C000323B1E04B4B1B6A03F00203002BEED0EE
:10431C0014E0FCF7A7FF38610AE0FCF7A3FF0246A4
:10432C003B69D31A41F28832934201D903239BE0B3
:10433C00404B1B6A03F00203002BEED1FB7D012BDB
:10434C0005D13C4BDB693B4A23F08053D3617B683E
:10435C00DB69002B00F08780364B5B6803F00C03A5
:10436C00082B61D07B68DB69022B46D1334B0022D2
:10437C001A60FCF777FF386108E0FCF773FF024620
:10438C003B69D31A022B01D903236DE0294B1B681F
:10439C0003F00073002BF0D17B681B6AB3F5803FF0
:1043AC0008D1244B5B6823F400327B689B6821495D
:1043BC0013434B601F4B5B6823F474127B68196AC0
:1043CC007B685B6A0B431B4913434B601B4B0122FD
:1043DC001A60FCF747FF386108E0FCF743FF024620
:1043EC003B69D31A022B01D903233DE0114B1B6807
:1043FC0003F00073002BF0D035E0104B00221A6054
:10440C00FCF730FF386108E0FCF72CFF02463B69F3
:10441C00D31A022B01D9032326E0064B1B6803F0A9
:10442C000073002BF0D11EE07B68DB69012B07D1F8
:10443C00012319E00010024000700040600042426D
:10444C000B4B5B68FB60FB6803F480327B681B6A78
:10445C009A4206D1FB6803F470127B685B6A9A423D
:10446C0001D0012300E0002318461837BD4680BD5B
:10447C000010024080B584B000AF786039607B6872
:10448C00002B01D10123D0E06A4B1B6803F007031A
:10449C003A689A4210D9674B1B6823F007026549AA
:1044AC003B6813430B60634B1B6803F007033A68CC
:1044BC009A4201D00123B8E07B681B6803F0020329
:1044CC00002B20D07B681B6803F00403002B05D065
:1044DC00594B5B68584A43F4E06353607B681B6834
:1044EC0003F00803002B05D0534B5B68524A43F48E
:1044FC0060535360504B5B6823F0F0027B689B6801
:10450C004D4913434B607B681B6803F00103002B80
:10451C0040D07B685B68012B07D1474B1B6803F4C9
:10452C000033002B15D101237FE07B685B68022BE5
:10453C0007D1414B1B6803F00073002B09D10123F9
:10454C0073E03D4B1B6803F00203002B01D10123E8
:10455C006BE0394B5B6823F003027B685B68364980
:10456C0013434B60FCF77EFEF8600AE0FCF77AFE22
:10457C000246FB68D31A41F28832934201D90323D5
:10458C0053E02D4B5B6803F00C027B685B689B006F
:10459C009A42EBD1274B1B6803F007033A689A4207
:1045AC0010D2244B1B6823F0070222493B681343AB
:1045BC000B60204B1B6803F007033A689A4201D04A
:1045CC00012332E07B681B6803F00403002B08D046
:1045DC00194B5B6823F4E0627B68DB681649134374
:1045EC004B607B681B6803F00803002B09D0124B4F
:1045FC005B6823F460527B681B69DB000E49134334
:10460C004B6000F021F802460B4B5B681B0903F072
:10461C000F030A49CB5C22FA03F3094A1360094BD6
:10462C001B681846FCF7DCFD002318461037BD4606
:10463C0080BD00BF002002400010024058AA0008B4
:10464C000C0000201000002080B487B000AF0023C5
:10465C00FB600023BB6000237B6100237B60002395
:10466C003B611E4B5B68FB60FB6803F00C03042B87
:10467C0002D0082B03D027E0194B3B6127E0FB68E5
:10468C009B0C03F00F03174AD35C7B60FB6803F4AD
:10469C008033002B10D0114B5B685B0C03F00103D3
:1046AC00114AD35CBB607B680D4A03FB02F2BB680A
:1046BC00B2FBF3F37B6104E07B680C4A02FB03F36F
:1046CC007B617B693B6102E0054B3B6100BF3B6951
:1046DC0018461C37BD4680BC704700BF0010024016
:1046EC0000127A0070AA000880AA000800093D0098
:1046FC0080B400AF024B1B681846BD4680BC7047A7
:10470C000C00002080B500AFFFF7F2FF0246054B0E
:10471C005B681B0A03F007030349CB5C22FA03F323
:10472C00184680BD0010024068AA000880B500AF92
:10473C00FFF7DEFF0246054B5B68DB0A03F007035D
:10474C000349CB5C22FA03F3184680BD00100240EB
:10475C0068AA000880B485B000AF78600A4B1B686B
:10476C000A4AA2FB03235B0A7A6802FB03F3FB6091
:10477C0000BFFB685A1EFA60002BF9D100BF00BFC6
:10478C001437BD4680BC70470C000020D34D62101E
:10479C0080B586B000AF786000233B610023FB60DE
:1047AC007B681B6803F00103002B7DD00023FB7595
:1047BC004F4BDB6903F08053002B0DD14C4BDB6965
:1047CC004B4A43F08053D361494BDB6903F0805370
:1047DC00BB60BB680123FB75464B1B6803F48073FD
:1047EC00002B18D1434B1B68424A43F4807313606F
:1047FC00FCF738FD386108E0FCF734FD02463B69F4
:10480C00D31A642B01D903236DE03A4B1B6803F4D4
:10481C008073002BF0D0364B1B6A03F44073FB60A3
:10482C00FB68002B2ED07B685B6803F44073FA683E
:10483C009A4227D02E4B1B6A23F44073FB602E4BFD
:10484C0001221A602C4B00221A60294AFB68136261
:10485C00FB6803F00103002B14D0FCF703FD386157
:10486C000AE0FCF7FFFC02463B69D31A41F288329E
:10487C00934201D9032336E01D4B1B6A03F002035C
:10488C00002BEED01A4B1B6A23F440727B685B68DA
:10489C00174913430B62FB7D012B05D1144BDB69CC
:1048AC00134A23F08053D3617B681B6803F0020327
:1048BC00002B08D00E4B5B6823F440427B689B684E
:1048CC000B4913434B607B681B6803F01003002BF0
:1048DC0008D0074B5B6823F480027B68DB680449D3
:1048EC0013434B60002318461837BD4680BD00BFEC
:1048FC0000100240007000404004424280B582B07B
:10490C0000AF78607B68002B01D1012341E07B680C
:10491C0093F83D30DBB2002B06D17B68002283F884
:10492C003C207868FCF7FEFA7B68022283F83D2075
:10493C007B681A687B6804331946104600F086FBC6
:10494C007B68012283F846207B68012283F83E2095
:10495C007B68012283F83F207B68012283F840208A
:10496C007B68012283F841207B68012283F8422076
:10497C007B68012283F843207B68012283F8442062
:10498C007B68012283F845207B68012283F83D2057
:10499C00002318460837BD4680BD000080B485B0A2
:1049AC0000AF78607B6893F83D30DBB2012B01D00F
:1049BC0001233AE07B68022283F83D207B681B6868
:1049CC00DA687B681B6842F00102DA607B681B685E
:1049DC00184A93420ED07B681B68B3F1804F09D004
:1049EC007B681B68144A934204D07B681B68134A8B
:1049FC00934211D17B681B689B6803F00703FB6033
:104A0C00FB68062B10D07B681B681A687B681B68D8
:104A1C0042F001021A6007E07B681B681A687B6829
:104A2C001B6842F001021A60002318461437BD4679
:104A3C0080BC7047002C014000040040000800407E
:104A4C0080B582B000AF78607B68002B01D1012368
:104A5C0041E07B6893F83D30DBB2002B06D17B68DC
:104A6C00002283F83C207868FCF782FA7B680222EB
:104A7C0083F83D207B681A687B680433194610461E
:104A8C0000F0E4FA7B68012283F846207B6801225F
:104A9C0083F83E207B68012283F83F207B6801224B
:104AAC0083F840207B68012283F841207B68012237
:104ABC0083F842207B68012283F843207B68012223
:104ACC0083F844207B68012283F845207B6801220F
:104ADC0083F83D20002318460837BD4680BD80B5BD
:104AEC0082B000AF78607B681B681B6903F002031F
:104AFC00022B22D17B681B68DB6803F00203022BBC
:104B0C001BD17B681B686FF002021A617B68012263
:104B1C001A777B681B689B6903F00303002B03D097
:104B2C00786800F077FA05E0786800F06AFA78683F
:104B3C0000F079FA7B6800221A777B681B681B6986
:104B4C0003F00403042B22D17B681B68DB6803F0A1
:104B5C000403042B1BD17B681B686FF004021A61E1
:104B6C007B6802221A777B681B689B6903F440738D
:104B7C00002B03D0786800F04DFA05E0786800F05F
:104B8C0040FA786800F04FFA7B6800221A777B684D
:104B9C001B681B6903F00803082B22D17B681B6878
:104BAC00DB6803F00803082B1BD17B681B686FF0D4
:104BBC0008021A617B6804221A777B681B68DB6920
:104BCC0003F00303002B03D0786800F023FA05E010
:104BDC00786800F016FA786800F025FA7B680022F5
:104BEC001A777B681B681B6903F01003102B22D10A
:104BFC007B681B68DB6803F01003102B1BD17B68F0
:104C0C001B686FF010021A617B6808221A777B68A8
:104C1C001B68DB6903F44073002B03D0786800F049
:104C2C00F9F905E0786800F0ECF9786800F0FBF928
:104C3C007B6800221A777B681B681B6903F00103F1
:104C4C00012B0ED17B681B68DB6803F00103012B81
:104C5C0007D17B681B686FF001021A617868FBF75B
:104C6C006FFA7B681B681B6903F08003802B0ED1E5
:104C7C007B681B68DB6803F08003802B07D17B68A3
:104C8C001B686FF080021A61786800F0C6FC7B68C4
:104C9C001B681B6903F04003402B0ED17B681B681B
:104CAC00DB6803F04003402B07D17B681B686FF077
:104CBC0040021A61786800F0BFF97B681B681B69B9
:104CCC0003F02003202B0ED17B681B68DB6803F0FC
:104CDC002003202B07D17B681B686FF020021A6120
:104CEC00786800F091FC00BF0837BD4680BD00001D
:104CFC0080B586B000AFF860B9607A600023FB75B0
:104D0C00FB6893F83C30012B01D10223AEE0FB6829
:104D1C00012283F83C207B680C2B00F29F8001A2BF
:104D2C0052F823F0654D0008694E0008694E0008E2
:104D3C00694E0008A54D0008694E0008694E000830
:104D4C00694E0008E74D0008694E0008694E0008DE
:104D5C00694E0008274E0008FB681B68B9681846A6
:104D6C0000F0D6F9FB681B689A69FB681B6842F077
:104D7C0008029A61FB681B689A69FB681B6822F041
:104D8C0004029A61FB681B689969BB681A69FB6825
:104D9C001B680A439A6164E0FB681B68B968184693
:104DAC0000F01CFAFB681B689A69FB681B6842F4EC
:104DBC0000629A61FB681B689A69FB681B6822F4A5
:104DCC0080629A61FB681B689969BB681B691A024F
:104DDC00FB681B680A439A6143E0FB681B68B9686F
:104DEC00184600F065FAFB681B68DA69FB681B68FB
:104DFC0042F00802DA61FB681B68DA69FB681B6821
:104E0C0022F00402DA61FB681B68D969BB681A6975
:104E1C00FB681B680A43DA6123E0FB681B68B9680E
:104E2C00184600F0AFFAFB681B68DA69FB681B6870
:104E3C0042F40062DA61FB681B68DA69FB681B6884
:104E4C0022F48062DA61FB681B68D969BB681B6954
:104E5C001A02FB681B680A43DA6102E00123FB7546
:104E6C0000BFFB68002283F83C20FB7D18461837F6
:104E7C00BD4680BD80B584B000AF7860396000233A
:104E8C00FB737B6893F83C30012B01D10223B4E017
:104E9C007B68012283F83C207B68022283F83D204A
:104EAC007B681B689B68BB60BB6823F07703BB60A7
:104EBC00BB6823F47F43BB607B681B68BA689A604D
:104ECC003B681B68B3F5005F3ED0B3F5005F00F2A2
:104EDC008780B3F5805F00F08680B3F5805F7FD864
:104EEC00702B1AD0702B7BD8602B50D0602B77D8BE
:104EFC00502B3CD0502B73D8402B58D0402B6FD814
:104F0C00302B64D0302B6BD8202B60D0202B67D863
:104F1C00002B5CD0102B5AD062E07B6818683B6881
:104F2C0099683B685A683B68DB6800F0F0FA7B686C
:104F3C001B689B68BB60BB6843F07703BB607B68F6
:104F4C001B68BA689A604FE07B6818683B68996880
:104F5C003B685A683B68DB6800F0D9FA7B681B68D1
:104F6C009A687B681B6842F480429A603CE07B68DC
:104F7C0018683B6859683B68DB681A4600F050FAC1
:104F8C007B681B685021184600F0A7FA2CE07B6860
:104F9C0018683B6859683B68DB681A4600F06EFA83
:104FAC007B681B686021184600F097FA1CE07B6850
:104FBC0018683B6859683B68DB681A4600F030FAA1
:104FCC007B681B684021184600F087FA0CE07B6870
:104FDC001A683B681B681946104600F07EFA03E01D
:104FEC000123FB7300E000BF7B68012283F83D20A6
:104FFC007B68002283F83C20FB7B18461037BD46AB
:10500C0080BD80B483B000AF786000BF0C37BD4664
:10501C0080BC704780B483B000AF786000BF0C37A1
:10502C00BD4680BC704780B483B000AF786000BFD1
:10503C000C37BD4680BC704780B483B000AF78603D
:10504C0000BF0C37BD4680BC7047000080B485B0F3
:10505C0000AF786039607B681B68FB607B68294A0D
:10506C0093420BD07B68B3F1804F07D07B68264A04
:10507C00934203D07B68254A934208D1FB6823F006
:10508C007003FB603B685B68FA681343FB607B68EA
:10509C001C4A93420BD07B68B3F1804F07D07B68DE
:1050AC00194A934203D07B68184A934208D1FB6893
:1050BC0023F44073FB603B68DB68FA681343FB60C6
:1050CC00FB6823F080023B685B691343FB607B68E1
:1050DC00FA681A603B689A687B68DA623B681A68FF
:1050EC007B689A627B68074A934203D13B681A69D2
:1050FC007B681A637B6801225A6100BF1437BD4676
:10510C0080BC7047002C01400004004000080040A7
:10511C0080B487B000AF786039607B681B6A7B61B4
:10512C007B681B6A23F001027B681A627B685B68F0
:10513C003B617B689B69FB60FB6823F07003FB6041
:10514C00FB6823F00303FB603B681B68FA6813439E
:10515C00FB607B6923F002037B613B689B687A6987
:10516C0013437B617B681C4A93420CD17B6923F00F
:10517C0008037B613B68DB687A6913437B617B695D
:10518C0023F004037B617B68134A934211D13B6982
:10519C0023F480733B613B6923F400733B613B68F0
:1051AC005B693A6913433B613B689B693A691343FA
:1051BC003B617B683A695A607B68FA689A613B6824
:1051CC005A687B685A637B687A691A6200BF1C371D
:1051DC00BD4680BC704700BF002C014080B487B036
:1051EC0000AF786039607B681B6A7B617B681B6AE7
:1051FC0023F010027B681A627B685B683B617B68FA
:10520C009B69FB60FB6823F4E043FB60FB6823F4C1
:10521C004073FB603B681B681B02FA681343FB601E
:10522C007B6923F020037B613B689B681B017A69D7
:10523C0013437B617B681D4A93420DD17B6923F03C
:10524C0080037B613B68DB681B017A6913437B61DC
:10525C007B6923F040037B617B68144A934213D132
:10526C003B6923F480633B613B6923F400633B613E
:10527C003B685B699B003A6913433B613B689B69E4
:10528C009B003A6913433B617B683A695A607B68BF
:10529C00FA689A613B685A687B689A637B687A699A
:1052AC001A6200BF1C37BD4680BC7047002C014001
:1052BC0080B487B000AF786039607B681B6A7B6113
:1052CC007B681B6A23F480727B681A627B685B685C
:1052DC003B617B68DB69FB60FB6823F07003FB6060
:1052EC00FB6823F00303FB603B681B68FA681343FD
:1052FC00FB607B6923F400737B613B689B681B023A
:10530C007A6913437B617B681D4A93420DD17B699B
:10531C0023F400637B613B68DB681B027A691343EF
:10532C007B617B6923F480637B617B68144A9342C5
:10533C0013D13B6923F480533B613B6923F4005345
:10534C003B613B685B691B013A6913433B613B68FA
:10535C009B691B013A6913433B617B683A695A604C
:10536C007B68FA68DA613B685A687B68DA637B6849
:10537C007A691A6200BF1C37BD4680BC704700BFFB
:10538C00002C014080B487B000AF786039607B6836
:10539C001B6A3B617B681B6A23F480527B681A6230
:1053AC007B685B687B617B68DB69FB60FB6823F473
:1053BC00E043FB60FB6823F44073FB603B681B68B5
:1053CC001B02FA681343FB603B6923F400533B61F7
:1053DC003B689B681B033A6913433B617B680F4A2C
:1053EC00934209D17B6923F480437B613B685B6901
:1053FC009B017A6913437B617B687A695A607B688D
:10540C00FA68DA613B685A687B681A647B683A69A7
:10541C001A6200BF1C37BD4680BC7047002C01408F
:10542C0080B487B000AFF860B9607A60FB681B6A23
:10543C007B61FB681B6A23F00102FB681A62FB6844
:10544C009B693B613B6923F0F0033B617B681B016B
:10545C003A6913433B617B6923F00A037B617A69E8
:10546C00BB6813437B61FB683A699A61FB687A6994
:10547C001A6200BF1C37BD4680BC704780B487B031
:10548C0000AFF860B9607A60FB681B6A7B61FB68EF
:10549C001B6A23F01002FB681A62FB689B693B6174
:1054AC003B6923F470433B617B681B033A691343EC
:1054BC003B617B6923F0A0037B61BB681B017A69AC
:1054CC0013437B61FB683A699A61FB687A691A62DB
:1054DC0000BF1C37BD4680BC704780B485B000AFA0
:1054EC00786039607B689B68FB60FB6823F0700315
:1054FC00FB603A68FB68134343F00703FB607B686F
:10550C00FA689A6000BF1437BD4680BC704780B4FF
:10551C0087B000AFF860B9607A603B60FB689B684D
:10552C007B617B6923F47F437B613B681A027B6858
:10553C001A43BB6813437A6913437B61FB687A692E
:10554C009A6000BF1C37BD4680BC704780B485B0E4
:10555C0000AF786039607B6893F83C30012B01D147
:10556C00022346E07B68012283F83C207B68022200
:10557C0083F83D207B681B685B68FB607B681B685D
:10558C009B68BB60FB6823F07003FB603B681B6887
:10559C00FA681343FB607B681B68FA685A607B6887
:1055AC001B68164A93420ED07B681B68B3F1804F80
:1055BC0009D07B681B68124A934204D07B681B6835
:1055CC00104A93420CD1BB6823F08003BB603B684C
:1055DC005B68BA681343BB607B681B68BA689A60E7
:1055EC007B68012283F83D207B68002283F83C20F5
:1055FC00002318461437BD4680BC7047002C014070
:10560C00000400400008004080B483B000AF786014
:10561C0000BF0C37BD4680BC704780B483B000AF70
:10562C00786000BF0C37BD4680BC704780B582B037
:10563C0000AF78607B68002B01D1012342E07B68CE
:10564C0093F84130DBB2002B06D17B68002283F843
:10565C0040207868FBF7DEFC7B68242283F841202D
:10566C007B681B68DA687B681B6822F40052DA607E
:10567C00786800F0D5FC7B681B681A697B681B682E
:10568C0022F490421A617B681B685A697B681B681C
:10569C0022F02A025A617B681B68DA687B681B68F7
:1056AC0042F40052DA607B6800225A647B68202244
:1056BC0083F841207B68202283F842207B680022FB
:1056CC005A63002318460837BD4680BD80B584B0A8
:1056DC0000AFF860B9601346FB80FB6893F842306A
:1056EC00DBB2202B12D1BB68002B02D0FB88002B25
:1056FC0001D101230BE0FB6800221A63FB881A46D8
:10570C00B968F86800F0B7FA034600E002231846BF
:10571C001037BD4680BD000080B5BAB000AF7860D0
:10572C007B681B681B68C7F8E4307B681B68DB6808
:10573C00C7F8E0307B681B685B69C7F8DC30002376
:10574C00C7F8D8300023C7F8D430D7F8E43003F0CA
:10575C000F03C7F8D830D7F8D830002B0FD1D7F8B3
:10576C00E43003F02003002B09D0D7F8E03003F02D
:10577C002003002B03D0786800F093FB5BE2D7F892
:10578C00D830002B00F0DE80D7F8DC3003F00103BA
:10579C00002B06D1D7F8E03003F49073002B00F007
:1057AC00D180D7F8E43003F00103002B0BD0D7F8ED
:1057BC00E03003F48073002B05D07B685B6C43F006
:1057CC0001027B685A64D7F8E43003F00403002B21
:1057DC000BD0D7F8DC3003F00103002B05D07B682D
:1057EC005B6C43F002027B685A64D7F8E43003F038
:1057FC000203002B0BD0D7F8DC3003F00103002B95
:10580C0005D07B685B6C43F004027B685A64D7F864
:10581C00E43003F00803002B11D0D7F8E03003F08C
:10582C002003002B05D1D7F8DC3003F00103002B4B
:10583C0005D07B685B6C43F008027B685A647B681C
:10584C005B6C002B00F0F281D7F8E43003F02003FE
:10585C00002B08D0D7F8E03003F02003002B02D047
:10586C00786800F01EFB7B681B685B6903F04003E3
:10587C00002B14BF01230023DBB2C7F8D4307B68A4
:10588C005B6C03F00803002B03D1D7F8D430002B4A
:10589C004FD0786800F028FA7B681B685B6903F0CE
:1058AC004003002B41D07B681B681433C7F89C3035
:1058BC00D7F89C3053E8003FC7F89830D7F89830A9
:1058CC0023F04003C7F8D0307B681B681433D7F83B
:1058DC00D020C7F8A820C7F8A430D7F8A410D7F860
:1058EC00A82041E80023C7F8A030D7F8A030002B3F
:1058FC00D9D17B68DB6B002B13D07B68DB6B7E4ACA
:10590C005A637B68DB6B1846FCF77CFA0346002B6A
:10591C0016D07B68DB6B5B6B7A68D26B1046984752
:10592C000EE0786800F093F90AE0786800F08FF9DF
:10593C0006E0786800F08BF97B6800225A6475E108
:10594C0000BF73E17B681B6B012B40F04F81D7F8D4
:10595C00E43003F01003002B00F04881D7F8E0305E
:10596C0003F01003002B00F041810023BB607B6827
:10597C001B681B68BB607B681B685B68BB60BB6893
:10598C007B681B685B6903F04003002B00F0B6805A
:10599C007B68DB6B1B685B68A7F8BE30B7F8BE3062
:1059AC00002B00F045817B689B8DB7F8BE209A4296
:1059BC0080F03E817B68B7F8BE20DA857B68DB6BB4
:1059CC009B69202B00F088807B681B680C33C7F820
:1059DC008830D7F8883053E8003FC7F88430D7F8C0
:1059EC00843023F48073C7F8B8307B681B680C33A1
:1059FC00D7F8B820C7F89420C7F89030D7F8901093
:105A0C00D7F8942041E80023C7F88C30D7F88C30B5
:105A1C00002BD9D17B681B6814337B677B6F53E8F1
:105A2C00003F3B673B6F23F00103C7F8B4307B6842
:105A3C001B681433D7F8B420C7F88020FB67F96FC4
:105A4C00D7F8802041E80023BB67BB6F002BE1D166
:105A5C007B681B6814333B663B6E53E8003FFB6569
:105A6C00FB6D23F04003C7F8B0307B681B68143320
:105A7C00D7F8B020FA66BB66B96EFA6E41E800231F
:105A8C007B667B6E002BE3D17B68202283F842205F
:105A9C007B6800221A637B681B680C33FB64FB6C0D
:105AAC0053E8003FBB64BB6C23F01003C7F8AC3069
:105ABC007B681B680C33D7F8AC20BA657B65796DB5
:105ACC00BA6D41E800233B653B6D002BE3D17B684D
