:020000040800F2
:1000000000500020A9320008FD310008FF3100082F
:100010000132000803320008053200080000000029
:10002000000000000000000000000000073200088F
:1000300009320008000000000B3200080D320008F1
:10004000F1320008F1320008F1320008F132000804
:10005000F1320008F1320008F1320008F1320008F4
:10006000F1320008F1320008F132000811320008C4
:10007000F1320008F13200081D3200082932000870
:10008000F1320008F1320008F1320008F1320008C4
:1000900035320008F1320008F1320008F132000870
:1000A000F132000841320008F1320008F132000854
:1000B000F1320008F1320008F1320008F132000894
:1000C000F13200084D320008F1320008F132000828
:1000D000F132000859320008F1320008F13200080C
:1000E000F1320008F1320008F1320008000000008F
:1000F0000000000000000000000000000000000000
:0C01000000000000000000005FF808F1A3
:1001100010B5054C237833B9044B13B10448AFF341
:1001200000800123237010BDF801002000000000B2
:10013000A898000808B5034B1BB103490348AFF367
:10014000008008BD00000000FC010020A898000805
:10015000034613F8012B002AFBD1181A0138704707
:1001600070B54FF0FF0C4CF4E06C1CEA11541DBF4D
:100170001CEA135594EA0C0F95EA0C0F00F0DEF818
:100180002C4481EA030621EA4C5123EA4C5350EAFD
:10019000013518BF52EA033541F4801143F480134E
:1001A00038D0A0FB02CE4FF00005E1FB02E506F0DF
:1001B0000042E0FB03E54FF00006E1FB03569CF034
:1001C000000F18BF4EF0010EA4F1FF04B6F5007F3A
:1001D00064F5407404D25FEA4E0E6D4146EB0606AC
:1001E00042EAC62141EA55514FEAC52040EA5E5035
:1001F0004FEACE2EB4F1FD0C88BFBCF5E06F1ED8DF
:10020000BEF1004F08BF5FEA500E50F1000041EB15
:10021000045170BD06F0004646EA010140EA0200C2
:1002200081EA0301B4EB5C04C2BFD4EB0C0541EAE4
:10023000045170BD41F480114FF0000E013C00F3F9
:10024000AB8014F1360FDEBF002001F0004170BD1D
:10025000C4F10004203C35DA0C341BDC04F1140436
:10026000C4F1200500FA05F320FA04F001FA05F2C2
:1002700040EA020001F0004221F0004110EBD3708F
:1002800021FA04F642EB06015EEA430E08BF20EABB
:10029000D37070BDC4F10C04C4F1200500FA04F35E
:1002A00020FA05F001FA04F240EA020001F00041F0
:1002B00010EBD37041F100015EEA430E08BF20EA63
:1002C000D37070BDC4F1200500FA05F24EEA020EAB
:1002D00020FA04F301FA05F243EA020321FA04F0DA
:1002E00001F0004121FA04F220EA020000EBD37091
:1002F0005EEA430E08BF20EAD37070BD94F0000F91
:100300000FD101F00046400041EB010111F4801FC4
:1003100008BF013CF7D041EA060195F0000F18BF75
:10032000704703F00046520043EB030313F4801FB1
:1003300008BF013DF7D043EA0603704794EA0C0F6B
:100340000CEA135518BF95EA0C0F0CD050EA410681
:1003500018BF52EA4306D1D181EA030101F00041FE
:100360004FF0000070BD50EA410606BF1046194626
:1003700052EA430619D094EA0C0F02D150EA013632
:1003800013D195EA0C0F05D152EA03361CBF104673
:1003900019460AD181EA030101F0004141F0FE4112
:1003A00041F470014FF0000070BD41F0FE4141F496
:1003B000780170BD81F0004102E000BF83F000438E
:1003C00030B54FEA41044FEA430594EA050F08BFF0
:1003D00090EA020F1FBF54EA000C55EA020C7FEAB4
:1003E000645C7FEA655C00F0E2804FEA5454D4EB31
:1003F0005555B8BF6D420CDD2C4480EA020281EAFB
:10040000030382EA000083EA010180EA020281EA32
:100410000303362D88BF30BD11F0004F4FEA013184
:100420004FF4801C4CEA113102D0404261EB410193
:1004300013F0004F4FEA03334CEA133302D0524219
:1004400063EB430394EA050F00F0A780A4F10104D5
:10045000D5F1200E0DDB02FA0EFC22FA05F280180F
:1004600041F1000103FA0EF2801843FA05F35941F5
:100470000EE0A5F120050EF1200E012A03FA0EFC74
:1004800028BF4CF0020C43FA05F3C01851EBE3719E
:1004900001F0004507D54FF0000EDCF1000C7EEBBB
:1004A00000006EEB0101B1F5801F1BD3B1F5001FF9
:1004B0000CD349085FEA30004FEA3C0C04F1010418
:1004C0004FEA445212F5800F80F09A80BCF1004F41
:1004D00008BF5FEA500C50F1000041EB045141EAC3
:1004E000050130BD5FEA4C0C404141EB0101013C8C
:1004F00028BFB1F5801FE9D291F0000F04BF01467B
:100500000020B1FA81F308BF2033A3F10B03B3F14C
:1005100020020CDA0C3208DD02F1140CC2F10C02DC
:1005200001FA0CF021FA02F10CE002F11402D8BF3A
:10053000C2F1200C01FA02F120FA0CFCDCBF41EA06
:100540000C019040E41AA2BF01EB0451294330BDD5
:100550006FEA04041F3C1CDA0C340EDC04F11404B2
:10056000C4F1200220FA04F001FA02F340EA030089
:1005700021FA04F345EA030130BDC4F10C04C4F1CF
:10058000200220FA02F001FA04F340EA03002946AF
:1005900030BD21FA04F0294630BD94F0000F83F4F9
:1005A000801306BF81F480110134013D4EE77FEADC
:1005B000645C18BF7FEA655C29D094EA050F08BF28
:1005C00090EA020F05D054EA000C04BF1946104609
:1005D00030BD91EA030F1EBF0021002030BD5FEA4D
:1005E000545C05D14000494128BF41F0004130BD75
:1005F00014F580043CBF01F5801130BD01F00045C9
:1006000045F0FE4141F470014FF0000030BD7FEA3B
:10061000645C1ABF194610467FEA655C1CBF0B4636
:10062000024650EA013406BF52EA033591EA030F4D
:1006300041F4002130BD00BF90F0000F04BF002145
:10064000704730B54FF4806404F132044FF0000578
:100650004FF0000150E700BF90F0000F04BF0021F1
:10066000704730B54FF4806404F1320410F0004557
:1006700048BF40424FF000013EE700BF42004FEA52
:10068000E2014FEA31014FEA02701FBF12F07F43CF
:1006900093F07F4F81F06051704732F07F4208BF86
:1006A000704793F07F4F04BF41F40021704730B58D
:1006B0004FF4607401F0004521F000411CE700BFD9
:1006C00050EA010208BF704730B54FF000050AE05C
:1006D00050EA010208BF704730B511F0004502D55D
:1006E000404261EB41014FF4806404F132045FEA5F
:1006F000915C3FF4D8AE4FF003025FEADC0C18BF08
:1007000003325FEADC0C18BF033202EBDC02C2F1F9
:10071000200300FA03FC20FA02F001FA03FE40EA8B
:100720000E0021FA02F11444BDE600BF4FEA410277
:1007300012F5001215D211D56FF47873B3EB625233
:1007400012D94FEAC12343F0004343EA505311F05A
:10075000004F23FA02F018BF404270474FF00000EC
:10076000704750EA013005D111F0004008BF6FF02A
:10077000004070474FF00000704700BF00220A4958
:1007800030B50B88094D013810F8014F14B902B18A
:100790000B8030BD5A1C92B2B2F5807FEC5414BF6E
:1007A000134600230122EFE7CC040020B803002009
:1007B000074A10B51188074C4B1C9BB2B3F5807FDC
:1007C000138008BF0023605408BF138010BD00BF12
:1007D000CC040020B803002038B500240D4B0D4692
:1007E0001C700D4B01463F22184608F0B7FB0B4B1F
:1007F0001F2280F83F402946184608F0AFFB3222FE
:10080000074BC4771A600D22064B1A70064B1C70FA
:1008100038BD00BF1D0200207803002042020020E6
:10082000BC0400201C020020C4040020194B70B539
:100830005B6806460D4614463BB347F230531649F3
:100840001648002A08BF1C4608F0C8FB144B0F22AC
:100850001846314608F082FB00221249C2730A2270
:10086000284608F00FFB0A2220460F4908F00AFB31
:100870000E4B1B7863B10E4B187810F0020003D0BA
:10088000092206200B4B1A7070BD4FF0FF30FBE7BA
:100890000120F9E720020020FC9800080000002059
:1008A00062030020720300203C0200207803002035
:1008B0001D0200201C020020054B187810F00200D9
:1008C00004D004480378002B08BF0020704700BF05
:1008D0001D0200202C020020074A10B51188074C89
:1008E0004B1C9BB2B3F5807F138008BF002360547C
:1008F00008BF138010BD00BFCA04002062020020A0
:100900002DE9FF479A46334B81465B680E461746F2
:10091000002B59D0DFF8C08098F80040630656D508
:1009200014F0080449D10A2201A9384608F0AAFAAD
:1009300001A8FFF70DFC0138C0B2032839D82748B9
:10094000FFF71CFF01A8FFF719FF2548FFF716FF67
:100950002246244924480B88A5B2BD4216D302B1D1
:100960000B8098F80030214C23F00C0343F00C036B
:1009700088F8003023683BB11D489847236801A8D8
:10098000984723681B489847092013E05D1CADB2C7
:10099000B5F5807F08BF0025721C19F8066092B279
:1009A000C6540134524514BF164600262B46012278
:1009B000D2E70B2004B0BDE8F0870C4B1B680BB1ED
:1009C0000D4898470820F5E74FF0FF30F2E7052083
:1009D000F0E700BF200200201D020020489A000816
:1009E00000990008CC040020B80300201802002061
:1009F000039900087E9900081699000802460D4BDD
:100A00000068516803C390680B4A18600023137094
:100A10000A4A13700A4A13800A4A13800A4A13804A
:100A20000A4A13800A4A13700A4A13600A4A13607A
:100A3000704700BF200200201C0200201E02002080
:100A4000C8040020CC040020C6040020CA040020F2
:100A50001D0200201402002018020020094A136819
:100A60000BB1013B1360084A136823B1013B1360CB
:100A70000BB9064A1370064A13680BB1013B1360A9
:100A8000704700BFBC040020B80400201E020020F4
:100A9000C00400202DE9F84FAC4BAD4EB3F800B0C8
:100AA000338800255B4506D0AA4F3B780D3B022BCF
:100AB00020D8A6F800B0A84EA84C3368002B40F010
:100AC0003C826423A34D33602B780F2B00F23582D8
:100AD000DFE813F05F0348026102670271027B02E4
:100AE000E102E902FA020903180355035A0313024B
:100AF0001F022E0202239A4A9A4C136033889B45A8
:100B0000D9D0994AD05C22780C2A00F2F181DFE832
:100B100012F00D005800C300EF01EF017B019001BE
:100B20009801A501EF01C001C401DA0100230422EC
:100B30009E468E49DFF83882DFF838920B7088F8CD
:100B400000205FFA83FC59F82C20A2B9BEF1000FF7
:100B500001D081F800C00022814B80491A600B78D7
:100B600013F0010F20D03E281ED162F300030B705A
:100B7000814B1A6018E092F804A0013382451DD120
:100B8000BEF1000F01D081F800C013785278303BDD
:100B9000313A03EB830302EB4303784A13800123CA
:100BA0002370052388F80030338801339BB2B3F5F6
:100BB000807F338004BF002333809FE74FF0010E16
:100BC000BFE7DFF8A8C16B499CF8002051F822204C
:100BD0006749097812F801E0864514D1DFF89CC115
:100BE000BCF80030013B9BB2ACF800300BB10D28D3
:100BF0004AD19378D278303B03EB8303303A02EB4F
:100C000043032370D0E700229146C1F57F4A8CF858
:100C100000200AF1D30ADFF85CC15FFA82F85CF8C1
:100C200028C0BCF1000F09D1B9F1000F00F03D81DF
:100C3000524A15804D4A82F8008036E19CF800E067
:100C40009CF80150AEF1300E0EEB8E0E554405EBC4
:100C50004E05ADB2FF2D1BD81CF801E0864517D11B
:100C6000464B1D80B9F1000F02D0404B83F8008045
:100C700055B99CF802309CF80320303B03EB83030A
:100C8000303A02EB43032370394B013119708BE783
:100C90004FF001090132BEE70A2885D10022334B0B
:100CA00022701B78023B0D2B3FF67EAF01A151F85D
:100CB00023F000BFED0C0008070D0008210D00080F
:100CC000A90B00088D0D00088D0D0008AF0D000860
:100CD000BB0D0008D30D0008AF0D0008A90B0008DC
:100CE000F30D0008A90B0008FD0D00083B78022B4E
:100CF0007FF45AAF0022184B1A60184A137843F059
:100D00002003137050E7154A137819077FF54CAF8D
:100D100023F0480313701A4B1A881A4B1A8043E7C2
:100D20000D4B1A603B78062B0C4B02BF1A7842F031
:100D300020021A701A7842F002021A70124B1B68D5
:100D4000002B3FF431AF032098472DE7CA04002061
:100D5000C60400201C020020BC0400201D0200204C
:100D6000B80400201E02002062020020D0040020EF
:100D7000D1040020789B0008C0040020CE0400208D
:100D8000CC040020C804002014020020914A1378EB
:100D900023F042031370904B1B680BB1002098475F
:100DA0003B78062B3FF400AF0F233B70FCE6894BEA
:100DB0001A786FF386121A70F6E6864B1A786FF37C
:100DC000C3021A70844B1B68002B3FF4EDAE0A205F
:100DD000BAE7824B1A607F4A137823F0600343F02E
:100DE000600313707C4B1B68002B3FF4DDAE0720C3
:100DF000AAE7784A137823F0420382E7754A13780A
:100E000023F042031370CFE7754A2C28126807D1EC
:100E100006232370002A3FF4C7AE72489047C3E60A
:100E20000021013B21703380002A3FF4BDAE6E48A3
:100E3000F4E722287FF4B8AE0723237000226B4B1F
:100E40006CE7222803D0694A1388102B01D10823AC
:100E5000D7E6591C1180664AD054A5E60A287FF4CB
:100E6000A3AE0023614A23701188614A0F299BBFFA
:100E70005354584913700A789FBF42F020020A70F9
:100E8000564A1360544B1B68002B3FF48DAE042070
:100E90005AE72C2809D10B23CFE73A2801D10C239C
:100EA000AFE6A0F13002092A04D90022013B2270EA
:100EB000338079E64D4A138803EB830300EB430349
:100EC000303B138070E64B4B9B6803B19847474A11
:100ED0001388013B9BB21380002B7FF465AE237017
:100EE0003F4B1B68002B3FF45FAE434898475BE6DF
:100EF0000023424A2370136056E63E4B00201B68D5
:100F00009847374B1B680BB13D4898470E232B7011
:100F100013E0384B01201B689847314B1B680BB11D
:100F2000384898470F232B704FF4FA73336004E06E
:100F3000012300222B70344B1A702378DA0740F11A
:100F40002A81324A12685AB9314A23F009031188BA
:100F5000304A2370118001222F4B1A700A2333600C
:100F6000BDE8F88F284A13782BB1013BDBB2137030
:100F70001BB90D23CBE704231370237827486FF3A5
:100F800045132370FFF7FAFB154B1B680BB1244880
:100F900098470223BBE72378980640F1A2800323F9
:100FA000B5E72048FFF7EAFB0D4B1B680BB11E4865
:100FB00098470423ABE71D48FFF7E0FB084B1B688D
:100FC0000BB11B4898470523A1E72378990731D532
:100FD00007239CE71D02002014020020BC0400200F
:100FE000180200202E99000843990008CE04002022
:100FF0002C0200202002002057990008B80400208D
:101000006A99000880990008C4040020C0040020E8
:10101000CC040020C80400201C0200201C9A0008F8
:10102000969900086B9A0008A49900083A9A00085B
:10103000B89900086D4F3B78002B3FF47EAF6C48A9
:10104000FFF79CFB2220FFF7B3FB3846FFF796FB28
:101050002220FFF7ADFB2C20FFF7AAFB2220FFF791
:10106000A7FB6448FFF78AFB2220FFF7A1FB0D20B6
:10107000FFF79EFB0A20FFF79BFB5F4B1B680BB142
:101080005E48984723786FF34513237006232B702F
:1010900040F2DC534AE723789A0622D5072304223C
:1010A0002B70574B48E70022564B57481A70FFF7F2
:1010B00065FB514B1B680BB15448984723786FF37D
:1010C00045132370082322E723789B0601D50923C3
:1010D0001DE74B4A1378013BDBB21370002B7FF402
:1010E00077AF012313E74A4B1B78002B3FF425AF62
:1010F0004848FFF743FB404B1B680BB146489847F5
:101100000A2304E74548FFF739FB2220FFF750FB8D
:101110004348FFF733FB2220FFF74AFB2C20FFF761
:1011200047FB2220FFF744FB3948FFF727FB22202B
:10113000FFF73EFB2C20FFF73BFB3A48FFF71EFB77
:101140002C20FFF735FB3848FFF718FB2C20FFF762
:101150002FFB3020FFF72CFB0D20FFF729FB0A2087
:10116000FFF726FB244B1B680BB1304898472378C8
:1011700023F0600323700B232B70C823D6E623785B
:101180009F06AED50C23C2E623789807A9D5590649
:101190009DD50023CAE6264D26492A880988914212
:1011A0003FF4DEAE244E5F07B05C02D53E2808BF98
:1011B0000A20224B5B68984700283FF4D1AE227882
:1011C0002B8851070AD5F15C3E2907D1052122F071
:1011D000050242F001022270194A116001339BB2EC
:1011E000B3F5807F08BF00232B80B9E67803002089
:1011F000619A00084202002018020020CC990008E1
:10120000C40400202C020020219A0008DF99000865
:10121000620300202C9A0008F0990008549A0008F4
:1012200000000020720300203C020020069A000803
:10123000C8040020CC040020B803002020020020B5
:10124000C0040020014B1860704700BF140200204A
:10125000F0B591B001AD04462A46124B03F13807B0
:101260002E4618685968083303C6BB423546F7D185
:1012700018681346306004F593620FAE1D4603CD27
:10128000B542106051602B4602F10802F6D1286881
:10129000054B1060C4F8D434044BC4F8D83411B0F2
:1012A000F0BD00BFC0980008646E3701376E64015E
:1012B0000021F0B500F26C47451E00F23E4615F8DD
:1012C000012F36F802CF02EB811457F8043F00EBF0
:1012D0004404B4F840E06344A3EB0E03013201314F
:1012E0003B6002F03F029B090829A4F840C033820A
:1012F0002A70E4D1F0BD00232DE9F0439C4640F66E
:10130000D8674FF0010E00F5926200F58A6103F094
:10131000FB04032C19D00124B1F8008000F296469A
:1013200036F8029FE5B2C1450BD805EB850515706F
:101330000133082B02F1010201F10201E7D1BDE8FE
:10134000F08301341F2CEBD1F2E70C88BC4294BF30
:1013500082F800E082F800C0EAE700002DE9F041E1
:1013600001254FF4FA78002486B00DF117072B46BB
:101370007522D021CDE90158009706468DF8174017
:1013800003F028F89DF81730682B48D12B46CDE99B
:1013900001586B22D021304600978DF8174002F09B
:1013A00089FF2B46CDE901581C22D02130460097F9
:1013B0008DF8174002F07EFF0823CDE901588DF823
:1013C00017301B222B46D0213046009702F072FFC7
:1013D0000323CDE901588DF817302B46114D1A2201
:1013E000D0213046009702F065FF21460E22C5E964
:1013F0000444C5E90944C5E90B440B48C5E9074461
:10140000C5E90D44EC812C83EC6307F09FFD0E22AF
:101410002146284606B0BDE8F04107F097BD06B06A
:10142000BDE8F081A8140020D20400202DE9F0438B
:1014300007464FF47A764FF4FA782A4D2A4C85B055
:101440000E233B22D021CDE9005338460123CDF8AD
:10145000088002F0BFFF2988E3696A88C9BA194485
:10146000236AD2BA1A44AB88606AB5F808C0DBBAFE
:101470000344606BB5F80AE09CFABCFC8444A06BA2
:10148000B5F80C909EFABEFE8644E06B99FAB9F965
:10149000013E8144B6B2E16122626362C4F834C0A5
:1014A000C4F838E0C4F83C90002EC9D14FF47A70EB
:1014B00093FBF0F391FBF0F192FBF0F29CFBF0FC5C
:1014C0009EFBF0FE99FBF0F9A3F58043A182E28236
:1014D0002383A4F82EC0A4F830E0A4F8329005B01D
:1014E000BDE8F083D2040020A81400200E2307B525
:1014F0000193054B3B220093D021012303F06EF9A9
:1015000003B05DF804FB00BFD20400200E4A10B502
:10151000B2F92C0000F132039BB2642B81BF0A2484
:10152000D2E91231C0FB0431C2E91231D2E91231E1
:10153000002902DA4FF6FF715B180A211B14A2F88A
:1015400040304B43536410BDA814002030B51848F8
:10155000184B04889D8A418864BA641BDD8A82889E
:1015600049BA491B1D8B52BA521B89B292B2A4B21E
:1015700019825A8259809A80418982890089DC8146
:101580001C80DC8D40BA001B1C8E49BA091B5C8E86
:1015900052BA121B92B29A855A81B3F8402080B297
:1015A00089B2D88019819A811885598530BD00BFCC
:1015B000D2040020A8140020002200200021044BA7
:1015C000C3E912019A85A3F840205A64704700BF0E
:1015D000A81400208380002310B5029CC0E90233C8
:1015E00003616342C0E905349DF90C3001804280FB
:1015F000037710BD30B50A25C46843880288634369
:1016000001FB023382688A1A92FBF5F2858805FB9A
:101610000233642293FBF2F382690361934204DA9A
:101620004569AB42C4BF6418C460C468B4F5FA4FDE
:1016300006DD4FF4FA44C460934206DD026107E020
:1016400014F5FA4FF8DA044CF5E742699342F5DBFA
:10165000816090F9100030BD0083FFFF0023C0E9D6
:1016600002337047002383724371837103724375A1
:101670008375062380F82030704730B50A449142C4
:1016800000D130BD90F8203004695D1C80F82050F6
:1016900011F8015BE55490F82030047D234080F878
:1016A0002030ECE790F82030026910B55C1C80F81F
:1016B0002040D15490F82030027D134080F8203033
:1016C00010BD0000837DF0B5057D90F82040073304
:1016D0002B409C421AD0174C531C23710023063216
:1016E000A171C375D1B2827D0669DDB2A94206EB54
:1016F00002070CD8C37D013282753B70027D837D69
:101700001340837507331A4080F82020F0BD062D62
:1017100098BFE55C03F1010398BFB554827D05696C
:10172000C67DAD5C01327540C575057D2A40827568
:10173000D9E700BF040000208379026810B55C1C63
:101740008471D154837902791340837110BD30B50F
:101750000A44914200D130BD837904685D1C8571D3
:1017600011F8015BE5548379047923408371F0E734
:101770000346D97900684A1CD2B2DA71405C034949
:10178000087019790A40DA71704700BFE004002040
:10179000C2790168531CDBB2C3718A5C03490A70C9
:1017A00001790B40C37150B2704700BFE0040020C4
:1017B00030B5C2790568531CDBB2C371AA5C064C14
:1017C000227002791340591CC9B2C171EB5C0A4006
:1017D0006370C271208830BDE00400202DE9F04123
:1017E000867943790446B34206D000254FF00108BC
:1017F000304F63799E4204D1E369002B4BD1BDE8A1
:10180000F0812268A17AD25C062942D8DFE801F093
:101810000412121220122C003B78934203D140F2A2
:1018200001532273638122796379134001331A4093
:101830006271DEE7785C904203BF237B0131534045
:1018400003F1FF3307BF2373A172A5726371EAE747
:10185000217B62725140227902331340E3710523E8
:1018600021732572A372DEE7637A217B013BDBB231
:10187000637213B151402173D5E78A42A372D2D16A
:10188000A3691BB12046E1799847CCE784F808802A
:10189000C9E7A572C7E7627DA17D9142AFD02169FA
:1018A000885C98470028AAD0637D227D01331340CD
:1018B0006375A4E704000020C37A23B1013BDBB2C7
:1018C000C37203B98372704700230160C0E9053316
:1018D000C0E90233828003740377704770B5818852
:1018E0000446006802F036FA054601F045FD237C07
:1018F000042B14D8DFE803F003081426330075B96D
:101900000123237460610AE015B10023237406E00B
:101910006369C31A272B02D90223A061237470BD07
:101920000DB10323EDE7A369C01AB0F57A7FF6D3B2
:101930000423237403232377E368002BEFD0BDE84F
:10194000704018470DB90223E0E76369C01A2728E1
:10195000E5D90023237402232377A368EDE7002D44
:10196000DDD00023237404232377D8E700B18160FE
:10197000704700B1C16070477FB501230A22CDE9ED
:1019800001320DF117028DF8171000927821002214
:1019900002F090FC07B05DF804FB1FB501230DF1C8
:1019A0000F028DF80F10009278210022019302F0AF
:1019B0004FFE05B05DF804FB00230649021E18BF68
:1019C000012201335242B3F5806F01F8012BF5D1AA
:1019D000704700BFEA04002013B51A4C2378032B8C
:1019E00009D8DFE803F002111315174B19785039A5
:1019F000C9B2FFF7D2FF23780133DBB2032B15D82E
:101A00002370012002B010BD0021F2E71021F0E7A1
:101A1000802301930C4B78211A780C4B03EBC213F3
:101A200000934022012302F013FEE4E70020064A5F
:101A3000207013780133DBB2072B01D81370E0E775
:101A40001070DFE7EB080020EA080020EA0400201D
:101A5000030630B510D43F290ED80D4B0D4C1D791F
:101A6000CB0801F0070145B14AB900EBC3100123CF
:101A7000225C8B401343235430BD012AF5D0012250
:101A800000EBC310235C8A4023EA0203F3E700BFA4
:101A9000E4040020EA0400202DE9F04F87B0054659
:101AA00006A800E90600DFF88CA09DF810B0BAF88F
:101AB0000060019306EB0B037F2B39DCBAF8023090
:101AC0009DF81190009303EB09023F2A30DC4FF0A0
:101AD0000008A5F1200409FB04F46400C14506D800
:101AE0005E44AAF80060284607B0BDE8F08F0027E2
:101AF000059A135B0293009B08EB0301C9B2BB4537
:101B000003D808F101080234E8E7029BB81903FA88
:101B100007F2130456BF019B019AB3FA83F2C0B2D5
:101B200058BF520903910137FFF792FF0399E6E787
:101B30000025D8E7E404002073B56D461E4685E80D
:101B40000600441E14F8010F40B195E80600334624
:101B5000FFF7A2FF034620788342F3D002B070BDA6
:101B60002DE9F0410446642001F00CFCAE21204632
:101B7000FFF702FF202105462046FFF7FDFE10215A
:101B800005442046FFF7F8FEB02105442046FFF744
:101B9000F3FEC82105442046FFF7EEFE0021054470
:101BA0002046FFF7E9FE102105442046FFF7E4FE3A
:101BB000402105442046FFF7DFFE812105442046F1
:101BC000FFF7DAFEFF2105442046FFF7D5FEA121ED
:101BD00005442046FFF7D0FEA62105442046FFF726
:101BE000CBFEA82105442046FFF7C6FE3F21054451
:101BF0002046FFF7C1FEA42105442046FFF7BCFEA6
:101C0000D32105442046FFF7B7FE002105442046B6
:101C1000FFF7B2FED52105442046FFF7ADFEF021C7
:101C200005442046FFF7A8FED92105442046FFF7CA
:101C3000A3FE222105442046FFF79EFEDA2105443B
:101C40002046FFF799FE122105442046FFF794FE37
:101C5000DB2105442046FFF78FFE20210544204666
:101C6000FFF78AFE8D2105442046FFF785FE1421EB
:101C700005442046FFF780FEAF2105442046FFF7CC
:101C80007BFE46194FF0010542D13046FFF794FE26
:101C90000222204B4FF00E089A701E705E700D23CA
:101CA0001D4C1E4F638097E806002B461C4865714B
:101CB000A4F80080FFF740FF97E8060020231948AA
:101CC00063802B46A4F80080FFF736FF97E80600F4
:101CD0004D2323801023144863802B46FFF72CFFED
:101CE0004C2323802523114F638097E806002B4661
:101CF0000F48FFF721FF97E80600552323800323B1
:101D00000C4863802B46FFF717FF3046BDE8F08193
:101D10002846FBE788140020E40400200C00002083
:101D2000C49B0008C89B0008CC9B0008140000203E
:101D3000D19B0008D59B0008014B18805980704743
:101D4000E40400200246054B1B68186810F0800070
:101D50001EBF034B01205A60704700BF400F002098
:101D600000380140072808D8DFE800F00B07070417
:101D700007040708044B054A1A607047024B044ADF
:101D8000FAE7014B034AF7E720000020A0A0A0F0EB
:101D9000AAF0AAF000FFAAFA044B1B78012B1FBF80
:101DA000034A137843F004031370704705150020AD
:101DB0005C0D002002464FF48071014801F0D0BF55
:101DC0000008014001460148FFF7B6BC2815002075
:101DD00073B50446FFF7CCFCA0F1E0030646172BD1
:101DE00033D8DFE803F00C89697F84323232323233
:101DF0003232323232321B3221282F344A66FEF719
:101E00005BFD102201462046FFF737FC11223146C8
:101E1000204602B0BDE87040FFF754BC0D212046BB
:101E2000FFF740FC0222F2E7082220463849FFF77C
:101E300024FC0922EBE70E2220463649FFF71DFC61
:101E40000F22E4E70122344B1A7002B070BD642205
:101E5000324D2046B5F90210B5F9083091FBF2F188
:101E600093FBF2F32970AB71C9B2FFF71BFC20465C
:101E7000A979FFF717FC0322C9E72046FFF788FC82
:101E8000264D28702046FFF783FCA8712046FFF7F7
:101E90008FFCA8802046FFF78BFC2A4612F9063FEC
:101EA00068810093294695F900301D4800F0F2FF43
:101EB000CBE71C4B1978B2E72046FFF779FC1A4DA7
:101EC00028802046FFF774FC68802046FFF770FCEE
:101ED000A8802046FFF75CFC28612046FFF758FCED
:101EE0002877B2E72046FFF763FC104DE8E720466D
:101EF000FFF75EFC0E4DE3E708250E4E2046FFF788
:101F000037FC013D15F0FF0506F8010FF6D19CE7FF
:101F10001C140020A81400204C090020F8140020F4
:101F2000F80E002005150020EC0800200C09002008
:101F30002C0900205F14002010B5124A12481378B3
:101F400001780133DBB2022B137088BF00230F4CE2
:101F500021F00C01017021780D4888BF1370FFF744
:101F6000A1FB0222F7210A48FFF7ACFB21780948C0
:101F7000FFF798FBBDE810400222F7210548FFF764
:101F8000A1BB00BF880F00205C0D002005150020BC
:101F9000281500204C150020CAB201460148FFF761
:101FA000D6BB00BF4C15002002680B4B9A4211D1E2
:101FB0000A4A1378013BDBB2137033B908490B7836
:101FC00043F001030B7028231370082205490648CB
:101FD00001F0E0BA704700BF002C0140260000204D
:101FE0005C0D0020CC130020600D00200148FFF79D
:101FF0005FB900BF8C0F00200268084B10B59A42F1
:102000000AD1074C2078FEF767FC2146BDE8104056
:102010000122044805F0BBBA10BD00BF00380140E2
:102020004F0D0020400F00200A220E4B10B51A70F1
:102030000D4C0E4B22681B684FF400511A4214BF1E
:10204000002201220A4801F08BFE2368094A5B083E
:1020500008BF4FF00043236013780BB1013B1370AE
:1020600010BD00BF250000201C0000202000002023
:102070000010014027000020642273B50521334B76
:1020800008461A70324B334C93F8946493F89234A8
:10209000314D9E4228BF1E46FFF74EFE2F4A204676
:1020A00092F906302E4992F9002006F02FFF95E8AC
:1020B000060001232046FFF73FFD11210520FFF711
:1020C0003BFE284A3346204692F90020264906F076
:1020D0001DFF95E8060001232046FFF72DFD1D2179
:1020E0000520FFF729FE214B20461A78204902F0EF
:1020F00001030093C2F38003C2F3801206F006FFCF
:1021000095E8060001232046FFF716FD292105204A
:10211000FFF712FE174B184AB3F940302046002B48
:10212000B8BF5B429BB20093144B12781B781449E2
:1021300006F0ECFE95E8060001232046FFF7FCFCC4
:102140000122104B1A7002B070BD00BF24000020A5
:102150008C0F00200615002014000020F814002029
:10216000A4B0000824150020B8B000085D0D0020C0
:10217000C9B00008A814002005150020041500208F
:10218000D8B000084C090020044B1A7822B9042268
:1021900003481A70FFF7A2BB704700BF2800002059
:1021A0006814002038B5184C617DA27D91420FD093
:1021B000237D1648521A1A40027001332069FEF737
:1021C0009FFB092804D10122A37D6375104B9A70EF
:1021D000104C637DA17D8B4214D028BF217D2069E6
:1021E00028BF0131094DC91AC9B21844297006F037
:1021F00089FC38B9637D2A781344227D13406375C6
:10220000034B987038BD00BF2815002070150020C2
:10221000881400204C15002010B50C4C23789BB975
:102220000D210B48FFF73EFA0222F0210848FFF784
:1022300049FA0D210748FFF735FA0222F021054837
:10224000FFF740FA3223237010BD00BF27000020A3
:10225000281500204C15002010B5124B1A780AB929
:1022600064221A70104803F0F1F9202806D10F4CAF
:1022700023781BB10C48FFF7AFFB20700A4803F02E
:10228000E5F920280DD10A4C23789B0709D506488B
:10229000FFF72CF90448FFF739F923786FF341036E
:1022A000237010BD240000205C0E00204C0900208B
:1022B0005C0D002010B52A4B1A782A4B012A0FD04A
:1022C000022A14D032B9284A28491160012228492B
:1022D0001A700A701A78022A0FD0032A3BD010BD58
:1022E0004FF08831204A116002221A70F2E74FF055
:1022F000A0311D4A11600322F7E71E4C21784B07DD
:1023000003D401221A4B1A70E9E71B4B1B785807BC
:1023100001D4174BF7E70A07E1D403F04103402B40
:102320000DD10322124B15481A70FFF797F9144884
:10233000FFF742F9237843F008032370CFE7012B1E
:1023400002D104220A4BEEE7412BF0D10522084BC3
:102350000C481A70E9E7074B1B785B07D1D5BEE73D
:10236000880F0020051500202000002000FFAAFA99
:10237000041500205C0D00205D0D00200C090020DC
:102380005C0E00202C0900202DE9F341384D394B1B
:102390002A7893F8944402F04102412A93F8926417
:1023A0004DD193F8961493F89034C91A81EAE173E9
:1023B000A3EBE173052B30484FDDFFF71BF92F4BE3
:1023C000DFF8BC8018702C4B1F7FC3B2F818FF1ABF
:1023D0002B7840B203F022037FB2222B88F8000052
:1023E00088F8067004D1B44228BF3446452C16D86C
:1023F000FEF732F91CA3D3E90023FDF7B1FEFEF787
:1024000095F988F800003846FEF726F916A3D3E9B7
:102410000023FDF7A5FEFEF789F988F8060098F974
:102420000630184A0093184898F90030911F00F0C0
:1024300031FD164802B0BDE8F041FFF7BDB8402AB3
:1024400004D193F89614C1F13201AFE7012A0ABF13
:1024500093F8901400213239A8E7FFF7FFF8002025
:10246000ADE700BFAFF300809A9999999999E93F38
:102470005D0D00208C0F0020EC08002024150020AA
:10248000F8140020FE140020F80E00205C0E00203E
:1024900073B5214D2C787CB10134E4B2052C02D8FF
:1024A0002C7002B070BD00231C482B70FFF7D6F8CB
:1024B00006221B4B1A70F4E71A4E1B48B6F940105F
:1024C000B43981EAE173A3EBE173072B1ADDFFF75F
:1024D00091F80446154B16491C70B6F940308A1D18
:1024E000002BB8BF5B429BB2AA2B0ED80E4B93F9C0
:1024F0001C0043425BB20B70887100900D4800F0E5
:10250000C9FCCEE7FFF7AAF8E4E701232B7000230C
:102510000B708B710093F1E74D090020EC0800204F
:1025200004150020A81400202C09002024150020E8
:10253000F8140020F80E0020062837B50546274C71
:102540002AD1B4F940105A3981EAE173A3EBE1735F
:10255000072B234827DDFFF74DF8224B1870B4F9FD
:102560004030214C002BB8BF5B429BB2552B26D884
:10257000062D1CD11A4B93F91C3023705B42A371BA
:1025800094F90630194A009394F90030911F1848C5
:1025900000F080FC03B030BD18B9B4F940105A31D6
:1025A000D2E70021D0E7FFF759F80020D5E7002D4A
:1025B000E6D10B4B93F91C305A422270DFE70D48ED
:1025C000FFF74CF806220C4B21461A7000232246D6
:1025D000237002F8063F0093D9E700BFA81400203B
:1025E0000C09002024150020F8140020FE140020FF
:1025F000F80E0020EC0800200415002010B52C4B2C
:102600002C4993F8910493F8D52493F8D44490423C
:1026100093F890242CBF00200120A2422CBF00225E
:10262000012293F8D94442EA400293F89504A0426B
:102630002CBF0020012093F8DA4442EA401293F8BC
:102640009604A0422CBF0020012042EA80120878A4
:1026500020F0630002430A7093F8920493F8D624A2
:10266000904223D393F8942493F8D80482422CBF49
:102670000022012293F8930493F8D7449200041B9C
:102680006042604142EAC00293F8970493F8DB3459
:10269000A0EB030CDCF1000343EB0C0342EAC31292
:1026A0000B7803F073031A430A7010BD0122E1E7AF
:1026B0008C0F00205D0D00202DE9F7432C4C94F881
:1026C000DB3494F8972494F896949A4294F8DA8438
:1026D00094F8907494F8D464264B3BD11D7801355E
:1026E000EDB2022D27D01D70C14536D2B74294F805
:1026F000961436BF94F89034C1F13201C91A81EAB8
:10270000E173A3EBE173052B1B482DDDFEF772FF90
:10271000194B1A491A7FC0B21318101A0A465BB235
:1027200040B202F8060F0B700090154800F0B2FBA3
:1027300003B0BDE8F08300211970124B0E481A78DF
:1027400061F3C3021A70FEF789FF0F4B1D70FFF78C
:1027500055FFC9E700221A70C6E7B74236BF94F8A2
:10276000901400213239CAE7FEF778FF0020CFE746
:102770008C0F00204E0D0020EC080020F8140020E3
:10278000F80E00205C0D00200415002007B5174B43
:102790001B78013B052B0ED8DFE803F00310151B57
:1027A0001D22134900230A460B7002F8063F114808
:1027B000009300F06FFB03B05DF804FB03B05DF81D
:1027C00004EBFFF7E1BD002003B05DF804EBFFF779
:1027D000B3BE0620F8E703B05DF804EBFFF758BE80
:1027E00003B05DF804EBFFF767BF00BF04150020DE
:1027F000F8140020F80E002010B5154C154A237867
:1028000023F0030343F00203237013780BB1013B61
:102810001370114A13780BB1013B13700F4A1378F0
:102820000BB1013B1370FEF719F90D48FFF744F89F
:102830000C48FFF741F80C48FEF75DFD23781B07B5
:1028400001D4FFF7DBFEBDE81040FFF79FBF00BFDC
:102850005C0D00202500002024000020280000201E
:10286000281500204C1500208C0F002010B594B0C6
:10287000142200210CA806F069FB142200210DEBA4
:10288000020006F063FB1022002101A806F05EFBA7
:1028900002244FF480330122CDE91143CDE90A230C
:1028A0004FF4E0130AA80E92139303F063FD08B1EE
:1028B00072B6FEE70F23CDE905344FF4806307902D
:1028C000CDE90830214605A803F016FF08B172B61D
:1028D000FEE7122301934FF40043CDE9033001A832
:1028E00003F0C6FF08B172B6FEE714B010BD0000D9
:1028F0000024FF2580B594B000F020FD4FF4FA705D
:1029000000F040FDAF48B04BB04E0360B04B4FF00D
:1029100002088360AF4B04274360FEF76FF8AE48B0
:10292000FEF790FCAD49AE48FDF756FF47F2305236
:1029300047F24E51AB48FDF779FFAB48AB4B866190
:102940000360AB4B057103610575C461FEF78AFE38
:10295000A848A94BC0E9066405711E2605752825FF
:102960000360A64B4FF003090361FEF77BFE0122D3
:10297000A349A448FEF7A8FFA349A248FEF7F6FF23
:10298000A249A048FEF7F5FFA148FEF761FCCDE99A
:1029900000653223224646219E48FEF71BFE322365
:1029A000CDE90065194622469B48FEF713FE2B46EB
:1029B00022463221CDE900659848994DFEF70AFE7E
:1029C000FFF754FF102221460DA806F0BFFAAB69AD
:1029D000012243F01003AB61AB694FF4005103F0E7
:1029E00010030393039BAB698E4843F02003AB6154
:1029F000AB69012603F020030493049BAB694FF4F9
:102A0000807A43F00403AB61AB6903F004030593E0
:102A1000059BAB6943F00803AB61AB6903F00803A6
:102A20000693069B01F09CF922464FF480717E4884
:102A300001F096F94FF400537A480DA9CDE90D360F
:102A40000F94CDF8408001F0ABF877480DA9CDE99F
:102A50000D7901F0A5F86A480DA9CDE90D640F962E
:102A600001F09EF870480DA9CDE90DA6CDE90F48FB
:102A700001F096F86B69224633436B616B6921461E
:102A800033400B200293029B00F0C8FE0B2000F0A5
:102A9000F5FE224621460E2000F0C0FE0E2000F07A
:102AA000EDFE224621460F2000F0B8FE0F2000F078
:102AB000E5FE102221460DA806F048FA47235B4D9B
:102AC000DFF86CC12846C5E900C3F923CDE9094404
:102AD000C5E90334C5E90544AC6004F0E7F808B182
:102AE00072B6FEE74FF4805328460DA90D9304F00B
:102AF000C4F908B172B6FEE7CDE9090009A9284674
:102B000004F0B4FA034608B172B6FEE74FF4E132BE
:102B10004848494CC0E90233C0E900420C22036135
:102B2000C0E90523C36104F039FB054608B172B65C
:102B3000FEE705F06DFF414C414B204623604FF40A
:102B40006023E3610823CDE90D550F95C4F808A073
:102B5000257325756560236100F0D0FD08B172B65C
:102B6000FEE7CDE90D060DA920460F9700F058FCB1
:102B700008B172B6FEE720460DA9CDE90D6800F058
:102B80004FFC08B172B6FEE720460DA9CDE90D89CC
:102B900000F046FC08B172B6FEE720460DA9CDE96B
:102BA0000D9700F03DFC08B172B6FEE70525204602
:102BB0000DA90D970E9500F033FC002842D072B697
:102BC000FEE700BF500D0020B51D0008D11D000814
:102BD000C51D0008451D0008651D0008EAB0000875
:102BE00000B1000805B10008281500204E0900209A
:102BF0004E0B00204C1500204E0A00204E0C0020E9
:102C0000000C014068140020391F0008991D0008BD
:102C10008C0F0020EC0800200C0900202C0900205B
:102C2000001002400010014000080140B00E0020DA
:102C3000002C0140400F002000380140600D0020B2
:102C400000240140062479480DA90D950E9400F04A
:102C5000E7FB08B172B6FEE70D94072473480DA98F
:102C60000E9400F0DDFB08B172B6FEE708266F484F
:102C70000DA90D940E9600F0D3FB054608B172B66F
:102C8000FEE70146102209A806F060F929461C2239
:102C90000DA8CDE9075506F059F94723644C65495D
:102CA0002046C4E9001342F20F73A560C4E903355E
:102CB000A56103F0FBFF08B172B6FEE74FF4805345
:102CC000204609A9099304F0D8F808B172B6FEE7C6
:102CD000204604F017F808B172B6FEE7CDE9070008
:102CE00007A9204604F0C2F9024608B172B6FEE711
:102CF00060230F90CDE90D3011900DA9204604F00E
:102D000059F808B172B6FEE7042220460DA904F076
:102D100051F808B172B6FEE7324620460DA904F01C
:102D200049F808B172B6FEE70C2241480DA904F03B
:102D300041F8064608B172B6FEE73D4800F0F2F9E8
:102D40003D4D3E4A3E4B2846C5E900234FF48043A3
:102D5000C5E90266C5E90436C5E906662E6201F0DA
:102D600001FA064608B172B6FEE7364803F094FE53
:102D70002F4803F06BFE31462D4804F075F904210D
:102D80002B4804F071F90821294804F06DF90C2151
:102D9000274804F069F923682B492C4C5E63881F8F
:102DA0009E63DE631E64267000F06AF8284805F012
:102DB000BFFE01222749284804F0E9FB2846FEF718
:102DC000CDFA2846FEF732FB2846FEF7C9FE30460C
:102DD000FEF7F2FD0123214A214E1370214A224FB2
:102DE0001370224A224D13702378DB0701D5FFF7B9
:102DF00003FD33780BB9FFF717F93B780BB9FFF7F1
:102E00003BF9FFF709FA2846FFF7BEF9FFF7CAF9C1
:102E1000FDF740FE1748FEF7E1FC1748FEF7DEFC21
:102E2000FFF71AFAFFF746FADEE700BF600D002051
:102E3000F80E0020000800405C0E00200058004002
:102E4000801A0600B00E0020FE1400205C0D002049
:102E5000991F00084F0D0020400F00204C09002052
:102E60002500002005150020240000200415002066
:102E700068140020281500204C15002072B6FEE7CB
:102E8000002340F6AC520380438082800B804B804D
:102E90008A80704730B5002B9DF90C5000689CB2B9
:102EA0001FDA01234B70C4EB442304EB8303C4EB10
:102EB000C3040023A400A4B24C8084634363002DA8
:102EC000ABB21ADA01215170C3EB432103EB81014C
:102ED000C3EBC1039B009BB2538003640023C36315
:102EE00030BD002304EB840404EB8404A400A4B2EA
:102EF0004B704C8083634463E1E7002103EB830361
:102F000003EB83039B009BB2517053800164E6E79F
:102F10000E4B82B09A6942F001029A619A6902F0FE
:102F200001020092009ADA6942F08052DA61DB69AC
:102F3000074A03F080530193019B536823F0E06339
:102F400043F00073536002B0704700BF00100240AE
:102F50000000014030B5054687B01022002102A8CC
:102F600005F0F4FF2A681C4B9A4233D103F56C43F9
:102F70009A691A4842F400729A619A6902A902F4A5
:102F800000720092009A9A69154C42F004029A610C
:102F90009B69FF2203F004030193019B0323CDE906
:102FA000022300F0FDFD80204FF480720023C4E96D
:102FB00003024FF480620B492046C4E90013C4E9C0
:102FC0000523A360E36100F07BFC08B1FFF756FF27
:102FD0002C62656207B030BD00240140000801404A
:102FE000900D00200800024030B5054687B0102241
:102FF000002102A805F0AAFF2A682B4B9A4251D162
:103000002A4C4FF44061A369294843F00803A361A7
:10301000A36903F008030093009B1223CDE9021378
:10302000032302A9059300F0BBFDE3694FF0800C78
:1030300043F48003E361E3694FF4007203F4800317
:103040000193019B00231B4C1B48C4E903C2C4E944
:1030500000032046C4E90533A360E36100F030FCBF
:1030600008B1FFF70BFF1023144AAC636562144CE0
:10307000C4E90023002380222046C4E90232C4E9C7
:103080000433C4E9063300F01BFC08B1FFF7F6FE79
:103090000022212011466C63656200F0BFFB2120F5
:1030A00000F0ECFB07B030BD0058004000100240BB
:1030B000000C0140D40D00205800024044000240A2
:1030C000180E002007B50368134A934214D1134B1E
:1030D00019209A6942F400629A6100229B691146A4
:1030E00003F400630093009B00F098FB192003B0E9
:1030F0005DF804EB00F0C2BB094A934209D1074BCB
:10310000DA6942F00402DA61DB6903F00403019337
:10311000019B03B05DF804FB002C0140001002404D
:103120000008004010B5044686B01022002102A815
:1031300005F00CFF22680D4B9A4214D103F50233BF
:103140009A690B4842F008029A619B694FF47072C9
:1031500003F008030193019B022302A9CDE9022396
:10316000059300F01DFD06B010BD00BF0008004033
:10317000000C014010B5044686B01022002102A8C0
:1031800005F0E4FE22681B4B9A4230D103F5584308
:103190009A69194842F480429A619A6902A902F434
:1031A00080420092009A9A69002442F004029A61D7
:1031B0009B694FF4007203F004030193019B022307
:1031C000CDE902230323059300F0EAFC4FF480636A
:1031D000094802A9CDE90234049400F0E1FC25205D
:1031E0002246214600F01AFB252000F047FB06B0DE
:1031F00010BD00BF0038014000080140FEE7FEE7B7
:10320000FEE7FEE7FEE770477047704700F0A8B89A
:10321000014800F02DBC00BF900D0020014800F0D7
:1032200027BC00BF180E0020014800F021BC00BFE1
:10323000D40D0020014802F0B1BA00BF501C00209C
:10324000014803F058BC00BFB00E0020014801F057
:10325000B5BD00BF5C0E0020014804F035B800BFCA
:10326000400F00200B4A0346116810B509B90A49FE
:103270001160106809490A4C0344091B8B4206D9A6
:1032800005F080FE0C2303604FF0FF3010BD13608B
:10329000FCE700BF74150020A82200200050002089
:1032A0000004000070470000FFF7FCFF0B480C49CA
:1032B0000C4A002302E0D458C4500433C4188C4292
:1032C000F9D3094A094C002301E013600432A242F9
:1032D000FBD305F05DFEFFF70BFB704700000020FD
:1032E000F8010020E4B10008F8010020A822002025
:1032F000FEE7000038B50E4B05461A784FF47A7396
:10330000B3FBF2F30B4A1068B0FBF3F000F0C4FA21
:10331000044658B90F2D09D8024629464FF0FF3010
:1033200000F07CFA2046044B1D6038BD0120FCE70C
:10333000300000202C00002034000020074A08B58F
:103340001368032043F01003136000F055FA0F20B8
:10335000FFF7D0FFFFF7DCFD002008BD0020024092
:10336000034A044B11681B780B441360704700BF7D
:103370007815002030000020014B1868704700BF0E
:103380007815002038B50446FFF7F6FF0546631CA4
:103390001EBF044B1B78E418FFF7EEFF431BA3424C
:1033A000FAD338BD30000020436A10B59A6A12F093
:1033B000500F1BD19A6A42F400729A621A6892689E
:1033C00002F46022B2F5602F0CD11A7B52B99A6ACE
:1033D00022F480729A629A6AD2045EBF9A6A42F0BC
:1033E00001029A621846FEF701FE10BD1B6ABDE895
:1033F00010401B6B1847704708B5406AFFF7FBFF8A
:1034000008BD7047406A08B5836A43F04003836291
:10341000C36A43F00403C362FFF7F3FF08BD000073
:10342000002373B5019390F824300446012B6CD02F
:10343000012380F824304D680268062D086805EBEA
:10344000850322D81F26556B053B9E4025EA0605BD
:1034500000FA03F32B43536309288B6800EB400504
:103460004FF0070129D9D6681E3DA94026EA01017F
:10347000AB400B43D360A0F11003012B25D90020F2
:10348000002384F8243002B070BD0C2D4FF01F05CE
:1034900009D8166B233B9D4026EA050500FA03F385
:1034A0002B431363D8E7D66A413B9D4026EA0505C6
:1034B00000FA03F32B43D362CEE71069A94020EA58
:1034C0000101AB400B431361D9E7114B9A4216D16E
:1034D00093681B02D3D49368102843F400039360CD
:1034E000CDD10C4B0C4A1B68B3FBF2F30A225343B9
:1034F0000193019B002BC2D0019B013BF8E7A36A1B
:10350000012043F02003A362BAE70220BBE700BF1B
:10351000002401402C00002040420F00002337B55A
:103520000193036804469A68D20702D5002003B0CD
:1035300030BD9A6842F001029A60144B144A1B682D
:10354000B3FBF2F30193019BE3B9FFF715FF0546C7
:1035500023689B68DB07E9D4FFF70EFF401B0228B6
:10356000F6D923689B6813F00103F1D1A26A012008
:1035700042F01002A262E26A84F8243042F00102B2
:10358000E262D4E7019B013BDCE700BF2C00002096
:1035900040420F002DE9F041404B9046026804463E
:1035A0009A420F4602D03E498A4203D15B6813F427
:1035B000702F6ED194F82430012B6CD0012320465B
:1035C00084F82430FFF7AAFF064600285DD1A56ADB
:1035D0002168334B25F4706525F0010545F48075AD
:1035E0009942A56204D12D4A536813F4702F3ED13D
:1035F000A36A23F48013A3624B685A0505D5A36A16
:1036000023F4405343F48053A362A36A206A13F463
:10361000805318BFE36A3A4618BF23F00603E362FB
:10362000002384F824301F4B4C3183621E4BC3624D
:103630001E4B03636FF0020341F84C3C51F8443CCD
:1036400043F4807341F8443C434600F06BF923682F
:103650009A6802F46022B2F5602F9A680CBF42F4B7
:10366000A00242F480129A603046BDE8F081A36A5D
:1036700043F48013A36253685B0541BFA06A20F442
:10368000405040F48050A062BFE7002384F824300B
:10369000EAE70126E8E70226E6E700BF002401404A
:1036A00000280140A9330008F93300080534000858
:1036B00038B5036804469A68D10701D4002038BDA4
:1036C0009A6822F001029A60FFF756FE05462368C9
:1036D0009B68DB07F2D5FFF74FFE401B0228F6D9A7
:1036E00023689B68DA07F2D5A36A012043F0100330
:1036F000A362E36A43F00103E362E0E7F8B504463E
:1037000000286DD0836A23B9C36280F82430FFF7A4
:1037100021FC2046FFF7CCFFA36A13F0100361D110
:1037200000285FD1A26A616822F4885222F0020266
:1037300042F00202E569A668A262227B2943B6F53F
:10374000807F41EA420136D0771E7D427D412D02C5
:10375000277D012F06D182BBA269013A45EA423298
:1037600042F400652268B6F5807F576827F4694700
:1037700045EA0705556097681D4D05EA070545EAC6
:103780000105956001D0012E02D12369013B1B0583
:10379000D56A25F470052B43D3629268154B13400C
:1037A000994213D10023E362A36A23F0030343F099
:1037B0000103A362F8BD3546CAE7A26A42F02002BF
:1037C000A262E26A42F00102E262CBE7A36A23F05E
:1037D000120343F01003A362E36A43F00103E362C0
:1037E0000120E7E7A36A43F01003A362F8E700BFF4
:1037F000FDF7E1FFFE0E1FFF07490302CA6803F44D
:10380000E06322F4E0621204120C134343F0BF633E
:1038100043F40033CB60704700ED00E0154B30B54A
:10382000DC68C4F30224C4F10703251D042B28BF60
:103830000423062D4FF0FF3594BF0024033C05FA06
:1038400003F321EA0303A54022EA0502A34000286E
:1038500043EA0203ACBF00F16040074A4FEA03139A
:10386000DBB2ABBF00F5614000F00F0080F8003321
:10387000135430BD00ED00E014ED00E0002807DB3C
:1038800001234109034A00F01F00834042F8213020
:10389000704700BF00E100E00138B0F1807F0BD23B
:1038A0004FF0E023F021054A586182F823100020F0
:1038B000072298611A6170470120704700ED00E00F
:1038C000034610B540B314210068144A0244B2FB09
:1038D000F1F292001A64124ADA63022283F821207C
:1038E000D3E901242243DC68016822431C6921F4E6
:1038F0007F5122435C6921F0300122439C692243BD
:10390000DC6922430A43026000200122986383F8A5
:10391000200083F8212010BD0120FCE7F8FFFDBF47
:1039200000000240F0B5054690F82000012836D08E
:10393000012085F8200095F8210000240128C6B256
:103940004FF0020028D185F82100AC632C68206874
:1039500020F001002060D5E90F7006FA00F07860D1
:1039600063606B68102BEB6A0BBFA260A160E16023
:10397000E2604BB1236843F00E030020236023680C
:1039800043F001032360F0BD236823F004032360A8
:10399000236843F00A03F0E785F82040F3E70220AC
:1039A000F1E790F821200346022A06D00422826320
:1039B0000120002283F8202070470268C06B116844
:1039C00021F00E011160116821F001011160012147
:1039D0001A6C01FA02F24260002083F82110E8E735
:1039E00010B590F82130022B03D00423836301200B
:1039F00010BD03681A6822F00E021A601A6822F0DD
:103A000001021A60184A93421FD0143293421ED00A
:103A1000143293421DD0143293421DD0143293427B
:103A20001DD0143293420CBF4FF480134FF08073BB
:103A30000E4A00245360012380F82130436B80F844
:103A400020407BB198472046D2E70123F0E71023BE
:103A5000EEE74FF48073EBE74FF48053E8E74FF461
:103A60008033E5E71846C3E7080002400000024043
:103A700070B40425C66B026C346803689540254217
:103A8000196832D04D0730D51A6896065EBF1A689D
:103A900022F004021A603E4A934219D01432934233
:103AA00018D01432934217D01432934217D01432E4
:103AB000934217D0143293420CBF4FF480034FF05F
:103AC0008063344A5360C36A002B5ED070BC1847D1
:103AD0000423F6E74023F4E74FF48063F1E74FF463
:103AE0008043EEE74FF48023EBE702259540254223
:103AF00035D08D0733D51A68940606D41A6822F09B
:103B00000A021A60012280F82120214A934219D02A
:103B10001432934218D01432934217D01432934285
:103B200017D01432934217D0143293420CBF4FF483
:103B300000134FF00073174A5360002380F82030C1
:103B4000836AC1E70223F6E72023F4E74FF400730A
:103B5000F1E74FF40053EEE74FF40033EBE70825AD
:103B60009540254211D009070FD5196821F00E01A3
:103B70001960012303FA02F27260836380F8213036
:103B8000002380F82030036B9EE770BC704700BFB5
:103B9000080002400000024090F821007047000039
:103BA0002DE9F74F00221646644F654BDFF894C1AC
:103BB000DFF894E10D6835FA06F402D103B0BDE8F0
:103BC000F08F4FF0010808FA06F805EA080438EA11
:103BD00005057AD14D68032D07D8013D022D00F26D
:103BE0008780DFE805F0959AA000122D00F09880FC
:103BF0006DD8112D00F08E80FF2C98BF82464FF0BB
:103C00000F0988BF00F1040A4FEA8605DAF8008040
:103C100088BF203D09FA05FB28EA0B0802FA05F5E2
:103C200048EA0505CAF80050D1F804A01AF0805FF0
:103C30004BD0BD6926F0030845F00105BD61BD69A3
:103C400008F1804805F00105019508F5803806F077
:103C5000030B019D4FEA8B0BD8F8085009FA0BF9BA
:103C600025EA0909394DA84261D005F58065A842C9
:103C70005FD005F58065A8425DD005F58065A84256
:103C80000CBF0325042505FA0BF545EA0905C8F81C
:103C900008509D681AF4801F14BF2543A5439D60FA
:103CA000DD681AF4001F14BF2543A543DD605D687D
:103CB0001AF4003F14BF2543A5435D601D681AF444
:103CC000803F14BF2543A5431D60013672E7DFF82E
:103CD00080904D450CD017D8A9F580194D4507D0D7
:103CE00009F570294D4503D0A9F580194D4583D1BB
:103CF0008A68D2B1012A08BFC0F810804FF00802CC
:103D000018BFC0F8148077E76545F1D07545EEE738
:103D1000CA6871E7CA6804326EE7CA6808326BE79E
:103D2000CA680C3268E7002266E7042264E70025CF
:103D3000A9E70125A7E70225A5E700BF001002407B
:103D40000004014000003110000032100008014062
:103D5000000022108368194214BF01200020704720
:103D60000AB1016170470904FBE7016800224B6951
:103D700013F4806310D06FF480634B6120230263DF
:103D800080F83D3080F83E20036C80F83C2043F002
:103D90000403036401207047184670472DE9F84674
:103DA00006460F4691461D464FEA114A3368BAF15E
:103DB000010F0CBF5C699C6927EA0404A4B2B4FA41
:103DC00084F46409A14501D0002025E06A1CEED0EE
:103DD000FFF7D2FA089BC01AA84201D8002DE5D1FE
:103DE0003368BAF1010F0CBF5B699B6927EA0303D3
:103DF0009BB2B3FA83F35B099945D7D10023202204
:103E00000120336386F83D2086F83E30326C86F818
:103E10003C3042F020023264BDE8F8862DE9F041E2
:103E200004460F46164698462568686927EA00004A
:103E300080B2B8B16B695A0516D52B68202243F4BD
:103E400000732B606FF480636B610023236384F83D
:103E50003D2084F83E30226C42F0040201202264AE
:103E600084F83C30BDE8F081731CDED0FFF784FAA3
:103E7000A0EB0800B04201D8002ED5D123685A69C2
:103E800027EA020292B2002ACED000232022236326
:103E900084F83D2084F83E30226C42F02002DDE7B9
:103EA00070B504460D46164623685B691B0601D5AE
:103EB000002070BD2046FFF758FFC8B96A1CF3D038
:103EC000FFF75AFA801BA84201D8002DECD12368D5
:103ED0005B6913F08003E7D12022236384F83D203F
:103EE00084F83E30226C84F83C3042F02002226498
:103EF0000120DEE72DE9F043154602689946136874
:103F000085B043F480731360DDE90C780E463B46C0
:103F100000224FF00111CDF800800446FFF73EFF6C
:103F2000236838B11B68DB0502D54FF400732364A6
:103F300003200AE006F0FE061E613A46434620468C
:103F40001749FFF76BFF18B1012005B0BDE8F083FA
:103F5000236803905A69394603929B69424603934A
:103F60002046039BFFF79CFF40B1236C042B01BF4D
:103F70002268136843F400731360E5E7B9F1010F99
:103F8000236802D1EDB21D61DFE72A0A1A613946C2
:103F900042462046FFF784FF0028E6D12368F1E778
:103FA000020001002DE9FF479A46DDE90C7803681D
:103FB00015461A680E4642F480621A601A684FF07D
:103FC000011142F480721A603B460022CDF8008055
:103FD0000446FFF7E3FE236848B11B68DB0502D502
:103FE0004FF400732364032004B0BDE8F0875FFA48
:103FF00086F906F0FE061E613A46434620462949E8
:10400000FFF70CFF08B10120EEE7236803905A691F
:10401000394603929B69424603932046039BFFF770
:104020003FFF40B1236C042B01BF2268136843F4A7
:1040300000731360E7E7BAF1010F23681AD1EDB2FC
:104040004246394620461D61FFF72AFF02460028F6
:10405000E8D1216820460B6843F480730B603B462F
:104060004FF00111CDF80080FFF798FE226860B193
:104070001368B3E72A0A1A61394642462046FFF719
:104080000FFF0028CED12368D9E749F0010313615F
:10409000204643463A460349FFF7C0FE003818BFA2
:1040A0000120A1E70200010070B504460D46164646
:1040B00023685B695B0701D5002070BD2046FFF7D0
:1040C00054FEC8B96A1CF3D0FFF756F9801BA8420A
:1040D00001D8002DECD123685B6913F00403E7D10C
:1040E0002022236384F83D2084F83E30226C84F83B
:1040F0003C3042F0200222640120DEE770B5044625
:104100000D46164621684B6913F0400301D000208C
:1041100010E04A69D2060ED56FF010024A612022E3
:10412000236384F83D2084F83E30226C0120226411
:1041300084F83C3070BDFFF71FF9801BA84201D8FE
:10414000002DDFD123685B6913F04003DAD1202210
:10415000236384F83D2084F83E30226C42F0200234
:10416000E4E7000070B5044608B9012070BD90F87E
:104170003D3003F0FF021BB980F83C20FEF734FF0E
:10418000242384F83D3023681A6822F001021A6063
:104190001A6842F400421A601A6822F400421A6057
:1041A00002F046FB3F4B65689D4294BF3E4B3F4B40
:1041B00098428CBF00230123002BD6D1394E3C4BB3
:1041C000B542B0FBF3F388BF4FF49676226851688E
:1041D00021F03F0141EA030182BF73434FF47A7635
:1041E000B3FBF6F35160116A013321F03F010B4339
:1041F0001362D169431E2B4821F44F41854221F0BF
:10420000FF0132D86D00B3FBF5F340F6FC700133CB
:10421000034242D0C3F30B031943D1611168D4E9BF
:10422000073021F0C00103430B4313609168D4E9C8
:10423000030321F40341034321F0FF010B43936087
:10424000D168D4E9053021F0FF0103430B43D3606B
:104250001368002043F0010313602023206484F8D6
:104260003D30206384F83E0080E7A06850B905EB3C
:104270004505B3FBF5F30133C3F30B037BB143F403
:104280000043C9E719206843B3FBF0F30133C3F3DC
:104290000B0323B143F44043BEE70423BCE70123EF
:1042A000BAE700BFA08601007F841E00FF083D0022
:1042B00040420F002DE9F743044699460F469046C9
:1042C0000C9EFFF759F894F83D300546202B03D09B
:1042D000022003B0BDE8F08300901923012220469C
:1042E0003A49FFF75BFD0028F2D194F83C30012BEE
:1042F000EED00123206884F83C3003684246D90799
:1043000058BF036839465CBF43F00103036003688C
:1043100023F400630360212384F83D30402384F8B4
:104320003E30002323640A9B20466362BDF82C3094
:10433000CDE900656385638D2385254BE3624B469C
:10434000FFF7D8FD00282AD00120C2E7FFF7A8FD1B
:1043500040B1236C042B01BF2268136843F400733F
:104360001360F1E7636A27681A4612F8011B396186
:104370006262628D218D013A92B262857A69481E2D
:1043800080B2520720850AD548B15A7802333A6183
:104390006362638D0239013B9BB221856385238D66
:1043A0002A4631462046002BD0D1FFF77DFE00285B
:1043B000CFD12268136843F400731360202384F87C
:1043C0003C0084F83D3084F83E0082E70200100093
:1043D0000000FFFF2DE9F04399460023044689B011
:1043E00003930D469046129FFEF7C6FF94F83D30AA
:1043F0000646202B04D00225284609B0BDE8F083EC
:1044000000901923012220468D49FFF7C7FC0028A0
:10441000F1D194F83C30012BEDD00123206884F8D1
:104420003C3003682946DB0758BF036842465CBF3F
:1044300043F001030360036823F400630360222355
:1044400084F83D30402384F83E3000232364109BE1
:1044500020466362BDF84430CDE900766385638D04
:104460002385784BE3624B46FFF79CFD054608B178
:104470000125C1E7228D2368C2B904905A690492CC
:104480009A690492049A1A6842F400721A60DFF87A
:10449000B881DFF8B891238D002B37D1202284F822
:1044A0003C3084F83D2084F83E30A5E7012A11D144
:1044B0001A6822F480621A6072B6236805905A69FD
:1044C00005929A690592059A1A6842F400721A6078
:1044D00062B6DCE7022A1A680ED142F400621A6062
:1044E00072B6236806905A6906929A690692069AED
:1044F0001A6822F48062EAE742F480621A60079048
:104500005A6907929B690793079BC0E7032B78D8EA
:10451000012B15D1324639462046FFF7EFFD002822
:10452000A6D123681A69636A1A70636A01336362E9
:10453000238D013B2385638D013B9BB26385AAE7F5
:10454000022B4FF000023B4641462046009618D110
:10455000FFF724FC00288BD172B623681A6842F456
:1045600000721A601A69636A1A70636A01336362BF
:10457000238D013B2385638D013B9BB2638562B62E
:10458000CFE7FFF70BFC00287FF472AF22681368B7
:1045900023F48063136072B646F2A81123681A6987
:1045A000636A1A70626A531C6362238D013B238520
:1045B000638D013B9BB26385D9F80030B3FBF1F307
:1045C00023214B430393039B013B0393039B6BB951
:1045D0002022236384F83D2084F83E30226C42F090
:1045E0002002226462B684F83C3041E723685969AE
:1045F0004807E8D5196841F4007119601B695370C8
:10460000B3E7324639462046FFF778FD00287FF4AD
:104610002FAF23681A69636A1A70626A531C636257
:10462000238D013B2385638D013B9BB2638523680A
:10463000596949077FF52FAF1B69537075E700BFB4
:10464000020010000000FFFF040001002C00002009
:104650002DE9FF4799460023044602930F469046F2
:104660000C9EFEF789FE94F83D308246202B03D045
:10467000022004B0BDE8F08746F2A812534B1B6835
:10468000B3FBF2F3192253430293029B013B0293C3
:10469000029B4BB92022236384F83D2084F83E30EE
:1046A000236C13432364E3E7226893699907ECD4EE
:1046B00094F83C30012BDBD0012384F83C301368A4
:1046C0000025DB0758BF136841495CBF43F0010375
:1046D0001360136823F400631360212384F83D30D2
:1046E000402384F83E30BDF8343025646385638D03
:1046F00066629BB2E16223856764C4F84880C4F8AF
:104700004C902565002B55D0606B40B33149456313
:10471000816231491032C0E90B513146FFF702F98D
:10472000064600283AD123234246009339464B4699
:104730002046CDF804A0FFF7DDFBE8B1606BFFF782
:104740004FF9636B9E6223681A6822F480621A60D4
:1047500066851A68268522F001021A600AE0202385
:1047600084F83D3084F83E00236C84F83C0043F02C
:104770008003236401207CE7236803905A69039235
:104780009A6984F83C000392039A5A6842F4807252
:104790005A605A6842F400625A606AE7202384F83B
:1047A0003D3084F83E50236C84F83C5043F01003B5
:1047B0002364DFE7202284F83D2084F83E30226C19
:1047C00084F83C3042F040022264D3E72C00002001
:1047D0000000FFFFA34A0008694A00082DE9F047DE
:1047E00086B0044699460F4690460E9DFEF7C4FDDE
:1047F0000023039394F83D308246202B03D00220FF
:1048000006B0BDE8F08746F2A812634B1B68B3FB05
:10481000F2F3192253430393039B013B0393039B3E
:104820004BB92022236384F83D2084F83E30236C6A
:1048300013432364E3E721688B699A07ECD494F867
:104840003C30012BDBD0012384F83C300B68002680
:10485000DB0758BF0B68514A5CBF43F001030B6094
:104860000B6823F400630B60222384F83D3040235F
:1048700084F83E30BDF83C3026646385638D656204
:104880009BB2E26223856764C4F84880C4F84C9008
:104890002665002B62D0A06B40B3414A466382621A
:1048A000404A1031C0E90B622A46FFF73BF8054643
:1048B000002847D123234246009339464B462046E1
:1048C000CDF804A0FFF76EFBE8B1A06BFFF788F806
:1048D000A36B9D6223681A6822F480621A60658562
:1048E0001A68258522F001021A600AE0202384F864
:1048F0003D3084F83E00236C84F83C0043F0800394
:10490000236401207CE7228D2368012A0BBF1A68EB
:104910005A6822F4806242F480520CBF1A605A60D6
:104920000022049259690491996984F83C20049109
:1049300004995A6842F480725A605A6842F40062DC
:104940005A605DE7202384F83D3084F83E60236C94
:1049500084F83C6043F010032364D2E723234246EB
:10496000009339464B462046CDF804A0FFF71AFBCA
:104970000028C6D1236805905A6905929A69059264
:10498000059A1A6842F400721A60202384F83C00E9
:1049900084F83D3034E700BF2C0000200000FFFF0A
:1049A000A34A0008694A000870477047704770477B
:1049B00070477047704790F83D2008B5036DD2B23C
:1049C00083B9C36C0268012B836C05D1DBB2136120
:1049D000036D0233036508BDC3F307231361036D41
:1049E0000133F7E7036D012B03D1836C0268DBB25F
:1049F000F4E7036D022B2FD1222A05D10268136838
:104A000043F480731360EAE7438D9BB263B1212ABC
:104A10000AD1436A026813F8011B11614362438D96
:104A2000013B9BB24385D6E7438D9BB2002BD2D18D
:104A3000212AD0D10268516821F4E06151601168E7
:104A400041F4007111602022036380F83D2080F85A
:104A50003E30FFF7AFFFBEE703685A69120644BF56
:104A600000221A61B7E77047406A08B5436B0BB183
:104A700000229A62836B0BB100229A62026813686B
:104A800023F48063136000232022438580F83D20B7
:104A900080F83E30036C43F010030364FFF7E3FF3C
:104AA00008BD70B5446A236894F83D2094F83E0030
:104AB000E16A5D68D2B225F440755D60656BC0B295
:104AC0000DB10026AE62A56B0DB10026AE6202F0FC
:104AD0002105212D05D002F02205222D23D12028E9
:104AE00021D15968292A21F4006159604FF000034F
:104AF00063850DD1212323632823204684F83D308C
:104B0000FFF754FF2268536843F44073536070BD4D
:104B10002A2AF7D1222323632823204684F83D3014
:104B2000FFF745FFEEE794F83E20002AEFD0628DB4
:104B300092B2012A02BF1A6822F480621A605A688F
:104B400011F5803F22F440725A6006D0082904D043
:104B5000B1F12A4F01D0202903D11A6842F4007222
:104B60001A605A6822F480525A605A6822F400622D
:104B70005A6000236385236C1BB12046FFF773FF47
:104B8000C5E7202284F83D2094F83E2084F83E308A
:104B9000402A04D120462363FCF7D8FCB7E7122350
:104BA00020462363FFF701FFB1E77047002337B5C5
:104BB00046F2A81101932C4B406A1B6890F83D20E7
:104BC000B3FBF1F323214B4301930368D2B2019964
:104BD00041BB016C41F020010164446B0CB1002128
:104BE000A162816B09B100258D621D6825F4806585
:104BF0001D600025458504B1656301B14D631968E9
:104C000021F00101196090F83D10602911D1202395
:104C100080F83D30002380F83E300364FFF7C5FF85
:104C200003B030BD01990139019119688905CED4CD
:104C3000D3E702F02802282A0ED1196841F00101B9
:104C40001960196841F4806119600023036380F8DA
:104C50003D20FFF708FFE3E7202380F83D300023E5
:104C600080F83E30F5E700BF2C00002010B590F82A
:104C70003D2090F83E300446102BD9B2D2B20368E2
:104C800001D0402913D1222A11D1196821F40061E1
:104C90001960596811F4006106D1602A1EBF2022F4
:104CA00084F83D2084F83E100022226307E002F0E1
:104CB00028012829EDD10022226384F83D105A688A
:104CC00012F400624FD05A68606B22F400625A609E
:104CD00090F82130012B374B2BD04363FEF780FE39
:104CE00050B12268606B136823F001031360202326
:104CF00084F83D30436B9847236C19071FBF226827
:104D0000536823F4E063536094F83D30226CDBB2C7
:104D100052070DD5282B0BD1274B2022E36200230D
:104D20002046236384F83D2084F83E30FFF741FE9F
:104D300010BDA06B4363FEF753FE0028DCD0236850
:104D40005A69510605D51A69636A1A70636A013394
:104D500063622268A06B136823F0010313602023B1
:104D600084F83D30C6E794F83D10602915D1202124
:104D700084F83D1022645A69520605D51A69636A9F
:104D80001A70636A0133636222682046136823F055
:104D900001031360FFF709FFAEE75A69500605D516
:104DA0001A69636A1A70636A013363622046FFF707
:104DB0005AFEA1E7AD4B00080000FFFFF0B5044626
:104DC00003688FB05A68C66A90F83E0094F83D10A8
:104DD0001028C5B2C9B202D0402D40F0D5829F69DB
:104DE000586910F0010F07D1B6F52A0F02D0B6F1BD
:104DF0002A4F51D10FB0F0BD96054DD5E26AB2F5FC
:104E00002A0F0CD10122E26294F83E20402A11D1EF
:104E1000226D52B9626C02F0FE021A61EAE7E26AA0
:104E2000B2F12A4FF0D10822EDE7626C42F00102A4
:104E3000D2B2F2E72269B2F5804F1AD194F83D2040
:104E4000212A626C11D102F0FE021A61626B0AB172
:104E5000926A2AB9A26B002ACCD0926A002AC9D0E1
:104E60005A6842F400625A60C4E742F00102D2B2CA
:104E7000EBE7226D32B9626CD21102F0060242F009
:104E8000F002CAE7226D012AB4D1626CD21102F09D
:104E9000060242F0F102C0E7060703D5960501D5E8
:104EA000626CE4E7860740F1F080960540F1ED8002
:104EB00094F83E10E26A256B94F83D00C9B22228AE
:104EC00040F0DB80206D40B9402906D100905A693E
:104ED00000929B690093009B8CE7216D89B9206942
:104EE000B0F5404F0DD101915A6901929A69019232
:104EF000019A1A6842F480721A60236D01332365A7
:104F000078E7618D89B251B902915A6902929A6922
:104F10000292029A1A6842F400721A6019E0618DD6
:104F200089B2012949D112F5803F1BD11A6822F4B8
:104F300080621A605A6812F400620CD01A6822F477
:104F400080621A60002203925A6903929B6903935C
:104F5000039B0023D3E704925A6904929A6904924E
:104F6000049AD7E7082A1CD0202A1AD0122D0DD176
:104F7000012A16D11A6822F480621A600022059272
:104F80005A6905929B690593059BE2E7102AF1D8BF
:104F9000864921FA02F2D707ECD51A6842F48062FA
:104FA000EBE71A6822F480621A60002206925A69BE
:104FB00006929A690692069AACE7618D89B2022937
:104FC00038D1102A03D87949D140CE0718D41968AE
:104FD00041F40061196000210791596907919969AD
:104FE00007910799196821F48061196059680D05C6
:104FF000AFD5202A1BD8072A0ED8012AA9D111E043
:10500000196841F48061196000210891596908917B
:10501000996908910899E9E7A2F10801644ACA4030
:10502000D00796D55A6842F480525A6091E712F53B
:10503000803FE3E7196841F4806119605968090508
:1050400005D5202A16D8072A09D8012A0DD0002212
:1050500009925A6909929B690993099B79E7A2F120
:105060000801534ACA40D207F1D55A6842F4805227
:105070005A60ECE712F5803FE8E700220A925A698D
:105080000A929B690A930A9BB4E67F0740F19280DB
:105090005E6836053FF5AEAE070600F004063ED565
:1050A00050053CD5002E3DD194F83D20258D94F837
:1050B0003E10D2B2E06AC9B2C5B9212A18D1082877
:1050C00058D0202856D010F5803F53D05A6822F48B
:1050D000E0625A6011232363002384F83E302023CA
:1050E000204684F83D30FFF75FFC83E6212A05D097
:1050F00040297FF47FAE222A7FF47CAE628D92B28B
:105100001AB95A6822F48062ADE694F83E20402A2B
:1051100016D120460FB0BDE8F040FFF74CBC002E82
:105120003FF468AE97057FF565AE212939D1E16A74
:1051300094F83D20212A7FF45DAE628D92B24AB18F
:10514000626A12F8011B19616262638D013B9BB2B6
:1051500063854FE608290DD020290BD011F5803F3B
:1051600008D0596821F4E06159601123236384F861
:105170003E20B4E75A68204622F4E0625A601A687A
:1051800042F400721A6000232022236384F83D2039
:1051900094F83E2084F83E30402AA4D1FFF70AFC60
:1051A00028E6402D7FF426AEB3E700BF14000100CF
:1051B0000101000159680E053FF51CAE450600F0DF
:1051C000040176D5500574D5002975D194F83D2099
:1051D000222A7FF40FAE628D92B2032A14D91A6983
:1051E000636A1A70636A01336362638D013B9BB229
:1051F0006385638D9BB2032B7FF4FCAD22685368FB
:1052000023F480635360F5E5E06A02283FF479AF48
:10521000012A3FF676AF0B9146F2A811734A126845
:10522000B2FBF1F202EB82020B920B9A013A0B9263
:105230000B99D1B9226C204642F0200222645A68B0
:1052400022F4E0625A601A69636A1A70636A013371
:105250006362638D013B9BB26385202384F83D30FC
:1052600084F83E10FFF7FFFBC4E51A6812F40072E1
:10527000DBD1196821F480611960596821F4E0617B
:1052800059601969636A1970636A01336362638DD7
:10529000013B9BB26385202384F83D3094F83E3077
:1052A00084F83E20402B69D122632046FCF74EF95A
:1052B000A0E500293FF49EAD92057FF59BADE26A23
:1052C000608D616A80B2042809D15A6822F4806234
:1052D0005A601B690B70636A0133636235E7608D46
:1052E00080B203280CD15868042A20F480605860EA
:1052F000EFD0022AEDD01A6822F480621A60E8E743
:10530000608D80B20228E4D1042A33D007D8012A64
:1053100007D0022A2ED01A6842F4007204E0102A44
:10532000F9D11A6822F480621A601B690B70626AF4
:10533000531C6362638D013B9BB2638523681B69C9
:105340005370636A226801336362638D013B9BB2D1
:105350006385536823F440735360202384F83D3001
:1053600094F83E30402B4FF0000384F83E3005D1D6
:1053700023639AE71A6842F48062D5E71223204635
:105380002363FFF712FB35E5206C10B30025586945
:1053900087072DD596052BD5226C02B19D6994F80F
:1053A0003D2002F02802282A16D15A682F0622F43E
:1053B00080625A604FF0000385F00401204654BF1C
:1053C000A289228BC1F3800184F83C30FFF7F0FA08
:1053D00010E59D695869DBE700220C9259690C9130
:1053E0009B6984F83C200C930C9B03E52C00002067
:1053F000C60640F1B180950540F1AE8094F83D506D
:105400005A68EDB222F4E0625A6000220D925A69A5
:105410000D921A6842F001021A600D9A1A6822F47D
:1054200080621A605A68100520D505F0F702222A1A
:105430004AD1A06B0268526892B26285628D92B2C4
:105440001AB1226C42F0040222645A6822F400620B
:105450005A60FEF7A1FB012808D0A06B794B43638B
:10546000FEF7BEFA10B1A06B436B9847638D9BB2F9
:1054700013B323685A69510709D51A69636A1A7008
:10548000636A01336362638D013B9BB2638523686A
:105490005A69520609D51A69636A1A70636A013338
:1054A0006362638D013B9BB26385638D9BB21BB1CD
:1054B000236C43F004032364236C13B320460FB022
:1054C000BDE8F040FFF7D2BB606B0268526892B251
:1054D0006285628D92B21AB1226C42F0040222649B
:1054E0005A6822F400625A60FEF756FB0128BDD0CC
:1054F000606B544B4363FEF773FA0028B6D0606BC1
:10550000B2E72A2D06D123632823204684F83D30B4
:10551000FFF74DFA94F83D30282B0CD14A4B20224E
:10552000E36200232046236384F83D2084F83E3064
:10553000FFF73FFA5EE4236B222B02D0222D7FF48B
:1055400059AC00232022236384F83D2084F83E30A8
:105550002046FFF72CFA4DE401F0F701212900F075
:10556000040535D1070627D5560525D53DBB94F84A
:105570003D00628DC0B292B2002A3FF43BAC626A39
:1055800012F8015B1D616262628D013A92B262851E
:10559000628D92B2002A7FF42DAC29287FF42AACC8
:1055A0005A68204622F480625A602823216384F8D6
:1055B0003D30FFF7FBF91DE4002D3FF41BAC9505D2
:1055C0007FF518AC628D92B2002A3FF413ACB7E5B8
:1055D000400627D5510525D53DBB94F83D20618D6A
:1055E000D2B289B200293FF405AC1969636A197017
:1055F000636A01336362638D013B9BB26385638D94
:105600009BB2002B7FF4F6AB2A2A7FF4F3AB22681F
:10561000536823F48063536022232363282384F890
:105620003D3095E7002D3FF4E5AB92057FF5E2AB09
:10563000628D92B2002A3FF4DDAB1A69636A1A7078
:1056400049E600BFAD4B00080000FFFF90F83D00A9
:105650007047F0B5044687B010B390F8A93203F054
:10566000FF021BB980F8A82203F0E8FA03232546BD
:105670006E4684F8A93255F8100B01F0A9FF0FCD42
:105680000FC62B68271D3360264697E80E0056F894
:10569000100B01F08DFF054620B1022384F8A932DA
:1056A00001254BE00146206801F09CFF29464FF0A0
:1056B000010E28250A46D4F804C0C8B2844501F179
:1056C00001011BD8002328251946D8B2844503F1CF
:1056D00001031FD8EC4635460FCDACE80F002B6810
:1056E000CCF8003097E80E00206801F07DFF012320
:1056F0000546E0B1022284F8A922D1E705FB004368
:10570000C3E90E2283F829E083F8280083F82B20D0
:105710001A64D2E705FB0042C2E95E1182F8691102
:1057200082F8680182F86B11C2F88011CDE784F825
:105730002400206884F8A93202F00EFA284607B047
:10574000F0BD38B590F8A8320446012B10D00125E1
:1057500080F8A852006801F032FF2946204603F085
:1057600078FB206802F0F6F9002084F8A80238BD22
:105770000220FCE710B590F8A8220446012A0BD0BD
:10578000012280F8241080F8A822006802F0DCF9D9
:10579000002084F8A80210BD0220FCE72DE9F04F9C
:1057A000044685B0006802F0D9F910F4004500F015
:1057B0002484DFF81C93DFF81C832068B0F84430A1
:1057C0001F0402D405B0BDE8F08FB0F84460B1B258
:1057D00016F00F0640F0C68011F010012BD103889F
:1057E0009BB203EA090343F400430380B0F850304E
:1057F00094F828209BB203EBC20300EB4303B3F8F9
:105800000434E26BC3F309031A4463642046E26381
:1058100003F043FA94F82430002BCED0226C216898
:10582000002ACAD194F8243043F08003A1F84C3008
:1058300084F82420C1E70588ABB215F4006521D0B7
:10584000B0F8503094F868219BB203EBC20300EB30
:105850004303B3F80C34B4F86E21C3F30903C4F85E
:10586000843104F52C7102F0A7FB226820461388CE
:1058700023F070031B051B0D43F08003138003F01E
:10588000FDF99AE7190498D5038823F070031B05E6
:105890001B0D43F080030380B0F8503094F868216A
:1058A0009BB203EBC20300EB4303B3F80C34C3F326
:1058B0000903C4F884318BB1D4F87C1171B1B4F808
:1058C0006E2102F079FBD4F87C31D4F8842129468A
:1058D00013442046C4F87C3103F0D6F921680A88C5
:1058E00093B212053FF569AF03F44053B3F5405F3F
:1058F0003FF463AFB1F8503001F20C409BB2C25A92
:10590000C2F30902C252D4F878213E2A0CD95509B3
:10591000D706C25A08BF05F1FF3592B242EA852286
:1059200042EA080292B204E09AB9C25A92B242F430
:105930000042C2520B8823F4804323F070031B04FF
:105940001B0C83F4405343F4004343F080030B806B
:1059500033E75508D607C25A48BF013592B242EA2A
:105960008522DFE730F826301A049FB240F1F1803B
:10597000282130F8263001FB064123F070031B0577
:105980001B0D43F0800320F8263091F8743100F5A8
:10599000806CB3B9B0F8503091F868219BB20633EF
:1059A00003EBC2033CF81350C5F30905002D00F0CA
:1059B000B4802B46B1F86E21D1F87C1102F0FCFACC
:1059C000ABE091F86B2191F86831022A40F08480B5
:1059D000B0F850504FEAC30BADB217F4804AD1F87B
:1059E00080215D4407F0400E39D002353CF8155057
:1059F000C5F30905954213D90022C1F8802130F87A
:105A0000232022F4804222F070021204120C82F44D
:105A1000005242F4004242F0800220F8232004E0C9
:105A2000521BC1F88021002AE9D0BEF1000F0DD031
:105A300030F8232022F4E04222F070021204120C0B
:105A400042F4004242F0C00220F82320002D64D02E
:105A5000282101FB06412B46B1F87021ACE7063541
:105A60003CF81550C5F30905954212D9C1F880A13B
:105A700030F8232022F4804222F070021204120C2B
:105A800082F4005242F4004242F0800220F82320C7
:105A900004E0521BC1F88021002AE9D0BEF1000FBA
:105AA0000DD130F8232022F4E04222F070021204DB
:105AB000120C42F4004242F0C00220F8232065B3E9
:105AC000282101FB06412B46B1F8722174E700BF83
:105AD0000F8FFFFF0080FFFF30F8232022F4E04209
