:020000040800F2
:100000000050002091480008754700087747000815
:10001000794700087B4700087D4700080000000082
:100020000000000000000000000000007F47000802
:10003000814700080000000083470008854700084A
:10004000D9480008D9480008D9480008D94800080C
:10005000D9480008D9480008D9480008D9480008FC
:10006000D9480008D9480008D9480008894700083D
:10007000D9480008D948000895470008A14700085A
:10008000D9480008D9480008D9480008D9480008CC
:10009000AD470008D9480008D9480008D9480008E9
:1000A000D9480008B9470008D9480008D9480008CD
:1000B000D9480008D9480008D9480008D94800089C
:1000C000D9480008C5470008D9480008D9480008A1
:1000D000D9480008D1470008D9480008D948000885
:1000E000D9480008D9480008D94800080000000095
:1000F0000000000000000000000000000000000000
:0C01000000000000000000005FF808F1A3
:1001100010B5054C237833B9044B13B10448AFF341
:1001200000800123237010BD100200200000000099
:1001300098BA000808B5034B1BB103490348AFF355
:10014000008008BD000000001402002098BA0008DA
:10015000034613F8012B002AFBD1181A0138704707
:1001600070B54FF0FF0C4CF4E06C1CEA11541DBF4D
:100170001CEA135594EA0C0F95EA0C0F00F0DEF818
:100180002C4481EA030621EA4C5123EA4C5350EAFD
:10019000013518BF52EA033541F4801143F480134E
:1001A00038D0A0FB02CE4FF00005E1FB02E506F0DF
:1001B0000042E0FB03E54FF00006E1FB03569CF034
:1001C000000F18BF4EF0010EA4F1FF04B6F5007F3A
:1001D00064F5407404D25FEA4E0E6D4146EB0606AC
:1001E00042EAC62141EA55514FEAC52040EA5E5035
:1001F0004FEACE2EB4F1FD0C88BFBCF5E06F1ED8DF
:10020000BEF1004F08BF5FEA500E50F1000041EB15
:10021000045170BD06F0004646EA010140EA0200C2
:1002200081EA0301B4EB5C04C2BFD4EB0C0541EAE4
:10023000045170BD41F480114FF0000E013C00F3F9
:10024000AB8014F1360FDEBF002001F0004170BD1D
:10025000C4F10004203C35DA0C341BDC04F1140436
:10026000C4F1200500FA05F320FA04F001FA05F2C2
:1002700040EA020001F0004221F0004110EBD3708F
:1002800021FA04F642EB06015EEA430E08BF20EABB
:10029000D37070BDC4F10C04C4F1200500FA04F35E
:1002A00020FA05F001FA04F240EA020001F00041F0
:1002B00010EBD37041F100015EEA430E08BF20EA63
:1002C000D37070BDC4F1200500FA05F24EEA020EAB
:1002D00020FA04F301FA05F243EA020321FA04F0DA
:1002E00001F0004121FA04F220EA020000EBD37091
:1002F0005EEA430E08BF20EAD37070BD94F0000F91
:100300000FD101F00046400041EB010111F4801FC4
:1003100008BF013CF7D041EA060195F0000F18BF75
:10032000704703F00046520043EB030313F4801FB1
:1003300008BF013DF7D043EA0603704794EA0C0F6B
:100340000CEA135518BF95EA0C0F0CD050EA410681
:1003500018BF52EA4306D1D181EA030101F00041FE
:100360004FF0000070BD50EA410606BF1046194626
:1003700052EA430619D094EA0C0F02D150EA013632
:1003800013D195EA0C0F05D152EA03361CBF104673
:1003900019460AD181EA030101F0004141F0FE4112
:1003A00041F470014FF0000070BD41F0FE4141F496
:1003B000780170BD81F0004102E000BF83F000438E
:1003C00030B54FEA41044FEA430594EA050F08BFF0
:1003D00090EA020F1FBF54EA000C55EA020C7FEAB4
:1003E000645C7FEA655C00F0E2804FEA5454D4EB31
:1003F0005555B8BF6D420CDD2C4480EA020281EAFB
:10040000030382EA000083EA010180EA020281EA32
:100410000303362D88BF30BD11F0004F4FEA013184
:100420004FF4801C4CEA113102D0404261EB410193
:1004300013F0004F4FEA03334CEA133302D0524219
:1004400063EB430394EA050F00F0A780A4F10104D5
:10045000D5F1200E0DDB02FA0EFC22FA05F280180F
:1004600041F1000103FA0EF2801843FA05F35941F5
:100470000EE0A5F120050EF1200E012A03FA0EFC74
:1004800028BF4CF0020C43FA05F3C01851EBE3719E
:1004900001F0004507D54FF0000EDCF1000C7EEBBB
:1004A00000006EEB0101B1F5801F1BD3B1F5001FF9
:1004B0000CD349085FEA30004FEA3C0C04F1010418
:1004C0004FEA445212F5800F80F09A80BCF1004F41
:1004D00008BF5FEA500C50F1000041EB045141EAC3
:1004E000050130BD5FEA4C0C404141EB0101013C8C
:1004F00028BFB1F5801FE9D291F0000F04BF01467B
:100500000020B1FA81F308BF2033A3F10B03B3F14C
:1005100020020CDA0C3208DD02F1140CC2F10C02DC
:1005200001FA0CF021FA02F10CE002F11402D8BF3A
:10053000C2F1200C01FA02F120FA0CFCDCBF41EA06
:100540000C019040E41AA2BF01EB0451294330BDD5
:100550006FEA04041F3C1CDA0C340EDC04F11404B2
:10056000C4F1200220FA04F001FA02F340EA030089
:1005700021FA04F345EA030130BDC4F10C04C4F1CF
:10058000200220FA02F001FA04F340EA03002946AF
:1005900030BD21FA04F0294630BD94F0000F83F4F9
:1005A000801306BF81F480110134013D4EE77FEADC
:1005B000645C18BF7FEA655C29D094EA050F08BF28
:1005C00090EA020F05D054EA000C04BF1946104609
:1005D00030BD91EA030F1EBF0021002030BD5FEA4D
:1005E000545C05D14000494128BF41F0004130BD75
:1005F00014F580043CBF01F5801130BD01F00045C9
:1006000045F0FE4141F470014FF0000030BD7FEA3B
:10061000645C1ABF194610467FEA655C1CBF0B4636
:10062000024650EA013406BF52EA033591EA030F4D
:1006300041F4002130BD00BF90F0000F04BF002145
:10064000704730B54FF4806404F132044FF0000578
:100650004FF0000150E700BF90F0000F04BF0021F1
:10066000704730B54FF4806404F1320410F0004557
:1006700048BF40424FF000013EE700BF42004FEA52
:10068000E2014FEA31014FEA02701FBF12F07F43CF
:1006900093F07F4F81F06051704732F07F4208BF86
:1006A000704793F07F4F04BF41F40021704730B58D
:1006B0004FF4607401F0004521F000411CE700BFD9
:1006C00050EA010208BF704730B54FF000050AE05C
:1006D00050EA010208BF704730B511F0004502D55D
:1006E000404261EB41014FF4806404F132045FEA5F
:1006F000915C3FF4D8AE4FF003025FEADC0C18BF08
:1007000003325FEADC0C18BF033202EBDC02C2F1F9
:10071000200300FA03FC20FA02F001FA03FE40EA8B
:100720000E0021FA02F11444BDE600BF4FEA410277
:1007300012F5001215D211D56FF47873B3EB625233
:1007400012D94FEAC12343F0004343EA505311F05A
:10075000004F23FA02F018BF404270474FF00000EC
:10076000704750EA013005D111F0004008BF6FF02A
:10077000004070474FF00000704700BF7BB972B96E
:100780000029BEBF00204FF0004106E008BF00284E
:100790001CBF6FF000414FF0FF3000F0A5B9ADF184
:1007A000080C6DE904CE002909DB002B1ADB00F0F0
:1007B00035F8DDF804E0DDE9022304B0704740427B
:1007C00061EB4101002B1BDB00F028F8DDF804E0B1
:1007D000DDE9022304B0404261EB4101524263EB88
:1007E00043037047524263EB430300F017F8DDF810
:1007F00004E0DDE9022304B0404261EB41017047AF
:10080000524263EB430300F009F8DDF804E0DDE950
:10081000022304B0524263EB430370472DE9F047D3
:10082000089E0D4604468E46002B4CD18A429446C3
:1008300067D9B2FA82F353B102FA03FCC3F1200282
:1008400001FA03FE20FA02F242EA0E0E9C404FEA41
:100850001C47BEFBF7F11FFA8CF507FB11EE01FBFD
:1008600005F0220C42EA0E4290420AD91CEB020229
:1008700001F1FF3E80F01981904240F21681023969
:100880006244121AB2FBF7F007FB102200FB05F5D9
:10089000A4B244EA0244A5420AD91CEB040400F1C4
:1008A000FF3280F00481A54240F2018164440238A5
:1008B00040EA01400021641B1EB1DC400023C6E970
:1008C0000043BDE8F0878B4208D9002E00F0EA8093
:1008D0000021C6E900050846BDE8F087B3FA83F1B8
:1008E000002948D1AB4202D3824200F2F880841A38
:1008F00065EB030201209646002EE2D0C6E9004EC9
:10090000DFE702B9FFDEB2FA82F3002B40F08E80FF
:10091000881A0121170C1FFA82FEB0FBF7F507FBBE
:100920001500220C42EA00420EFB05F0904208D965
:100930001CEB020205F1FF3802D2904200F2CC809B
:100940004546121AB2FBF7F007FB10220EFB00FE21
:10095000A4B244EA0244A64508D91CEB040400F101
:10096000FF3202D2A64500F2B4801046A4EB0E047A
:1009700040EA0540A0E7C1F120078B4022FA07FCBE
:100980004CEA030C25FA07FA4FEA1C49BAFBF9F8BE
:100990008D4020FA07F309FB18AA1FFA8CFE2B439F
:1009A00000FA01F508FB0EF01C0C44EA0A44A042D0
:1009B00002FA01F20BD91CEB040408F1FF3A80F0B3
:1009C0008680A04240F28380A8F102086444241A81
:1009D00098B2B4FBF9F309FB134403FB0EFE40EAA3
:1009E0000444A64508D91CEB040403F1FF306AD285
:1009F000A64568D9023B644443EA0840A0FB029341
:100A0000A4EB0E049C42C8469E4654D351D0002EFF
:100A100067D0B5EB080364EB0E04CB4004FA07F78C
:100A20001F43CC40C6E9007400214AE702FA03FCE8
:100A3000C3F12000C1409D4024FA00F04FEA1C475A
:100A40002843B1FBF7F507FB15111FFA8CFE020CCA
:100A500042EA014205FB0EF1914204FA03F408D97F
:100A60001CEB020205F1FF382FD291422DD9023D35
:100A70006244521AB2FBF7F107FB112280B240EA3E
:100A8000024001FB0EF2824208D91CEB000001F18A
:100A9000FF3816D2824214D902396044801A41EAE2
:100AA00005413AE7314630460BE77146E9E6104624
:100AB000FEE64D45ABD2B9EB020863EB0C0E0138F4
:100AC000A5E74146EAE7034696E74546D1E7D04623
:100AD0007DE76444023849E7023D624431E7084655
:100AE0000AE73146EDE600BF704700BF00220A4921
:100AF00030B50B88094D013810F8014F14B902B117
:100B00000B8030BD5A1C92B2B2F5807FEC5414BFFA
:100B1000134600230122EFE7E4040020D003002065
:100B2000074A10B51188074C4B1C9BB2B3F5807F68
:100B3000138008BF0023605408BF138010BD00BF9E
:100B4000E4040020D003002038B500240D4B0D46EE
:100B50001C700D4B01463F22184609F028FF0B4B35
:100B60001F2280F83F402946184609F020FF322214
:100B7000074BC4771A600D22064B1A70064B1C7087
:100B800038BD00BF35020020900300205A0200202B
:100B9000D404002034020020DC040020194B70B57E
:100BA0005B6806460D4614463BB347F23053164980
:100BB0001648002A08BF1C4609F07FFF144B0F227D
:100BC0001846314609F0F3FE00221249C2730A2288
:100BD000284609F00FFD0A2220460F4909F00AFDB8
:100BE0000E4B1B7863B10E4B187810F0020003D047
:100BF000092206200B4B1A7070BD4FF0FF30FBE747
:100C00000120F9E738020020ECBA000804000020B7
:100C10007A0300208A030020540200209003002061
:100C20003502002034020020054B187810F0020035
:100C300004D004480378002B08BF0020704700BF91
:100C40003502002044020020074A10B51188074CE5
:100C50004B1C9BB2B3F5807F138008BF0023605408
:100C600008BF138010BD00BFE20400207A020020FC
:100C70002DE9FF479A46334B81465B680E4617467F
:100C8000002B59D0DFF8C08098F80040630656D595
:100C900014F0080449D10A2201A9384609F0AAFC37
:100CA00001A8FFF755FA0138C0B2032839D8274800
:100CB000FFF71CFF01A8FFF719FF2548FFF716FFF4
:100CC0002246244924480B88A5B2BD4216D302B15E
:100CD0000B8098F80030214C23F00C0343F00C03F8
:100CE00088F8003023683BB11D489847236801A865
:100CF000984723681B489847092013E05D1CADB254
:100D0000B5F5807F08BF0025721C19F8066092B205
:100D1000C6540134524514BF164600262B46012204
:100D2000D2E70B2004B0BDE8F0870C4B1B680BB179
:100D30000D4898470820F5E74FF0FF30F2E705200F
:100D4000F0E700BF380200203502002050BC000848
:100D5000F0BA0008E4040020D00300203002002094
:100D6000F3BA00086EBB000806BB000802460D4B34
:100D70000068516803C390680B4A18600023137021
:100D80000A4A13700A4A13800A4A13800A4A1380D7
:100D90000A4A13800A4A13700A4A13600A4A136007
:100DA000704700BF380200203402002036020020C5
:100DB000E0040020E4040020DE040020E20400201F
:100DC000350200202C020020300200200F4A136858
:100DD0000BB1013B13600E4A136823B1013B136052
:100DE0000BB90C4A13700C4A13680BB1013B13602A
:100DF0000A4B0B4A1B780C2B04D113680BB1013B37
:100E00001360704740F22623FAE700BFD4040020A5
:100E1000D004002036020020D80400203402002034
:100E2000000000202DE9F84FAC4BAD4EB3F800B0F8
:100E3000338800255B4506D0AA4F3B780D3B022B3B
:100E400020D8A6F800B0A84EA84C3368002B40F07C
:100E50003C826423A34D33602B780F2B00F2358244
:100E6000DFE813F0700348026102670271027B023F
:100E7000E102E902FA020903180355035A031302B7
:100E80001F022E0202239A4A9A4C136033889B4514
:100E9000D9D0994AD05C22780C2A00F2F181DFE89F
:100EA00012F00D005800C300EF01EF017B0190012B
:100EB0009801A501EF01C001C401DA010023042259
:100EC0009E468E49DFF83882DFF838920B7088F83A
:100ED00000205FFA83FC59F82C20A2B9BEF1000F64
:100EE00001D081F800C00022814B80491A600B7844
:100EF00013F0010F20D03E281ED162F300030B70C7
:100F0000814B1A6018E092F804A0013382451DD18C
:100F1000BEF1000F01D081F800C013785278303B49
:100F2000313A03EB830302EB4303784A1380012336
:100F30002370052388F80030338801339BB2B3F562
:100F4000807F338004BF002333809FE74FF0010E82
:100F5000BFE7DFF8A8C16B499CF8002051F82220B8
:100F60006749097812F801E0864514D1DFF89CC181
:100F7000BCF80030013B9BB2ACF800300BB10D283F
:100F80004AD19378D278303B03EB8303303A02EBBB
:100F900043032370D0E700229146C1F57F4A8CF8C5
:100FA00000200AF1D30ADFF85CC15FFA82F85CF82E
:100FB00028C0BCF1000F09D1B9F1000F00F03D814C
:100FC000524A15804D4A82F8008036E19CF800E0D4
:100FD0009CF80150AEF1300E0EEB8E0E554405EB31
:100FE0004E05ADB2FF2D1BD81CF801E0864517D188
:100FF000464B1D80B9F1000F02D0404B83F80080B2
:1010000055B99CF802309CF80320303B03EB830376
:10101000303A02EB43032370394B013119708BE7EF
:101020004FF001090132BEE70A2885D10022334B77
:1010300022701B78023B0D2B3FF67EAF01A151F8C9
:1010400023F000BF7D10000897100008B1100008C1
:10105000390F00081D1100081D1100083F1100087C
:101060004B110008631100083F110008390F0008F8
:1010700083110008390F00088D1100083B78022BFE
:101080007FF45AAF0022184B1A60184A137843F0C5
:101090002003137050E7154A137819077FF54CAFFA
:1010A00023F0480313701A4B1A881A4B1A8043E72F
:1010B0000D4B1A603B78062B0C4B02BF1A7842F09E
:1010C00020021A701A7842F002021A70124B1B6842
:1010D000002B3FF431AF032098472DE7E2040020B6
:1010E000DE04002034020020D40400203502002059
:1010F000D0040020360200207A020020E8040020FC
:10110000E904002080BD0008D8040020E604002087
:10111000E4040020E00400202C020020914A13780F
:1011200023F042031370904B1B680BB100209847CB
:101130003B78062B3FF400AF0F233B70FCE6894B56
:101140001A786FF386121A70F6E6864B1A786FF3E8
:10115000C3021A70844B1B68002B3FF4EDAE0A20CB
:10116000BAE7824B1A607F4A137823F0600343F09A
:10117000600313707C4B1B68002B3FF4DDAE07202F
:10118000AAE7784A137823F0420382E7754A137876
:1011900023F042031370CFE7754A2C28126807D159
:1011A00006232370002A3FF4C7AE72489047C3E677
:1011B0000021013B21703380002A3FF4BDAE6E4810
:1011C000F4E722287FF4B8AE0723237000226B4B8C
:1011D0006CE7222803D0694A1388102B01D1082319
:1011E000D7E6591C1180664AD054A5E60A287FF438
:1011F000A3AE0023614A23701188614A0F299BBF67
:101200005354584913700A789FBF42F020020A7065
:10121000564A1360544B1B68002B3FF48DAE0420DC
:101220005AE72C2809D10B23CFE73A2801D10C2308
:10123000AFE6A0F13002092A04D90022013B227056
:10124000338079E64D4A138803EB830300EB4303B5
:10125000303B138070E64B4B9B6803B19847474A7D
:101260001388013B9BB21380002B7FF465AE237083
:101270003F4B1B68002B3FF45FAE434898475BE64B
:101280000023424A2370136056E63E4B00201B6841
:101290009847374B1B680BB13D4898470E232B707E
:1012A00013E0384B01201B689847314B1B680BB18A
:1012B000384898470F232B704FF4FA73336004E0DB
:1012C000012300222B70344B1A702378DA0740F187
:1012D0003B81324A12685AB9314A23F00903118816
:1012E000304A2370118001222F4B1A700A23336079
:1012F000BDE8F88F284A13782BB1013BDBB213709D
:101300001BB90D23CBE704231370237827486FF311
:1013100045132370FFF7EAFB154B1B680BB12448FC
:1013200098470223BBE72378980640F1A280032365
:10133000B5E72048FFF7DAFB0D4B1B680BB11E48E1
:1013400098470423ABE71D48FFF7D0FB084B1B6809
:101350000BB11B4898470523A1E72378990731D59E
:1013600007239CE7350200202C020020D404002033
:10137000300200201EBB000833BB0008E60400203A
:10138000440200203802002047BB0008D00400209F
:101390005ABB000870BB0008DC040020D804002001
:1013A000E4040020E00400203402002024BC0008F3
:1013B00086BB000873BC000894BB000842BC000850
:1013C000A8BB0008764F3B78002B3FF47EAF7548F2
:1013D000FFF78CFB2220FFF7A3FB3846FFF786FBC5
:1013E0002220FFF79DFB2C20FFF79AFB2220FFF71E
:1013F00097FB6D48FFF77AFB2220FFF791FB0D204A
:10140000FFF78EFB0A20FFF78BFB684B1B680BB1C5
:101410006748984723786FF34513237006232B7092
:1014200040F2DC534AE723789A0622D507230422A8
:101430002B70604B48E700225F4B60481A70FFF743
:1014400055FB5A4B1B680BB15D48984723786FF3E7
:1014500045132370082322E723789B0601D509232F
:101460001DE7544A1378013BDBB21370002B7FF465
:1014700077AF012313E7534B1B78002B3FF425AFC5
:101480005148FFF733FB494B1B680BB14F48984756
:101490000A2304E74E48FFF729FB2220FFF740FB11
:1014A0004C48FFF723FB2220FFF73AFB2C20FFF7E5
:1014B00037FB2220FFF734FB4248FFF717FB2220BF
:1014C000FFF72EFB2C20FFF72BFB4348FFF70EFB0B
:1014D0002C20FFF725FB4148FFF708FB2C20FFF7E6
:1014E0001FFB3020FFF71CFB0D20FFF719FB0A2024
:1014F000FFF716FB2D4B1B680BB139489847237833
:1015000023F0600323700B232B70C823D6E62378C7
:101510009F06AED50C23C2E623789807A9D55906B5
:101520009DD5304F3B686BB9204B1B680BB12E48E3
:10153000984723786FF38613237009232B7040F2AA
:1015400026233B600023B9E6284D29492A880988CB
:1015500091423FF4CDAE274E5F07B05C02D53E28E6
:1015600008BF0A20244B5B68984700283FF4C0AEB0
:1015700022782B8851070AD5F15C3E2907D1052135
:1015800022F0050242F0010222701C4A1160013370
:101590009BB2B3F5807F08BF00232B80A8E600BF75
:1015A0009003002069BC00085A020020300200208D
:1015B000BCBB0008DC0400204402002029BC000859
:1015C000CFBB00087A03002034BC0008E0BB000851
:1015D0005CBC0008040000208A03002054020020A4
:1015E000F6BB0008000000200CBC0008E00400204E
:1015F000E4040020D003002038020020D80400209A
:10160000014B1860704700BF2C02002040F22622D8
:10161000014B1A60704700BF00000020F0B591B088
:1016200001AD04462A46104B03F138072E461868D0
:101630005968083303C6BB423546F7D118681346CC
:10164000306004F51A720FAE1D4603CDB54210602E
:1016500051602B4602F10802F6D12868034B106056
:10166000C4E9A93311B0F0BDB0BA000864786401D0
:101670000021F0B500F50F77451E00F21E2615F883
:10168000012F36F802CF02EB411457F8043F00EB6C
:101690004404B4F820E06344A3EB0E0301320131AB
:1016A0003B6002F01F025B090829A4F820C03382C6
:1016B0002A70E4D1F0BD00212DE9F0478C4640F6B8
:1016C000D8674FF0010E00F5187400F50C7501F0A5
:1016D000FB03032B2DD00126B5F8009000F51A7AF4
:1016E0003AF8028FF2B2531CC145DBB21DD306F2A9
:1016F000331630F8166002EB820203EB8303D2B29A
:10170000DBB29B1AA6EB090909FB03F3A6EB08065B
:10171000B3FBF6F31A4422700131082904F10104E5
:1017200005F10205D3D1BDE8F08701361E2ED7D1D1
:10173000F2E72B88BB4294BF84F800E084F800C035
:10174000EAE700002DE9F04101254FF4FA76002484
:1017500086B00DF117082B467522D021CDE9015630
:10176000CDF8008007468DF8174004F0EBF99DF89E
:101770001730682B55D12B46CDE901566B22D0216D
:101780003846CDF800808DF8174004F04BF92B4611
:10179000CDE901561C22D0213846CDF800808DF8C5
:1017A000174004F03FF90823CDE901568DF81730B2
:1017B0001B222B46D0213846CDF8008004F032F9A8
:1017C0000323CDE901568DF817301A222B46D0217C
:1017D0003846CDF8008004F025F900230022124D90
:1017E0002146C5E91223C5E904440E22C5E909448E
:1017F000C5E90B440D48C5E90744C5E90D44EC8132
:101800002C83EC63A5F840406C64A5F8506009F0A7
:10181000C6F80E222146284606B0BDE8F04109F080
:10182000BEB806B0BDE8F08198120020EA0400209E
:101830002DE9F04307464FF47A764FF4FA782A4DB3
:101840002A4C85B00E233B22D021CDE900533846E7
:101850000123CDF8088004F075F92988E3696A88C6
:10186000C9BA1944236AD2BA1A44AB88606AB5F877
:1018700008C0DBBA0344606BB5F80AE09CFABCFC14
:101880008444A06BB5F80C909EFABEFE8644E06BD3
:1018900099FAB9F9013E8144B6B2E161226263620C
:1018A000C4F834C0C4F838E0C4F83C90002EC9D164
:1018B0004FF47A7093FBF0F391FBF0F192FBF0F2AE
:1018C0009CFBF0FC9EFBF0FE99FBF0F9A3F5804336
:1018D000A182E2822383A4F82EC0A4F830E0A4F809
:1018E000329005B0BDE8F083EA0400209812002091
:1018F0000E2307B50193054B3B220093D021012312
:1019000004F024FB03B05DF804FB00BFEA040020F0
:1019100038B52448244C0188A58A428849BA491B15
:10192000E58A838852BA521B258B5BBA92B25B1B45
:1019300089B29BB2228262800289E1816382218026
:10194000A38081894389E08D52BA121A208E5BBA36
:101950001B1A608E9BB249BA091A63852381B4F8B9
:10196000503008B292B298422285A085E28061810F
:1019700002DC5B42984206DAD4E912320A21C0FB4B
:101980000132C4E91232D4E912014FF6DC720023AD
:10199000FEF7F4FE0A2203B2A4F840305343A081BC
:1019A000636438BDEA040020981200200022002061
:1019B0000021044BC3E912019A85A3F840205A6420
:1019C000704700BF981200208380002310B5029C4E
:1019D00042806242C0E905249DF80C20C0E9023330
:1019E0000180036102774377837710BDF0B54688A5
:1019F000C568028805FB06F301FB02338268848810
:101A00008A1A04FB0233642293FBF2F384690361B4
:101A1000A34204DA4769BB42C4BF6D18C560624384
:101A200092FBF6F2C568954201DDC26002E05242C7
:101A30009542FADBA34204DD0461816090F9100055
:101A4000F0BD42699342B8BF0261F6E70023C0E9E6
:101A500002337047002383724371837103724375AD
:101A60008375062380F82030704730B50A449142D0
:101A700000D130BD90F8203004695D1C80F8205002
:101A800011F8015BE55490F82030047D234080F884
:101A90002030ECE790F82030026910B55C1C80F82B
:101AA0002040D15490F82030027D134080F820303F
:101AB00010BD0000837DF0B5057D90F82040073310
:101AC0002B409C421AD0174C531C23710023063222
:101AD000A171C375D1B2827D0669DDB2A94206EB60
:101AE00002070CD8C37D013282753B70027D837D75
:101AF0001340837507331A4080F82020F0BD062D6F
:101B000098BFE55C03F1010398BFB554827D056978
:101B1000C67DAD5C01327540C575057D2A40827574
:101B2000D9E700BF080000208379026810B55C1C6B
:101B30008471D154837902791340837110BD30B51B
:101B40000A44914200D130BD837904685D1C8571DF
:101B500011F8015BE5548379047923408371F0E740
:101B60000346D97900684A1CD2B2DA71405C034955
:101B7000087019790A40DA71704700BFF804002034
:101B8000C2790168531CDBB2C3718A5C03490A70D5
:101B900001790B40C37150B2704700BFF8040020B8
:101BA00030B5C2790568531CDBB2C371AA5C064C20
:101BB000227002791340591CC9B2C171EB5C0A4012
:101BC0006370C271208830BDF80400202DE9F04117
:101BD000867943790446B34206D000254FF00108C8
:101BE000304F63799E4204D1E369002B4BD1BDE8AD
:101BF000F0812268A17AD25C062942D8DFE801F0A0
:101C00000412121220122C003B78934203D140F2AE
:101C100001532273638122796379134001331A409F
:101C20006271DEE7785C904203BF237B0131534051
:101C300003F1FF3307BF2373A172A5726371EAE753
:101C4000217B62725140227902331340E3710523F4
:101C500021732572A372DEE7637A217B013BDBB23D
:101C6000637213B151402173D5E78A42A372D2D176
:101C7000A3691BB12046E1799847CCE784F8088036
:101C8000C9E7A572C7E7627DA17D9142AFD0216906
:101C9000885C98470028AAD0637D227D01331340D9
:101CA0006375A4E708000020C37A23B1013BDBB2CF
:101CB000C37203B98372704700230160C0E9053322
:101CC000C0E90233828003740377704770B581885E
:101CD0000446006803F0DCFB054602F041FE237C6D
:101CE000042B14D8DFE803F003081426330075B979
:101CF0000123237460610AE015B10023237406E018
:101D00006369C31A272B02D90223A061237470BD13
:101D10000DB10323EDE7A369C01AB0F57A7FF6D3BE
:101D20000423237403232377E368002BEFD0BDE85B
:101D3000704018470DB90223E0E76369C01A2728ED
:101D4000E5D90023237402232377A368EDE7002D50
:101D5000DDD00023237404232377D8E700B181600A
:101D6000704700B1C16070477FB501230A22CDE9F9
:101D700001320DF117028DF8171000927821002220
:101D800003F050FE07B05DF804FB00007FB5244C63
:101D9000244D2378032B1BD8DFE803F0020C222408
:101DA0002B78503B8DF80C30012303AA009201934D
:101DB000002206E00022012303A98DF80C200193E4
:101DC0000091782103F0FCFF10B9237801332370D0
:101DD0002B78072B8ABF00200120287004B070BD2B
:101DE0001023DFE71023104E019332782B787821EF
:101DF00002EBC3020D4B03EB0213009340220123BD
:101E000003F0DEFF0028E3D133782A780133DBB218
:101E1000072B337081BF531C30702B702070D7E7B5
:101E20000309002002090020040900200205002007
:101E3000030630B510D43F290ED80D4B0D4C1D793B
:101E4000CB0801F0070145B14AB900EBC3100123EB
:101E5000225C8B401343235430BD012AF5D001226C
:101E600000EBC310235C8A4023EA0203F3E700BFC0
:101E7000FC040020020500202DE9F04F1746B8426F
:101E800034BFA7EB0008A0EB070885B099420446D1
:101E90000D469A469DF838200FFA88F830D2591A24
:101EA000B84209B235D34FF0FF394FF0010B1FFA9A
:101EB00088F300931FFA88F08BB2C61A494236B2F3
:101EC0000191E9B2E0B2CDE90223FFF7B1FFDDE90C
:101ED0000223BC4201D1554522D0B0B24100DDF809
:101EE00004C009B26145C1BFC01A4C4406B2A4B2D5
:101EF0008845E6DD00995D440E4436B2ADB2E0E7B8
:101F0000C91AB84209B207D24FF001094FF0FF3B9E
:101F1000CDE74FF00109C8E74FF0FF39CB46C6E7E0
:101F200005B0BDE8F08F00002DE9F34107460D46EE
:101F300016460024DFF82880B8F80230B8F8000010
:101F400023449BB2C2191946009692B20134FFF79E
:101F500093FFA3B29D42EFD202B0BDE8F08100BF73
:101F6000FC0400202DE9F74F04468A4691460026DE
:101F70004FF0800B10F1070848BF00F10E08C8F3BE
:101F8000CF08B7B2574518DA002507FB0897F1B21A
:101F90000EE0DA08BA5C03F007034BFA03F31A42C7
:101FA00005D00122E8B20191FFF742FF0199013506
:101FB000ABB29C42EDDC0136E3E703B0BDE8F08F45
:101FC0002DE9F04F87B0054606A800E90600DFF8C6
:101FD0008CA09DF810B0BAF80060019306EB0B03DB
:101FE0007F2B39DCBAF802309DF81190009303EB97
:101FF00009023F2A30DC4FF00008A5F1200409FB5C
:1020000004F46400C14506D85E44AAF8006028467E
:1020100007B0BDE8F08F0027059A135B0293009B81
:1020200008EB0301C9B2BB4503D808F1010802342B
:10203000E8E7029BB81903FA07F2130456BF019BA5
:10204000019AB3FA83F2C0B258BF52090391013723
:10205000FFF7EEFE0399E6E70025D8E7FC04002031
:1020600073B56D461E4685E80600441E14F8010F40
:1020700040B195E806003346FFF7A2FF03462078FB
:102080008342F3D002B070BD00284FF4806214BFC9
:10209000FF210021014808F082BC00BF020500209A
:1020A00038B50546642002F061FCAE212846FFF7F2
:1020B0005BFE202104462846FFF756FE102104440B
:1020C0002846FFF751FEE4B2B02104442846FFF74A
:1020D0004BFEE4B2C82104442846FFF745FEE4B2B3
:1020E000002104442846FFF73FFEE4B210210444D7
:1020F0002846FFF739FEE4B2402104442846FFF7A2
:1021000033FEE4B2812104442846FFF72DFEE4B2F9
:10211000FF2104442846FFF727FEE4B2A12104442E
:102120002846FFF721FEE4B2A62104442846FFF723
:102130001BFEE4B2A82104442846FFF715FEE4B2D2
:102140003F2104442846FFF70FFEE4B2A4210444D3
:102150002846FFF709FEE4B2D32104442846FFF7DE
:1021600003FEE4B2002104442846FFF7FDFDE4B27B
:10217000D52104442846FFF7F7FDE4B2F0210444DA
:102180002846FFF7F1FDE4B2D92104442846FFF7C1
:10219000EBFDE4B2222104442846FFF7E5FDE4B25A
:1021A000DA2104442846FFF7DFFDE4B2122104449B
:1021B0002846FFF7D9FDE4B2DB2104442846FFF7A7
:1021C000D3FDE4B2202104442846FFF7CDFDE4B25C
:1021D0008D2104442846FFF7C7FDE4B214210444CE
:1021E0002846FFF7C1FDE4B20444AF212846FFF7BB
:1021F000BBFDE4B2044414F0FF040DD12046FFF708
:1022000043FF4FF48072054B1C805C809A80044B26
:102210001C705C70204638BD0124FBE7FC040020E4
:10222000781200200020FFF72FBF0000014B18801C
:1022300059807047FC0400200246054B1B68186853
:1022400010F080001EBF034B01205A60704700BF92
:10225000600F002000380140072808D8DFE800F0B0
:102260000B07070407040708044B054A1A60704768
:10227000024B044AFAE7014B034AF7E72400002027
:10228000A0A0A0F0AAF0AAF000C000FF02464FF400
:102290008071014803F002B900080140014601487D
:1022A000FFF742BCE81300200E4808B501780E4A3B
:1022B00021F07C010170002113780C480133DBB25E
:1022C000022B137088BF117001701178084801311A
:1022D000C9B2FFF7DFFBBDE808400222F72104483E
:1022E000FFF7E8BB7D0D0020A80F00207C0D00202B
:1022F000E8130020CAB201460148FFF720BC00BF26
:102300000C14002038B50E4B0E4C1B78012B08D056
:102310002378C3F3800282F0010262F38203237008
:1023200038BD094D2B7801332B70FFF77BFF2B78DD
:10233000032B84BF00232B70237843F08003EEE748
:10234000C61300207D0D00202000002002680B4BEA
:102350009A4211D10A4A1378013BDBB2137033B9A8
:1023600008490B7843F001030B70282313700822EF
:102370000549064802F002BC704700BF002C01402E
:102380002D0000207D0D0020CC110020800D0020AC
:102390000148FFF76DB900BFAC0F00200268084B81
:1023A00010B59A420AD1074C2078FEF74DFC214621
:1023B000BDE810400122044806F0A1BC10BD00BFDA
:1023C000003801406C0D0020600F00200A220E4BE7
:1023D00010B51A700D4C0E4B22681B684FF400515B
:1023E0001A4214BF002201220A4803F057F823685A
:1023F000094A5B0808BF4FF00043236013780BB114
:10240000013B137010BD00BF2C0000201C000020F9
:10241000240000200010014030000020322208B5C6
:10242000034B1A7002F09CFABDE8084008F0E4B8CB
:102430002E000020044B1A7822B9042203481A7097
:10244000FFF744BC704700BF310000205812002045
:1024500038B5184C617DA27D91420FD0237D16487E
:10246000521A1A40027001332069FEF701FC092854
:1024700004D10122A37D6375104B9A70104C637DCB
:10248000A17D8B4214D028BF217D206928BF013156
:10249000094DC91AC9B21844297007F0EBFE38B9C2
:1024A000637D2A781344227D13406375034B987033
:1024B00038BD00BFE813002030140020781200203F
:1024C0000C14002010B5074C237853B90D21064891
:1024D000FFF7E0FA0222F0210348FFF7EBFA32237C
:1024E000237010BD30000020E813002010B5204BF1
:1024F0001A780AB932221A701E4804F05FFC2428A8
:1025000012D11D4C2378FF2B08D11A4803F070FA22
:10251000184803F0C5F90023237004E00133DBB24F
:10252000C82B2370F1D810BD124804F047FC2028B6
:10253000104809D1114C23789B0705D5FFF7D8F92E
:1025400023786FF34103E7E704F038FC2028EAD151
:102550000A4C94F90030002BE5DA094B1B78032B69
:10256000E1D90448FFF712FC237860F3C713D3E7DF
:102570002E0000207C0E00206B0D00207D0D002021
:102580002D000020000000002DE9F743784EDFF811
:10259000E48196F8647296F8623298F800209F42BF
:1025A00028BF1F4612F0080F734902D112F0220F04
:1025B00001D1FF230B7014060B784CBF00230133AD
:1025C0000B7002F06303632B6C4D52D196F86632A8
:1025D00096F86042E41A00232B700123684DDFF85F
:1025E000A4912A7889F800309A4205D06648FFF70E
:1025F0002DFA99F800302B70002C7BD021466248D0
:10260000FFF7F4F90446614B462F1C705E4B1D7FAB
:1026100074D898F8003003F04103412B6ED128465E
:10262000FEF71AF850A3D3E90023FDF799FDFEF752
:102630007DF896F8A63240B2BB4207D214232D1A79
:10264000323F7D4395FBF3F5284440B2C0B2E4B27B
:10265000061976B2001B40B24D4933460A460E7049
:1026600002F8060F00904B4801F0A8FE03B0BDE849
:10267000F08302F06003602B08D1002396F86642D5
:102680002B70C4F1320402236400A7E702F00303B5
:10269000032B06D1002296F860422A70323C640077
:1026A0009CE750060CD50B78053B0F2B08D8002370
:1026B00096F866422B70C4F13204042364008DE75F
:1026C000D3070BD50B78053B0F2B07D8002396F8C3
:1026D00060422B70323C052364007FE72B7823B9DE
:1026E0002D48FFF763F901232B702C4BB3F94040C1
:1026F000062373E72448FFF7A9F984E740F6C312DD
:102700002649B1F90E30002BB8BF5B429BB2934211
:1027100024D8B1F91030934220DC2846FDF79CFF05
:102720004FF033321E4BFDF71BFD80462046894695
:10273000FDF792FF02460B4604460D4640464946C9
:10274000FDF73EFEFDF7F2FF22462B4646B2494614
:102750004046FDF733FEFDF7E9FF7CE7E4B266197A
:102760002D1B76B268B277E7666666666666E63FF8
:10277000AC0F00207E0D00202F000020C41300208D
:10278000AA0F0020A90F002008090020E51300204F
:10279000B8130020180F00207C0E00209812002093
:1027A0003333F33FF7B5444E33784BB30133DBB2E9
:1027B0003370BBB1414B93F90920AAB901225A7277
:1027C00000243F4A3F481378347023F018031370F5
:1027D000FFF7ECF83C48FFF739F902223B4B1A703F
:1027E0003B4B1C7003B0F0BD012A01D10022E6E78B
:1027F000022A01D10322E2E7032AE1D10222DEE725
:102800002F4C2278D1060FD4324922F0300291F8B1
:10281000663291F860128B428CBF002301235B016A
:1028200043F01003134323702B4F2378B7F9405024
:102830009B064CBFB435C5F1B40535B329462748CE
:10284000FFF7D4F80546264B26491D70B7F94030EE
:102850008A1D002BB8BF5B429BB2B02B0AD8A42BB9
:1028600017D91C4B93F86602322812D893F86032BD
:10287000322B0ED80123337000230B708B71009321
:102880001849194801F09AFDACE71448FFF7DEF843
:10289000D9E7124B2478187FA4062844C0B2C0F1AF
:1028A000000340B248BF04465BB244BF184623460B
:1028B00088710B700090E3E769090020F012002096
:1028C0007D0D00207C0E002008090020C51300208B
:1028D0002F000020AC0F00209812002028090020B3
:1028E000E5130020B8130020180F0020F7B5564D4F
:1028F00006462B78002B40D0544A01331288DBB2B5
:102900009A422B701BD8524E3378032B28D1514B4F
:1029100093F90930ABB902224E4B5A7200244E4B48
:102920004E481A782C7064F3C3021A70FFF73EF811
:102930004B48FFF78BF8022333704A4B1C7003B0EF
:10294000F0BD022B02D10122424BE6E7012B02D15E
:102950000322404BE1E7032BE0D100223D4BDCE7B3
:10296000042BDBD13B4B93F90930002BF0D0032B28
:10297000E9D0012BCFD0022BEEE73B4FB7F9404017
:1029800018BBC4F1FF2404F57F04A63404B3214628
:102990003648FFF72BF80446354B364A1C70B7F91A
:1029A0004030002BB8BF5B429BB2562B01D8297830
:1029B00091B101232B7000231370937100932E4A61
:1029C0002E48911F01F0FAFCB9E7C4F15A04DDE783
:1029D0002648FFF73BF8DFE7062E17D12348E4B27D
:1029E000817F452BA1EB04011170417F0C44947150
:1029F00006D9234B93F86512462918D801232B706A
:102A000092F90630009392F90030D8E7002EF7D102
:102A10001648E4B2417F452BA1EB04011170817F80
:102A20000C449471ECD9164B93F86112E4E793F8D7
:102A300066123729E2D993F860123629DED893F866
:102A40006732012BDCD1D9E76A0900202800002079
:102A5000C5130020F01200207D0D00207C0E002008
:102A6000080900202F0000209812002048090020AB
:102A7000E5130020B8130020BE130020180F00201B
:102A8000AC0F002070B5474B474993F8610293F8AB
:102A9000A52293F8A442904293F860228CBF0020B4
:102AA0000120A2428CBF0022012293F8A64242EAF2
:102AB000400293F86202A0422CBF0020012093F84C
:102AC000A84242EA800293F86402A0428CBF002030
:102AD000012093F8A94242EA001293F86502A0424D
:102AE0008CBF0020012093F8AA4242EA401293F8DA
:102AF0006602A0428CBF0020012042EA80120878C2
:102B000020F0770002430A7093F8670293F8AB2233
:102B10009042264A27D11078FF281CBF0130107040
:102B20001278012A12D80A7842F080020A70002036
:102B30001F4A107093F8632293F8A732D21A5342B7
:102B400053410A7863F3C3020A7070BD022AEED1C2
:102B50000A781007EBD5174C6FF3C712207840F0B6
:102B600040002070E2E70878124C6FF3C71008703D
:102B70000020107020784606DCD491F900200E78F1
:102B8000002AD7DA0A4D2A78FF2AD3D00132D2B2EE
:102B9000012A2A70CED035075CBF40F0400020707B
:102BA000C8E700BFAC0F00207E0D002068090020A0
:102BB000341400207D0D002070B55A4B5A4C93F808
:102BC000642293F862329A4228BF1A46372A8CBF91
:102BD00000210121554B1970237813F0080003D010
:102BE000534B01221A7070BD524991F9026091F95C
:102BF0000450AE420AD191F9035091F905108D426B
:102C000004D160F3820323704B4BEAE74B48017811
:102C100001F00103C1F380159B0043EAC503C1F332
:102C200000152B43464DC1F3800143EA4103297847
:102C3000DBB299423E490ED10B78FF2B01D0013314
:102C40000B70404B09781B88994207D2372ACAD9A2
:102C50000222394BC6E72B700123F1E7372A0378AC
:102C600011D803F0410141290DD10522324B3648DC
:102C70001A70FEF7EBFE3548FEF798FE237843F016
:102C800008032370AFE71906E0D503F014011429F7
:102C900017D103F04103012B03D10422264B1A70F4
:102CA0000DE0402B02D10322234BF8E7002BCDD1BE
:102CB00007F0D0FC204B00F00100033018702448CE
:102CC000D7E70029C2D103F04103012B0ED107F051
:102CD000C1FCC207E1D40222174B1E481A70FEF74E
:102CE000B5FEBDE870401948FEF760BE402B04D128
:102CF00007F0B0FCC307D6D4EDE7002BA6D1164AE7
:102D000013780133DBB2042B137002D1012313704B
:102D1000C3E7032BDFD03FF666AF012BBDD0022BFC
:102D2000C1D060E7AC0F00207D0D0020E61300202D
:102D300018000020F0120020C51300207E0D002096
:102D40002B00002028000020280900207C0E0020F5
:102D500048090020080900202A0000202DE9F04140
:102D60007B4C217811F008050FD17A4F97F902209A
:102D700097F9040097F90330904208D197F90500BC
:102D8000984204D165F382012170BDE8F0811520DD
:102D9000DBB25FFA82FC03EB430200FB0C2297F9E3
:102DA00009003A44D67A59007A7A002849D0012895
:102DB0004BD002284DD003280BBF4FF0000E4FF030
:102DC000020E0125032546FA02F0C00762D4002A4C
:102DD00042D1052B5ED85A1C152002EB420200FBA3
:102DE0000C223A44507B46FA05F2D20770D4002DEB
:102DF00052D1052B6CD85A1C152502EB420205FB5B
:102E00000C223A44557B46FA0EF616F0010F524E4C
:102E100040F09380BEF1000F5CD1052B00F28D8055
:102E20000133152203EB430302FB0C333B44A8425E
:102E30005B7B6DD898426BD8FF2869D00223337032
:102E4000A3E74FF0020E0325BDE74FF0030E022566
:102E5000B9E74FF0010EB6E7012A03D1012B19D9CA
:102E60005A1EB9E7022A08D1BCF1070F12D8152063
:102E70000CFB0000CA180244B3E7032A0AD1BCF1D4
:102E8000010F07D94FF015080CF1FF30CA1808FBE5
:102E90000022A6E7FF20A6E7012D03D1012B17D9B9
:102EA0005A1EA9E7022D08D1BCF1070F10D815252D
:102EB0000CFB0555CA182A44A3E7BCF1010F07D93A
:102EC0004FF015080CF1FF35CA1808FB052298E7EA
:102ED000FF2598E7BEF1010F03D1012B2DD9013B4E
:102EE0009FE7BEF1020F08D1BCF1070F25D81522CC
:102EF0000CFB02220B44134498E7BCF1010F1CD9D0
:102F0000194415230CF1FF3203FB0212BB188EE7A4
:102F10009D4210D8FF2D0CD0042310483370FEF7CB
:102F200095FD0F48FEF742FD237843F00803237018
:102F30002BE7FF2B08D00323EFE7A842ECD8FF28AC
:102F40007FF47CAFFF2DE7D1052306483370E6E719
:102F50007D0D0020F0120020C5130020480900203C
:102F60007C0E00202809002007B5144B1B78013B7C
:102F7000042B0ED8DFE803F00310151B1D001049C9
:102F800000230A460B7002F8063F0E48009301F03A
:102F900015FA03B05DF804FB03B05DF804EBFFF72E
:102FA000F3BA002003B05DF804EBFFF79FBC0620E6
:102FB000F8E703B05DF804EBFFF7F4BBC51300209E
:102FC000B8130020180F00202DE9FF41594F3B781E
:102FD000ABB9594B594E1B78032B0AD8DFE813F0D5
:102FE00004001200D600EC0140218020544AFEF774
:102FF000B9FF19233B70337843F08003337004B07A
:10300000BDE8F08102210846FFF710F94D4B4E4C08
:1030100093F900204D494E4807F05EFC94E8060005
:1030200001234B48FFF71CF802215620FFF7FEF85A
:10303000484A494953784648127807F04DFC94E8CD
:10304000060001234248FFF70BF80F210220FFF78B
:10305000EDF842493E4807F030FD94E806000023B1
:103060003B48FEF7FDFF1A210220FFF7DFF83C4A3C
:103070003C4992F90630364892F9002007F02CFCC2
:1030800094E8060001233248FEF7EAFF0F213E20B4
:10309000FFF7CCF834492E4807F00FFD94E80600FE
:1030A00000232B48FEF7DCFF1A213E20FFF7BEF875
:1030B0002E4B2F4A1B78B2F940202E49244807F0A6
:1030C0000BFC94E8060001232148FEF7C9FF2721E5
:1030D0000220FFF7ABF833781D4813F0040F264B9E
:1030E00014BF264926491A7807F0F6FB94E8060033
:1030F00000231748FEF7B4FF33210220FFF796F8AC
:10310000204B21491A78124802F001030293C2F3BE
:1031100040030193C2F380030093C2F34013C2F350
:10312000801207F0D9FB012394E806000848FEF757
:1031300097FF5EE732000020200000207D0D002078
:1031400000F80008E51300201000002038C5000832
:10315000C71300207812002042C500084EC50008A1
:10316000B813002056C500085EC50008C51300202E
:103170009812002067C50008C613002074C5000817
:1031800083C500087E0D002092C50008BA4C2A2194
:103190006C20FFF74BF8B949B94807F08EFC94E86A
:1031A00006000123B648FEF75BFFB64D35216020CF
:1031B000FFF73CF801220A211C20FEF7B5FEB5F806
:1031C0003022B149AE4807F087FB94E8060000239F
:1031D000AB48FEF745FF12216C20FFF727F8AB49FB
:1031E000A74807F06AFC94E806000123A448FEF70C
:1031F00037FF1D216020FFF719F801220A211C204A
:10320000FEF792FEB5F832229F499D4807F064FB15
:1032100094E8060000239A48FEF722FF012152207D
:10322000FFF704F89A49964807F047FC94E806002F
:1032300001239348FEF714FF0C214620FEF7F6FF0A
:1032400001220A211C20FEF76FFEB5F834228E49B8
:103250008B4807F041FB94E8060000238848FEF7FE
:10326000FFFE12213C20FEF7E1FF8A49844807F067
:1032700024FC94E8060001238148FEF7F1FE1D219D
:103280003020FEF7D3FF01220A211C20FEF74CFE5E
:10329000B5F836227C497A4807F01EFB94E8060010
:1032A00000237748FEF7DCFE01212620FEF7BEFF53
:1032B0007949734807F001FC94E80600012370483F
:1032C000FEF7CEFE0C211A20FEF7B0FF01220A21E4
:1032D0001C20FEF729FEB5F838226B49684807F034
:1032E000FBFA94E8060000236548FEF7B9FE1221B8
:1032F0000C20FEF79BFF6949614807F0DEFB94E86C
:10330000060001235E48FEF7ABFE1D210020FEF7FC
:103310008DFF01220A211C20FEF706FEB5F83A2295
:103320005949574807F0D8FA94E806000023544852
:10333000FEF796FE2A210C20FEF778FF58495048E8
:1033400007F0BBFB94E8060001234D48FEF788FE1A
:1033500035210020FEF76AFF01220A211C20FEF71A
:10336000E3FDB5F83C224849454807F0B5FA94E832
:10337000060000234248FEF773FE2A213C20FEF798
:1033800055FF48493E4807F098FB94E806000123A2
:103390003B48FEF765FE35213020FEF747FF01224E
:1033A0000A211C20FEF7C0FDB5F83E2236493448FC
:1033B00007F092FA0023B7E64FF015083A4C0521C2
:1033C0000220FEF733FF94F905302B4D019394F959
:1033D00004303649009394F9013094F900202848CC
:1033E00007F07AFA95E8060001232548FEF738FE33
:1033F00011210220FEF71AFF94F909302C4900939D
:1034000094F9033094F902201D4807F065FA95E815
:10341000060001231A48FEF723FE1D210220FEF7B5
:1034200005FF94F9033094F9022003EB430308FBF2
:1034300002332344DA7A1F49114807F04DFA95E820
:10344000060001230E48FEF70BFE29210220FEF79D
:10345000EDFE94F9033094F9022003EB430308FBDB
:10346000023323445A7B1449054807F035FA95E89E
:10347000060001235AE600BF10000020A8C500087E
:10348000C7130020AC0F0020AAC50008AFC5000874
:103490001DC60008B1C50008B3C50008B5C50008C1
:1034A000B7C50008B9C50008F0120020BBC5000868
:1034B000CFC50008E0C50008EBC5000838B51B4BB8
:1034C0001B4C1B78C3F380155A0748BF45F0020513
:1034D000DB0794F9083048BF45F004050BB145F00F
:1034E0000805A1781348FEF7D5FAE1781148FEF7F0
:1034F000D1FA617A0F48FEF7CDFA29460D48FEF75A
:10350000C9FA152194F9033094F9022003EB43031F
:1035100001FB02331C44617B0648FEF7BBFABDE8A1
:1035200038400622FA210348FEF7C4BA7E0D002077
:10353000F0120020E8130020F0B5AF4B044698428B
:103540008BB001D1FEF762F82046FEF709FBA0F12F
:10355000E00305461C2B3ED8DFE813F01D002C00CD
:103560003F00550074003D003D003D003D003D0022
:103570003D003D003D003D003D003D0079007F00E5
:10358000810088008F009E00A900BB00BE00D7000C
:10359000EC00F1000A01FDF747FB1022014620462E
:1035A000FEF763FA1122294620460BB0BDE8F04031
:1035B000FEF780BA0825914E2046FEF7D1FA013D6C
:1035C00015F0FF0506F8010FF6D12046FEF7E8FAE0
:1035D0008B4BA3F850000BB0F0BD2046FEF7E0FA8D
:1035E000884D28802046FEF7DBFA68802046FEF7EB
:1035F000D7FAA8802046FEF7B3FA28612046FEF7E6
:10360000AFFA2877E7E72046FEF7CAFA7E4D288012
:103610002046FEF7C5FA68802046FEF7C1FAA8806A
:103620002046FEF79DFA28612046FEF799FA687752
:103630002046FEF795FAA8772046FEF7B1FA734BBD
:103640001880C8E72046FEF7ABFA714DC9E70D2197
:103650002046FEF71FFA0222A5E7F121F8E708222B
:1036600020466C49FEF701FA09229CE70E2220460B
:103670006349FEF7FAF90F2295E72046FEF770FA44
:10368000654D28702046FEF76BFA644A687013781F
:1036900043F0800313709EE7614E20463178FEF7B9
:1036A000F9F92046B179FEF7F5F903227BE72046C8
:1036B000FEF766FA5A4D28702046FEF761FA2A4650
:1036C000A87112F9063B29460090564800F076FE94
:1036D00081E7554B1978BBE72046FEF741FA0128F0
:1036E0004E4D05D12B7813F0040304BF4F4A1370DD
:1036F0002046FEF735FA2B7860F3820320462B70C4
:10370000FEF72EFA4A4B187065E72046FEF738FAA6
:10371000484D28702046FEF733FA2B786870E87021
:103720002046AB70FEF72CFAA8712046FEF728FA67
:10373000E87150E70BB0BDE8F040FFF7BFBE204690
:10374000FEF71EFA3B4D28702046FEF719FA2B783B
:103750006870E8702046AB70FEF712FA28712046B8
:10376000FEF70EFA68712046FEF70AFA687232E731
:103770001520304A92F9033092F902108DF8093081
:1037800003EB430300FB013313448DF80810597B0E
:103790008DF80A10D97A1B7B8DF80B108DF80C3040
:1037A000137A8DF80D30937A8DF80E30194B03CBC8
:1037B0001B4BCDF80F001A789B798DF81720104A13
:1037C0008DF81830CDF813100DF1190302F1080728
:1037D000164603CEBE4218605960324603F1080314
:1037E000F6D1306802A91860B28803489A801F2277
:1037F000FEF73BF92022D6E6E81300204F12002006
:103800009812002008090020480900202800002004
:10381000280900200C120020781200207D0D0020C5
:10382000B8130020180F0020C61300207C0D0020C4
:10383000A80F0020F0120020044B1A789A705A78D2
:10384000DA7000221A72FFF739BE00BFF0120020B2
:1038500038B5FFF7F1FF0022FF251046074C002185
:10386000A318013106291D74D873987303F103035B
:10387000F7D11532A82AF2D138BD00BF05130020B8
:103880001523F0B54FF0010E03FB00F7204C01EBC0
:103890004106F519254495F80BC00EFA02FE4CEAD4
:1038A0000E0C85F80BC05AB9052908D8013101EB77
:1038B000410139442144CB7A43F00203CB72F0BD7D
:1038C000012A0ED0022A17D0032AF8D10128F6D9EE
:1038D000013803FB00602044C37A43F00403C37241
:1038E000EDE70129EBD9013901EB410139442144CC
:1038F000CB7A43F00103E1E70728E0D800FB03336C
:1039000033442344DA7A42F00802DA72D7E700BF80
:10391000F012002070B53849384A91F862021378E5
:103920003628C3F380132FD991F86452362D8CBFFB
:1039300000250125324C167894F9092094F90200EB
:1039400094F9031006F0010602BB23B10322C9B2A9
:10395000C0B2FFF795FF25B10022E178A078FFF70C
:103960008FFF26B10222E178A078FFF789FF1521A9
:1039700094F9033094F9022003EB430301FB023373
:103980001C440123237370BD0125D3E7012A0FD105
:1039900023B10222C9B2C0B2FFF772FF25B10122E2
:1039A000E178A078FFF76CFF002EE0D00322DAE781
:1039B000022A0FD123B10022C9B2C0B2FFF760FFC3
:1039C00025B10222E178A078FFF75AFF002ECED071
:1039D0000122C8E7032ACAD123B10122C9B2C0B269
:1039E000FFF74EFF25B10322E178A078FFF748FFEB
:1039F000002EBCD00022B6E7AC0F00207E0D0020C8
:103A0000F01200205B4B2DE9F04300211C46FF2201
:103A1000A1B00131082983F8252083F8282083F8F4
:103A20002B2083F82E2083F8312083F8342003F1F3
:103A30001503EED11527002694F9052094F90410FA
:103A400002EB420307FB013323445E7301238DF82D
:103A500000108DF8012020AAB1B202EB410111F84B
:103A6000802C11F87F1C07FB02F801EB410545444F
:103A7000254495F80BE095F80DC01EF0010F4FEAB4
:103A8000410019D1052917D801F1010909EB4905B0
:103A90004544254495F80D80B8F1FF0F0CD10CF189
:103AA000010885F80D8020AD05EB4305013305F8CD
:103AB000802C05F87F9C9BB21EF0040F1AD1072AB8
:103AC00018D802FB077945184D44254495F80D9008
:103AD00002F10108B9F1FF0F0CD10CF1010985F8D1
:103AE0000D9020AD05EB4305013305F8808C05F8FA
:103AF0007F1C9BB21EF0020F1AD1012918D901F1C7
:103B0000FF3808EB480507FB0255254495F80D9052
:103B1000B9F1FF0F0CD10CF1010985F80D9020AD22
:103B200005EB4305013305F8802C05F87F8C9BB22B
:103B30001EF0080F16D1012A14D9013A084407FBD8
:103B400002002044457BFF2D0CD10CF1010C80F8C4
:103B50000DC020A800EB4300013300F8802C00F8D2
:103B60007F1C9BB20136B2B293423FF674AF21B0D4
:103B7000BDE8F083F012002038B5264B1A78264BAA
:103B8000012A0FD0022A13D032B9244A24491160E5
:103B9000012224491A700A701B78022B0DD0032BC6
:103BA00021D038BD1D4A2049116002221A70F3E766
:103BB0001A4A1E4911600322F8E71D4B1B7859076A
:103BC00003D40122174B1A70EBE71A4C237833B950
:103BD0001948FDF7EBFEFFF73BFE01232370BDE81C
:103BE0003840FEF7E9BF124C23785A07E9D5114D4A
:103BF0002B7843B91048FDF7D9FEFFF71DFEFFF7FC
:103C000001FF01232B7023785B06CAD5BDE838403D
:103C1000FFF7A4B8A80F0020C6130020240000203E
:103C200000C000FFC513002000CC00FFC0CC00FF87
:103C30007D0D00207C0D00207C0E002010B5204C56
:103C400023785A0605D513F0040203D162F38613D4
:103C5000237010BD1B4B93F90920032A0BD8DFE812
:103C600002F002191F2893F9032093F907109142DB
:103C700001DD0132DA70144A1278C2F3C0021A72FE
:103C8000FFF748FEFFF7BEFEFFF718FC23786FF33F
:103C90008613DDE793F90320012AECDD013AE9E719
:103CA00093F9022093F906109142E4DD01329A70F3
:103CB000E1E793F90220012ADDDD013AF7E700BFD1
:103CC0007D0D0020F01200207E0D00201B4A08B55B
:103CD000137823F0030343F002031370184A137898
:103CE0000BB1013B1370174A13780BB1013B1370F2
:103CF000154A13780BB1013B1370144A13780BB1BA
:103D0000013B1370FEF7DEFB1148FEF793FBFDF756
:103D10005DF81048FDF7C8FF0F48FDF7C5FF0F48D5
:103D2000FDF7C9FCFEF7AEFEFFF726FFFFF71CF913
:103D3000FFF784FFBDE80840FFF746B97D0D00207E
:103D40002C0000202E000020310000203200002036
:103D500058120020E81300200C140020AC0F0020A3
:103D600010B594B0142200210CA806F018FE1422FD
:103D700000210DEB020006F012FE1022002101A826
:103D800006F00DFE02244FF480330122CDE91143E9
:103D9000CDE90A234FF4E0130AA80E92139303F01F
:103DA000A1FE08B172B6FEE70F23CDE905344FF44A
:103DB00080630790CDE90830214605A804F054F847
:103DC00008B172B6FEE7122301934FF40043CDE928
:103DD000033001A804F004F908B172B6FEE714B08C
:103DE00010BD00000024FF252DE9804895B000F0AB
:103DF00099FD4FF4FA7000F0B9FDB648B64BB74ED6
:103E00000360B74B23278360B64B4FF0080A43602B
:103E1000FCF7ACFFB448FDF7F3FBB449B448FCF73A
:103E200093FE47F2305247F24E51B248FCF7B6FECD
:103E3000B148B24B86610360B14B057103610575F2
:103E4000C461FDF707FEAF48AF4BC0E906641E260C
:103E50000360AE4B057103610575FDF7FBFD0122A3
:103E6000AB49AC48FDF728FFAB49AA48FDF776FF00
:103E7000AA49A848FDF775FFA948FDF7CFFBCDE992
:103E80000076412322462D21A648FDF79DFD1923EA
:103E9000A54D314628462246009301942D23FDF777
:103EA00093FD0821CDE90076A0480C232246FDF7BA
:103EB0008BFD2D236B771423022701260622AB7777
:103EC0009B4B9C4D1F809C4B4FF00408DA715A713C
:103ED0001E705E709E70DE7083F806A083F804A0EA
:103EE0005C729C72FFF73CFF102221460DA806F081
:103EF00056FDAB69324643F01003AB61AB694FF43A
:103F0000005103F010030393039BAB698B4843F00C
:103F10002003AB61AB694FF0030903F02003049366
:103F2000049BAB694FF4807B43F00403AB61AB6946
:103F300003F004030593059BAB6943EA0A03AB61F5
:103F4000AB6903EA0A030693069B01F0A7FA22462F
:103F50004FF480717A4801F0A1FA4FF4005377488A
:103F60000DA9CDE90D36CDE90F4701F049F97448A7
:103F70000DA9CDE90D8901F043F965480DA9CDE9F9
:103F80000D640F9601F03CF96D480DA9CDE90DB611
:103F9000CDE90F4701F034F96B69224633436B6179
:103FA0006B69214633400B200293029B00F02AFFED
:103FB0000B2000F057FF224621460E2000F022FF82
:103FC0000E2000F04FFF224621460F2000F01AFF7E
:103FD0000F2000F047FF102221460DA806F0DFFC5D
:103FE0004723584DDFF860C12846C5E900C3F923CF
:103FF000CDE90944C5E90334C5E90544AC6004F0E2
:104000000DFA08B172B6FEE74FF4805328460DA9A9
:104010000D9304F0EAFA08B172B6FEE7CDE90900A3
:1040200009A9284604F0DAFB034608B172B6FEE798
:104030004FF4E1324548464CC0E90233C0E9004242
:104040000C220361C0E90523C36104F05FFC05464F
:1040500008B172B6FEE706F093F83E4C3E4B2046A0
:1040600023604FF46023CDE90D550F95C4F808B0D7
:1040700025732575E3616560C4F810A000F032FE79
:1040800008B172B6FEE7CDE90D060DA92046CDF8C0
:104090003C8000F0B9FC08B172B6FEE720460DA9DD
:1040A000CDE90D6700F0B0FC08B172B6FEE720461E
:1040B0000DA9CDE90D7900F0A7FC08B172B6FEE7B5
:1040C00020460DA9CDE90D9800F09EFC002845D0B2
:1040D00072B6FEE7700D00208D2200083935000809
:1040E0009D2200083922000859220008F5C5000861
:1040F0000BC6000810C60008E81300206B0900205A
:104100006B0B00200C1400206B0A00206B0C0020AD
:10411000000C014058120020A922000805230008C5
:10412000AC0F0020080900204809002028090020C1
:104130002800002000100240F01200200010014072
:1041400000080140D00E0020002C0140600F00202C
:1041500000380140800D0020002401400525204644
:104160000DA9CDF834800E9500F04EFC08B172B662
:10417000FEE7062478480DA90D950E9400F044FC46
:1041800008B172B6FEE70D94072473480DA90E948A
:1041900000F03AFC08B172B6FEE708266E480DA999
:1041A0000D940E9600F030FC054608B172B6FEE79D
:1041B0000146102209A806F0F2FB29461C220DA890
:1041C000CDE9075506F0EBFB4723644C64492046D4
:1041D000C4E9001342F20F73A560C4E90335A56179
:1041E00004F01CF908B172B6FEE74FF48053204684
:1041F00009A9099304F0F9F908B172B6FEE720465F
:1042000004F038F908B172B6FEE7CDE9070007A956
:10421000204604F0E3FA024608B172B6FEE76023D6
:104220000F90CDE90D3011900DA9204604F07AF9D8
:1042300008B172B6FEE7042220460DA904F072F917
:1042400008B172B6FEE7324620460DA904F06AF9BD
:1042500008B172B6FEE70C2240480DA904F062F9DD
:10426000064608B172B6FEE73C4800F017FA3D4D2D
:104270003D4A3E4B2846C5E900234FF48043C5E93B
:104280000266C5E90436C5E906662E6201F008FB40
:10429000064608B172B6FEE7354803F0B5FF2F4871
:1042A00003F08CFF31462D4804F096FA04212B4888
:1042B00004F092FA0821294804F08EFA0C212748CC
:1042C00004F08AFA23682B495E632B4C9E63DE63FD
:1042D0001E642A4B881F1E70267000F065F828485F
:1042E00005F0DEFF01222749274804F008FD284693
:1042F000FDF728FA2846FDF79BFA2846FDF7D0FE81
:104300003046FDF7C1FE2378204A43F08003237036
:10431000012313701E4A1F4E1370FFF799FA1E4FA8
:104320001E4D2378DB0701D5FFF7D0FC33780BB99E
:10433000FEF74CF83B780BB9FEF770F8FEF788F8FB
:10434000FCF770FD2846FDF741FC1548FDF73EFCE3
:10435000FEF7CCF8E5E700BF800D0020180F002025
:10436000000800407C0E002000580040801A060023
:10437000D00E0020BE1300207D0D00207E0D0020F9
:10438000F52200086C0D0020600F0020C6130020ED
:10439000C51300202C0000202E000020E813002070
:1043A0000C14002072B6FEE7002340F6AC520380E6
:1043B000438082800B804B808A80704730B5002B11
:1043C0009DF90C5000689CB21FDA01234B70C4EBBE
:1043D000442304EB8303C4EBC3040023A400A4B26E
:1043E0004C800464C363002DABB21ADA0121517012
:1043F000C3EB432103EB8101C3EBC1039B009BB2E1
:10440000538083630023436330BD002304EB8404A3
:1044100004EB8404A400A4B24B704C800364C46316
:10442000E1E7002103EB830303EB83039B009BB2D3
:10443000517053808163E6E70E4B82B09A6942F077
:1044400001029A619A6902F001020092009ADA6907
:1044500042F08052DA61DB69074A03F0805301932E
:10446000019B536823F0E06343F00073536002B094
:10447000704700BF001002400000014030B5054603
:1044800087B01022002102A806F089FA2A681C4B86
:104490009A4233D103F56C439A691A4842F4007288
:1044A0009A619A6902A902F400720092009A9A69CC
:1044B000154C42F004029A619B69FF2203F0040349
:1044C0000193019B0323CDE9022300F099FE802094
:1044D0004FF480720023C4E903024FF480620B4959
:1044E0002046C4E90013C4E90523A360E36100F09A
:1044F000EDFC08B1FFF756FF2C62656207B030BDD6
:104500000024014000080140B00D002008000240D6
:1045100030B5054687B01022002102A806F03FFA08
:104520002A682B4B9A4251D12A4C4FF44061A3691F
:10453000294843F00803A361A36903F0080300932B
:10454000009B1223CDE90213032302A9059300F077
:1045500057FEE3694FF0800C43F48003E361E369A5
:104560004FF4007203F480030193019B00231B4C62
:104570001B48C4E903C2C4E900032046C4E905336B
:10458000A360E36100F0A2FC08B1FFF70BFF10236A
:10459000144AAC636562144CC4E9002300238022F2
:1045A0002046C4E90232C4E90433C4E9063300F00A
:1045B0008DFC08B1FFF7F6FE0022212011466C6346
:1045C000656200F01FFC212000F04CFC07B030BDFC
:1045D0000058004000100240000C0140F40D002083
:1045E0005800024044000240380E00200268104B80
:1045F00010B59A42044619D10E4A4FF48061D3692E
:104600000D4823F48003D36100F0D4FE4FF4006121
:10461000094800F0CFFEA06B00F08AFC606B00F050
:1046200087FCBDE81040212000F02ABC10BD00BF6F
:104630000058004000100240000C014007B503681C
:10464000134A934214D1134B19209A6942F4006221
:104650009A6100229B69114603F400630093009B5A
:1046600000F0D0FB192003B05DF804EB00F0FABBBA
:10467000094A934209D1074BDA6942F00402DA6130
:10468000DB6903F004030193019B03B05DF804FBB5
:10469000002C0140001002400008004010B5044604
:1046A00086B01022002102A806F079F922680D4B8D
:1046B0009A4214D103F502339A690B4842F008027A
:1046C0009A619B694FF4707203F008030193019B98
:1046D000022302A9CDE90223059300F091FD06B063
:1046E00010BD00BF00080040000C014010B504469A
:1046F00086B01022002102A806F051F922681B4B57
:104700009A4230D103F558439A69194842F48042DD
:104710009A619A6902A902F480420092009A9A6909
:10472000002442F004029A619B694FF4007203F086
:1047300004030193019B0223CDE902230323059384
:1047400000F05EFD4FF48063094802A9CDE9023410
:10475000049400F055FD25202246214600F052FB2E
:10476000252000F07FFB06B010BD00BF00380140DF
:1047700000080140FEE7FEE7FEE7FEE7FEE77047C0
:104780007047704700F0E0B8014800F0A1BC00BFDE
:10479000B00D0020014800F09BBC00BF380E002087
:1047A000014800F095BC00BFF40D0020014802F064
:1047B000ADBB00BF141B0020014803F054BD00BF77
:1047C000D00E0020014801F0B1BE00BF7C0E0020D9
:1047D000014804F031B900BF600F0020012070478C
:1047E00008B506F03DF9162303604FF0FF3008BD11
:1047F00008B506F035F916230360FEE770B50D46DF
:1048000014460E46731B9C4201DC204670BDAFF37C
:10481000008006F8010BF5E770B50D4614460E460C
:10482000731B9C4201DC204670BD16F8010BAFF3F0
:104830000080F5E74FF0FF3070474FF40053002041
:104840004B60704701207047002070470B4A0346B9
:10485000116810B509B90A491160106809490A4C74
:104860000344091B8B4206D906F0FAF80C230360B7
:104870004FF0FF3010BD1360FCE700BF381400207C
:10488000702100200050002000040000704700004C
:10489000FFF7FCFF0B480C490C4A002302E0D458F8
:1048A000C4500433C4188C42F9D3094A094C00237C
:1048B00001E013600432A242FBD306F0D7F8FFF701
:1048C00091FA7047000000200C020020A4C70008E5
:1048D0001002002070210020FEE7000038B50E4BCA
:1048E00005461A784FF47A73B3FBF2F30B4A10685B
:1048F000B0FBF3F000F0D6FA044658B90F2D09D8F2
:10490000024629464FF0FF3000F07CFA2046044B67
:104910001D6038BD0120FCE7380000203400002075
:104920003C000020074A08B51368032043F0100339
:10493000136000F055FA0F20FFF7D0FFFFF77CFD62
:10494000002008BD00200240034A044B11681B7878
:104950000B441360704700BF3C1400203800002057
:10496000014B1868704700BF3C14002038B504465E
:10497000FFF7F6FF0546631C1EBF044B1B78E418C7
:10498000FFF7EEFF431BA342FAD338BD38000020E7
:10499000436A10B59A6A12F0500F1BD19A6A42F41A
:1049A00000729A621A68926802F46022B2F5602F6F
:1049B0000CD11A7B52B99A6A22F480729A629A6A6E
:1049C000D2045EBF9A6A42F001029A621846FDF76D
:1049D000DFFC10BD1B6ABDE810401B6B1847704719
:1049E00008B5406AFFF7FBFF08BD7047406A08B58D
:1049F000836A43F040038362C36A43F00403C362E3
:104A0000FFF7F3FF08BD0000002373B5019390F892
:104A100024300446012B6CD0012380F824304D68EB
:104A20000268062D086805EB850322D81F26556B02
:104A3000053B9E4025EA060500FA03F32B4353632A
:104A400009288B6800EB40054FF0070129D9D6688B
:104A50001E3DA94026EA0101AB400B43D360A0F103
:104A60001003012B25D90020002384F8243002B044
:104A700070BD0C2D4FF01F0509D8166B233B9D40D0
:104A800026EA050500FA03F32B431363D8E7D66A39
:104A9000413B9D4026EA050500FA03F32B43D36210
:104AA000CEE71069A94020EA0101AB400B43136136
:104AB000D9E7114B9A4216D193681B02D3D493685D
:104AC000102843F400039360CDD10C4B0C4A1B68B3
:104AD000B3FBF2F30A2253430193019B002BC2D094
:104AE000019B013BF8E7A36A012043F02003A36286
:104AF000BAE70220BBE700BF0024014034000020D9
:104B000040420F00002337B50193036804469A68BA
:104B1000D20702D5002003B030BD9A6842F00102EE
:104B20009A60144B144A1B68B3FBF2F30193019B88
:104B3000E3B9FFF715FF054623689B68DB07E9D457
:104B4000FFF70EFF401B0228F6D923689B6813F07D
:104B50000103F1D1A26A012042F01002A262E26ACE
:104B600084F8243042F00102E262D4E7019B013B69
:104B7000DCE700BF3400002040420F002DE9F04187
:104B8000404B9046026804469A420F4602D03E4986
:104B90008A4203D15B6813F4702F6ED194F82430ED
:104BA000012B6CD00123204684F82430FFF7AAFFA4
:104BB000064600285DD1A56A2168334B25F470654F
:104BC00025F0010545F480759942A56204D12D4A6E
:104BD000536813F4702F3ED1A36A23F48013A362A9
:104BE0004B685A0505D5A36A23F4405343F4805318
:104BF000A362A36A206A13F4805318BFE36A3A469B
:104C000018BF23F00603E362002384F824301F4B0F
:104C10004C3183621E4BC3621E4B03636FF0020371
:104C200041F84C3C51F8443C43F4807341F8443C17
:104C3000434600F0A7F923689A6802F46022B2F5AF
:104C4000602F9A680CBF42F4A00242F480129A606E
:104C50003046BDE8F081A36A43F48013A362536831
:104C60005B0541BFA06A20F4405040F48050A06230
:104C7000BFE7002384F82430EAE70126E8E70226AC
:104C8000E6E700BF002401400028014091490008E8
:104C9000E1490008ED49000838B5036804469A6800
:104CA000D10701D4002038BD9A6822F001029A6031
:104CB000FFF756FE054623689B68DB07F2D5FFF732
:104CC0004FFE401B0228F6D923689B68DA07F2D50D
:104CD000A36A012043F01003A362E36A43F00103D7
:104CE000E362E0E7F8B5044600286DD0836A23B993
:104CF000C36280F82430FFF7C1FB2046FFF7CCFFEA
:104D0000A36A13F0100361D100285FD1A26A616821
:104D100022F4885222F0020242F00202E569A668FB
:104D2000A262227B2943B6F5807F41EA420136D058
:104D3000771E7D427D412D02277D012F06D182BB4A
:104D4000A269013A45EA423242F400652268B6F5AA
:104D5000807F576827F4694745EA070555609768DB
:104D60001D4D05EA070545EA0105956001D0012EB4
:104D700002D12369013B1B05D56A25F470052B433D
:104D8000D3629268154B1340994213D10023E3621A
:104D9000A36A23F0030343F00103A362F8BD354681
:104DA000CAE7A26A42F02002A262E26A42F001026D
:104DB000E262CBE7A36A23F0120343F01003A3627D
:104DC000E36A43F00103E3620120E7E7A36A43F0EB
:104DD0001003A362F8E700BFFDF7E1FFFE0E1FFF1F
:104DE00007490302CA6803F4E06322F4E062120494
:104DF000120C134343F0BF6343F40033CB6070479E
:104E000000ED00E0154B30B5DC68C4F30224C4F1BA
:104E10000703251D042B28BF0423062D4FF0FF3563
:104E200094BF0024033C05FA03F321EA0303A540E1
:104E300022EA0502A340002843EA0203ACBF00F1C6
:104E40006040074A4FEA0313DBB2ABBF00F5614095
:104E500000F00F0080F80033135430BD00ED00E087
:104E600014ED00E0002807DB01234109034A00F0AC
:104E70001F00834042F82130704700BF00E100E08E
:104E800000280CDB01220649430900F01F00824084
:104E9000203341F82320BFF34F8FBFF36F8F70474C
:104EA00000E100E00138B0F1807F0BD24FF0E02349
:104EB000F021054A586182F82310002007229861EA
:104EC0001A6170470120704700ED00E0034610B5FD
:104ED00040B314210068144A0244B2FBF1F292007C
:104EE0001A64124ADA63022283F82120D3E90124EA
:104EF0002243DC68016822431C6921F47F5122436C
:104F00005C6921F0300122439C692243DC69224321
:104F10000A43026000200122986383F8200083F88E
:104F2000212010BD0120FCE7F8FFFDBF000002407A
:104F300010B508B30168114A0B680A4423F0010355
:104F40000B6000230B604B608B60CB601421B2FBC5
:104F5000F1F201210A4C9200026401FA02F2C463E8
:104F600062608363C0E90A33C0E90C3380F8213002
:104F700080F82030184610BD0120FCE7F8FFFDBF87
:104F800000000240F0B5054690F82000012836D018
:104F9000012085F8200095F8210000240128C6B2E0
:104FA0004FF0020028D185F82100AC632C682068FE
:104FB00020F001002060D5E90F7006FA00F078605B
:104FC00063606B68102BEB6A0BBFA260A160E160AD
:104FD000E2604BB1236843F00E0300202360236896
:104FE00043F001032360F0BD236823F00403236032
:104FF000236843F00A03F0E785F82040F3E7022036
:10500000F1E790F821200346022A06D004228263A9
:105010000120002283F8202070470268C06B1168CD
:1050200021F00E011160116821F0010111600121D0
:105030001A6C01FA02F24260002083F82110E8E7BE
:1050400010B590F82130022B03D004238363012094
:1050500010BD03681A6822F00E021A601A6822F066
:1050600001021A60184A93421FD0143293421ED094
:10507000143293421DD0143293421DD01432934205
:105080001DD0143293420CBF4FF480134FF0807345
:105090000E4A00245360012380F82130436B80F8CE
:1050A00020407BB198472046D2E70123F0E7102348
:1050B000EEE74FF48073EBE74FF48053E8E74FF4EB
:1050C0008033E5E71846C3E70800024000000240CD
:1050D00070B40425C66B026C3468036895402542A1
:1050E000196832D04D0730D51A6896065EBF1A6827
:1050F00022F004021A603E4A934219D014329342BD
:1051000018D01432934217D01432934217D014326D
:10511000934217D0143293420CBF4FF480034FF0E8
:105120008063344A5360C36A002B5ED070BC18475A
:105130000423F6E74023F4E74FF48063F1E74FF4EC
:105140008043EEE74FF48023EBE7022595402542AC
:1051500035D08D0733D51A68940606D41A6822F024
:105160000A021A60012280F82120214A934219D0B4
:105170001432934218D01432934217D0143293420F
:1051800017D01432934217D0143293420CBF4FF40D
:1051900000134FF00073174A5360002380F820304B
:1051A000836AC1E70223F6E72023F4E74FF4007394
:1051B000F1E74FF40053EEE74FF40033EBE7082537
:1051C0009540254211D009070FD5196821F00E012D
:1051D0001960012303FA02F27260836380F82130C0
:1051E000002380F82030036B9EE770BC704700BF3F
:1051F000080002400000024090F8210070470000C3
:105200002DE9F74F00221646644F654BDFF894C135
:10521000DFF894E10D6835FA06F402D103B0BDE879
:10522000F08F4FF0010808FA06F805EA080438EA9A
:1052300005057AD14D68032D07D8013D022D00F2F6
:105240008780DFE805F0959AA000122D00F0988085
:105250006DD8112D00F08E80FF2C98BF82464FF044
:105260000F0988BF00F1040A4FEA8605DAF80080CA
:1052700088BF203D09FA05FB28EA0B0802FA05F56C
:1052800048EA0505CAF80050D1F804A01AF0805F7A
:105290004BD0BD6926F0030845F00105BD61BD692D
:1052A00008F1804805F00105019508F5803806F001
:1052B000030B019D4FEA8B0BD8F8085009FA0BF944
:1052C00025EA0909394DA84261D005F58065A84253
:1052D0005FD005F58065A8425DD005F58065A842E0
:1052E0000CBF0325042505FA0BF545EA0905C8F8A6
:1052F00008509D681AF4801F14BF2543A5439D6084
:10530000DD681AF4001F14BF2543A543DD605D6806
:105310001AF4003F14BF2543A5435D601D681AF4CD
:10532000803F14BF2543A5431D60013672E7DFF8B7
:1053300080904D450CD017D8A9F580194D4507D060
:1053400009F570294D4503D0A9F580194D4583D144
:105350008A68D2B1012A08BFC0F810804FF0080255
:1053600018BFC0F8148077E76545F1D07545EEE7C2
:10537000CA6871E7CA6804326EE7CA6808326BE728
:10538000CA680C3268E7002266E7042264E7002559
:10539000A9E70125A7E70225A5E700BF0010024005
:1053A00000040140000031100000321000080140EC
:1053B000000022102DE9F74F4FF0040B00224FF0B0
:1053C000010A4FF00F0800EB0B0301932E4B31FA4B
:1053D00002F402D103B0BDE8F08F0AFA02F70F40E1
:1053E00049D022F0030404F1804404F5803402F033
:1053F000030CA5684FEA8C0C08FA0CF909EA050EB3
:10540000224DA84239D005F58065A84237D005F570
:105410008065A84235D005F58065A8420CBF0325FC
:10542000042505FA0CF575456FEA07060FD11D68CE
:1054300035401D605D6835405D60DD683540DD608C
:105440009D6835409D60A56825EA0905A560FF2F88
:1054500094BF0746019F4FEA82043D6888BF203C05
:1054600008FA04FC25EA0C050BFA04F425433D6018
:10547000C4683440C4600132A9E70025D1E70125A2
:10548000CFE70225CDE700BF00040140000801403E
:105490008368194214BF0120002070470AB10161DE
:1054A00070470904FBE7016800224B6913F480632D
:1054B00010D06FF480634B612023026380F83D308D
:1054C00080F83E20036C80F83C2043F00403036422
:1054D00001207047184670472DE9F84606460F46EA
:1054E00091461D464FEA114A3368BAF1010F0CBFCD
:1054F0005C699C6927EA0404A4B2B4FA84F46409E0
:10550000A14501D0002025E06A1CEED0FFF728FA63
:10551000089BC01AA84201D8002DE5D13368BAF122
:10552000010F0CBF5B699B6927EA03039BB2B3FAC7
:1055300083F35B099945D7D10023202201203363EF
:1055400086F83D2086F83E30326C86F83C3042F0DA
:1055500020023264BDE8F8862DE9F04104460F468A
:10556000164698462568686927EA000080B2B8B1F7
:105570006B695A0516D52B68202243F400732B6003
:105580006FF480636B610023236384F83D2084F80B
:105590003E30226C42F004020120226484F83C3048
:1055A000BDE8F081731CDED0FFF7DAF9A0EB08004C
:1055B000B04201D8002ED5D123685A6927EA0202E9
:1055C00092B2002ACED000232022236384F83D200B
:1055D00084F83E30226C42F02002DDE770B50446CC
:1055E0000D46164623685B691B0601D5002070BD79
:1055F0002046FFF758FFC8B96A1CF3D0FFF7B0F98F
:10560000801BA84201D8002DECD123685B6913F000
:105610008003E7D12022236384F83D2084F83E30C4
:10562000226C84F83C3042F0200222640120DEE744
:105630002DE9F043154602689946136885B043F496
:1056400080731360DDE90C780E463B4600224FF074
:105650000111CDF800800446FFF73EFF236838B102
:105660001B68DB0502D54FF40073236403200AE0B6
:1056700006F0FE061E613A46434620461749FFF7EC
:105680006BFF18B1012005B0BDE8F08323680390DB
:105690005A69394603929B69424603932046039B0D
:1056A000FFF79CFF40B1236C042B01BF22681368F5
:1056B00043F400731360E5E7B9F1010F236802D1E9
:1056C000EDB21D61DFE72A0A1A61394642462046DB
:1056D000FFF784FF0028E6D12368F1E7020001000C
:1056E0002DE9FF479A46DDE90C78036815461A68EC
:1056F0000E4642F480621A601A684FF0011142F4BB
:1057000080721A603B460022CDF800800446FFF705
:10571000E3FE236848B11B68DB0502D54FF4007334
:105720002364032004B0BDE8F0875FFA86F906F031
:10573000FE061E613A46434620462949FFF70CFF04
:1057400008B10120EEE7236803905A6939460392B5
:105750009B69424603932046039BFFF73FFF40B1FE
:10576000236C042B01BF2268136843F40073136099
:10577000E7E7BAF1010F23681AD1EDB24246394684
:1057800020461D61FFF72AFF02460028E8D1216864
:1057900020460B6843F480730B603B464FF00111C9
:1057A000CDF80080FFF798FE226860B11368B3E778
:1057B0002A0A1A61394642462046FFF70FFF0028A1
:1057C000CED12368D9E749F001031361204643464F
:1057D0003A460349FFF7C0FE003818BF0120A1E791
:1057E0000200010070B504460D46164623685B6949
:1057F0005B0701D5002070BD2046FFF754FEC8B9F5
:105800006A1CF3D0FFF7ACF8801BA84201D8002D2A
:10581000ECD123685B6913F00403E7D120222363F2
:1058200084F83D2084F83E30226C84F83C3042F00D
:10583000200222640120DEE770B504460D461646BC
:1058400021684B6913F0400301D0002010E04A6941
:10585000D2060ED56FF010024A612022236384F82D
:105860003D2084F83E30226C0120226484F83C30D4
:1058700070BDFFF775F8801BA84201D8002DDFD15D
:1058800023685B6913F04003DAD12022236384F894
:105890003D2084F83E30226C42F02002E4E7000014
:1058A00070B5044608B9012070BD90F83D3003F092
:1058B000FF021BB980F83C20FEF72AFE242384F85F
:1058C0003D3023681A6822F001021A601A6842F417
:1058D00000421A601A6822F400421A6002F060FB6B
:1058E0003F4B65689D4294BF3E4B3F4B98428CBFF7
:1058F00000230123002BD6D1394E3C4BB542B0FBDF
:10590000F3F388BF4FF496762268516821F03F0187
:1059100041EA030182BF73434FF47A76B3FBF6F397
:105920005160116A013321F03F010B431362D169C9
:10593000431E2B4821F44F41854221F0FF0132D80C
:105940006D00B3FBF5F340F6FC700133034242D027
:10595000C3F30B031943D1611168D4E9073021F077
:10596000C00103430B4313609168D4E9030321F49E
:105970000341034321F0FF010B439360D168D4E955
:10598000053021F0FF0103430B43D360136800206F
:1059900043F0010313602023206484F83D3020632A
:1059A00084F83E0080E7A06850B905EB4505B3FBDD
:1059B000F5F30133C3F30B037BB143F40043C9E7B1
:1059C00019206843B3FBF0F30133C3F30B0323B196
:1059D00043F44043BEE70423BCE70123BAE700BF1A
:1059E000A08601007F841E00FF083D0040420F009A
:1059F00010B5044698B12423026880F83D3013683E
:105A000023F001031360FEF7F1FD0020206484F809
:105A10003C0084F83D00206384F83E0010BD012066
:105A2000FCE700002DE9F743044699460F469046EF
:105A30000C9EFEF795FF94F83D300546202B03D0D1
:105A4000022003B0BDE8F083009019230122204614
:105A50003A49FFF741FD0028F2D194F83C30012B80
:105A6000EED00123206884F83C3003684246D90711
:105A700058BF036839465CBF43F001030360036805
:105A800023F400630360212384F83D30402384F82D
:105A90003E30002323640A9B20466362BDF82C300D
:105AA000CDE900656385638D2385254BE3624B4615
:105AB000FFF7BEFD00282AD00120C2E7FFF78EFDC8
:105AC00040B1236C042B01BF2268136843F40073B8
:105AD0001360F1E7636A27681A4612F8011B3961FF
