:020000040800F2
:1000000000500020BD23000811230008132300081E
:10001000152300081723000819230008000000001A
:100020000000000000000000000000001B2300088A
:100030001D230008000000001F23000821230008E2
:1000400005240008052400080524000805240008EC
:1000500005240008052400080524000805240008DC
:1000600005240008052400080524000825230008AD
:100070000524000805240008312300083D2300085A
:1000800005240008052400080524000805240008AC
:100090004923000805240008052400080524000859
:1000A000052400085523000805240008052400083D
:1000B000052400080524000805240008052400087C
:1000C0000524000861230008052400080524000811
:1000D000052400086D2300080524000805240008F5
:1000E000052400080524000805240008000000007D
:1000F0000000000000000000000000000000000000
:0C01000000000000000000005FF808F1A3
:10010C0010B5054C237833B9044B13B10448AFF345
:10011C0000800123237010BDF801002000000000B6
:10012C00BC89000808B5034B1BB103490348AFF366
:10013C00008008BD00000000FC010020BC89000804
:10014C00034613F8012B002AFBD1181A013870470B
:10015C0000220A4930B50B88094D013810F8014FBF
:10016C0014B902B10B8030BD5A1C92B2B2F5807F2B
:10017C00EC5414BF134600230122EFE74C0400207B
:10018C0038030020074A10B51188074C4B1C9BB252
:10019C00B3F5807F138008BF0023605408BF138021
:1001AC0010BD00BF4C0400203803002038B50024DB
:1001BC000D4B0D461C700D4B01463F22184607F0A7
:1001CC0051FF0B4B1F2280F83F402946184607F081
:1001DC0049FF3222074BC4771A600D22064B1A7066
:1001EC00064B1C7038BD00BF1D020020F802002019
:1001FC00420200203C0400201C0200204404002089
:10020C00194B70B55B6806460D4614463BB347F276
:10021C00305316491648002A08BF1C4607F062FFE7
:10022C00144B0F221846314607F01CFF00221249CE
:10023C00C2730A22284607F0A9FE0A2220460F495B
:10024C0007F0A4FE0E4B1B7863B10E4B187810F020
:10025C00020003D0092206200B4B1A7070BD4FF020
:10026C00FF30FBE70120F9E720020020D4890008C9
:10027C0000000020E2020020F20200203C020020DC
:10028C00F80200201D0200201C020020054B1878EB
:10029C0010F0020004D004480378002B08BF0020A3
:1002AC00704700BF1D0200202C020020064A10B52A
:1002BC001188064C4B1C9BB2802B138008BF00236B
:1002CC00605408BF138010BD4A0400206202002055
:1002DC002DE9FF479A46334B81465B680E4617461D
:1002EC00002B59D0DFF8C08098F80040630656D533
:1002FC0014F0080449D10A2201A9384607F046FE39
:10030C0001A8FFF71DFF0138C0B2032839D82748D0
:10031C00FFF71EFF01A8FFF71BFF2548FFF718FF8B
:10032C002246244924480B88A5B2BD4216D302B1FB
:10033C000B8098F80030214C23F00C0343F00C0395
:10034C0088F8003023683BB11D489847236801A802
:10035C00984723681B489847092013E05D1CADB2F1
:10036C00B5F5807F08BF0025721C19F8066092B2A3
:10037C00C6540134524514BF164600262B460122A2
:10038C00D2E70B2004B0BDE8F0870C4B1B680BB117
:10039C000D4898470820F5E74FF0FF30F2E70520AD
:1003AC00F0E700BF200200201D020020208B000877
:1003BC00D88900084C0400203803002018020020C3
:1003CC00DB890008568A0008EE89000802460D4BAE
:1003DC000068516803C390680B4A186000231370BF
:1003EC000A4A13700A4A13800A4A13800A4A138075
:1003FC000A4A13800A4A13700A4A13600A4A1360A5
:10040C00704700BF200200201C0200201E020020AA
:10041C00480400204C040020460400204A0400201C
:10042C001D0200201402002018020020094A136843
:10043C000BB1013B1360084A136823B1013B1360F5
:10044C000BB9064A1370064A13680BB1013B1360D3
:10045C00704700BF3C040020380400201E0200201E
:10046C00400400202DE9F84FAB4BAC4EB3F800B074
:10047C00338800255B4506D0A94F3B780D3B022BFA
:10048C0020D8A6F800B0A74EA74C3368002B40F03C
:10049C003A826423A24D33602B780F2B00F2338207
:1004AC00DFE813F05D0346025F0265026F0279021A
:1004BC00DF02E702F8020703160353035803110285
:1004CC001D022C020223994A994C136033889B45D8
:1004DC00D9D0984AD05C22780C2A00F2EF81DFE860
:1004EC0012F00D005700C200ED01ED0179018E01F3
:1004FC009601A301ED01BE01C201D8010023042223
:10050C009E468D49DFF83482DFF834920B7088F800
:10051C0000205FFA83FC59F82C20A2B9BEF1000F21
:10052C0001D081F800C00022804B7F491A600B7803
:10053C0013F0010F20D03E281ED162F300030B7084
:10054C00804B1A6018E092F804A0013382451CD14C
:10055C00BEF1000F01D081F800C013785278303B07
:10056C00313A03EB830302EB4303774A13800123F5
:10057C002370052388F80030338801339BB2802B1D
:10058C00338004BF00233380A0E74FF0010EC0E797
:10059C00DFF8A4C16A499CF8002051F82220674971
:1005AC00097812F801E0864514D1DFF89CC1BCF83B
:1005BC000030013B9BB2ACF800300BB10D284AD196
:1005CC009378D278303B03EB8303303A02EB43034E
:1005DC002370D1E700229146C1F57F4A8CF80020A8
:1005EC000AF1D30ADFF858C15FFA82F85CF828C028
:1005FC00BCF1000F09D1B9F1000F00F03C81524A57
:10060C0015804D4A82F8008035E19CF800E09CF89A
:10061C000150AEF1300E0EEB8E0E554405EB4E052F
:10062C00ADB27F2D1BD81CF801E0864517D1464B87
:10063C001D80B9F1000F02D03F4B83F8008055B9F3
:10064C009CF802309CF80320303B03EB8303303AD8
:10065C0002EB43032370394B013119708CE74FF0D7
:10066C0001090132BEE70A2886D10022324B2270E2
:10067C001B78023B0D2B3FF67FAF01A151F823F005
:10068C00C5060008DF060008F90600088505000805
:10069C00650700086507000887070008930700082E
:1006AC00AB0700088707000885050008CB07000882
:1006BC0085050008D50700083B78022B7FF45CAF5A
:1006CC000022184B1A60184A137843F02003137059
:1006DC0052E7154A137819077FF54EAF23F04803FC
:1006EC0013701A4B1A881A4B1A8045E70D4B1A6077
:1006FC003B78062B0C4B02BF1A7842F020021A7082
:10070C001A7842F002021A70124B1B68002B3FF44D
:10071C0033AF032098472FE74A04002046040020FB
:10072C001C0200203C0400201D0200203804002084
:10073C001E02002062020020500400205104002000
:10074C00508C0008400400204E0400204C04002073
:10075C004804002014020020914A137823F042032D
:10076C001370904B1B680BB1002098473B78062BFD
:10077C003FF402AF0F233B70FEE6894B1A786FF300
:10078C0086121A70F8E6864B1A786FF3C3021A7049
:10079C00844B1B68002B3FF4EFAE0A20BAE7824B68
:1007AC001A607F4A137823F0600343F060031370E0
:1007BC007C4B1B68002B3FF4DFAE0720AAE7784A7E
:1007CC00137823F0420382E7754A137823F042032F
:1007DC001370CFE7754A2C28126807D106232370B3
:1007EC00002A3FF4C9AE72489047C5E60021013B90
:1007FC0021703380002A3FF4BFAE6E48F4E7222804
:10080C007FF4BAAE0723237000226B4B6CE72228CF
:10081C0003D0694A1388102B01D10823D8E6591C40
:10082C001180664AD054A7E60A287FF4A5AE0023AF
:10083C00614A23701188614A0F299BBF5354584950
:10084C0013700A789FBF42F020020A70564A136058
:10085C00544B1B68002B3FF48FAE04205AE72C2816
:10086C0009D10B23CFE73A2801D10C23B0E6A0F134
:10087C003002092A04D90022013B227033807BE626
:10088C004D4A138803EB830300EB4303303B138087
:10089C0072E64B4B9B6803B19847474A1388013B60
:1008AC009BB21380002B7FF467AE23703F4B1B6809
:1008BC00002B3FF461AE434898475DE60023424A63
:1008CC002370136058E63E4B00201B689847374B4B
:1008DC001B680BB13D4898470E232B7013E0384B27
:1008EC0001201B689847314B1B680BB1384898475F
:1008FC000F232B704FF4FA73336004E001230022B2
:10090C002B70344B1A702378DA0740F12A81324A63
:10091C0012685AB962F30003012223702F4B30493D
:10092C001A700A2308882F4933600880BDE8F88FB5
:10093C00284A13782BB1013BDBB213701BB90D2382
:10094C00CBE704231370237827486FF345132370E8
:10095C00FFF7FEFB154B1B680BB12448984702238D
:10096C00BBE72378980640F1A2800323B5E7204823
:10097C00FFF7EEFB0D4B1B680BB11E489847042389
:10098C00ABE71D48FFF7E4FB084B1B680BB11B489A
:10099C0098470523A1E72378990731D507239CE7CE
:1009AC001D020020140200203C040020180200202C
:1009BC00068A00081B8A00084E0400202C02002026
:1009CC00200200202F8A000838040020428A0008E8
:1009DC00588A000844040020400400201C02002017
:1009EC004C04002048040020F48A00086E8A000899
:1009FC00438B00087C8A0008128B0008908A000840
:100A0C006D4F3B78002B3FF47EAF6C48FFF7A0FB9B
:100A1C002220FFF7B7FB3846FFF79AFB2220FFF79F
:100A2C00B1FB2C20FFF7AEFB2220FFF7ABFB644899
:100A3C00FFF78EFB2220FFF7A5FB0D20FFF7A2FB93
:100A4C000A20FFF79FFB5F4B1B680BB15E48984772
:100A5C0023786FF34513237006232B7040F2DC537D
:100A6C004AE723789A0622D5072304222B70574B8A
:100A7C0048E70022564B57481A70FFF769FB514B59
:100A8C001B680BB15448984723786FF345132370B8
:100A9C00082322E723789B0601D509231DE74B4A3F
:100AAC001378013BDBB21370002B7FF477AF01237B
:100ABC0013E74A4B1B78002B3FF425AF4848FFF750
:100ACC0047FB404B1B680BB1464898470A2304E789
:100ADC004548FFF73DFB2220FFF754FB4348FFF747
:100AEC0037FB2220FFF74EFB2C20FFF74BFB22207D
:100AFC00FFF748FB3948FFF72BFB2220FFF742FB9F
:100B0C002C20FFF73FFB3A48FFF722FB2C20FFF786
:100B1C0039FB3848FFF71CFB2C20FFF733FB302048
:100B2C00FFF730FB0D20FFF72DFB0A20FFF72AFB08
:100B3C00244B1B680BB130489847237823F0600393
:100B4C0023700B232B70C823D6E623789F06AED5D3
:100B5C000C23C2E623789807A9D559069DD5002306
:100B6C00CAE6264D26492A88098891423FF4DEAE12
:100B7C00244E5F07B05C02D53E2808BF0A20224BEA
:100B8C005B68984700283FF4D1AE22782B88510738
:100B9C000AD5F15C3E2907D1052122F0050242F06D
:100BAC0001022270194A116001339BB2B3F5807FA8
:100BBC0008BF00232B80B9E6F8020020398B00080F
:100BCC004202002018020020A48A000844040020DD
:100BDC002C020020F98A0008B78A0008E2020020E3
:100BEC00048B0008C88A00082C8B00080000002029
:100BFC00F20200203C020020DE8A0008480400209B
:100C0C004C04002038030020200200204004002067
:100C1C00014B1860704700BF140200202DE9F04111
:100C2C0001254FF47A78002486B00DF117072B4676
:100C3C007522D021CDE90158009706468DF8174052
:100C4C0002F04CFC9DF81730682B51D12B466B22CF
:100C5C00D021CDE90158304600978DF8174002F0AD
:100C6C00ADFB07231922D021CDE901588DF817309F
:100C7C0030462B46009702F0A1FB2B461C22D021BC
:100C8C00CDE90158304600978DF8174002F096FBDD
:100C9C002B461B22D021CDE90158304600978DF808
:100CAC00174002F08BFB0423CDE901588DF8173067
:100CBC002B46114D1A22D0213046009702F07EFBB4
:100CCC000E222146C5E90344C5E90544C5E909449A
:100CDC00C5E90B440948C5E90744C5E90D4407F0CB
:100CEC00B9F923460B2C98BF2B5501340E2CF9D196
:100CFC0006B0BDE8F08100BF18130020520400209C
:100D0C002DE9F0434FF47A7780463D46274E284C28
:100D1C0085B00E233B22D021CDE900634046012350
:100D2C00029502F0DBFB3188A3697288C9BA1944B9
:100D3C00E369D2BA1A44B388206AB6F808C0DBBAA1
:100D4C000344206BB6F80AE09CFABCFC8444606B4C
:100D5C009EFABEFE8644B089D4F83890C0BA013FE2
:100D6C004844BFB2A161E2612362C4F830C0C4F848
:100D7C0034E0A063002FCCD193FBF5F391FBF5F19C
:100D8C0092FBF5F29CFBF5FC9EFBF5FE90FBF5F05F
:100D9C00A3F580436182A282E382A4F82AC0A4F85E
:100DAC002CE0E08505B0BDE8F08300BF52040020C4
:100DBC00181300200E2307B50193054B3B2200931B
:100DCC00D021012302F08EFD03B05DF804FB00BFBF
:100DDC005204002030B51648164B04885D8A4188B1
:100DEC0064BA641B9D8A828849BA491BDD8A52BA4F
:100DFC00521B89B292B2A4B2D9811A8259809A80BC
:100E0C004189828900899C811C805C8D40BA001BC1
:100E1C009C8D49BA091BDC8D52BA121B80B289B267
:100E2C0092B2D88019815A819884D9841A8530BDA0
:100E3C0052040020181300200021F0B500F26C576A
:100E4C00C51D00F10E0615F8012F36F802CF02EB86
:100E5C00811457F8043F00EB4404B4F870E1634488
:100E6C00A3EB0E03013201313B6002F03F029B0900
:100E7C000829A4F870C1A6F850312A70E3D1F0BD4E
:100E8C0070B400F11E0200F5AF75114600230A4C38
:100E9C00013334F8026BDBB2142B21F8026FF7D15B
:100EAC002832AA42F1D1002101604160102270BCAD
:100EBC0000F5B07007F0CEB89C8C0008F0B500F5CA
:100ECC00AF7100F11E0200F5B7761446002331F81D
:100EDC00025F34F8027FAF4298BF03700533DBB278
:100EEC00642BF6D1B14200F1010002F12802ECD1E1
:100EFC00F0BD002383724371837103724375837554
:100F0C00062380F82030704730B50A44914200D156
:100F1C0030BD90F8203004695D1C80F8205011F829
:100F2C00015BE55490F82030047D234080F820309C
:100F3C00ECE790F82030026910B55C1C80F820407A
:100F4C00D15490F82030027D134080F8203010BD31
:100F5C00837DF0B5057D90F8204007332B409C42F3
:100F6C001AD0174C531C237100230632A171C37580
:100F7C00D1B2827D0669DDB2A94206EB02070CD81C
:100F8C00C37D013282753B70027D837D1340837576
:100F9C0007331A4080F82020F0BD062D98BFE55C81
:100FAC0003F1010398BFB554827D0569C67DAD5C24
:100FBC0001327540C575057D2A408275D9E700BFA1
:100FCC00040000208379026810B55C1C8471D15434
:100FDC00837902791340837110BD30B50A44914274
:100FEC0000D130BD837904685D1C857111F8015BFB
:100FFC00E5548379047923408371F0E70346D9796A
:10100C0000684A1CD2B2DA71405C03490870197945
:10101C000A40DA71704700BF600400202DE9F041EE
:10102C00867943790446B34206D000254FF0010877
:10103C00304F63799E4204D1E369002B4BD1BDE85C
:10104C00F0812268A17AD25C062942D8DFE801F04F
:10105C000412121220122C003B78934203D140F25E
:10106C0001532273638122796379134001331A404F
:10107C006271DEE7785C904203BF237B0131534001
:10108C0003F1FF3307BF2373A172A5726371EAE703
:10109C00217B62725140227902331340E3710523A4
:1010AC0021732572A372DEE7637A217B013BDBB2ED
:1010BC00637213B151402173D5E78A42A372D2D126
:1010CC00A3691BB12046E1799847CCE784F80880E6
:1010DC00C9E7A572C7E7627DA17D9142AFD02169B6
:1010EC00885C98470028AAD0637D227D0133134089
:1010FC006375A4E704000020C37A23B1013BDBB283
:10110C00C37203B98372704700230222C0E9013312
:10111C0003808270704700004378032B24D8DFE8EB
:10112C0003F002110A1B114B02781B789A4201D171
:10113C000223437070470D4B02781B789A4213D1EF
:10114C000123F6E7094B02781B78B3FA83F35B09AA
:10115C009A42EFD10323ECE7044B02781B78B3FAE5
:10116C0083F35B099A42EBD10023E2E7640400208D
:10117C007FB501230A22CDE901320DF117028DF85A
:10118C00171000927821002202F018F907B05DF8D0
:10119C0004FB1FB501230DF10F028DF80F10009207
:1011AC0078210022019302F0D7FA05B05DF804FB18
:1011BC0000230649021E18BF012201335242B3F527
:1011CC00806F01F8012BF5D1704700BF6C04002033
:1011DC0013B51A4C2378032B09D8DFE803F002115E
:1011EC001315174B19785039C9B2FFF7D2FF237872
:1011FC000133DBB2032B15D82370012002B010BDD4
:10120C000021F2E71021F0E7802301930C4B7821A9
:10121C001A780C4B03EBC21300934022012302F00B
:10122C009BFAE4E70020064A207013780133DBB206
:10123C00072B01D81370E0E71070DFE76D08002072
:10124C006C0800206C040020030630B510D43F2934
:10125C000ED80D4B0D4C1D79CB0801F0070145B193
:10126C004AB900EBC3100123225C8B401343235477
:10127C0030BD012AF5D0012200EBC310235C8A405B
:10128C0023EA0203F3E700BF660400206C0400208D
:10129C002DE9F04F87B0054606A800E90600DFF8F7
:1012AC008CA09DF810B0BAF80060019306EB0B030C
:1012BC007F2B39DCBAF802309DF81190009303EBC8
:1012CC0009023F2A30DC4FF00008A5F1200409FB8D
:1012DC0004F46400C14506D85E44AAF800602846B0
:1012EC0007B0BDE8F08F0027059A135B0293009BB3
:1012FC0008EB0301C9B2BB4503D808F1010802345D
:10130C00E8E7029BB81903FA07F2130456BF019BD6
:10131C00019AB3FA83F2C0B258BF52090391013754
:10132C00FFF792FF0399E6E70025D8E76604002053
:10133C0073B56D461E4685E80600441E14F8010F71
:10134C0040B195E806003346FFF7A2FF034620782C
:10135C008342F3D002B070BD2DE9F0410446642005
:10136C0001F094F8AE212046FFF702FF202105463C
:10137C002046FFF7FDFE102105442046FFF7F8FE3E
:10138C00B02105442046FFF7F3FEC8210544204652
:10139C00FFF7EEFE002105442046FFF7E9FE102181
:1013AC0005442046FFF7E4FE402105442046FFF7A4
:1013BC00DFFE812105442046FFF7DAFEFF210544BC
:1013CC002046FFF7D5FEA12105442046FFF7D0FEAD
:1013DC00A62105442046FFF7CBFEA8210544204654
:1013EC00FFF7C6FE3F2105442046FFF7C1FEA421AE
:1013FC0005442046FFF7BCFED32105442046FFF7E9
:10140C00B7FE002105442046FFF7B2FED521054466
:10141C002046FFF7ADFEF02105442046FFF7A8FE5D
:10142C00D92105442046FFF7A3FE2221054420467E
:10143C00FFF79EFEDA2105442046FFF799FE1221A4
:10144C0005442046FFF794FEDB2105442046FFF7B8
:10145C008FFE202105442046FFF78AFE8D2105448E
:10146C002046FFF785FE142105442046FFF780FE39
:10147C00AF2105442046FFF77BFE46194FF00105CE
:10148C004CD13046FFF794FE0222254B4FF00E084C
:10149C009A701E705E700D23224C234F638097E868
:1014AC0006002B4621486571A4F80080FFF740FF29
:1014BC0097E8060020231E4863802B46A4F8008082
:1014CC00FFF736FF97E806004D23238010231948B9
:1014DC0063802B46FFF72CFF4C2323802523164FCC
:1014EC00638097E806002B461448FFF721FF97E826
:1014FC000600452323803323114863802B46FFF7D6
:10150C0017FF97E806005523238003230D486380BB
:10151C002B46FFF70DFF3046BDE8F0812846FBE770
:10152C00F8120020660400200C000020C48C000877
:10153C00C88C0008CC8C000814000020D18C00084A
:10154C00D58C0008DD8C00082DE9F74F00240546EA
:10155C00904627468A46802300F107094FEAE9099D
:10156C00BAB292451CD908EB040200261FFA85FB7F
:10157C0001920FE00198D108415C02F0070243FA96
:10158C0002F2114205D00122F9B2F0B2FFF75CFE73
:10159C0080230136B2B29345ECD801374C44DFE7D7
:1015AC0003B0BDE8F08F000055232DE9F041164E35
:1015BC00CF1D33800323154C0A780D4673803846B3
:1015CC004B78134906F026FD94E8060001233846B3
:1015DC00FFF7AEFE6523338025237380AB783BB9D0
:1015EC0094E8060001230B48BDE8F041FFF7A0BECC
:1015FC00012B15BF0123D4E90012D4E900120648CF
:10160C0018BF0648F0E700BF660400201400002055
:10161C00E38C0008ED8C0008F18C0008F58C0008B8
:10162C000246054B1B68186810F080001EBF034B68
:10163C0001205A60704700BF100D00200038014097
:10164C00072808D8DFE800F00B0707040704070891
:10165C00044B054A1A607047024B044AFAE7014BE7
:10166C00034AF7E720000020A0A0A0F0AAF0AAF0FF
:10167C0000FFAAFA02464FF48071014801F0F4BB56
:10168C000008014001460148FFF79CBC7413002080
:10169C0070B50446FFF7B2FCE02805460DD000F10A
:1016AC001003DBB2052B3AD8A0F1F003052B36D88A
:1016BC00DFE803F01135171E2536FEF7E7FD102283
:1016CC0001462046FFF720FC112229462046BDE8A2
:1016DC007040FFF73DBC0D212046FFF72AFC02228B
:1016EC00F3E7082220461449FFF70EFC0922ECE729
:1016FC000C2220461149FFF707FC0D22E5E7204696
:10170C00FFF77CFC0E4D28702046FFF777FC29462E
:10171C0068700C48FFF748FF01220B4B1A7070BD24
:10172C000A4E20463178FFF704FC20463179FFF74A
:10173C0000FC0322C9E700BF5C0D00201813002039
:10174C00F81200202C0C00206E0800206C130020D6
:10175C00CAB201460148FFF740BC00BF98130020F5
:10176C0002680B4B9A4211D10A4A1378013BDBB247
:10177C00137033B908490B7843F001030B7028231D
:10178C00137008220549064800F088BF704700BF57
:10179C00002C014026000020FC0A00206C0D0020CB
:1017AC00000B00200148FFF747BB00BF5C0D002079
:1017BC000268084B10B59A420AD1074C2078FEF704
:1017CC0075FD2146BDE810400122044804F063BFBA
:1017DC0010BD00BF00380140EF0A0020100D0020A2
:1017EC000F4A08B5137823F0030343F00203137078
:1017FC000C4A13780BB1013B13700B4A13780BB1E5
:10180C00013B13700948FFF759FBFEF70FFE084820
:10181C00FFF772FCBDE808400648FFF76DBC00BF3F
:10182C00FC0A002025000020240000205C0D002074
:10183C0074130020981300200A22104B10B51A7054
:10184C000F4C104B22681B684FF400511A4214BF06
:10185C00002201220C4801F007FB23680B4A5B08AD
:10186C0008BF4FF00043236013780BB1013B13709A
:10187C00074A13780BB1013B137010BD25000020F3
:10188C001C00002020000020001001402700002038
:10189C002800002038B5124B04461D7885B9042267
:1018AC004FF480510F481A7001F0D8FA0E4B187093
:1018BC001846FFF731FC6378012B02D0032B08D0BC
:1018CC0038BD2A46BDE838404FF40051074801F0B6
:1018DC00CBBA074A1378013303F002031370EFE716
:1018EC0028000020000C0140EC12002000100140E8
:1018FC00580D002038B5184C617DA27D91420FD057
:10190C00237D1648521A1A40027001332069FEF7E3
:10191C00DFFC092804D10122A37D6375104B9A705A
:10192C00104C637DA17D8B4214D028BF217D206992
:10193C0028BF0131094DC91AC9B21844297006F0E3
:10194C0065F938B9637D2A781344227D1340637599
:10195C00034B987038BD00BF74130020BC130020DB
:10196C00F81200209813002010B50C4C23789BB96A
:10197C000D210B48FFF7DDFA0222F0210848FFF792
:10198C00E7FA0D210748FFF7D4FA0222F0210548A7
:10199C00FFF7DEFA3223237010BD00BF27000020B2
:1019AC00741300209813002010B5114B1A780AB943
:1019BC0064221A700F4802F0CDFE202806D10E4C7E
:1019CC0023781BB10B48FFF703FC2070094802F089
:1019DC00C1FE20280AD1094C23789B0706D505485F
:1019EC00FFF7E8F923786FF34103237010BD00BFB4
:1019FC00240000202C0C00206E080020FC0A002083
:101A0C0010B594B0142200210CA806F023FB14226C
:101A1C0000210DEB020006F01DFB1022002101A895
:101A2C0006F018FB02244FF480330122CDE9114358
:101A3C00CDE90A234FF4E0130AA80E92139303F096
:101A4C001DFD08B172B6FEE70F23CDE905344FF446
:101A5C0080630790CDE90830214605A803F0D0FE3D
:101A6C0008B172B6FEE7122301934FF40043CDE99F
:101A7C00033001A803F080FF08B172B6FEE714B082
:101A8C0010BD000080B592B000F0DCFC4FF47A7011
:101A9C0000F0FCFCA848A94B00240360A84B7F2550
:101AAC008360A84BA84E4360FEF790FCA748FFF755
:101ABC00AFF8A749A748FEF779FB47F23052A64882
:101ACC001146FEF79DFBA548A54B86610360A54B0F
:101ADC00057103610575C461FFF70BFAA248A34BAE
:101AEC00C0E906640360A24B05710361FF23037513
:101AFC00FFF7FFF99F48A04DFFF706FB9F48FFF744
:101B0C00BFF9FFF77DFF102221460BA806F0A2FAC1
:101B1C00AB69012243F01003AB61AB694FF4005188
:101B2C0003F010030193019BAB69954843F020032C
:101B3C00AB61AB69012703F020030293029BAB69F5
:101B4C00022643F00403AB61AB694FF4805903F0F8
:101B5C0004030393039BAB694FF4807843F00803B1
:101B6C00AB61AB6903F008030493049B01F07CF9AF
:101B7C0022464FF48071834801F076F94FF40053FC
:101B8C007F480BA9CDE90B370D940E9601F08CF81C
:101B9C007D480BA9CDE90B940D9701F085F8794898
:101BAC000BA9CDE90B87CDE90D4601F07DF86B69EA
:101BBC0022463B436B616B6921463B400B200093F3
:101BCC00009B00F0AFFE0B2000F0DCFE224621460D
:101BDC000E2000F0A7FE0E2000F0D4FE2246214677
:101BEC000F2000F09FFE0F2000F0CCFE10222146AB
:101BFC000BA806F02FFA4723644DDFF894C1284652
:101C0C00C5E900C3F923CDE90744C5E90334C5E9A7
:101C1C000544AC6004F0CEF808B172B6FEE7284675
:101C2C000BA9CDF82C9004F0ACF908B172B6FEE714
:101C3C00CDE9070007A9284604F09CFA034608B131
:101C4C0072B6FEE74FF4E1325248534CC0E902330E
:101C5C00C0E900420C220361C0E90523C36104F012
:101C6C0021FB054608B172B6FEE705F055FF4B4C5B
:101C7C004B4B204623604FF46023E3610823CDE9EE
:101C8C000B550D95C4F80880257325756560236187
:101C9C0000F0B8FD08B172B6FEE7CDE90B070BA951
:101CAC0020460D9600F040FC08B172B6FEE72046C7
:101CBC000BA9CDE90B7600F037FC08B172B6FEE744
:101CCC00032520460BA90B960C9500F02DFC08B1B2
:101CDC0072B6FEE70B95042520460BA90C9500F077
:101CEC0023FC08B172B6FEE70B95052520460BA91F
:101CFC000C9500F019FC08B172B6FEE706242748D3
:101D0C000BA90B950C9400F00FFC08B172B6FEE712
:101D1C000B94072421480BA90C9400F005FC08B186
:101D2C0072B6FEE708231D480BA90B940C9300F028
:101D3C00FBFBB8B372B6FEE7F00A00208116000870
:101D4C00911600082D1600089D1600084D16000867
:101D5C00C0A10008CDA10008E3A100087413002065
:101D6C006F0800206F09002098130020EF08002056
:101D7C00EF090020EC120020001002405C0D002046
:101D8C000010014000080140000C0140800C0020B4
:101D9C00002C0140100D002000380140000B0020E9
:101DAC0000240140744C754B012523604FF46023D3
:101DBC00CDE90B000D90A06020732075606020466B
:101DCC00E361256100F01EFD08B172B6FEE7022347
:101DDC000D900BA92046CDE90B3500F0A5FB044670
:101DEC0008B172B6FEE70146102207A806F032F9D8
:101DFC0021461C220BA8CDE9054406F02BF94723FC
:101E0C005F4D60492846C5E9001342F20F73AC6080
:101E1C00C5E90334AC6103F0CDFF08B172B6FEE73F
:101E2C004FF48053284607A9079304F0AAF808B189
:101E3C0072B6FEE7284603F0E9FF08B172B6FEE77A
:101E4C00CDE9050005A9284604F094F9024608B12D
:101E5C0072B6FEE760230D90CDE90B300F900BA905
:101E6C00284604F02BF808B172B6FEE70422444869
:101E7C000BA904F023F808B172B6FEE7082240481B
:101E8C000BA904F01BF808B172B6FEE70C223C4813
:101E9C000BA904F013F8064608B172B6FEE73848F1
:101EAC0000F0C4F9384C394A394B2046C4E90023B8
:101EBC004FF48043C4E90266C4E90436C4E90666FB
:101ECC00266201F0D3F9064608B172B6FEE7314836
:101EDC0003F066FE2A4803F03DFE3146284804F024
:101EEC0047F90421264804F043F90821244804F05A
:101EFC003FF90C21224804F03BF92B6826495E631C
:101F0C00081F9E63DE631E6400F05CF8234805F036
:101F1C0093FE01222249234804F0BDFB2046FEF724
:101F2C007DFE2046FEF7ECFE20461F4CFFF714FA10
:101F3C00402180201D4AFFF707FB1D4F26701D4DC9
:101F4C001D4E3B780BB9FFF777FC2378DB0701D5E7
:101F5C00FFF746FCFFF708FD3046FFF79BFCFFF749
:101F6C00C9FCFEF77FFA2846FFF758F81348FFF72D
:101F7C0055F8FFF719FDE4E7300B0020002801406D
:101F8C00C80C0020000800402C0C00200058004019
:101F9C00A0860100800C0020701300205D17000843
:101FAC00EF0A0020100D0020FC0A002000F80008A9
:101FBC002500002074130020EC1200209813002040
:101FCC0072B6FEE70023038043800B804B80704782
:101FDC000E4B82B09A6942F001029A619A6902F042
:101FEC0001020092009ADA6942F08052DA61DB69F0
:101FFC00074A03F080530193019B536823F0E0637D
:10200C0043F00073536002B0704700BF00100240F1
:10201C0000000140102230B5054689B00DEB0200DE
:10202C00002106F017F82B682B4A934235D12B4B25
:10203C00FF219A692A4842F400729A619A69294CE4
:10204C0002F400720092009A9A6942F004029A61BA
:10205C009B6903F004030193019B0323CDE9041353
:10206C0004A900F021FE4FF480724FF0800C002385
:10207C00C4E903C24FF480621B48C4E90523C4E9D8
:10208C0000032046A360E36100F09EFC08B1FFF75B
:10209C0097FF2C62656209B030BD144A9342FAD1A5
:1020AC000E4B0F489A6904A942F480629A619A69AE
:1020BC0002F480620292029A9A6942F004029A61D6
:1020CC009B69042203F004030393039B0323CDE9D0
:1020DC00042300F0E9FDDEE700240140001002407B
:1020EC0000080140600B002008000240002801405D
:1020FC0030B5054687B01022002102A805F0AAFFD2
:10210C002A682B4B9A4251D12A4C4FF44061A36957
:10211C00294843F00803A361A36903F00803009363
:10212C00009B1223CDE90213032302A9059300F0AF
:10213C00BBFDE3694FF0800C43F48003E361E3697A
:10214C004FF4007203F480030193019B00231B4C9A
:10215C001B48C4E903C2C4E900032046C4E90533A3
:10216C00A360E36100F030FC08B1FFF729FF1023F6
:10217C00144AAC636562144CC4E90023002380222A
:10218C002046C4E90232C4E90433C4E9063300F042
:10219C001BFC08B1FFF714FF0022212011466C63D1
:1021AC00656200F0BFFB212000F0ECFB07B030BDF6
:1021BC000058004000100240000C0140A40B00200D
:1021CC005800024044000240E80B002007B50368A9
:1021DC00134A934214D1134B19209A6942F40062AA
:1021EC009A6100229B69114603F400630093009BE3
:1021FC0000F098FB192003B05DF804EB00F0C2BBB3
:10220C00094A934209D1074BDA6942F00402DA61B8
:10221C00DB6903F004030193019B03B05DF804FB3D
:10222C00002C0140001002400008004010B504468C
:10223C0086B01022002102A805F00CFF22680D4B7D
:10224C009A4214D103F502339A690B4842F0080202
:10225C009A619B694FF4707203F008030193019B20
:10226C00022302A9CDE90223059300F01DFD06B05F
:10227C0010BD00BF00080040000C014010B5044622
:10228C0086B01022002102A805F0E4FE22681B4B48
:10229C009A4230D103F558439A69194842F4804266
:1022AC009A619A6902A902F480420092009A9A6992
:1022BC00002442F004029A619B694FF4007203F00F
:1022CC0004030193019B0223CDE90223032305930D
:1022DC0000F0EAFC4FF48063094802A9CDE902340E
:1022EC00049400F0E1FC25202246214600F01AFB64
:1022FC00252000F047FB06B010BD00BF00380140A0
:10230C0000080140FEE7FEE7FEE7FEE7FEE7704748
:10231C007047704700F0A8B8014800F02DBC00BF12
:10232C00600B0020014800F027BC00BFE80B002028
:10233C00014800F021BC00BFA40B0020014802F0B2
:10234C00B1BA00BF9C1A0020014803F058BC00BF72
:10235C00800C0020014801F0B5BD00BF2C0C002002
:10236C00014804F035B800BF100D00200B4A03469D
:10237C00116810B509B90A491160106809490A4C6D
:10238C000344091B8B4206D905F080FE0C23036025
:10239C004FF0FF3010BD1360FCE700BFC0130020EE
:1023AC00F8200020005000200004000070470000BE
:1023BC00FFF7FCFF0B480C490C4A002302E0D458F1
:1023CC00C4500433C4188C42F9D3094A094C002375
:1023DC0001E013600432A242FBD305F05DFEFFF76F
:1023EC0051FB704700000020F8010020C0A200083B
:1023FC00F8010020F4200020FEE7000038B50E4B59
:10240C0005461A784FF47A73B3FBF2F30B4A106853
:10241C00B0FBF3F000F0C4FA044658B90F2D09D8FC
:10242C00024629464FF0FF3000F07CFA2046044B60
:10243C001D6038BD0120FCE7300000202C0000207E
:10244C0034000020074A08B51368032043F010033A
:10245C00136000F055FA0F20FFF7D0FFFFF7B8FD1F
:10246C00002008BD00200240034A044B11681B7871
:10247C000B441360704700BFC413002030000020D1
:10248C00014B1868704700BFC413002038B50446D0
:10249C00FFF7F6FF0546631C1EBF044B1B78E418C0
:1024AC00FFF7EEFF431BA342FAD338BD30000020E8
:1024BC00436A10B59A6A12F0500F1BD19A6A42F413
:1024CC0000729A621A68926802F46022B2F5602F68
:1024DC000CD11A7B52B99A6A22F480729A629A6A67
:1024EC00D2045EBF9A6A42F001029A621846FFF764
:1024FC0059F910BD1B6ABDE810401B6B184770479B
:10250C0008B5406AFFF7FBFF08BD7047406A08B585
:10251C00836A43F040038362C36A43F00403C362DB
:10252C00FFF7F3FF08BD0000002373B5019390F88B
:10253C0024300446012B6CD0012380F824304D68E4
:10254C000268062D086805EB850322D81F26556BFB
:10255C00053B9E4025EA060500FA03F32B43536323
:10256C0009288B6800EB40054FF0070129D9D66884
:10257C001E3DA94026EA0101AB400B43D360A0F1FC
:10258C001003012B25D90020002384F8243002B03D
:10259C0070BD0C2D4FF01F0509D8166B233B9D40C9
:1025AC0026EA050500FA03F32B431363D8E7D66A32
:1025BC00413B9D4026EA050500FA03F32B43D36209
:1025CC00CEE71069A94020EA0101AB400B4313612F
:1025DC00D9E7114B9A4216D193681B02D3D4936856
:1025EC00102843F400039360CDD10C4B0C4A1B68AC
:1025FC00B3FBF2F30A2253430193019B002BC2D08D
:10260C00019B013BF8E7A36A012043F02003A3627E
:10261C00BAE70220BBE700BF002401402C000020D9
:10262C0040420F00002337B50193036804469A68B3
:10263C00D20702D5002003B030BD9A6842F00102E7
:10264C009A60144B144A1B68B3FBF2F30193019B81
:10265C00E3B9FFF715FF054623689B68DB07E9D450
:10266C00FFF70EFF401B0228F6D923689B6813F076
:10267C000103F1D1A26A012042F01002A262E26AC7
:10268C0084F8243042F00102E262D4E7019B013B62
:10269C00DCE700BF2C00002040420F002DE9F04188
:1026AC00404B9046026804469A420F4602D03E497F
:1026BC008A4203D15B6813F4702F6ED194F82430E6
:1026CC00012B6CD00123204684F82430FFF7AAFF9D
:1026DC00064600285DD1A56A2168334B25F4706548
:1026EC0025F0010545F480759942A56204D12D4A67
:1026FC00536813F4702F3ED1A36A23F48013A362A2
:10270C004B685A0505D5A36A23F4405343F4805310
:10271C00A362A36A206A13F4805318BFE36A3A4693
:10272C0018BF23F00603E362002384F824301F4B08
:10273C004C3183621E4BC3621E4B03636FF002036A
:10274C0041F84C3C51F8443C43F4807341F8443C10
:10275C00434600F06BF923689A6802F46022B2F5E4
:10276C00602F9A680CBF42F4A00242F480129A6067
:10277C003046BDE8F081A36A43F48013A36253682A
:10278C005B0541BFA06A20F4405040F48050A06229
:10279C00BFE7002384F82430EAE70126E8E70226A5
:1027AC00E6E700BF0024014000280140BD240008DA
:1027BC000D2500081925000838B5036804469A68E9
:1027CC00D10701D4002038BD9A6822F001029A602A
:1027DC00FFF756FE054623689B68DB07F2D5FFF72B
:1027EC004FFE401B0228F6D923689B68DA07F2D506
:1027FC00A36A012043F01003A362E36A43F00103D0
:10280C00E362E0E7F8B5044600286DD0836A23B98B
:10281C00C36280F82430FFF7FDFB2046FFF7CCFFA6
:10282C00A36A13F0100361D100285FD1A26A61681A
:10283C0022F4885222F0020242F00202E569A668F4
:10284C00A262227B2943B6F5807F41EA420136D051
:10285C00771E7D427D412D02277D012F06D182BB43
:10286C00A269013A45EA423242F400652268B6F5A3
:10287C00807F576827F4694745EA070555609768D4
:10288C001D4D05EA070545EA0105956001D0012EAD
:10289C0002D12369013B1B05D56A25F470052B4336
:1028AC00D3629268154B1340994213D10023E36213
:1028BC00A36A23F0030343F00103A362F8BD35467A
:1028CC00CAE7A26A42F02002A262E26A42F0010266
:1028DC00E262CBE7A36A23F0120343F01003A36276
:1028EC00E36A43F00103E3620120E7E7A36A43F0E4
:1028FC001003A362F8E700BFFDF7E1FFFE0E1FFF18
:10290C0007490302CA6803F4E06322F4E06212048C
:10291C00120C134343F0BF6343F40033CB60704796
:10292C0000ED00E0154B30B5DC68C4F30224C4F1B3
:10293C000703251D042B28BF0423062D4FF0FF355C
:10294C0094BF0024033C05FA03F321EA0303A540DA
:10295C0022EA0502A340002843EA0203ACBF00F1BF
:10296C006040074A4FEA0313DBB2ABBF00F561408E
:10297C0000F00F0080F80033135430BD00ED00E080
:10298C0014ED00E0002807DB01234109034A00F0A5
:10299C001F00834042F82130704700BF00E100E087
:1029AC000138B0F1807F0BD24FF0E023F021054AC3
:1029BC00586182F823100020072298611A61704731
:1029CC000120704700ED00E0034610B540B3142120
:1029DC000068144A0244B2FBF1F292001A64124AE3
:1029EC00DA63022283F82120D3E901242243DC6834
:1029FC00016822431C6921F47F5122435C6921F058
:102A0C00300122439C692243DC6922430A43026061
:102A1C0000200122986383F8200083F8212010BD48
:102A2C000120FCE7F8FFFDBF00000240F0B50546B1
:102A3C0090F82000012836D0012085F8200095F868
:102A4C00210000240128C6B24FF0020028D185F8DD
:102A5C002100AC632C68206820F001002060D5E9CF
:102A6C000F7006FA00F0786063606B68102BEB6AED
:102A7C000BBFA260A160E160E2604BB1236843F040
:102A8C000E0300202360236843F001032360F0BD94
:102A9C00236823F004032360236843F00A03F0E760
:102AAC0085F82040F3E70220F1E790F82120034657
:102ABC00022A06D0042282630120002283F82020FF
:102ACC0070470268C06B116821F00E01116011682B
:102ADC0021F00101116001211A6C01FA02F242602D
:102AEC00002083F82110E8E710B590F82130022B74
:102AFC0003D004238363012010BD03681A6822F0FD
:102B0C000E021A601A6822F001021A60184A9342E7
:102B1C001FD0143293421ED0143293421DD0143263
:102B2C0093421DD0143293421DD0143293420CBFE9
:102B3C004FF480134FF080730E4A0024536001232E
:102B4C0080F82130436B80F820407BB198472046B9
:102B5C00D2E70123F0E71023EEE74FF48073EBE7A5
:102B6C004FF48053E8E74FF48033E5E71846C3E7AA
:102B7C00080002400000024070B40425C66B026CD1
:102B8C003468036895402542196832D04D0730D51A
:102B9C001A6896065EBF1A6822F004021A603E4A52
:102BAC00934219D01432934218D01432934217D056
:102BBC001432934217D01432934217D014329342EA
:102BCC000CBF4FF480034FF08063344A5360C36AE8
:102BDC00002B5ED070BC18470423F6E74023F4E7C3
:102BEC004FF48063F1E74FF48043EEE74FF480231A
:102BFC00EBE702259540254235D08D0733D51A6871
:102C0C00940606D41A6822F00A021A60012280F88F
:102C1C002120214A934219D01432934218D01432F5
:102C2C00934217D01432934217D01432934217D0D8
:102C3C00143293420CBF4FF400134FF00073174A39
:102C4C005360002380F82030836AC1E70223F6E743
:102C5C002023F4E74FF40073F1E74FF40053EEE751
:102C6C004FF40033EBE708259540254211D00907B6
:102C7C000FD5196821F00E011960012303FA02F235
:102C8C007260836380F82130002380F82030036B5E
:102C9C009EE770BC704700BF080002400000024075
:102CAC0090F82100704700002DE9F74F00221646DE
:102CBC00644F654BDFF894C1DFF894E10D6835FA89
:102CCC0006F402D103B0BDE8F08F4FF0010808FA0A
:102CDC0006F805EA080438EA05057AD14D68032D93
:102CEC0007D8013D022D00F28780DFE805F0959AA8
:102CFC00A000122D00F098806DD8112D00F08E8060
:102D0C00FF2C98BF82464FF00F0988BF00F1040AD0
:102D1C004FEA8605DAF8008088BF203D09FA05FBEA
:102D2C0028EA0B0802FA05F548EA0505CAF800502E
:102D3C00D1F804A01AF0805F4BD0BD6926F00308CF
:102D4C0045F00105BD61BD6908F1804805F001053C
:102D5C00019508F5803806F0030B019D4FEA8B0BAB
:102D6C00D8F8085009FA0BF925EA0909394DA84297
:102D7C0061D005F58065A8425FD005F58065A84255
:102D8C005DD005F58065A8420CBF0325042505FA26
:102D9C000BF545EA0905C8F808509D681AF4801F20
:102DAC0014BF2543A5439D60DD681AF4001F14BFB2
:102DBC002543A543DD605D681AF4003F14BF25432D
:102DCC00A5435D601D681AF4803F14BF2543A543DD
:102DDC001D60013672E7DFF880904D450CD017D896
:102DEC00A9F580194D4507D009F570294D4503D03B
:102DFC00A9F580194D4583D18A68D2B1012A08BF43
:102E0C00C0F810804FF0080218BFC0F8148077E7A4
:102E1C006545F1D07545EEE7CA6871E7CA680432BA
:102E2C006EE7CA6808326BE7CA680C3268E70022A2
:102E3C0066E7042264E70025A9E70125A7E7022538
:102E4C00A5E700BF00100240000401400000311053
:102E5C000000321000080140000022108368194263
:102E6C0014BF0120002070470AB1016170470904AA
:102E7C00FBE7016800224B6913F4806310D06FF4F8
:102E8C0080634B612023026380F83D3080F83E2044
:102E9C00036C80F83C2043F004030364012070476A
:102EAC00184670472DE9F84606460F4691461D46D2
:102EBC004FEA114A3368BAF1010F0CBF5C699C6987
:102ECC0027EA0404A4B2B4FA84F46409A14501D03D
:102EDC00002025E06A1CEED0FFF7D2FA089BC01A3E
:102EEC00A84201D8002DE5D13368BAF1010F0CBF0F
:102EFC005B699B6927EA03039BB2B3FA83F35B0913
:102F0C009945D7D1002320220120336386F83D2038
:102F1C0086F83E30326C86F83C3042F02002326447
:102F2C00BDE8F8862DE9F04104460F461646984652
:102F3C002568686927EA000080B2B8B16B695A0548
:102F4C0016D52B68202243F400732B606FF480633A
:102F5C006B610023236384F83D2084F83E30226C9F
:102F6C0042F004020120226484F83C30BDE8F08178
:102F7C00731CDED0FFF784FAA0EB0800B04201D836
:102F8C00002ED5D123685A6927EA020292B2002A90
:102F9C00CED000232022236384F83D2084F83E30D9
:102FAC00226C42F02002DDE770B504460D46164651
:102FBC0023685B691B0601D5002070BD2046FFF716
:102FCC0058FFC8B96A1CF3D0FFF75AFA801BA84205
:102FDC0001D8002DECD123685B6913F08003E7D195
:102FEC002022236384F83D2084F83E30226C84F840
:102FFC003C3042F0200222640120DEE72DE9F04350
:10300C00154602689946136885B043F480731360C3
:10301C00DDE90C780E463B4600224FF00111CDF84D
:10302C0000800446FFF73EFF236838B11B68DB05C0
:10303C0002D54FF40073236403200AE006F0FE0669
:10304C001E613A46434620461749FFF76BFF18B1FD
:10305C00012005B0BDE8F083236803905A69394616
:10306C0003929B69424603932046039BFFF79CFF08
:10307C0040B1236C042B01BF2268136843F4007326
:10308C001360E5E7B9F1010F236802D1EDB21D61C0
:10309C00DFE72A0A1A61394642462046FFF784FFC9
:1030AC000028E6D12368F1E7020001002DE9FF4773
:1030BC009A46DDE90C78036815461A680E4642F408
:1030CC0080621A601A684FF0011142F480721A6023
:1030DC003B460022CDF800800446FFF7E3FE236850
:1030EC0048B11B68DB0502D54FF400732364032041
:1030FC0004B0BDE8F0875FFA86F906F0FE061E61A3
:10310C003A46434620462949FFF70CFF08B10120F7
:10311C00EEE7236803905A69394603929B6942464D
:10312C0003932046039BFFF73FFF40B1236C042B16
:10313C0001BF2268136843F400731360E7E7BAF128
:10314C00010F23681AD1EDB24246394620461D6163
:10315C00FFF72AFF02460028E8D1216820460B68B9
:10316C0043F480730B603B464FF00111CDF80080A7
:10317C00FFF798FE226860B11368B3E72A0A1A6158
:10318C00394642462046FFF70FFF0028CED1236870
:10319C00D9E749F001031361204643463A460349F7
:1031AC00FFF7C0FE003818BF0120A1E702000100A4
:1031BC0070B504460D46164623685B695B0701D55E
:1031CC00002070BD2046FFF754FEC8B96A1CF3D02E
:1031DC00FFF756F9801BA84201D8002DECD12368CB
:1031EC005B6913F00403E7D12022236384F83D20AC
:1031FC0084F83E30226C84F83C3042F02002226489
:10320C000120DEE770B504460D46164621684B6971
:10321C0013F0400301D0002010E04A69D2060ED50D
:10322C006FF010024A612022236384F83D2084F859
:10323C003E30226C0120226484F83C3070BDFFF7D4
:10324C001FF9801BA84201D8002DDFD123685B69D0
:10325C0013F04003DAD12022236384F83D2084F854
:10326C003E30226C42F02002E4E7000070B50446C8
:10327C0008B9012070BD90F83D3003F0FF021BB976
:10328C0080F83C20FEF734FF242384F83D3023687B
:10329C001A6822F001021A601A6842F400421A609D
:1032AC001A6822F400421A6002F046FB3F4B656834
:1032BC009D4294BF3E4B3F4B98428CBF0023012351
:1032CC00002BD6D1394E3C4BB542B0FBF3F388BF43
:1032DC004FF496762268516821F03F0141EA0301D0
:1032EC0082BF73434FF47A76B3FBF6F35160116AE5
:1032FC00013321F03F010B431362D169431E2B486C
:10330C0021F44F41854221F0FF0132D86D00B3FB0F
:10331C00F5F340F6FC700133034242D0C3F30B03C8
:10332C001943D1611168D4E9073021F0C00103437E
:10333C000B4313609168D4E9030321F40341034365
:10334C0021F0FF010B439360D168D4E9053021F0E3
:10335C00FF0103430B43D3601368002043F00103C8
:10336C0013602023206484F83D30206384F83E00F1
:10337C0080E7A06850B905EB4505B3FBF5F30133C5
:10338C00C3F30B037BB143F40043C9E71920684333
:10339C00B3FBF0F30133C3F30B0323B143F440430A
:1033AC00BEE70423BCE70123BAE700BFA0860100F7
:1033BC007F841E00FF083D0040420F002DE9F743BB
:1033CC00044699460F4690460C9EFFF759F894F820
:1033DC003D300546202B03D0022003B0BDE8F0831E
:1033EC0000901923012220463A49FFF75BFD002883
:1033FC00F2D194F83C30012BEED00123206884F8F4
:10340C003C3003684246D90758BF036839465CBF55
:10341C0043F001030360036823F40063036021237A
:10342C0084F83D30402384F83E30002323640A9B0B
:10343C0020466362BDF82C30CDE900656385638D51
:10344C002385254BE3624B46FFF7D8FD00282AD095
:10345C000120C2E7FFF7A8FD40B1236C042B01BF8C
:10346C002268136843F400731360F1E7636A2768FA
:10347C001A4612F8011B39616262628D218D013A84
:10348C0092B262857A69481E80B2520720850AD5AD
:10349C0048B15A7802333A616362638D0239013B59
:1034AC009BB221856385238D2A4631462046002B0D
:1034BC00D0D1FFF77DFE0028CFD12268136843F4EA
:1034CC0000731360202384F83C0084F83D3084F8AA
:1034DC003E0082E7020010000000FFFF2DE9F043E0
:1034EC0099460023044689B003930D469046129FDB
:1034FC00FEF7C6FF94F83D300646202B04D002257B
:10350C00284609B0BDE8F08300901923012220461B
:10351C008D49FFF7C7FC0028F1D194F83C30012B02
:10352C00EDD00123206884F83C3003682946DB0782
:10353C0058BF036842465CBF43F001030360036855
:10354C0023F400630360222384F83D30402384F885
:10355C003E3000232364109B20466362BDF8443048
:10356C00CDE900766385638D2385784BE3624B460A
:10357C00FFF79CFD054608B10125C1E7228D2368A4
:10358C00C2B904905A6904929A690492049A1A680E
:10359C0042F400721A60DFF8B881DFF8B891238D1D
:1035AC00002B37D1202284F83C3084F83D2084F85D
:1035BC003E30A5E7012A11D11A6822F480621A6004
:1035CC0072B6236805905A6905929A690592059A14
:1035DC001A6842F400721A6062B6DCE7022A1A68B2
:1035EC000ED142F400621A6072B6236806905A69D2
:1035FC0006929A690692069A1A6822F48062EAE7A1
:10360C0042F480621A6007905A6907929B6907938B
:10361C00079BC0E7032B78D8012B15D132463946CE
:10362C002046FFF7EFFD0028A6D123681A69636ACC
:10363C001A70636A01336362238D013B2385638DAA
:10364C00013B9BB26385AAE7022B4FF000023B467D
:10365C0041462046009618D1FFF724FC00288BD158
:10366C0072B623681A6842F400721A601A69636AA7
:10367C001A70636A01336362238D013B2385638D6A
:10368C00013B9BB2638562B6CFE7FFF70BFC0028CA
:10369C007FF472AF2268136823F48063136072B6F0
:1036AC0046F2A81123681A69636A1A70626A531C7D
:1036BC006362238D013B2385638D013B9BB2638544
:1036CC00D9F80030B3FBF1F323214B430393039B55
:1036DC00013B0393039B6BB92022236384F83D20A9
:1036EC0084F83E30226C42F02002226462B684F8E8
:1036FC003C3041E7236859694807E8D5196841F41B
:10370C00007119601B695370B3E732463946204685
:10371C00FFF778FD00287FF42FAF23681A69636ADE
:10372C001A70626A531C6362238D013B2385638D7F
:10373C00013B9BB263852368596949077FF52FAF1D
:10374C001B69537075E700BF020010000000FFFFFB
:10375C00040001002C0000202DE9FF4799460023AE
:10376C00044602930F4690460C9EFEF789FE94F891
:10377C003D308246202B03D0022004B0BDE8F087F8
:10378C0046F2A812534B1B68B3FBF2F319225343B6
:10379C000293029B013B0293029B4BB920222363B1
:1037AC0084F83D2084F83E30236C13432364E3E714
:1037BC00226893699907ECD494F83C30012BDBD048
:1037CC00012384F83C3013680025DB0758BF1368CD
:1037DC0041495CBF43F001031360136823F4006399
:1037EC001360212384F83D30402384F83E30BDF82B
:1037FC00343025646385638D66629BB2E1622385F8
:10380C006764C4F84880C4F84C902565002B55D0EB
:10381C00606B40B331494563816231491032C0E974
:10382C000B513146FFF702F9064600283AD1232303
:10383C004246009339464B462046CDF804A0FFF78C
:10384C00DDFBE8B1606BFFF74FF9636B9E62236899
:10385C001A6822F480621A6066851A68268522F03E
:10386C0001021A600AE0202384F83D3084F83E00FF
:10387C00236C84F83C0043F08003236401207CE734
:10388C00236803905A6903929A6984F83C00039266
:10389C00039A5A6842F480725A605A6842F4006281
:1038AC005A606AE7202384F83D3084F83E50236C3C
:1038BC0084F83C5043F010032364DFE7202284F8A3
:1038CC003D2084F83E30226C84F83C3042F04002BB
:1038DC002264D3E72C0000200000FFFFB73B000858
:1038EC007D3B00082DE9F04786B0044699460F460B
:1038FC0090460E9DFEF7C4FD0023039394F83D30D3
:10390C008246202B03D0022006B0BDE8F08746F299
:10391C00A812634B1B68B3FBF2F3192253430393B6
:10392C00039B013B0393039B4BB92022236384F835
:10393C003D2084F83E30236C13432364E3E7216875
:10394C008B699A07ECD494F83C30012BDBD0012323
:10395C0084F83C300B680026DB0758BF0B68514AD3
:10396C005CBF43F001030B600B6823F400630B6036
:10397C00222384F83D30402384F83E30BDF83C309F
:10398C0026646385638D65629BB2E26223856764FE
:10399C00C4F84880C4F84C902665002B62D0A06B0C
:1039AC0040B3414A46638262404A1031C0E90B621F
:1039BC002A46FFF73BF80546002847D12323424609
:1039CC00009339464B462046CDF804A0FFF76EFB1A
:1039DC00E8B1A06BFFF788F8A36B9D6223681A68A7
:1039EC0022F480621A6065851A68258522F001022E
:1039FC001A600AE0202384F83D3084F83E00236CE2
:103A0C0084F83C0043F08003236401207CE7228D82
:103A1C002368012A0BBF1A685A6822F4806242F4A8
:103A2C0080520CBF1A605A600022049259690491AA
:103A3C00996984F83C20049104995A6842F4807284
:103A4C005A605A6842F400625A605DE7202384F899
:103A5C003D3084F83E60236C84F83C6043F01003E6
:103A6C002364D2E723234246009339464B46204633
:103A7C00CDF804A0FFF71AFB0028C6D123680590E7
:103A8C005A6905929A690592059A1A6842F400726D
:103A9C001A60202384F83C0084F83D3034E700BFE2
:103AAC002C0000200000FFFFB73B00087D3B000806
:103ABC00704770477047704770477047704790F871
:103ACC003D2008B5036DD2B283B9C36C0268012BDB
:103ADC00836C05D1DBB21361036D0233036508BD42
:103AEC00C3F307231361036D0133F7E7036D012B58
:103AFC0003D1836C0268DBB2F4E7036D022B2FD188
:103B0C00222A05D10268136843F480731360EAE734
:103B1C00438D9BB263B1212A0AD1436A026813F820
:103B2C00011B11614362438D013B9BB24385D6E778
:103B3C00438D9BB2002BD2D1212AD0D1026851687F
:103B4C0021F4E0615160116841F400711160202290
:103B5C00036380F83D2080F83E30FFF7AFFFBEE7EF
:103B6C0003685A69120644BF00221A61B7E770470E
:103B7C00406A08B5436B0BB100229A62836B0BB1A0
:103B8C0000229A620268136823F480631360002396
:103B9C002022438580F83D2080F83E30036C43F0B2
:103BAC0010030364FFF7E3FF08BD70B5446A236894
:103BBC0094F83D2094F83E00E16A5D68D2B225F499
:103BCC0040755D60656BC0B20DB10026AE62A56B31
:103BDC000DB10026AE6202F02105212D05D002F0B8
:103BEC002205222D23D1202821D15968292A21F4FC
:103BFC00006159604FF0000363850DD121232363CD
:103C0C002823204684F83D30FFF754FF2268536880
:103C1C0043F44073536070BD2A2AF7D122232363E7
:103C2C002823204684F83D30FFF745FFEEE794F853
:103C3C003E20002AEFD0628D92B2012A02BF1A6890
:103C4C0022F480621A605A6811F5803F22F44072A7
:103C5C005A6006D0082904D0B1F12A4F01D020298E
:103C6C0003D11A6842F400721A605A6822F4805226
:103C7C005A605A6822F400625A6000236385236CF0
:103C8C001BB12046FFF773FFC5E7202284F83D20C7
:103C9C0094F83E2084F83E30402A04D12046236319
:103CAC00FDF798F8B7E7122320462363FFF701FFCF
:103CBC00B1E77047002337B546F2A81101932C4B9E
:103CCC00406A1B6890F83D20B3FBF1F323214B4372
:103CDC0001930368D2B2019941BB016C41F0200100
:103CEC000164446B0CB10021A162816B09B1002508
:103CFC008D621D6825F480651D600025458504B125
:103D0C00656301B14D63196821F00101196090F8E8
:103D1C003D10602911D1202380F83D30002380F81C
:103D2C003E300364FFF7C5FF03B030BD0199013984
:103D3C00019119688905CED4D3E702F02802282A0C
:103D4C000ED1196841F001011960196841F48061C4
:103D5C0019600023036380F83D20FFF708FFE3E7B9
:103D6C00202380F83D30002380F83E30F5E700BF7B
:103D7C002C00002010B590F83D2090F83E30044601
:103D8C00102BD9B2D2B2036801D0402913D1222A08
:103D9C0011D1196821F400611960596811F400619E
:103DAC0006D1602A1EBF202284F83D2084F83E10E4
:103DBC000022226307E002F028012829EDD100221D
:103DCC00226384F83D105A6812F400624FD05A688E
:103DDC00606B22F400625A6090F82130012B374B53
:103DEC002BD04363FEF780FE50B12268606B1368E2
:103DFC0023F001031360202384F83D30436B984774
:103E0C00236C19071FBF2268536823F4E0635360C7
:103E1C0094F83D30226CDBB252070DD5282B0BD118
:103E2C00274B2022E36200232046236384F83D20A5
:103E3C0084F83E30FFF741FE10BDA06B4363FEF7E4
:103E4C0053FE0028DCD023685A69510605D51A693F
:103E5C00636A1A70636A013363622268A06B136829
:103E6C0023F001031360202384F83D30C6E794F857
:103E7C003D10602915D1202184F83D1022645A6927
:103E8C00520605D51A69636A1A70636A0133636254
:103E9C0022682046136823F001031360FFF709FF23
:103EAC00AEE75A69500605D51A69636A1A70636AD7
:103EBC00013363622046FFF75AFEA1E7C13C0008BC
:103ECC000000FFFFF0B5044603688FB05A68C66A5D
:103EDC0090F83E0094F83D101028C5B2C9B202D03B
:103EEC00402D40F0D5829F69586910F0010F07D121
:103EFC00B6F52A0F02D0B6F12A4F51D10FB0F0BD52
:103F0C0096054DD5E26AB2F52A0F0CD10122E26278
:103F1C0094F83E20402A11D1226D52B9626C02F005
:103F2C00FE021A61EAE7E26AB2F12A4FF0D10822E6
:103F3C00EDE7626C42F00102D2B2F2E72269B2F50F
:103F4C00804F1AD194F83D20212A626C11D102F0D5
:103F5C00FE021A61626B0AB1926A2AB9A26B002A3C
:103F6C00CCD0926A002AC9D05A6842F400625A60D6
:103F7C00C4E742F00102D2B2EBE7226D32B9626CB7
:103F8C00D21102F0060242F0F002CAE7226D012AB9
:103F9C00B4D1626CD21102F0060242F0F102C0E719
:103FAC00060703D5960501D5626CE4E7860740F158
:103FBC00F080960540F1ED8094F83E10E26A256B96
:103FCC0094F83D00C9B2222840F0DB80206D40B946
:103FDC00402906D100905A6900929B690093009B7E
:103FEC008CE7216D89B92069B0F5404F0DD1019155
:103FFC005A6901929A690192019A1A6842F4807284
:10400C001A60236D0133236578E7618D89B251B94C
:10401C0002915A6902929A690292029A1A6842F4BF
:10402C0000721A6019E0618D89B2012949D112F52B
:10403C00803F1BD11A6822F480621A605A6812F40D
:10404C0000620CD01A6822F480621A60002203927B
:10405C005A6903929B690393039B0023D3E7049251
:10406C005A6904929A690492049AD7E7082A1CD0D8
:10407C00202A1AD0122D0DD1012A16D11A6822F439
:10408C0080621A60002205925A6905929B69059319
:10409C00059BE2E7102AF1D8864921FA02F2D707EC
:1040AC00ECD51A6842F48062EBE71A6822F480625D
:1040BC001A60002206925A6906929A690692069A2A
:1040CC00ACE7618D89B2022938D1102A03D879491D
:1040DC00D140CE0718D4196841F400611960002151
:1040EC00079159690791996907910799196821F402
:1040FC008061196059680D05AFD5202A1BD8072A95
:10410C000ED8012AA9D111E0196841F48061196017
:10411C000021089159690891996908910899E9E772
:10412C00A2F10801644ACA40D00796D55A6842F4F5
:10413C0080525A6091E712F5803FE3E7196841F429
:10414C00806119605968090505D5202A16D8072AF7
:10415C0009D8012A0DD0002209925A6909929B694B
:10416C000993099B79E7A2F10801534ACA40D20787
:10417C00F1D55A6842F480525A60ECE712F5803F50
:10418C00E8E700220A925A690A929B690A930A9BF1
:10419C00B4E67F0740F192805E6836053FF5AEAE1F
:1041AC00070600F004063ED550053CD5002E3DD147
:1041BC0094F83D20258D94F83E10D2B2E06AC9B235
:1041CC00C5B9212A18D1082858D0202856D010F566
:1041DC00803F53D05A6822F4E0625A601123236363
:1041EC00002384F83E302023204684F83D30FFF72E
:1041FC005FFC83E6212A05D040297FF47FAE222A7A
:10420C007FF47CAE628D92B21AB95A6822F4806245
:10421C00ADE694F83E20402A16D120460FB0BDE8FA
:10422C00F040FFF74CBC002E3FF468AE97057FF5CD
:10423C0065AE212939D1E16A94F83D20212A7FF419
:10424C005DAE628D92B24AB1626A12F8011B1961BD
:10425C006262638D013B9BB263854FE608290DD0EA
:10426C0020290BD011F5803F08D0596821F4E0616A
:10427C0059601123236384F83E20B4E75A68204622
:10428C0022F4E0625A601A6842F400721A60002349
:10429C002022236384F83D2094F83E2084F83E309D
:1042AC00402AA4D1FFF70AFC28E6402D7FF426AE65
:1042BC00B3E700BF140001000101000159680E05AD
:1042CC003FF51CAE450600F0040176D5500574D5BB
:1042DC00002975D194F83D20222A7FF40FAE628D0F
:1042EC0092B2032A14D91A69636A1A70636A013389
:1042FC006362638D013B9BB26385638D9BB2032B21
:10430C007FF4FCAD2268536823F480635360F5E5B9
:10431C00E06A02283FF479AF012A3FF676AF0B91A1
:10432C0046F2A811734A1268B2FBF1F202EB820258
:10433C000B920B9A013A0B920B99D1B9226C204635
:10434C0042F0200222645A6822F4E0625A601A6930
:10435C00636A1A70636A01336362638D013B9BB2BB
:10436C006385202384F83D3084F83E10FFF7FFFB73
:10437C00C4E51A6812F40072DBD1196821F480616B
:10438C001960596821F4E06159601969636A197000
:10439C00636A01336362638D013B9BB263852023A7
:1043AC0084F83D3094F83E3084F83E20402B69D19F
:1043BC0022632046FCF70EFDA0E500293FF49EADDC
:1043CC0092057FF59BADE26A608D616A80B204282C
:1043DC0009D15A6822F480625A601B690B70636AB7
:1043EC000133636235E7608D80B203280CD15868C5
:1043FC00042A20F480605860EFD0022AEDD01A68AD
:10440C0022F480621A60E8E7608D80B20228E4D161
:10441C00042A33D007D8012A07D0022A2ED01A68D2
:10442C0042F4007204E0102AF9D11A6822F4806276
:10443C001A601B690B70626A531C6362638D013BCB
:10444C009BB2638523681B695370636A22680133CE
:10445C006362638D013B9BB26385536823F44073A5
:10446C005360202384F83D3094F83E30402B4FF0BD
:10447C00000384F83E3005D123639AE71A6842F4AE
:10448C008062D5E7122320462363FFF712FB35E544
:10449C00206C10B30025586987072DD596052BD5B0
:1044AC00226C02B19D6994F83D2002F02802282A62
:1044BC0016D15A682F0622F480625A604FF000031E
:1044CC0085F00401204654BFA289228BC1F38001E0
:1044DC0084F83C30FFF7F0FA10E59D695869DBE78A
:1044EC0000220C9259690C919B6984F83C200C9326
:1044FC000C9B03E52C000020C60640F1B18095050D
:10450C0040F1AE8094F83D505A68EDB222F4E0626E
:10451C005A6000220D925A690D921A6842F00102FB
:10452C001A600D9A1A6822F480621A605A68100593
:10453C0020D505F0F702222A4AD1A06B02685268F6
:10454C0092B26285628D92B21AB1226C42F0040270
:10455C0022645A6822F400625A60FEF7A1FB01281B
:10456C0008D0A06B794B4363FEF7BEFA10B1A06B79
:10457C00436B9847638D9BB213B323685A695107F9
:10458C0009D51A69636A1A70636A01336362638DB1
:10459C00013B9BB2638523685A69520609D51A6997
:1045AC00636A1A70636A01336362638D013B9BB269
:1045BC006385638D9BB21BB1236C43F004032364AE
:1045CC00236C13B320460FB0BDE8F040FFF7D2BB0D
:1045DC00606B0268526892B26285628D92B21AB1B7
:1045EC00226C42F0040222645A6822F400625A607F
:1045FC00FEF756FB0128BDD0606B544B4363FEF7AE
:10460C0073FA0028B6D0606BB2E72A2D06D123636B
:10461C002823204684F83D30FFF74DFA94F83D30BE
:10462C00282B0CD14A4B2022E36200232046236323
:10463C0084F83D2084F83E30FFF73FFA5EE4236BAC
:10464C00222B02D0222D7FF459AC0023202223638D
:10465C0084F83D2084F83E302046FFF72CFA4DE4D8
:10466C0001F0F701212900F0040535D1070627D503
:10467C00560525D53DBB94F83D00628DC0B292B273
:10468C00002A3FF43BAC626A12F8015B1D61626266
:10469C00628D013A92B26285628D92B2002A7FF4E9
:1046AC002DAC29287FF42AAC5A68204622F480626B
:1046BC005A602823216384F83D30FFF7FBF91DE491
:1046CC00002D3FF41BAC95057FF518AC628D92B2B2
:1046DC00002A3FF413ACB7E5400627D5510525D584
:1046EC003DBB94F83D20618DD2B289B200293FF4D4
:1046FC0005AC1969636A1970636A01336362638D6F
:10470C00013B9BB26385638D9BB2002B7FF4F6ABB0
:10471C002A2A7FF4F3AB2268536823F48063536036
:10472C0022232363282384F83D3095E7002D3FF4A2
:10473C00E5AB92057FF5E2AB628D92B2002A3FF4B5
:10474C00DDAB1A69636A1A7049E600BFC13C000808
:10475C000000FFFF90F83D007047F0B5044687B0AD
:10476C0010B390F8A93203F0FF021BB980F8A8220D
:10477C0003F0E8FA032325466E4684F8A93255F86F
:10478C00100B01F0A9FF0FCD0FC62B68271D33604E
:10479C00264697E80E0056F8100B01F08DFF0546E3
:1047AC0020B1022384F8A93201254BE00146206890
:1047BC0001F09CFF29464FF0010E28250A46D4F83B
:1047CC0004C0C8B2844501F101011BD8002328257F
:1047DC001946D8B2844503F101031FD8EC4635467F
:1047EC000FCDACE80F002B68CCF8003097E80E002A
:1047FC00206801F07DFF01230546E0B1022284F818
:10480C00A922D1E705FB0043C3E90E2283F829E076
:10481C0083F8280083F82B201A64D2E705FB0042AA
:10482C00C2E95E1182F8691182F8680182F86B1195
:10483C00C2F88011CDE784F82400206884F8A932EE
:10484C0002F00EFA284607B0F0BD38B590F8A83241
:10485C000446012B10D0012580F8A852006801F005
:10486C0032FF2946204603F078FB206802F0F6F967
:10487C00002084F8A80238BD0220FCE710B590F89F
:10488C00A8220446012A0BD0012280F8241080F8BB
:10489C00A822006802F0DCF9002084F8A80210BD00
:1048AC000220FCE72DE9F04F044685B0006802F0C9
:1048BC00D9F910F4004500F02484DFF81C93DFF8DC
:1048CC001C832068B0F844301F0402D405B0BDE846
:1048DC00F08FB0F84460B1B216F00F0640F0C6800D
:1048EC0011F010012BD103889BB203EA090343F4A6
:1048FC0000430380B0F8503094F828209BB203EBAF
:10490C00C20300EB4303B3F80434E26BC3F30903B3
:10491C001A4463642046E26303F043FA94F82430AB
:10492C00002BCED0226C2168002ACAD194F82430F6
:10493C0043F08003A1F84C3084F82420C1E70588AB
:10494C00ABB215F4006521D0B0F8503094F8682162
:10495C009BB203EBC20300EB4303B3F80C34B4F883
:10496C006E21C3F30903C4F8843104F52C7102F0F1
:10497C00A7FB22682046138823F070031B051B0D30
:10498C0043F08003138003F0FDF99AE7190498D5DE
:10499C00038823F070031B051B0D43F08003038079
:1049AC00B0F8503094F868219BB203EBC20300EBD3
:1049BC004303B3F80C34C3F30903C4F884318BB14B
:1049CC00D4F87C1171B1B4F86E2102F079FBD4F8F3
:1049DC007C31D4F88421294613442046C4F87C3118
:1049EC0003F0D6F921680A8893B212053FF569AF36
:1049FC0003F44053B3F5405F3FF463AFB1F850306C
:104A0C0001F20C409BB2C25AC2F30902C252D4F852
:104A1C0078213E2A0CD95509D706C25A08BF05F190
:104A2C00FF3592B242EA852242EA080292B204E0D1
:104A3C009AB9C25A92B242F40042C2520B8823F481
:104A4C00804323F070031B041B0C83F4405343F48A
:104A5C00004343F080030B8033E75508D607C25A56
:104A6C0048BF013592B242EA8522DFE730F82630A2
:104A7C001A049FB240F1F180282130F8263001FB56
:104A8C00064123F070031B051B0D43F0800320F837
:104A9C00263091F8743100F5806CB3B9B0F8503011
:104AAC0091F868219BB2063303EBC2033CF8135018
:104ABC00C5F30905002D00F0B4802B46B1F86E212A
:104ACC00D1F87C1102F0FCFAABE091F86B2191F873
:104ADC006831022A40F08480B0F850504FEAC30B82
:104AEC00ADB217F4804AD1F880215D4407F0400E36
:104AFC0039D002353CF81550C5F30905954213D948
:104B0C000022C1F8802130F8232022F4804222F0C8
:104B1C0070021204120C82F4005242F4004242F071
:104B2C00800220F8232004E0521BC1F88021002AC7
:104B3C00E9D0BEF1000F0DD030F8232022F4E04272
:104B4C0022F070021204120C42F4004242F0C00235
:104B5C0020F82320002D64D0282101FB06412B4690
:104B6C00B1F87021ACE706353CF81550C5F30905D2
:104B7C00954212D9C1F880A130F8232022F480424A
:104B8C0022F070021204120C82F4005242F4004221
:104B9C0042F0800220F8232004E0521BC1F880214F
:104BAC00002AE9D0BEF1000F0DD130F8232022F4F9
:104BBC00E04222F070021204120C42F4004242F065
:104BCC00C00220F8232065B3282101FB06412B46A7
:104BDC00B1F8722174E700BF0F8FFFFF0080FFFF59
:104BEC0030F8232022F4E04222F070021204120C5E
:104BFC0042F4004242F0C00220F8232091F86821D0
:104C0C0030F82230D20013F4804FB0F850309BB201
:104C1C0055D0023313443CF81350C5F30905002D4D
:104C2C009DD1282171436318D3F884212A44C3F8F9
:104C3C008421D3F87C212A44C3F87C21D3F8802129
:104C4C001AB1D3F878319D4242D2282303FB064394
:104C5C00204693F8681103F09BF83B0620687FF51B
:104C6C0030AE282230F8263002FB06459BB203EA10
:104C7C00090343F4004320F8263095F82B30012B20
:104C8C0050D1002195F83430296493B317F04007C4
:104C9C0095F8292095F8283031D002BBB0F8502077
:104CAC001B0192B200F2044010441A5AC2F30902DA
:104CBC001A521A5A92B242F400421A5219E00633AE
:104CCC001A443CF81250C5F30905002DA9D07EE713
:104CDC0001F5B4712068214401F0DAFFBDE7012A27
:104CEC0007D1B0F8502000F2044092B21B011044DE
:104CFC00195295F82810204603F053F8E1E532B923
:104D0C00B0F850201B0192B200F20C40CCE7012A03
:104D1C00EFD1B0F8502000F20C4092B21B011044BD
:104D2C001F52E6E795F8281017F4807C2B6C4FEA9D
:104D3C00C10A00F5806E1BD1B0F85070BFB2574459
:104D4C0002373EF81770C7F309079F4202D3C5F824
:104D5C0040C0D0E7DB1B2B64EB6B06FB02223B4411
:104D6C00EB636B6CA1183B446B6401F091FFA8E5FD
:104D7C00B0F8502017F0400C92B2524407F4804720
:104D8C0000F0DC8002323EF812204FF0280CC2F307
:104D9C0009029A4228BF00230CFB064C38BF9B1A11
:104DAC00CCF84030BFB2002B4DD195F82920002A09
:104DBC0036D1B0F8502000F2044692B20B011644E2
:104DCC00F25AC2F30902F252F25A92B242F400427F
:104DDC00F252B0F8502000F20C4092B21044C25A79
:104DEC00C2F30902C252C25A92B242F40042C252F7
:104DFC00204602F0D6FF002F00F0DC8095F828103A
:104E0C00226832F8213023F4E04323F070031B04B2
:104E1C001B0C43F4404343F0800322F82130C9E0DB
:104E2C00012AE5D1B0F850C000F204461FFA8CFC00
:104E3C000A016644B352B0F8506000F20C40B6B2AE
:104E4C0030448352D4E76FB130F8213023F4E0437F
:104E5C0023F070031B041B0C43F4404343F080030A
:104E6C0020F82130282707FB064797F84C30012BF8
:104E7C0040F0A080FB6BD7F848E003EB020C7B6C96
:104E8C00C7F83CC013447B64BB6B9E452CD3AEEB84
:104E9C000302BA6495F829201FFA83FE002A41D137
:104EAC00B0F8507000F20442BFB23A440901575AAC
:104EBC003E2BC7F30907575223D9DF06575A4FEA3F
:104ECC00531A08BF0AF1FF3ABFB247EA8A2747EAEA
:104EDC000807BFB2575228227346614602FB0642AE
:104EEC00128E01F0C5FE65E0BEF1000F03D1134632
:104EFC0087F84CE0CEE7002387F84C30BB64734650
:104F0C00C8E72BB9535A9BB243F400435352E2E720
:104F1C005F08DB07535A48BF01379BB243EA87232C
:104F2C009BB2F3E7012AD6D1B0F8502000F204432B
:104F3C0092B21344090123F801E0CCE706323EF8A3
:104F4C001220BFB2C2F309029A4288BF63464FF0E7
:104F5C00280C0CFB064C98BF9B1ACCF84030002B4D
:104F6C004ED195F82920002A37D1B0F8502000F204
:104F7C00044692B20B011644F25AC2F30902F252E1
:104F8C00F25A92B242F40042F252B0F8502000F2BF
:104F9C000C4092B21044C25AC2F30902C252C25A15
:104FAC0092B242F40042C252204602F0FAFE002FA6
:104FBC003FF424AF95F82810226832F821309BB2C8
:104FCC0023F4E04323F0400383F0300343F4004325
:104FDC0043F0800322F8213073E4012AE4D1B0F8C5
:104FEC0050C000F204461FFA8CFC0A016644B3520E
:104FFC00B0F8506000F20C40B6B230448352D3E7A4
:10500C006FB930F8213023F4E04323F070031B0414
:10501C001B0C43F4404343F0800320F821304FF045
:10502C00280C0CFB064C9CF84C30012BC2D1DCF844
:10503C004430DCF83C701344DCF848E0CCF84430E5
:10504C00DCF8383017449E45CCF83C7027D3AEEBD7
:10505C000302CCF8482095F829201FFA83FC002A7B
:10506C0043D1B0F850E000F20C421FFA8EFE7244AD
:10507C00090132F801E03E2BCEF3090E22F801E0D3
:10508C001BD94FEA531EDB06535A08BF0EF1FF3EE5
:10509C009BB243EA8E2343EA08039BB212E0BEF1B3
:1050AC00000F03D113468CF84CE0D4E70023CCF866
:1050BC0048308CF84C307346CDE75BB9535A9BB2F1
:1050CC0043F400435352282303FB064639466346F8
:1050DC00728E06E74FEA530EDB07535A48BF0EF1A8
:1050EC00010E9BB243EA8E23D7E7012AEBD1B0F82D
:1050FC00502000F20C4392B213440A0123F802C070
:10510C00E1E7460512D522682046B2F8443023F474
:10511C0080631B041B0CA2F8443002F04EFE29469F
:10512C00204605B0BDE8F04FFFF7A8BB41040AD5F7
:10513C002268B2F8443023F480431B041B0CA2F801
:10514C004430FFF7C3BB820405D52268B2F8443063
:10515C0023F40053F1E7C30419D522682046B2F8B2
:10516C00403023F004031B041B0CA2F84030B2F8AF
:10517C00403023F008031B041B0CA2F8403002F053
:10518C003FFE2268B2F8443023F48053D5E707057C
:10519C0048D56846226806461146134602F120059A
:1051AC0033F8047B9D4226F8027BF9D1B2F84030EB
:1051BC009BB243F00103A2F84030B2F8403023F028
:1051CC0001031B041B0CA2F84030B2F844305E05FE
:1051DC00FBD5B2F8443023F480631B041B0CA2F8FB
:1051EC00443030F8023B21F8043B8D42F9D1B2F83F
:1051FC00403020469BB243F00803A2F84030B2F88E
:10520C00443023F400631B041B0CA2F84430B2F8A6
:10521C0040309BB243F00403A2F8403002F0E0FDB2
:10522C00FFF754BB82050DD522682046B2F84430F6
:10523C0023F400731B041B0CA2F8443002F0B9FDDC
:10524C00FFF744BBC3057FF541AB2268B2F844308D
:10525C0023F4807371E700BF11F0800F70B5054621
:10526C0001F007004FF028011AD0012400FB0111B6
:10527C0029444C70022BCB7008BF0023087008BF68
:10528C000B710A6195F8A832012B13D00123286801
:10529C0085F8A83201F040FA002085F8A80270BD0C
:1052AC00002601FB00F404F5B4712C44294484F865
:1052BC006961DFE70220F2E711F0800F10B501F011
:1052CC00070204464FF0280113D0012302FB011101
:1052DC0001444B700A7094F8A832012B13D00123AF
:1052EC00206884F8A83201F077FB002084F8A8022B
:1052FC0010BD01FB02F303F5B4710144034400201B
:10530C0083F86901E6E70220F2E770B5282400264D
:10531C0001F007014C43051985F8681104F5B471C7
:10532C000144C5E95F23C5F8846185F869610068AB
:10533C0001F0AEFC304670BD282301F0070103FBE1
:10534C000100D0F88401704770B501F007052821E1
:10535C0001FB05040026C4E90F23012205FB011102
:10536C0084F84C200144A364666484F8292084F8F2
:10537C002850006801F08CFC304670BD38B543688D
:10538C0001F007059D42044628D811F0800F4FF01C
:10539C0028031AD005FB0333C11801234B700123DA
:1053AC000D708B7094F8A8229A4219D0206884F85A
:1053BC00A83201F0E4FB25B9206804F52C7101F04A
:1053CC0055FC002084F8A80238BD00224B4303F59D
:1053DC00B4710344014483F86921E0E70120F3E749
:1053EC000220F1E738B5436801F00F029A420446F7
:1053FC0026D811F0800F01F007024FF0280115D0CC
:10540C00012302FB011101444B7000250A708D70C1
:10541C0094F8A832012B15D00123206884F8A83207
:10542C0001F0CDFB284684F8A85238BD01FB02F3ED
:10543C0003F5B47101440344002083F86901E4E7E7
:10544C000120F2E70220F0E710B5282411F0800FBC
:10545C001BBF01F0070101FB044404FB0100001910
:10546C0008BF00F5B47099B21AB90273C18000205C
:10547C0010BD012283600273F9E700002DE9F341AE
:10548C00054638B30368DB0710D42B689F075ED43E
:10549C002B68190700F195802B685A0700F1C18021
:1054AC00E869002840F02C81002029E0904C6368CA
:1054BC0003F00C03042B07D0636803F00C03082BD8
:1054CC000AD16368DE0307D523689C03DDD56B68BE
:1054DC00002BDAD1012013E06B68B3F5803F12D1B9
:1054EC00236843F480332360FCF7CAFF0646236825
:1054FC009803CAD4FCF7C4FF801B6428F7D9032097
:10550C0002B0BDE8F0819BB9236823F4803323609B
:10551C00236823F480232360FCF7B2FF064623683C
:10552C009903B2D5FCF7ACFF801B6428F7D9E6E7EA
:10553C00B3F5A02F236803D143F480232360CFE776
:10554C0023F480332360236823F48023CBE7684C57
:10555C00636813F00C0F07D0636803F00C03082B7F
:10556C0010D16368DA030DD423689B0702D52B692D
:10557C00012BAFD123686A6923F0F80343EAC20315
:10558C00236085E72A695B4B6AB101221A60FCF73C
:10559C0077FF064623689F07ECD4FCF771FF801B4E
:1055AC000228F7D9ABE71A60FCF76AFF06462368B6
:1055BC0098077FF56DAFFCF763FF801B0228F6D9C7
:1055CC009DE7AA694A4E4B4BE2B10122C3F88024F5
:1055DC00FCF756FF0446736A9B070DD54FF4FA523D
:1055EC00454B1B68B3FBF2F3019300BF019B5A1EA2
:1055FC000192002BF9D14FE7FCF742FF001B022868
:10560C00E9D97CE7C3F88024FCF73AFF0446736AB7
:10561C009F077FF541AFFCF733FF001B0228F6D93B
:10562C006DE7334CE369D80024D40127E36943F0D8
:10563C008053E361E36903F080530093009B2F4E8A
:10564C003368D90518D5EB68012B26D1236A43F0B2
:10565C0001032362FCF714FF41F288380646236AE3
:10566C009B073FD5002F3FF41BAFE36923F080531A
:10567C00E36115E70027E2E7336843F48073336096
:10568C00FCF7FEFE80463368DA05DCD4FCF7F8FE46
:10569C00A0EB08006428F6D931E7ABB9236A41F2D4
:1056AC00883823F001032362236A23F00403236266
:1056BC00FCF7E6FE0646236A9807D3D5FCF7E0FE16
:1056CC00801B4045F7D91AE7052B236A03D143F019
:1056DC0004032362BAE723F001032362236A23F055
:1056EC000403B6E7FCF7CCFE801B4045B7D906E7B0
:1056FC0000100240000042422C00002000700040CC
:10570C002A4C636803F00C03082B3ED00022284B74
:10571C0002281A662CD1FCF7B3FE064623689901C1
:10572C0020D42B6AB3F5803F05D16268A96822F4B6
:10573C0000320A436260696A62680B4322F4741295
:10574C001343012263601A4B1A66FCF799FE054657
:10575C0023689A013FF5A8AEFCF792FE401B022885
:10576C00F6D9CCE6FCF78CFE801B0228D6D9C6E60F
:10577C00FCF786FE054623689B017FF595AEFCF78A
:10578C007FFE401B0228F6D9B9E601283FF4B8AEDB
:10579C0063682A6A03F4803191427FF49BAE6A6A93
:1057AC0003F4701393423FF47FAE93E60010024073
:1057BC00000042420D4A536803F00C01082912D133
:1057CC000B48C3F38341DB03405C09D55368094A9A
:1057DC00C3F340435043084AD35CB0FBF3F070472B
:1057EC00064B584370470348704700BF00100240F7
:1057FC0007A2000800127A0017A2000800093D0059
:10580C002DE9F0410D46044610B90120BDE8F081A8
:10581C00444A136803F007038B4228D321688E0790
:10582C0030D4CA0743D43F4A136803F00703AB4292
:10583C0065D822683C4D12F0040F6CD1130706D5C5
:10584C006B68226923F4605343EAC2036B60FFF771
:10585C00B1FF6B68354AC3F30313D35CD840344BA8
:10586C001860344B1868FCF7C9FD0020CEE71368AC
:10587C0023F007030B431360136803F007038B42F9
:10588C00C3D1CBE7284B11F0040F1EBF5A6842F46A
:10589C00E0625A60080742BF5A6842F460525A608C
:1058AC005A68A06822F0F00202435A60B9E76268B5
:1058BC001D4E012A33681AD113F4003FA5D073682A
:1058CC0041F2883823F0030313437360FCF7D8FDCF
:1058DC0007467368626803F00C03B3EB820FA2D027
:1058EC00FCF7CEFDC01B4045F3D903208EE7022AFE
:1058FC0002D113F0007FE1E713F0020FDEE713682B
:10590C0023F007032B431360136803F00703AB4228
:10591C007FF47BAF8DE76B68E16823F4E0630B43A6
:10592C006B608BE70020024000100240EFA10008E2
:10593C002C00002034000020044B054A5B68C3F3A4
:10594C000223D35C034A1068D84070470010024011
:10595C00FFA100082C000020044B054A5B68C3F330
:10596C00C223D35C034A1068D84070470010024031
:10597C00FFA100082C00002003682DE9F341D90792
:10598C00054621D5364CE369DA0033D40126E369A8
:10599C0043F08053E361E36903F080530193019B6F
:1059AC00304F3B68DB0527D5236A6A6813F44073D4
:1059BC0036D1236A6A6823F44073134323621EB101
:1059CC00E36923F08053E3612868830706D52449F3
:1059DC00AB684A6822F440421A434A6010F0100047
:1059EC001BD01F4AE9685368002023F480030B4343
:1059FC00536012E00026D3E73B6843F480733B60AE
:105A0C00FCF73EFD80463B68D805CDD4FCF738FD4D
:105A1C00A0EB08006428F6D9032002B0BDE8F081A1
:105A2C0002F440729A42C4D001200F4A236AC2F891
:105A3C004004002023F44071C2F840042162D907CD
:105A4C00B7D5FCF71DFD41F288380746236A9A0743
:105A5C00AFD4FCF715FDC01B4045F7D9DCE700BF00
:105A6C00001002400070004000004242036A026ACB
:105A7C0070B522F001020262446882690D6822F05E
:105A8C0073022A438D6823F002032B430A4DA8426C
:105A9C000BD1CD6823F008032B4324F44074D1E9D7
:105AAC000556354323F004032C43446082614A6855
:105ABC004263036270BD00BF002C0140036A026A9E
:105ACC0070B522F4807202624468C2690D6822F0DB
