:020000040800F2
:1000000000500020193E0008FD3C0008FF3C00089D
:10001000013D0008033D0008053D00080000000008
:10002000000000000000000000000000073D000884
:10003000093D0008000000000B3D00080D3D0008D0
:10004000613E0008613E0008613E0008613E000814
:10005000613E0008613E0008613E0008613E000804
:10006000613E0008613E0008613E0008113D000845
:10007000613E0008613E00081D3D0008293D000862
:10008000613E0008613E0008613E0008613E0008D4
:10009000353D0008613E0008613E0008613E0008F1
:1000A000613E0008413D0008613E0008613E0008D5
:1000B000613E0008613E0008613E0008613E0008A4
:1000C000613E00084D3D0008613E0008613E0008A9
:1000D000613E0008593D0008613E0008613E00088D
:1000E000613E0008613E0008613E0008000000001B
:1000F0000000000000000000000000000000000000
:0C01000000000000000000005FF808F1A3
:1001100010B5054C237833B9044B13B10448AFF341
:1001200000800123237010BD0802002000000000A1
:1001300098AE000808B5034B1BB103490348AFF361
:10014000008008BD000000000C02002098AE0008EE
:10015000034613F8012B002AFBD1181A0138704707
:1001600070B54FF0FF0C4CF4E06C1CEA11541DBF4D
:100170001CEA135594EA0C0F95EA0C0F00F0DEF818
:100180002C4481EA030621EA4C5123EA4C5350EAFD
:10019000013518BF52EA033541F4801143F480134E
:1001A00038D0A0FB02CE4FF00005E1FB02E506F0DF
:1001B0000042E0FB03E54FF00006E1FB03569CF034
:1001C000000F18BF4EF0010EA4F1FF04B6F5007F3A
:1001D00064F5407404D25FEA4E0E6D4146EB0606AC
:1001E00042EAC62141EA55514FEAC52040EA5E5035
:1001F0004FEACE2EB4F1FD0C88BFBCF5E06F1ED8DF
:10020000BEF1004F08BF5FEA500E50F1000041EB15
:10021000045170BD06F0004646EA010140EA0200C2
:1002200081EA0301B4EB5C04C2BFD4EB0C0541EAE4
:10023000045170BD41F480114FF0000E013C00F3F9
:10024000AB8014F1360FDEBF002001F0004170BD1D
:10025000C4F10004203C35DA0C341BDC04F1140436
:10026000C4F1200500FA05F320FA04F001FA05F2C2
:1002700040EA020001F0004221F0004110EBD3708F
:1002800021FA04F642EB06015EEA430E08BF20EABB
:10029000D37070BDC4F10C04C4F1200500FA04F35E
:1002A00020FA05F001FA04F240EA020001F00041F0
:1002B00010EBD37041F100015EEA430E08BF20EA63
:1002C000D37070BDC4F1200500FA05F24EEA020EAB
:1002D00020FA04F301FA05F243EA020321FA04F0DA
:1002E00001F0004121FA04F220EA020000EBD37091
:1002F0005EEA430E08BF20EAD37070BD94F0000F91
:100300000FD101F00046400041EB010111F4801FC4
:1003100008BF013CF7D041EA060195F0000F18BF75
:10032000704703F00046520043EB030313F4801FB1
:1003300008BF013DF7D043EA0603704794EA0C0F6B
:100340000CEA135518BF95EA0C0F0CD050EA410681
:1003500018BF52EA4306D1D181EA030101F00041FE
:100360004FF0000070BD50EA410606BF1046194626
:1003700052EA430619D094EA0C0F02D150EA013632
:1003800013D195EA0C0F05D152EA03361CBF104673
:1003900019460AD181EA030101F0004141F0FE4112
:1003A00041F470014FF0000070BD41F0FE4141F496
:1003B000780170BD81F0004102E000BF83F000438E
:1003C00030B54FEA41044FEA430594EA050F08BFF0
:1003D00090EA020F1FBF54EA000C55EA020C7FEAB4
:1003E000645C7FEA655C00F0E2804FEA5454D4EB31
:1003F0005555B8BF6D420CDD2C4480EA020281EAFB
:10040000030382EA000083EA010180EA020281EA32
:100410000303362D88BF30BD11F0004F4FEA013184
:100420004FF4801C4CEA113102D0404261EB410193
:1004300013F0004F4FEA03334CEA133302D0524219
:1004400063EB430394EA050F00F0A780A4F10104D5
:10045000D5F1200E0DDB02FA0EFC22FA05F280180F
:1004600041F1000103FA0EF2801843FA05F35941F5
:100470000EE0A5F120050EF1200E012A03FA0EFC74
:1004800028BF4CF0020C43FA05F3C01851EBE3719E
:1004900001F0004507D54FF0000EDCF1000C7EEBBB
:1004A00000006EEB0101B1F5801F1BD3B1F5001FF9
:1004B0000CD349085FEA30004FEA3C0C04F1010418
:1004C0004FEA445212F5800F80F09A80BCF1004F41
:1004D00008BF5FEA500C50F1000041EB045141EAC3
:1004E000050130BD5FEA4C0C404141EB0101013C8C
:1004F00028BFB1F5801FE9D291F0000F04BF01467B
:100500000020B1FA81F308BF2033A3F10B03B3F14C
:1005100020020CDA0C3208DD02F1140CC2F10C02DC
:1005200001FA0CF021FA02F10CE002F11402D8BF3A
:10053000C2F1200C01FA02F120FA0CFCDCBF41EA06
:100540000C019040E41AA2BF01EB0451294330BDD5
:100550006FEA04041F3C1CDA0C340EDC04F11404B2
:10056000C4F1200220FA04F001FA02F340EA030089
:1005700021FA04F345EA030130BDC4F10C04C4F1CF
:10058000200220FA02F001FA04F340EA03002946AF
:1005900030BD21FA04F0294630BD94F0000F83F4F9
:1005A000801306BF81F480110134013D4EE77FEADC
:1005B000645C18BF7FEA655C29D094EA050F08BF28
:1005C00090EA020F05D054EA000C04BF1946104609
:1005D00030BD91EA030F1EBF0021002030BD5FEA4D
:1005E000545C05D14000494128BF41F0004130BD75
:1005F00014F580043CBF01F5801130BD01F00045C9
:1006000045F0FE4141F470014FF0000030BD7FEA3B
:10061000645C1ABF194610467FEA655C1CBF0B4636
:10062000024650EA013406BF52EA033591EA030F4D
:1006300041F4002130BD00BF90F0000F04BF002145
:10064000704730B54FF4806404F132044FF0000578
:100650004FF0000150E700BF90F0000F04BF0021F1
:10066000704730B54FF4806404F1320410F0004557
:1006700048BF40424FF000013EE700BF42004FEA52
:10068000E2014FEA31014FEA02701FBF12F07F43CF
:1006900093F07F4F81F06051704732F07F4208BF86
:1006A000704793F07F4F04BF41F40021704730B58D
:1006B0004FF4607401F0004521F000411CE700BFD9
:1006C00050EA010208BF704730B54FF000050AE05C
:1006D00050EA010208BF704730B511F0004502D55D
:1006E000404261EB41014FF4806404F132045FEA5F
:1006F000915C3FF4D8AE4FF003025FEADC0C18BF08
:1007000003325FEADC0C18BF033202EBDC02C2F1F9
:10071000200300FA03FC20FA02F001FA03FE40EA8B
:100720000E0021FA02F11444BDE600BF4FEA410277
:1007300012F5001215D211D56FF47873B3EB625233
:1007400012D94FEAC12343F0004343EA505311F05A
:10075000004F23FA02F018BF404270474FF00000EC
:10076000704750EA013005D111F0004008BF6FF02A
:10077000004070474FF00000704700BF7BB972B96E
:100780000029BEBF00204FF0004106E008BF00284E
:100790001CBF6FF000414FF0FF3000F0A5B9ADF184
:1007A000080C6DE904CE002909DB002B1ADB00F0F0
:1007B00035F8DDF804E0DDE9022304B0704740427B
:1007C00061EB4101002B1BDB00F028F8DDF804E0B1
:1007D000DDE9022304B0404261EB4101524263EB88
:1007E00043037047524263EB430300F017F8DDF810
:1007F00004E0DDE9022304B0404261EB41017047AF
:10080000524263EB430300F009F8DDF804E0DDE950
:10081000022304B0524263EB430370472DE9F047D3
:10082000089E0D4604468E46002B4CD18A429446C3
:1008300067D9B2FA82F353B102FA03FCC3F1200282
:1008400001FA03FE20FA02F242EA0E0E9C404FEA41
:100850001C47BEFBF7F11FFA8CF507FB11EE01FBFD
:1008600005F0220C42EA0E4290420AD91CEB020229
:1008700001F1FF3E80F01981904240F21681023969
:100880006244121AB2FBF7F007FB102200FB05F5D9
:10089000A4B244EA0244A5420AD91CEB040400F1C4
:1008A000FF3280F00481A54240F2018164440238A5
:1008B00040EA01400021641B1EB1DC400023C6E970
:1008C0000043BDE8F0878B4208D9002E00F0EA8093
:1008D0000021C6E900050846BDE8F087B3FA83F1B8
:1008E000002948D1AB4202D3824200F2F880841A38
:1008F00065EB030201209646002EE2D0C6E9004EC9
:10090000DFE702B9FFDEB2FA82F3002B40F08E80FF
:10091000881A0121170C1FFA82FEB0FBF7F507FBBE
:100920001500220C42EA00420EFB05F0904208D965
:100930001CEB020205F1FF3802D2904200F2CC809B
:100940004546121AB2FBF7F007FB10220EFB00FE21
:10095000A4B244EA0244A64508D91CEB040400F101
:10096000FF3202D2A64500F2B4801046A4EB0E047A
:1009700040EA0540A0E7C1F120078B4022FA07FCBE
:100980004CEA030C25FA07FA4FEA1C49BAFBF9F8BE
:100990008D4020FA07F309FB18AA1FFA8CFE2B439F
:1009A00000FA01F508FB0EF01C0C44EA0A44A042D0
:1009B00002FA01F20BD91CEB040408F1FF3A80F0B3
:1009C0008680A04240F28380A8F102086444241A81
:1009D00098B2B4FBF9F309FB134403FB0EFE40EAA3
:1009E0000444A64508D91CEB040403F1FF306AD285
:1009F000A64568D9023B644443EA0840A0FB029341
:100A0000A4EB0E049C42C8469E4654D351D0002EFF
:100A100067D0B5EB080364EB0E04CB4004FA07F78C
:100A20001F43CC40C6E9007400214AE702FA03FCE8
:100A3000C3F12000C1409D4024FA00F04FEA1C475A
:100A40002843B1FBF7F507FB15111FFA8CFE020CCA
:100A500042EA014205FB0EF1914204FA03F408D97F
:100A60001CEB020205F1FF382FD291422DD9023D35
:100A70006244521AB2FBF7F107FB112280B240EA3E
:100A8000024001FB0EF2824208D91CEB000001F18A
:100A9000FF3816D2824214D902396044801A41EAE2
:100AA00005413AE7314630460BE77146E9E6104624
:100AB000FEE64D45ABD2B9EB020863EB0C0E0138F4
:100AC000A5E74146EAE7034696E74546D1E7D04623
:100AD0007DE76444023849E7023D624431E7084655
:100AE0000AE73146EDE600BF704700BF00220A4921
:100AF00030B50B88094D013810F8014F14B902B117
:100B00000B8030BD5A1C92B2B2F5807FEC5414BFFA
:100B1000134600230122EFE7DC040020C803002075
:100B2000074A10B51188074C4B1C9BB2B3F5807F68
:100B3000138008BF0023605408BF138010BD00BF9E
:100B4000DC040020C803002038B500240D4B0D46FE
:100B50001C700D4B01463F22184609F028F90B4B3B
:100B60001F2280F83F402946184609F020F932221A
:100B7000074BC4771A600D22064B1A70064B1C7087
:100B800038BD00BF2D020020880300205202002043
:100B9000CC0400202C020020D4040020194B70B596
:100BA0005B6806460D4614463BB347F23053164980
:100BB0001648002A08BF1C4609F07FF9144B0F2283
:100BC0001846314609F0F3F800221249C2730A228E
:100BD000284608F00FFF0A2220460F4908F00AFFB6
:100BE0000E4B1B7863B10E4B187810F0020003D047
:100BF000092206200B4B1A7070BD4FF0FF30FBE747
:100C00000120F9E730020020ECAE000800000020CF
:100C100072030020820300204C0200208803002081
:100C20002D0200202C020020054B187810F0020045
:100C300004D004480378002B08BF0020704700BF91
:100C40002D0200203C020020074A10B51188074CF5
:100C50004B1C9BB2B3F5807F138008BF0023605408
:100C600008BF138010BD00BFDA040020720200200C
:100C70002DE9FF479A46334B81465B680E4617467F
:100C8000002B59D0DFF8C08098F80040630656D595
:100C900014F0080449D10A2201A9384608F0AAFE36
:100CA00001A8FFF755FA0138C0B2032839D8274800
:100CB000FFF71CFF01A8FFF719FF2548FFF716FFF4
:100CC0002246244924480B88A5B2BD4216D302B15E
:100CD0000B8098F80030214C23F00C0343F00C03F8
:100CE00088F8003023683BB11D489847236801A865
:100CF000984723681B489847092013E05D1CADB254
:100D0000B5F5807F08BF0025721C19F8066092B205
:100D1000C6540134524514BF164600262B46012204
:100D2000D2E70B2004B0BDE8F0870C4B1B680BB179
:100D30000D4898470820F5E74FF0FF30F2E705200F
:100D4000F0E700BF300200202D02002038B000087C
:100D5000F0AE0008DC040020C803002028020020B8
:100D6000F3AE00086EAF000806AF000802460D4B58
:100D70000068516803C390680B4A18600023137021
:100D80000A4A13700A4A13800A4A13800A4A1380D7
:100D90000A4A13800A4A13700A4A13600A4A136007
:100DA000704700BF300200202C0200202E020020DD
:100DB000D8040020DC040020D6040020DA0400203F
:100DC0002D0200202402002028020020094A136876
:100DD0000BB1013B1360084A136823B1013B136058
:100DE0000BB9064A1370064A13680BB1013B136036
:100DF000704700BFCC040020C80400202E02002051
:100E0000D00400202DE9F84FAC4BAD4EB3F800B044
:100E1000338800255B4506D0AA4F3B780D3B022B5B
:100E200020D8A6F800B0A84EA84C3368002B40F09C
:100E30003C826423A34D33602B780F2B00F2358264
:100E4000DFE813F05F0348026102670271027B0270
:100E5000E102E902FA020903180355035A031302D7
:100E60001F022E0202239A4A9A4C136033889B4534
:100E7000D9D0994AD05C22780C2A00F2F181DFE8BF
:100E800012F00D005800C300EF01EF017B0190014B
:100E90009801A501EF01C001C401DA010023042279
:100EA0009E468E49DFF83882DFF838920B7088F85A
:100EB00000205FFA83FC59F82C20A2B9BEF1000F84
:100EC00001D081F800C00022814B80491A600B7864
:100ED00013F0010F20D03E281ED162F300030B70E7
:100EE000814B1A6018E092F804A0013382451DD1AD
:100EF000BEF1000F01D081F800C013785278303B6A
:100F0000313A03EB830302EB4303784A1380012356
:100F10002370052388F80030338801339BB2B3F582
:100F2000807F338004BF002333809FE74FF0010EA2
:100F3000BFE7DFF8A8C16B499CF8002051F82220D8
:100F40006749097812F801E0864514D1DFF89CC1A1
:100F5000BCF80030013B9BB2ACF800300BB10D285F
:100F60004AD19378D278303B03EB8303303A02EBDB
:100F700043032370D0E700229146C1F57F4A8CF8E5
:100F800000200AF1D30ADFF85CC15FFA82F85CF84E
:100F900028C0BCF1000F09D1B9F1000F00F03D816C
:100FA000524A15804D4A82F8008036E19CF800E0F4
:100FB0009CF80150AEF1300E0EEB8E0E554405EB51
:100FC0004E05ADB2FF2D1BD81CF801E0864517D1A8
:100FD000464B1D80B9F1000F02D0404B83F80080D2
:100FE00055B99CF802309CF80320303B03EB830397
:100FF000303A02EB43032370394B013119708BE710
:101000004FF001090132BEE70A2885D10022334B97
:1010100022701B78023B0D2B3FF67EAF01A151F8E9
:1010200023F000BF5D100008771000089110000841
:10103000190F0008FD100008FD1000081F1100081E
:101040002B110008431100081F110008190F000898
:1010500063110008190F00086D1100083B78022B7E
:101060007FF45AAF0022184B1A60184A137843F0E5
:101070002003137050E7154A137819077FF54CAF1A
:1010800023F0480313701A4B1A881A4B1A8043E74F
:101090000D4B1A603B78062B0C4B02BF1A7842F0BE
:1010A00020021A701A7842F002021A70124B1B6862
:1010B000002B3FF431AF032098472DE7DA040020DE
:1010C000D60400202C020020CC0400202D02002099
:1010D000C80400202E02002072020020E00400203C
:1010E000E104002068B10008D0040020DE040020E4
:1010F000DC040020D804002024020020914A137848
:1011000023F042031370904B1B680BB100209847EB
:101110003B78062B3FF400AF0F233B70FCE6894B76
:101120001A786FF386121A70F6E6864B1A786FF308
:10113000C3021A70844B1B68002B3FF4EDAE0A20EB
:10114000BAE7824B1A607F4A137823F0600343F0BA
:10115000600313707C4B1B68002B3FF4DDAE07204F
:10116000AAE7784A137823F0420382E7754A137896
:1011700023F042031370CFE7754A2C28126807D179
:1011800006232370002A3FF4C7AE72489047C3E697
:101190000021013B21703380002A3FF4BDAE6E4830
:1011A000F4E722287FF4B8AE0723237000226B4BAC
:1011B0006CE7222803D0694A1388102B01D1082339
:1011C000D7E6591C1180664AD054A5E60A287FF458
:1011D000A3AE0023614A23701188614A0F299BBF87
:1011E0005354584913700A789FBF42F020020A7086
:1011F000564A1360544B1B68002B3FF48DAE0420FD
:101200005AE72C2809D10B23CFE73A2801D10C2328
:10121000AFE6A0F13002092A04D90022013B227076
:10122000338079E64D4A138803EB830300EB4303D5
:10123000303B138070E64B4B9B6803B19847474A9D
:101240001388013B9BB21380002B7FF465AE2370A3
:101250003F4B1B68002B3FF45FAE434898475BE66B
:101260000023424A2370136056E63E4B00201B6861
:101270009847374B1B680BB13D4898470E232B709E
:1012800013E0384B01201B689847314B1B680BB1AA
:10129000384898470F232B704FF4FA73336004E0FB
:1012A000012300222B70344B1A702378DA0740F1A7
:1012B0002A81324A12685AB9314A23F00903118847
:1012C000304A2370118001222F4B1A700A23336099
:1012D000BDE8F88F284A13782BB1013BDBB21370BD
:1012E0001BB90D23CBE704231370237827486FF332
:1012F00045132370FFF7FAFB154B1B680BB124480D
:1013000098470223BBE72378980640F1A280032385
:10131000B5E72048FFF7EAFB0D4B1B680BB11E48F1
:1013200098470423ABE71D48FFF7E0FB084B1B6819
:101330000BB11B4898470523A1E72378990731D5BE
:1013400007239CE72D02002024020020CC0400206B
:10135000280200201EAF000833AF0008DE04002082
:101360003C0200203002002047AF0008C8040020E3
:101370005AAF000870AF0008D4040020D004002049
:10138000DC040020D80400202C0200200CB000084F
:1013900086AF00085BB0000894AF00082AB00008D0
:1013A000A8AF00086D4F3B78002B3FF47EAF6C4830
:1013B000FFF79CFB2220FFF7B3FB3846FFF796FBB5
:1013C0002220FFF7ADFB2C20FFF7AAFB2220FFF71E
:1013D000A7FB6448FFF78AFB2220FFF7A1FB0D2043
:1013E000FFF79EFB0A20FFF79BFB5F4B1B680BB1CF
:1013F0005E48984723786FF34513237006232B70BC
:1014000040F2DC534AE723789A0622D507230422C8
:101410002B70574B48E70022564B57481A70FFF77E
:1014200065FB514B1B680BB15448984723786FF309
:1014300045132370082322E723789B0601D509234F
:101440001DE74B4A1378013BDBB21370002B7FF48E
:1014500077AF012313E74A4B1B78002B3FF425AFEE
:101460004848FFF743FB404B1B680BB14648984781
:101470000A2304E74548FFF739FB2220FFF750FB1A
:101480004348FFF733FB2220FFF74AFB2C20FFF7EE
:1014900047FB2220FFF744FB3948FFF727FB2220B8
:1014A000FFF73EFB2C20FFF73BFB3A48FFF71EFB04
:1014B0002C20FFF735FB3848FFF718FB2C20FFF7EF
:1014C0002FFB3020FFF72CFB0D20FFF729FB0A2014
:1014D000FFF726FB244B1B680BB130489847237855
:1014E00023F0600323700B232B70C823D6E62378E8
:1014F0009F06AED50C23C2E623789807A9D55906D6
:101500009DD50023CAE6264D26492A88098891429E
:101510003FF4DEAE244E5F07B05C02D53E2808BF24
:101520000A20224B5B68984700283FF4D1AE22780E
:101530002B8851070AD5F15C3E2907D1052122F0FD
:10154000050242F001022270194A116001339BB278
:10155000B3F5807F08BF00232B80B9E68803002005
:1015600051B000085202002028020020BCAF000841
:10157000D40400203C02002011B00008CFAF0008C6
:10158000720300201CB00008E0AF000844B000085F
:1015900000000020820300204C020020F6AF00086B
:1015A000D8040020DC040020C80300203002002002
:1015B000D0040020014B1860704700BF24020020B7
:1015C000F0B591B001AD04462A46104B03F138073F
:1015D0002E4618685968083303C6BB423546F7D112
:1015E00018681346306004F51E720FAE1D4603CD19
:1015F000B542106051602B4602F10802F6D128680E
:10160000034B1060C4E9AD3311B0F0BDB0AE0008BB
:10161000647D64010021F0B500F51377451E00F2EA
:101620001E2615F8012F36F802CF02EB411457F8A9
:10163000043F00EB4404B4F820E06344A3EB0E0342
:10164000013201313B6002F01F025B090829A4F856
:1016500020C033822A70E4D1F0BD00212DE9F0478B
:101660008C4640F6D8674FF0010E00F51C7400F56B
:101670000C7501F0FB03032B2DD00126B5F800906B
:1016800000F51E7A3AF8028FF2B2531CC145DBB264
:101690001DD306F23B1630F8166002EB820203EB14
:1016A0008303D2B2DBB29B1AA6EB090909FB03F351
:1016B000A6EB0806B3FBF6F31A44227001310829A1
:1016C00004F1010405F10205D3D1BDE8F08701362C
:1016D0001E2ED7D1F2E72B88BB4294BF84F800E0DE
:1016E00084F800C0EAE700002DE9F04101254FF43D
:1016F000FA78002486B00DF117072B467522D02109
:10170000CDE90158009706468DF8174003F01AFC02
:101710009DF81730682B4FD12B46CDE901586B222D
:10172000D021304600978DF8174003F07BFB2B4605
:10173000CDE901581C22D021304600978DF8174082
:1017400003F070FB0823CDE901588DF817301B22F8
:101750002B46D0213046009703F064FB0323CDE9EC
:1017600001588DF817301A222B46D02130460097A9
:1017700003F058FB00230022114D2146C5E9122336
:10178000C5E904440E22C5E90944C5E90B440D48E6
:10179000C5E90744C5E90D44EC812C83EC63A5F849
:1017A00040406C6408F0FBFA0E222146284606B041
:1017B000BDE8F04108F0F3BA06B0BDE8F08100BF23
:1017C000A0120020E20400202DE9F04307464FF468
:1017D0007A764FF4FA782A4D2A4C85B00E233B22B4
:1017E000D021CDE9005338460123CDF8088003F01D
:1017F000A9FB2988E3696A88C9BA1944236AD2BA5D
:101800001A44AB88606AB5F808C0DBBA0344606B61
:10181000B5F80AE09CFABCFC8444A06BB5F80C90C7
:101820009EFABEFE8644E06B99FAB9F9013E814406
:10183000B6B2E16122626362C4F834C0C4F838E031
:10184000C4F83C90002EC9D14FF47A7093FBF0F3AA
:1018500091FBF0F192FBF0F29CFBF0FC9EFBF0FEA2
:1018600099FBF0F9A3F58043A182E2822383A4F8D7
:101870002EC0A4F830E0A4F8329005B0BDE8F083A3
:10188000E2040020A01200200E2307B50193054BAF
:101890003B220093D021012303F058FD03B05DF8F3
:1018A00004FB00BFE204002038B52649264C088816
:1018B000A58A4A8840BA401BE58A8B8852BA521BD7
:1018C000258B5BBA5B1B92B29BB280B22282638291
:1018D0006280A3804A898B890989E0812080E08D1C
:1018E00049BA091A208E52BA121A608E5BBA1B1AB4
:1018F00098B2608100F5FA7080B2B0F57A7F88BF47
:101900000A2092B262852281B4F8402089B21BB2CB
:101910002185E180A28182BFD4E91221C3FB00218D
:10192000C4E91221A3854FF6DC72D4E91201002329
:10193000FEF724FF0A2300B2A4F840005843606475
:1019400038BD00BFE2040020A012002000220020C9
:101950000021044BC3E912019A85A3F840205A6480
:10196000704700BFA01200208380002310B5029CA6
:1019700042806242C0E905249DF80C20C0E9023390
:101980000180036102774377837710BD0A22F0B5A7
:10199000D0E90235CB1A93FBF2F24688078805FBA3
:1019A00006F301FB0733848804FB0233642293FBB4
:1019B000F2F384690361A34204DA4769BB42C4BFFE
:1019C0006D18C560624392FBF6F2C568954201DD71
:1019D000C26002E052429542FADBA34204DD046198
:1019E000816090F91000F0BD42699342B8BF026176
:1019F000F6E70023C0E90233704700238372437186
:101A00008371037243758375062380F82030704715
:101A100030B50A44914200D130BD90F820300469BD
:101A20005D1C80F8205011F8015BE55490F82030DF
:101A3000047D234080F82030ECE790F820300269E4
:101A400010B55C1C80F82040D15490F82030027D05
:101A5000134080F8203010BD837DF0B5057D90F8EF
:101A6000204007332B409C421AD0174C531C237143
:101A700000230632A171C375D1B2827D0669DDB241
:101A8000A94206EB02070CD8C37D013282753B7078
:101A9000027D837D1340837507331A4080F8202030
:101AA000F0BD062D98BFE55C03F1010398BFB55466
:101AB000827D0569C67DAD5C01327540C575057DC9
:101AC0002A408275D9E700BF0400002083790268AC
:101AD00010B55C1C8471D1548379027913408371F1
:101AE00010BD30B50A44914200D130BD83790468FD
:101AF0005D1C857111F8015BE554837904792340FD
:101B00008371F0E70346D97900684A1CD2B2DA71D2
:101B1000405C0349087019790A40DA71704700BFC8
:101B2000F0040020C2790168531CDBB2C3718A5CE7
:101B300003490A7001790B40C37150B2704700BF6E
:101B4000F004002030B5C2790568531CDBB2C371C4
:101B5000AA5C064C227002791340591CC9B2C171AB
:101B6000EB5C0A406370C271208830BDF004002035
:101B70002DE9F041867943790446B34206D0002529
:101B80004FF00108304F63799E4204D1E369002B86
:101B90004BD1BDE8F0812268A17AD25C062942D8F7
:101BA000DFE801F00412121220122C003B7893425D
:101BB00003D140F201532273638122796379134088
:101BC00001331A406271DEE7785C904203BF237BE9
:101BD0000131534003F1FF3307BF2373A172A57294
:101BE0006371EAE7217B627251402279023313402C
:101BF000E371052321732572A372DEE7637A217BEB
:101C0000013BDBB2637213B151402173D5E78A42C5
:101C1000A372D2D1A3691BB12046E1799847CCE7E2
:101C200084F80880C9E7A572C7E7627DA17D91426B
:101C3000AFD02169885C98470028AAD0637D227DB7
:101C4000013313406375A4E704000020C37A23B175
:101C5000013BDBB2C37203B983727047002301609A
:101C6000C0E90533C0E9023382800374037770470B
:101C700070B581880446006802F024FE054602F033
:101C800033F9237C042B14D8DFE803F0030814266F
:101C9000330075B90123237460610AE015B1002394
:101CA000237406E06369C31A272B02D90223A061BB
:101CB000237470BD0DB10323EDE7A369C01AB0F51D
:101CC0007A7FF6D30423237403232377E368002B5E
:101CD000EFD0BDE8704018470DB90223E0E7636913
:101CE000C01A2728E5D90023237402232377A36889
:101CF000EDE7002DDDD00023237404232377D8E7FC
:101D000000B18160704700B1C16070477FB50123A9
:101D10000A22CDE901320DF117028DF81710009259
:101D20007821002203F07EF807B05DF804FB000084
:101D30007FB5244C244D2378032B1BD8DFE803F018
:101D4000020C22242B78503B8DF80C30012303AA7F
:101D500000920193002206E00022012303A98DF8DE
:101D60000C2001930091782103F02AFA10B923780E
:101D7000013323702B78072B8ABF002001202870A5
:101D800004B070BD1023DFE71023104E01933278AA
:101D90002B78782102EBC3020D4B03EB0213009367
:101DA0004022012303F00CFA0028E3D133782A788B
:101DB0000133DBB2072B337081BF531C30702B70A3
:101DC0002070D7E7FB080020FA080020FC0800205C
:101DD000FA040020030630B510D43F290ED80D4B6D
:101DE0000D4C1D79CB0801F0070145B14AB900EB54
:101DF000C3100123225C8B401343235430BD012ABE
:101E0000F5D0012200EBC310235C8A4023EA0203D1
:101E1000F3E700BFF4040020FA0400202DE9F04F9E
:101E20001746B84234BFA7EB0008A0EB070885B0FF
:101E3000994204460D469A469DF838200FFA88F8D4
:101E400030D2591AB84209B235D34FF0FF394FF0AA
:101E5000010B1FFA88F300931FFA88F08BB2C61AA1
:101E6000494236B20191E9B2E0B2CDE90223FFF76F
:101E7000B1FFDDE90223BC4201D1554522D0B0B209
:101E80004100DDF804C009B26145C1BFC01A4C442D
:101E900006B2A4B28845E6DD00995D440E4436B230
:101EA000ADB2E0E7C91AB84209B207D24FF0010952
:101EB0004FF0FF3BCDE74FF00109C8E74FF0FF3986
:101EC000CB46C6E705B0BDE8F08F00002DE9F34131
:101ED00007460D4616460024DFF82880B8F8023081
:101EE000B8F8000023449BB2C2191946009692B27A
:101EF0000134FFF793FFA3B29D42EFD202B0BDE8D9
:101F0000F08100BFF40400202DE9F04F87B00546B2
:101F100006A800E90600DFF88CA09DF810B0BAF81A
:101F20000060019306EB0B037F2B39DCBAF802301B
:101F30009DF81190009303EB09023F2A30DC4FF02B
:101F40000008A5F1200409FB04F46400C14506D88B
:101F50005E44AAF80060284607B0BDE8F08F00276D
:101F6000059A135B0293009B08EB0301C9B2BB45C2
:101F700003D808F101080234E8E7029BB81903FA14
:101F800007F2130456BF019B019AB3FA83F2C0B261
:101F900058BF520903910137FFF71CFF0399E6E789
:101FA0000025D8E7F404002073B56D461E4685E889
:101FB0000600441E14F8010F40B195E806003346B0
:101FC000FFF7A2FF034620788342F3D002B070BD32
:101FD00000284FF4806214BFFF210021014807F060
:101FE000DEBE00BFFA04002038B50546642001F0CB
:101FF00081FFAE212846FFF789FE202104462846AE
:10200000FFF784FE102104442846FFF77FFEE4B268
:10201000B02104442846FFF779FEE4B2C821044405
:102020002846FFF773FEE4B2002104442846FFF778
:102030006DFEE4B2102104442846FFF767FEE4B2C7
:10204000402104442846FFF761FEE4B281210444A4
:102050002846FFF75BFEE4B2FF2104442846FFF761
:1020600055FEE4B2A12104442846FFF74FFEE4B236
:10207000A62104442846FFF749FEE4B2A8210444FF
:102080002846FFF743FEE4B23F2104442846FFF709
:102090003DFEE4B2A42104442846FFF737FEE4B233
:1020A000D32104442846FFF731FEE4B20021044462
:1020B0002846FFF72BFEE4B2D52104442846FFF75B
:1020C00025FEE4B2F02104442846FFF71FFEE4B2E7
:1020D000D92104442846FFF719FEE4B22221044422
:1020E0002846FFF713FEE4B2DA2104442846FFF73E
:1020F0000DFEE4B2122104442846FFF707FEE4B2C5
:10210000DB2104442846FFF701FEE4B22021044409
:102110002846FFF7FBFDE4B28D2104442846FFF773
:10212000F5FDE4B2142104442846FFF7EFFDE4B2C4
:102130000444AF212846FFF7E9FDE4B2044414F05B
:10214000FF040DD12046FFF743FF4FF48072054B8B
:102150001C805C809A80044B1C705C70204638BDEB
:102160000124FBE7F4040020801200200020FFF788
:102170002FBF0000014B188059807047F4040020E5
:102180000246054B1B68186810F080001EBF034B09
:1021900001205A60704700BF580F002000380140EE
:1021A000072808D8DFE800F00B0707040704070832
:1021B000044B054A1A607047024B044AFAE7014B88
:1021C000034AF7E720000020A0A0A0F0AAF0AAF0A0
:1021D00000C000FF02464FF48071014802F078BB56
:1021E0000008014001460148FFF770BC2813002099
:1021F00073B50446FFF786FCA0F1E00305461A2BF1
:1022000040D8DFE803F00EA46F859F3F3F3F3F3F7C
:102210003F3F3F3F3F3F1D3F232A31414C5E61B06E
:10222000C900FEF701FD102201462046FFF7F0FB32
:1022300011222946204602B0BDE87040FFF70CBCD1
:102240000D212046FFF7F9FB0222F2E70822204683
:102250005949FFF7DDFB0922EBE70E2220465749DB
:10226000FFF7D6FB0F22E4E72046FFF74BFC544D67
:1022700028702046FFF746FC524A6870137843F0F6
:102280008003137002B070BD4F4E20463178FFF7C7
:10229000D4FB2046B179FFF7D0FB0322C9E72046E3
:1022A000FFF740FC484D28702046FFF73BFC2A46CC
:1022B000A87112F9063B29460090444801F06AFBD8
:1022C000E0E7434B1978BCE72046FFF71BFC3D4B8A
:1022D0001A7860F3820220461A70FFF713FC3D4B18
:1022E0001870CFE72046FFF72DFC3B4D2880204695
:1022F000FFF728FC68802046FFF724FCA8802046D2
:10230000FFF700FC28612046FFF7FCFB2877B9E7C0
:102310002046FFF717FC314D28802046FFF712FCBE
:1023200068802046FFF70EFCA8802046FFF7EAFBF6
:1023300028612046FFF7E6FB68772046FFF7E2FBBF
:10234000A8779FE72046FFF7FDFB254DCEE7082540
:10235000244E2046FFF7D6FB013D15F0FF0506F899
:10236000010FF6D18EE72046FFF7DCFB1E4D2870EB
:102370002046FFF7D7FB2B786870E8702046AB70DB
:10238000FFF7D0FB28712046FFF7CCFB6871204691
:10239000FFF7C8FBA87175E7134E2046B178FFF729
:1023A0004CFB2046F178FFF748FB2046B179FFF758
:1023B00044FB04223DE700BF14120020A0120020BD
:1023C00080120020740D0020F8120020100F002051
:1023D00006130020A00F0020000900202009002083
:1023E0004009002057120020F01200200E4808B5C6
:1023F00001780E4A21F07C010170002113780C480D
:102400000133DBB2022B137088BF11700180117889
:1024100008480131C9B2FFF710FBBDE808400222AD
:10242000F7210448FFF718BB740D0020A00F00200F
:10243000640D002028130020CAB201460148FFF7AE
:1024400050BB00BF4C130020084B1B78012B05D05C
:10245000074A137843F0040313707047054A137852
:102460000133DBB2022B88BF0023F5E706130020FF
:10247000740D00201C00002002680B4B9A4211D101
:102480000A4A1378013BDBB2137033B908490B7861
:1024900043F001030B7028231370082205490648F6
:1024A00001F030BE704700BF002C01402700002023
:1024B000740D0020C4110020780D00200148FFF7A2
:1024C000A9B800BFA40F00200268084B10B59A42BB
:1024D0000AD1074C2078FEF7B7FB2146BDE8104033
:1024E0000122044805F00BBE10BD00BF00380140BA
:1024F000660D0020580F00200A220E4B10B51A70EE
:102500000D4C0E4B22681B684FF400511A4214BF49
:10251000002201220A4802F0DBF92368094A5B081D
:1025200008BF4FF00043236013780BB1013B1370D9
:1025300010BD00BF26000020180000202000002051
:102540000010014028000020044B1A7822B9042210
:1025500003481A70FFF78CBB704700BF29000020AA
:102560006012002038B5184C617DA27D91420FD0D9
:10257000237D1648521A1A40027001332069FEF773
:1025800077FB092804D10122A37D6375104B9A7053
:10259000104C637DA17D8B4214D028BF217D206922
:1025A00028BF0131094DC91AC9B21844297007F072
:1025B00061F838B9637D2A781344227D134063752E
:1025C000034B987038BD00BF281300207013002003
:1025D000801200204C13002010B5074C237853B90B
:1025E0000D210648FFF729FA0222F0210348FFF7E0
:1025F00033FA3223237010BD280000202813002056
:1026000010B5154B1A780AB964221A70134803F0F2
:10261000D5FD202811480AD1114C23789B0706D5F7
:10262000FFF732F923786FF34103237010BD03F0F5
:10263000C5FD2028FAD10A4C94F90030002BF5DAB8
:10264000084B1B78032BF1D90448FFF771FB237863
:1026500060F3C713E9E700BF25000020740E0020D7
:10266000740D002027000020F7B53D4E96F8723219
:1026700096F874529D4228BF1D463A4B1A7802F0D4
:102680004103412B384B3BD196F8704296F87622A5
:10269000A41A00221A70002C50D021463348FFF7AC
:1026A00075F90446324B3C2D1C70304BE4B21F7F51
:1026B0004BD83846FDF7D0FF27A3D3E90023FDF719
:1026C0004FFDFEF733F896F8B63240B2AB4207D270
:1026D0000A233F1A323D6F4397FBF3F7384440B269
:1026E000C0B20319001B5BB247B2224922480A4616
:1026F0000B7002F8067F009701F04CF903B0F0BDB3
:1027000002F06001602905D196F87642C4F13204E6
:102710006400BEE702F00302032A03D196F8704278
:10272000323CF5E71A7822B9012214481A70FFF7F3
:102730000DF9134BB3F940406442ACE70B48FFF787
:1027400058F90E48FFF702F9ACE73B193F1B5BB2A3
:102750007FB2CAE7AFF30080666666666666E63FEC
:10276000A40F0020750D0020041300200009002094
:1027700025130020F8120020100F0020740E0020F6
:10278000A012002070B5414B414A93F8715293F862
:10279000B51293F870428D4293F8B4128CBF0025A5
:1027A0000125A14234BF0021012193F8B96241EA19
:1027B000450193F8755293F87602B5428CBF002517
:1027C000012541EA451193F8BA52854234BF0025EC
:1027D000012541EA8511157825F06305294311701B
:1027E00093F8725293F8B6128D4239D393F874125B
:1027F00093F8B852A9428CBF0021012193F8775277
:1028000093F8BB628900AE1B7542754141EAC51160
:10281000157805F07B0529431170011977290ADD28
:10282000117811F0040506D1844294BF65F3861136
:1028300065F30001117093F8731293F8B7321548DD
:10284000994215490ED10B780133DBB20B70002190
:10285000012B017003D9137843F00803137070BD86
:102860000121CBE703780133DBB203700020012B99
:102870000870F4D913781B0741BF08490B7843F05F
:1028800040030B7013786FF3C303E7E7A40F002036
:10289000750D00207413002060090020740D0020C5
:1028A00070B5364B364C93F8742293F872329A42D4
:1028B00028BF1A46372A8CBF00210121314B1970DD
:1028C0002378314913F0080F02D001230B7070BD3B
:1028D0002E4D2B7803F00100C3F38016400040EA30
:1028E0008600C3F380030343294806789E4219D12A
:1028F0000B78FF2B01D001330B70372A15D82B78BA
:1029000003F04103412B10D10522224B22481A70BB
:10291000FFF76FF82148FFF719F8237843F0080311
:102920002370D4E703700123E6E70B78012B05D869
:10293000372ACCD90222174B1A70C8E795F9001034
:102940002B780029F4DA5907F2D503F04103012B63
:1029500004D104220F4B1A701148D9E7402B02D141
:1029600003220C4BF7E7002BE2D107F073F8094B79
:1029700000F0010003301870EEE700BFA40F002044
:10298000740D00202613002014000020750D002077
:10299000240000200513002040090020740E0020B0
:1029A0002009002010B51E4B1A781E4B012A0FD0AB
:1029B000022A13D032B91C4A1C49116001221C4959
:1029C0001A700A701B78022B0DD0032B17D010BD84
:1029D000154A1849116002221A70F3E7124A164983
:1029E00011600322F8E7154B1B785B0703D4012223
:1029F0000F4B1A70EBE7BDE81040FFF751BF0F4BCC
:102A00001C780B4B14F0040408D101220C481A70F6
:102A1000FEF79CFF0B4B9C70DC70D8E70222E8E7C6
:102A2000A00F0020061300202000002000C000FF9F
:102A30000513002000CC00FFC0CC00FF740D002067
:102A4000740E0020F01200207FB5FFF78FFB754B4E
:102A5000754E1D78012D52D0022D00F01581002DEC
:102A600047D1724D724C05210220FFF783FB95F987
:102A7000013095F900206F496F4807F02DF994E86F
:102A8000060001236C48FFF78FFA11210220FFF79F
:102A900071FB95F9033095F902206849664807F003
:102AA0001BF994E8060001236348FFF77DFA1D2116
:102AB0000220FFF75FFB95F9053095F90420604986
:102AC0005D4807F009F994E8060001235A48FFF72A
:102AD0006BFA29210220FFF74DFB95F90620594991
:102AE000554807F0F9F8012394E806005248FFF72B
:102AF0005BFA337843F08003337004B070BD022179
:102B00000846FFF737FB504B494C93F900204F49DB
:102B1000494807F0E1F894E806002B464648FFF7DD
:102B200043FA02215620FFF725FB494A49495378C9
:102B30004148127807F0D0F894E806002B463E484A
:102B4000FFF732FA0F210220FFF714FB42493A48FF
:102B500007F0B3F994E8060000233748FFF724FA9A
:102B60001A210220FFF706FB3C4A3D4992F9063044
:102B7000314892F9002007F0AFF894E806002B46A0
:102B80002D48FFF711FA0F213E20FFF7F3FA3549E0
:102B9000294807F092F994E8060000232648FFF739
:102BA00003FA1A213E20FFF7E5FA2F4B2F4A1B7834
:102BB000B2F940202E49204807F08EF894E806002C
:102BC0002B461D48FFF7F0F927210220FFF7D2FA24
:102BD0003378194813F0040F264B14BF26492749B0
:102BE0001A7807F079F894E8060000231248FFF7F6
:102BF000DBF933210220FFF7BDFA214B21491A7876
:102C00000D4802F001030293C2F340030193C2F3A3
:102C100080030093C2F34013C2F3801207F05CF804
:102C200061E700BF1C000020740D0020F01200209E
:102C30000C00002020B90008071300202BB9000861
:102C400036B9000841B900082513002048B900082A
:102C50008012002051B900085DB90008F812002068
:102C600065B900086FB9000805130020A012002004
:102C700078B900080613002082B900088EB9000850
:102C8000750D00209AB900088A4C2A216C20FFF7A4
:102C900071FA8949894807F010F994E80600012380
:102CA0008648FFF781F9864D35216020FFF762FAEB
:102CB00001220A211C20FFF709F9B5F830228149C9
:102CC0007E4807F009F894E8060000237B48FFF7E8
:102CD0006BF912216C20FFF74DFA7B49774807F01A
:102CE000ECF894E8060001237448FFF75DF91D2114
:102CF0006020FFF73FFA01220A211C20FFF7E6F8C7
:102D0000B5F832226F496D4806F0E6FF94E80600F8
:102D100000236A48FFF748F901215220FFF72AFAF9
:102D20006A49664807F0C9F894E806000123634839
:102D3000FFF73AF90C214620FFF71CFA01220A217D
:102D40001C20FFF7C3F8B5F834225E495B4806F053
:102D5000C3FF94E8060000235848FFF725F9122125
:102D60003C20FFF707FA5A49544807F0A6F894E8C0
:102D7000060001235148FFF717F91D213020FFF706
:102D8000F9F901220A211C20FFF7A0F8B5F8362234
:102D90004C494A4806F0A0FF94E806000023474843
:102DA000FFF702F901212620FFF7E4F949494348DA
:102DB00007F083F894E8060001234048FFF7F4F891
:102DC0000C211A20FFF7D6F901220A211C20FFF757
:102DD0007DF8B5F838223B49384806F07DFF94E885
:102DE000060000233548FFF7DFF812210C20FFF71B
:102DF000C1F93949314807F060F894E80600012329
:102E00002E48FFF7D1F81D210020FFF7B3F901226A
:102E10000A211C20FFF75AF8B5F83A222949274819
:102E200006F05AFF94E8060000232448FFF7BCF898
:102E30002A210C20FFF79EF92849204807F03DF889
:102E400094E8060001231D48FFF7AEF83521002065
:102E5000FFF790F901220A211C20FFF737F8B5F897
:102E60003C221849154806F037FF94E80600002375
:102E70001248FFF799F82A213C20FFF77BF91849FF
:102E80000E4807F01AF894E8060001230B48FFF7F4
:102E90008BF835213020FFF76DF901220A211C2023
:102EA000FFF714F8B5F83E220649044806F014FF6F
:102EB000002319E60C000020B0B900080713002019
:102EC000A40F0020B2B90008B7B90008EBB9000898
:102ED000B9B90008BBB90008BDB90008BFB90008FE
:102EE000C1B90008642208B5044B1A7000F0FCFF59
:102EF00006F082FDBDE80840FFF7A6BD25000020D2
:102F000038B5174D2B785B0621D5164C94F9062061
:102F1000A378032A06D8DFE802F0021B1E21E3781B
:102F20000133E370A1781048FEF787FDE1780E4881
:102F3000FEF783FDA1790C48FEF77FFD0422FA21FC
:102F40000948FEF789FD2B786FF386132B7038BD87
:102F5000E378013BE5E70133A370E3E7013BFBE7DF
:102F6000740D0020F01200202813002010B5234B10
:102F70001B78022B41D1224B224C1B78032B23D1EF
:102F800094F90630A3B90223A371A1781E48FEF775
:102F900054FDE1781C48FEF750FDA1791A48FEF770
:102FA0004CFDBDE810400422FA211748FEF754BD3D
:102FB000022B01D10123E7E7012B01D10323E3E732
:102FC000032BE2D10023DFE7042B09D194F906306B
:102FD000002BF3D0032BEDD0012BD4D0022BF0E744
:102FE000052BD2D194F90630002BE3D0012BE9D088
:102FF000022BE3D0032BC8D1C5E710BD0613002078
:1030000005130020F012002028130020F7B5404ED1
:103010003378ABB1FF2B4FF00003337001D103B015
:10302000F0BD3C4A3C48137823F018031370FEF7B8
:103030008DFC3A48FEF7DDFC0222394B1A70EEE7B0
:10304000344C2278D1060FD4364922F0300291F860
:10305000763291F870128B428CBF002301235B0102
:1030600043F01003134323702F4F2378B7F94050D8
:103070009B064CBFB435C5F1B4056DB329462B484A
:10308000FEF784FC05462A4B2A491D70B7F94030EB
:103090008A1D002BB8BF5B429BB2B02B0AD89F2B76
:1030A0001ED9204B93F87602372819D893F870323E
:1030B000372B15D80123337000231F480B708B71F9
:1030C00000931C4900F066FC3378012BA7D103B0B4
:1030D000BDE8F040FFF74ABF1448FEF78AFCD2E78C
:1030E000124B2478187FA4062844C0B2C0F1000314
:1030F00040B248BF04465BB244BF184623468871BD
:103100000B7000900B490C4800F044FC87E700BFAF
:1031100061090020740D0020740E002000090020B9
:1031200005130020A40F0020A01200204009002059
:1031300025130020F8120020100F002073B5404C1A
:1031400006462378ABB1FF2B4FF00003237001D16B
:1031500002B070BD3B4A3C48117863F3C301117063
:10316000FEF7F4FB3948FEF744FC0222384B1A7094
:10317000EEE7384D00280CBF6FF0EF01F021284634
:10318000FEF704FC344B354A1870354BB3F9403028
:10319000002BB8BF5B429BB2542B01D8217891B170
:1031A000012323700023137093712E4A00932E483D
:1031B000911F00F0EFFB2378012BC9D102B0BDE8CD
:1031C0007040FFF7D3BE062E22D1A97FC0B2091AE4
:1031D00049B20329B8BF03211170697F084423490C
:1031E000907191F87502462803D991F87612372923
:1031F00003D83B2B01D90123237092F906301A48DA
:10320000009392F90030174A911F00F0C3FB9FE72B
:10321000002EF2D1697FC0B2091A1170A97F08444B
:1032200040B20328B8BF03201049907191F8710291
:10323000462803D991F870123729DED8402BD9E7F8
:1032400062090020740D0020740E00200009002087
:10325000051300202009002025130020F81200206B
:10326000A0120020FE120020100F0020A40F00204A
:1032700007B5144B1B78013B042B0ED8DFE803F095
:103280000310151B1D00104900230A460B7002F89D
:10329000063F0E48009300F07DFB03B05DF804FB91
:1032A00003B05DF804EBFFF7DFB9002003B05DF871
:1032B00004EBFFF743BF0620F8E703B05DF804EB2B
:1032C000FFF7A4BE05130020F8120020100F002005
:1032D000184A08B5137823F0030343F00203137070
:1032E000154A13780BB1013B1370144A13780BB1D4
:1032F000013B1370124A13780BB1013B1370FFF7B7
:103300006BF91048FFF720F9FDF760FD0E48FEF756
:103310009DFC0E48FEF79AFC0D48FEF79EF9FFF75C
:1033200031FAFFF73FFBFFF7A3FFBDE80840FFF7C7
:10333000E7BD00BF740D00202600002025000020FE
:103340002900002060120020281300204C130020C8
:10335000A40F002010B594B0142200210CA806F090
:103360001EFD142200210DEB020006F018FD1022B4
:10337000002101A806F013FD02244FF4803301223E
:10338000CDE91143CDE90A234FF4E0130AA80E92C8
:10339000139303F0A7FD08B172B6FEE70F23CDE942
:1033A00005344FF480630790CDE90830214605A825
:1033B00003F05AFF08B172B6FEE7122301934FF4EF
:1033C0000043CDE9033001A804F00AF808B172B651
:1033D000FEE714B010BD00000024FF252DE9804851
:1033E00095B000F063FD4FF4FA7000F083FDAF4834
:1033F000AF4BB04E0360B04B4FF00F0B8360AF4B41
:103400004FF002084360FDF7B1FCAD48FEF7D2F87B
:10341000AC49AD48FDF798FB47F2305247F24E51A8
:10342000AA48FDF7BBFBAA48AA4B86610360AA4BDA
:10343000057103610575C461FEF7DFFAA748A84B63
:10344000C0E9066423260360A64B05710361057578
:10345000FEF7D3FA0122A449A448FEF7FFFBA449D2
:10346000A248FEF74DFCA349A048FEF74CFCA24839
:10347000FEF7A6F840F2E51322463221CDE90066B8
:103480009E48FEF771FA14239D4D224628461E21C0
:10349000009301943C23FEF767FA1E23224608217D
:1034A000CDE9006397480C23FEF75EFA3C2385F8CC
:1034B0001EB06B77944DFFF74DFF102221460DA8EB
:1034C00006F06DFCAB69012243F01003AB61AB6900
:1034D0004FF4005103F010030393039BAB698B4837
:1034E00043F02003AB61AB69012603F02003049392
:1034F000049BAB69042743F00403AB61AB694FF055
:10350000030903F004030593059BAB694FF4807A2C
:1035100043F00803AB61AB6903F008030693069B15
:1035200001F0D6F922464FF48071794801F0D0F9C4
:103530004FF4005375480DA9CDE90D360F94CDF821
:10354000408001F0E5F872480DA9CDE90D7901F050
:10355000DFF865480DA9CDE90D640F9601F0D8F8A4
:103560006B480DA9CDE90DA6CDE90F4801F0D0F8C3
:103570006B69224633436B616B69214633400B20F4
:103580000293029B00F002FF0B2000F02FFF224667
:1035900021460E2000F0FAFE0E2000F027FF224602
:1035A0002146584600F0F2FE584600F01FFF102258
:1035B00021460DA806F0F3FB4723564DDFF858C10E
:1035C0002846C5E900C3F923CDE90944C5E9033418
:1035D000C5E90544AC6004F021F908B172B6FEE714
:1035E0004FF4805328460DA90D9304F0FEF908B15D
:1035F00072B6FEE7CDE9090009A9284604F0EEFA03
:10360000034608B172B6FEE74FF4E1324348444C3A
:10361000C0E90233C0E900420C220361C0E905237E
:10362000C36104F073FB054608B172B6FEE705F00E
:10363000A7FF3C4C3C4B204623604FF46023E361E2
:103640000823CDE90D550F95C4F808A025732575FD
:103650006560236100F00AFE08B172B6FEE7CDE9AD
:103660000D060DA920460F9700F092FC08B172B626
:10367000FEE720460DA9CDE90D6800F089FC08B1F0
:1036800072B6FEE720460DA9CDE90D8900F080FC59
:1036900008B172B6FEE720460DA9CDE90D9700F0FE
:1036A00077FC002842D072B6FEE700BF680D00200C
:1036B000D5210008F1210008E5210008812100083A
:1036C000A1210008C3B90008D9B90008DEB9000873
:1036D0002813002063090020630B00204C130020F6
:1036E000630A0020630C0020000C014060120020DF
:1036F000ED23000849240008A40F00200009002041
:103700002009002040090020001002400010014064
:1037100000080140C80E0020002C0140580F002076
:1037200000380140780D0020002401400525204686
:103730000DA90D970E9500F02BFC08B172B6FEE7AF
:1037400006247B480DA90D950E9400F021FC08B1CC
:1037500072B6FEE70D94072475480DA90E9400F08B
:1037600017FC08B172B6FEE7082671480DA90D9442
:103770000E9600F00DFC054608B172B6FEE7014654
:10378000102209A806F00BFB29461C220DA8CDE942
:10379000075506F004FB4723664C67492046C4E9F9
:1037A000001342F20F73A560C4E90335A56104F06C
:1037B00035F808B172B6FEE74FF48053204609A9E8
:1037C000099304F012F908B172B6FEE7204604F03E
:1037D00051F808B172B6FEE7CDE9070007A9204607
:1037E00004F0FCF9024608B172B6FEE760230F90C0
:1037F000CDE90D3011900DA9204604F093F808B1E1
:1038000072B6FEE7042220460DA904F08BF808B139
:1038100072B6FEE7324620460DA904F083F808B1DF
:1038200072B6FEE70C2243480DA904F07BF8064669
:1038300008B172B6FEE73F4800F0F4F93F4D404A48
:10384000404B2846C5E900234FF48043C5E9026692
:10385000C5E90436C5E906662E6201F03BFA064664
:1038600008B172B6FEE7384803F0CEFE314803F0E7
:10387000A5FE31462F4804F0AFF904212D4804F08D
:10388000ABF908212B4804F0A7F90C21294804F0D2
:10389000A3F923682D492E4C5E63881F9E63DE6367
:1038A0001E64267000F06CF82A4805F0F9FE01222B
:1038B00029492A4804F023FC2846FDF715FF28462D
:1038C000FDF782FF2846FEF78FFB3046FEF780FBB0
:1038D00001222378224F43F080032370214B224D95
:1038E0001A70224B1A70224B1A705A709A70DA7042
:1038F00008221A7106229E711E4E5A712378DB0728
:1039000001D5FFF7E5FC33780BB9FEF7F5FD3B7801
:103910000BB9FFF7E7FAFEF725FEFDF773FA284625
:10392000FEF726F91448FEF723F9FEF769FEE5E7EE
:10393000780D0020100F002000080040740E0020B9
:1039400000580040801A0600C80E0020FE12002019
:10395000740D002039240008660D0020580F002047
:103960002500002006130020281300200513002046
:10397000F0120020260000204C13002072B6FEE753
:10398000002340F6AC520380438082800B804B8042
:103990008A80704730B5002B9DF90C5000689CB2AE
:1039A0001FDA01234B70C4EB442304EB8303C4EB05
:1039B000C3040023A400A4B24C800464C363002D9C
:1039C000ABB21ADA01215170C3EB432103EB810141
:1039D000C3EBC1039B009BB253808363002343630B
:1039E00030BD002304EB840404EB8404A400A4B2DF
:1039F0004B704C800364C463E1E7002103EB830355
:103A000003EB83039B009BB2517053808163E6E715
:103A10000E4B82B09A6942F001029A619A6902F0F3
:103A200001020092009ADA6942F08052DA61DB69A1
:103A3000074A03F080530193019B536823F0E0632E
:103A400043F00073536002B0704700BF00100240A3
:103A50000000014030B5054687B01022002102A8C1
:103A600006F09DF92A681C4B9A4233D103F56C434A
:103A70009A691A4842F400729A619A6902A902F49A
:103A800000720092009A9A69154C42F004029A6101
:103A90009B69FF2203F004030193019B0323CDE9FB
:103AA000022300F035FE80204FF480720023C4E929
:103AB00003024FF480620B492046C4E90013C4E9B5
:103AC0000523A360E36100F0B3FC08B1FFF756FFE4
:103AD0002C62656207B030BD00240140000801403F
:103AE000A80D00200800024030B5054687B010221E
:103AF000002102A806F053F92A682B4B9A4251D1B3
:103B00002A4C4FF44061A369294843F00803A3619C
:103B1000A36903F008030093009B1223CDE902136D
:103B2000032302A9059300F0F3FDE3694FF0800C35
:103B300043F48003E361E3694FF4007203F480030C
:103B40000193019B00231B4C1B48C4E903C2C4E939
:103B500000032046C4E90533A360E36100F068FC7C
:103B600008B1FFF70BFF1023144AAC636562144CD5
:103B7000C4E90023002380222046C4E90232C4E9BC
:103B80000433C4E9063300F053FC08B1FFF7F6FE36
:103B90000022212011466C63656200F0F7FB2120B2
:103BA00000F024FC07B030BD005800400010024077
:103BB000000C0140EC0D002058000240440002407F
:103BC000300E002007B50368134A934214D1134BFB
:103BD00019209A6942F400629A6100229B69114699
:103BE00003F400630093009B00F0D0FB192003B0A6
:103BF0005DF804EB00F0FABB094A934209D1074B88
:103C0000DA6942F00402DA61DB6903F0040301932C
:103C1000019B03B05DF804FB002C01400010024042
:103C20000008004010B5044686B01022002102A80A
:103C300006F0B5F822680D4B9A4214D103F5023311
:103C40009A690B4842F008029A619B694FF47072BE
:103C500003F008030193019B022302A9CDE902238B
:103C6000059300F055FD06B010BD00BF00080040F0
:103C7000000C014010B5044686B01022002102A8B5
:103C800006F08DF822681B4B9A4230D103F5584359
:103C90009A69194842F480429A619A6902A902F429
:103CA00080420092009A9A69002442F004029A61CC
:103CB0009B694FF4007203F004030193019B0223FC
:103CC000CDE902230323059300F022FD4FF4806326
:103CD000094802A9CDE90234049400F019FD252019
:103CE0002246214600F052FB252000F07FFB06B063
:103CF00010BD00BF0038014000080140FEE7FEE7AC
:103D0000FEE7FEE7FEE770477047704700F0E0B857
:103D1000014800F065BC00BFA80D0020014800F07C
:103D20005FBC00BF300E0020014800F059BC00BF4E
:103D3000EC0D0020014802F0E9BA00BF541A00203F
:103D4000014803F090BC00BFC80E0020014801F0FC
:103D5000EDBD00BF740E0020014804F06DB800BF37
:103D6000580F00200120704708B506F079F8162397
:103D700003604FF0FF3008BD08B506F071F8162358
:103D80000360FEE770B50D4614460E46731B9C4259
:103D900001DC204670BDAFF3008006F8010BF5E7AB
:103DA00070B50D4614460E46731B9C4201DC20463E
:103DB00070BD16F8010BAFF30080F5E74FF0FF3050
:103DC00070474FF4005300204B607047012070474C
:103DD000002070470B4A0346116810B509B90A491B
:103DE0001160106809490A4C0344091B8B4206D92B
:103DF00006F036F80C2303604FF0FF3010BD13605F
:103E0000FCE700BF78130020B02000200050002005
:103E10000004000070470000FFF7FCFF0B480C494E
:103E20000C4A002302E0D458C4500433C4188C4216
:103E3000F9D3094A094C002301E013600432A2427D
:103E4000FBD306F013F8FFF7C7FA70470000002015
:103E50000402002070BB000808020020B0200020EF
:103E6000FEE7000038B50E4B05461A784FF47A731A
:103E7000B3FBF2F30B4A1068B0FBF3F000F0C4FAA6
:103E8000044658B90F2D09D8024629464FF0FF3095
:103E900000F07CFA2046044B1D6038BD0120FCE791
:103EA000300000202C00002034000020074A08B514
:103EB0001368032043F01003136000F055FA0F203D
:103EC000FFF7D0FFFFF7A4FD002008BD002002404F
:103ED000034A044B11681B780B441360704700BF02
:103EE0007C13002030000020014B1868704700BF91
:103EF0007C13002038B50446FFF7F6FF0546631C27
:103F00001EBF044B1B78E418FFF7EEFF431BA342D0
:103F1000FAD338BD30000020436A10B59A6A12F017
:103F2000500F1BD19A6A42F400729A621A68926822
:103F300002F46022B2F5602F0CD11A7B52B99A6A52
:103F400022F480729A629A6AD2045EBF9A6A42F040
:103F500001029A621846FEF7B1FA10BD1B6ABDE86D
:103F600010401B6B1847704708B5406AFFF7FBFF0E
:103F700008BD7047406A08B5836A43F04003836216
:103F8000C36A43F00403C362FFF7F3FF08BD0000F8
:103F9000002373B5019390F824300446012B6CD0B4
:103FA000012380F824304D680268062D086805EB6F
:103FB000850322D81F26556B053B9E4025EA060542
:103FC00000FA03F32B43536309288B6800EB400589
:103FD0004FF0070129D9D6681E3DA94026EA010104
:103FE000AB400B43D360A0F11003012B25D9002077
:103FF000002384F8243002B070BD0C2D4FF01F0553
:1040000009D8166B233B9D4026EA050500FA03F309
:104010002B431363D8E7D66A413B9D4026EA05054A
:1040200000FA03F32B43D362CEE71069A94020EADC
:104030000101AB400B431361D9E7114B9A4216D1F2
:1040400093681B02D3D49368102843F40003936051
:10405000CDD10C4B0C4A1B68B3FBF2F30A2253433D
:104060000193019B002BC2D0019B013BF8E7A36A9F
:10407000012043F02003A362BAE70220BBE700BFA0
:10408000002401402C00002040420F00002337B5DF
:104090000193036804469A68D20702D5002003B052
:1040A00030BD9A6842F001029A60144B144A1B68B2
:1040B000B3FBF2F30193019BE3B9FFF715FF05464C
:1040C00023689B68DB07E9D4FFF70EFF401B02283B
:1040D000F6D923689B6813F00103F1D1A26A01208D
:1040E00042F01002A262E26A84F8243042F0010237
:1040F000E262D4E7019B013BDCE700BF2C0000201B
:1041000040420F002DE9F041404B904602680446C2
:104110009A420F4602D03E498A4203D15B6813F4AB
:10412000702F6ED194F82430012B6CD001232046DF
:1041300084F82430FFF7AAFF064600285DD1A56A5F
:104140002168334B25F4706525F0010545F4807531
:104150009942A56204D12D4A536813F4702F3ED1C1
:10416000A36A23F48013A3624B685A0505D5A36A9A
:1041700023F4405343F48053A362A36A206A13F4E8
:10418000805318BFE36A3A4618BF23F00603E36280
:10419000002384F824301F4B4C3183621E4BC362D2
:1041A0001E4B03636FF0020341F84C3C51F8443C52
:1041B00043F4807341F8443C434600F06BF92368B4
:1041C0009A6802F46022B2F5602F9A680CBF42F43C
:1041D000A00242F480129A603046BDE8F081A36AE2
:1041E00043F48013A36253685B0541BFA06A20F4C7
:1041F000405040F48050A062BFE7002384F8243090
:10420000EAE70126E8E70226E6E700BF00240140CE
:1042100000280140193F0008693F0008753F000869
:1042200038B5036804469A68D10701D4002038BD28
:104230009A6822F001029A60FFF756FE054623684D
:104240009B68DB07F2D5FFF74FFE401B0228F6D92B
:1042500023689B68DA07F2D5A36A012043F01003B4
:10426000A362E36A43F00103E362E0E7F8B50446C2
:1042700000286DD0836A23B9C36280F82430FFF729
:10428000E9FB2046FFF7CCFFA36A13F0100361D1CE
:1042900000285FD1A26A616822F4885222F00202EB
:1042A00042F00202E569A668A262227B2943B6F5C4
:1042B000807F41EA420136D0771E7D427D412D024A
:1042C000277D012F06D182BBA269013A45EA42321D
:1042D00042F400652268B6F5807F576827F4694785
:1042E00045EA0705556097681D4D05EA070545EA4B
:1042F0000105956001D0012E02D12369013B1B0508
:10430000D56A25F470052B43D3629268154B134090
:10431000994213D10023E362A36A23F0030343F01D
:104320000103A362F8BD3546CAE7A26A42F0200243
:10433000A262E26A42F00102E262CBE7A36A23F0E2
:10434000120343F01003A362E36A43F00103E36244
:104350000120E7E7A36A43F01003A362F8E700BF78
:10436000FDF7E1FFFE0E1FFF07490302CA6803F4D1
:10437000E06322F4E0621204120C134343F0BF63C3
:1043800043F40033CB60704700ED00E0154B30B5CF
:10439000DC68C4F30224C4F10703251D042B28BFE5
:1043A0000423062D4FF0FF3594BF0024033C05FA8B
:1043B00003F321EA0303A54022EA0502A3400028F3
:1043C00043EA0203ACBF00F16040074A4FEA03131F
:1043D000DBB2ABBF00F5614000F00F0080F80033A6
:1043E000135430BD00ED00E014ED00E0002807DBC1
:1043F00001234109034A00F01F00834042F82130A5
:10440000704700BF00E100E00138B0F1807F0BD2BF
:104410004FF0E023F021054A586182F82310002074
:10442000072298611A6170470120704700ED00E093
:10443000034610B540B314210068144A0244B2FB8D
:10444000F1F292001A64124ADA63022283F8212000
:10445000D3E901242243DC68016822431C6921F46A
:104460007F5122435C6921F0300122439C69224341
:10447000DC6922430A43026000200122986383F82A
:10448000200083F8212010BD0120FCE7F8FFFDBFCC
:1044900000000240F0B5054690F82000012836D013
:1044A000012085F8200095F8210000240128C6B2DB
:1044B0004FF0020028D185F82100AC632C682068F9
:1044C00020F001002060D5E90F7006FA00F0786056
:1044D00063606B68102BEB6A0BBFA260A160E160A8
:1044E000E2604BB1236843F00E0300202360236891
:1044F00043F001032360F0BD236823F0040323602D
:10450000236843F00A03F0E785F82040F3E7022030
:10451000F1E790F821200346022A06D004228263A4
:104520000120002283F8202070470268C06B1168C8
:1045300021F00E011160116821F0010111600121CB
:104540001A6C01FA02F24260002083F82110E8E7B9
:1045500010B590F82130022B03D00423836301208F
:1045600010BD03681A6822F00E021A601A6822F061
:1045700001021A60184A93421FD0143293421ED08F
:10458000143293421DD0143293421DD01432934200
:104590001DD0143293420CBF4FF480134FF0807340
:1045A0000E4A00245360012380F82130436B80F8C9
:1045B00020407BB198472046D2E70123F0E7102343
:1045C000EEE74FF48073EBE74FF48053E8E74FF4E6
:1045D0008033E5E71846C3E70800024000000240C8
:1045E00070B40425C66B026C34680368954025429C
:1045F000196832D04D0730D51A6896065EBF1A6822
:1046000022F004021A603E4A934219D014329342B7
:1046100018D01432934217D01432934217D0143268
:10462000934217D0143293420CBF4FF480034FF0E3
:104630008063344A5360C36A002B5ED070BC184755
:104640000423F6E74023F4E74FF48063F1E74FF4E7
:104650008043EEE74FF48023EBE7022595402542A7
:1046600035D08D0733D51A68940606D41A6822F01F
:104670000A021A60012280F82120214A934219D0AF
:104680001432934218D01432934217D0143293420A
:1046900017D01432934217D0143293420CBF4FF408
:1046A00000134FF00073174A5360002380F8203046
:1046B000836AC1E70223F6E72023F4E74FF400738F
:1046C000F1E74FF40053EEE74FF40033EBE7082532
:1046D0009540254211D009070FD5196821F00E0128
:1046E0001960012303FA02F27260836380F82130BB
:1046F000002380F82030036B9EE770BC704700BF3A
:10470000080002400000024090F8210070470000BD
:104710002DE9F74F00221646644F654BDFF894C130
:10472000DFF894E10D6835FA06F402D103B0BDE874
:10473000F08F4FF0010808FA06F805EA080438EA95
:1047400005057AD14D68032D07D8013D022D00F2F1
:104750008780DFE805F0959AA000122D00F0988080
:104760006DD8112D00F08E80FF2C98BF82464FF03F
:104770000F0988BF00F1040A4FEA8605DAF80080C5
:1047800088BF203D09FA05FB28EA0B0802FA05F567
:1047900048EA0505CAF80050D1F804A01AF0805F75
:1047A0004BD0BD6926F0030845F00105BD61BD6928
:1047B00008F1804805F00105019508F5803806F0FC
:1047C000030B019D4FEA8B0BD8F8085009FA0BF93F
:1047D00025EA0909394DA84261D005F58065A8424E
:1047E0005FD005F58065A8425DD005F58065A842DB
:1047F0000CBF0325042505FA0BF545EA0905C8F8A1
:1048000008509D681AF4801F14BF2543A5439D607E
:10481000DD681AF4001F14BF2543A543DD605D6801
:104820001AF4003F14BF2543A5435D601D681AF4C8
:10483000803F14BF2543A5431D60013672E7DFF8B2
:1048400080904D450CD017D8A9F580194D4507D05B
:1048500009F570294D4503D0A9F580194D4583D13F
:104860008A68D2B1012A08BFC0F810804FF0080250
:1048700018BFC0F8148077E76545F1D07545EEE7BD
:10488000CA6871E7CA6804326EE7CA6808326BE723
:10489000CA680C3268E7002266E7042264E7002554
:1048A000A9E70125A7E70225A5E700BF0010024000
:1048B00000040140000031100000321000080140E7
:1048C000000022108368194214BF012000207047A5
:1048D0000AB1016170470904FBE7016800224B69D6
:1048E00013F4806310D06FF480634B612023026364
:1048F00080F83D3080F83E20036C80F83C2043F087
:104900000403036401207047184670472DE9F846F8
:1049100006460F4691461D464FEA114A3368BAF1E2
:10492000010F0CBF5C699C6927EA0404A4B2B4FAC5
:1049300084F46409A14501D0002025E06A1CEED072
:10494000FFF7D2FA089BC01AA84201D8002DE5D182
:104950003368BAF1010F0CBF5B699B6927EA030357
:104960009BB2B3FA83F35B099945D7D10023202288
:104970000120336386F83D2086F83E30326C86F89D
:104980003C3042F020023264BDE8F8862DE9F04167
:1049900004460F46164698462568686927EA0000CF
:1049A00080B2B8B16B695A0516D52B68202243F442
:1049B00000732B606FF480636B610023236384F8C2
:1049C0003D2084F83E30226C42F004020120226433
:1049D00084F83C30BDE8F081731CDED0FFF784FA28
:1049E000A0EB0800B04201D8002ED5D123685A6947
:1049F00027EA020292B2002ACED0002320222363AB
:104A000084F83D2084F83E30226C42F02002DDE73D
:104A100070B504460D46164623685B691B0601D532
:104A2000002070BD2046FFF758FFC8B96A1CF3D0BC
:104A3000FFF75AFA801BA84201D8002DECD1236859
:104A40005B6913F08003E7D12022236384F83D20C3
:104A500084F83E30226C84F83C3042F0200222641C
:104A60000120DEE72DE9F0431546026899461368F8
:104A700085B043F480731360DDE90C780E463B4645
:104A800000224FF00111CDF800800446FFF73EFFF1
:104A9000236838B11B68DB0502D54FF4007323642B
:104AA00003200AE006F0FE061E613A464346204611
:104AB0001749FFF76BFF18B1012005B0BDE8F0837F
:104AC000236803905A69394603929B6942460393CF
:104AD0002046039BFFF79CFF40B1236C042B01BFD2
:104AE0002268136843F400731360E5E7B9F1010F1E
:104AF000236802D1EDB21D61DFE72A0A1A61394647
:104B000042462046FFF784FF0028E6D12368F1E7FC
:104B1000020001002DE9FF479A46DDE90C780368A1
:104B200015461A680E4642F480621A601A684FF001
:104B3000011142F480721A603B460022CDF80080D9
:104B40000446FFF7E3FE236848B11B68DB0502D586
:104B50004FF400732364032004B0BDE8F0875FFACC
:104B600086F906F0FE061E613A464346204629496C
:104B7000FFF70CFF08B10120EEE7236803905A69A4
:104B8000394603929B69424603932046039BFFF7F5
:104B90003FFF40B1236C042B01BF2268136843F42C
:104BA00000731360E7E7BAF1010F23681AD1EDB281
:104BB0004246394620461D61FFF72AFF024600287B
:104BC000E8D1216820460B6843F480730B603B46B4
:104BD0004FF00111CDF80080FFF798FE226860B118
:104BE0001368B3E72A0A1A61394642462046FFF79E
:104BF0000FFF0028CED12368D9E749F001031361E4
:104C0000204643463A460349FFF7C0FE003818BF26
:104C10000120A1E70200010070B504460D461646CA
:104C200023685B695B0701D5002070BD2046FFF754
:104C300054FEC8B96A1CF3D0FFF756F9801BA8428E
:104C400001D8002DECD123685B6913F00403E7D190
:104C50002022236384F83D2084F83E30226C84F8BF
:104C60003C3042F0200222640120DEE770B50446A9
:104C70000D46164621684B6913F0400301D0002011
:104C800010E04A69D2060ED56FF010024A61202268
:104C9000236384F83D2084F83E30226C0120226496
:104CA00084F83C3070BDFFF71FF9801BA84201D883
:104CB000002DDFD123685B6913F04003DAD1202295
:104CC000236384F83D2084F83E30226C42F02002B9
:104CD000E4E7000070B5044608B9012070BD90F803
:104CE0003D3003F0FF021BB980F83C20FEF7FCFECC
:104CF000242384F83D3023681A6822F001021A60E8
:104D00001A6842F400421A601A6822F400421A60DB
:104D100002F046FB3F4B65689D4294BF3E4B3F4BC4
:104D200098428CBF00230123002BD6D1394E3C4B37
:104D3000B542B0FBF3F388BF4FF496762268516812
:104D400021F03F0141EA030182BF73434FF47A76B9
:104D5000B3FBF6F35160116A013321F03F010B43BD
:104D60001362D169431E2B4821F44F41854221F043
:104D7000FF0132D86D00B3FBF5F340F6FC70013350
:104D8000034242D0C3F30B031943D1611168D4E944
:104D9000073021F0C00103430B4313609168D4E94D
:104DA000030321F40341034321F0FF010B4393600C
:104DB000D168D4E9053021F0FF0103430B43D360F0
:104DC0001368002043F0010313602023206484F85B
:104DD0003D30206384F83E0080E7A06850B905EBC1
:104DE0004505B3FBF5F30133C3F30B037BB143F488
:104DF0000043C9E719206843B3FBF0F30133C3F361
:104E00000B0323B143F44043BEE70423BCE7012373
:104E1000BAE700BFA08601007F841E00FF083D00A6
:104E200040420F002DE9F743044699460F4690464D
:104E30000C9EFFF759F894F83D300546202B03D01F
:104E4000022003B0BDE8F083009019230122204620
:104E50003A49FFF75BFD0028F2D194F83C30012B72
:104E6000EED00123206884F83C3003684246D9071D
:104E700058BF036839465CBF43F001030360036811
:104E800023F400630360212384F83D30402384F839
:104E90003E30002323640A9B20466362BDF82C3019
:104EA000CDE900656385638D2385254BE3624B4621
:104EB000FFF7D8FD00282AD00120C2E7FFF7A8FDA0
:104EC00040B1236C042B01BF2268136843F40073C4
:104ED0001360F1E7636A27681A4612F8011B39610B
:104EE0006262628D218D013A92B262857A69481EB2
:104EF00080B2520720850AD548B15A7802333A6108
:104F00006362638D0239013B9BB221856385238DEA
:104F10002A4631462046002BD0D1FFF77DFE0028DF
:104F2000CFD12268136843F400731360202384F800
:104F30003C0084F83D3084F83E0082E70200100017
:104F40000000FFFF2DE9F04399460023044689B095
:104F500003930D469046129FFEF7C6FF94F83D302E
:104F60000646202B04D00225284609B0BDE8F08370
:104F700000901923012220468D49FFF7C7FC002825
:104F8000F1D194F83C30012BEDD00123206884F856
:104F90003C3003682946DB0758BF036842465CBFC4
:104FA00043F001030360036823F4006303602223DA
:104FB00084F83D30402384F83E3000232364109B66
:104FC00020466362BDF84430CDE900766385638D89
:104FD0002385784BE3624B46FFF79CFD054608B1FD
:104FE0000125C1E7228D2368C2B904905A69049251
:104FF0009A690492049A1A6842F400721A60DFF8FF
:10500000B881DFF8B891238D002B37D1202284F8A6
:105010003C3084F83D2084F83E30A5E7012A11D1C8
:105020001A6822F480621A6072B6236805905A6981
:1050300005929A690592059A1A6842F400721A60FC
:1050400062B6DCE7022A1A680ED142F400621A60E6
:1050500072B6236806905A6906929A690692069A71
:105060001A6822F48062EAE742F480621A600790CC
:105070005A6907929B690793079BC0E7032B78D86F
:10508000012B15D1324639462046FFF7EFFD0028A7
:10509000A6D123681A69636A1A70636A013363626E
:1050A000238D013B2385638D013B9BB26385AAE77A
:1050B000022B4FF000023B4641462046009618D195
:1050C000FFF724FC00288BD172B623681A6842F4DB
:1050D00000721A601A69636A1A70636A0133636244
:1050E000238D013B2385638D013B9BB2638562B6B3
:1050F000CFE7FFF70BFC00287FF472AF226813683C
:1051000023F48063136072B646F2A81123681A690B
:10511000636A1A70626A531C6362238D013B2385A4
:10512000638D013B9BB26385D9F80030B3FBF1F38B
:1051300023214B430393039B013B0393039B6BB9D5
:105140002022236384F83D2084F83E30226C42F014
:105150002002226462B684F83C3041E72368596932
:105160004807E8D5196841F4007119601B6953704C
:10517000B3E7324639462046FFF778FD00287FF432
:105180002FAF23681A69636A1A70626A531C6362DC
:10519000238D013B2385638D013B9BB2638523688F
:1051A000596949077FF52FAF1B69537075E700BF39
:1051B000020010000000FFFF040001002C0000208E
:1051C0002DE9FF4799460023044602930F46904677
:1051D0000C9EFEF789FE94F83D308246202B03D0CA
:1051E000022004B0BDE8F08746F2A812534B1B68BA
:1051F000B3FBF2F3192253430293029B013B029348
:10520000029B4BB92022236384F83D2084F83E3072
:10521000236C13432364E3E7226893699907ECD472
:1052200094F83C30012BDBD0012384F83C30136828
:105230000025DB0758BF136841495CBF43F00103F9
:105240001360136823F400631360212384F83D3056
:10525000402384F83E30BDF8343025646385638D87
:1052600066629BB2E16223856764C4F84880C4F833
:105270004C902565002B55D0606B40B33149456398
:10528000816231491032C0E90B513146FFF702F912
:10529000064600283AD123234246009339464B461E
:1052A0002046CDF804A0FFF7DDFBE8B1606BFFF707
:1052B0004FF9636B9E6223681A6822F480621A6059
:1052C00066851A68268522F001021A600AE020230A
:1052D00084F83D3084F83E00236C84F83C0043F0B1
:1052E0008003236401207CE7236803905A690392BA
:1052F0009A6984F83C000392039A5A6842F48072D7
:105300005A605A6842F400625A606AE7202384F8BF
:105310003D3084F83E50236C84F83C5043F0100339
:105320002364DFE7202284F83D2084F83E30226C9D
:1053300084F83C3042F040022264D3E72C00002085
:105340000000FFFF13560008D95500082DE9F0476B
:1053500086B0044699460F4690460E9DFEF7C4FD62
:105360000023039394F83D308246202B03D0022083
:1053700006B0BDE8F08746F2A812634B1B68B3FB8A
:10538000F2F3192253430393039B013B0393039BC3
:105390004BB92022236384F83D2084F83E30236CEF
:1053A00013432364E3E721688B699A07ECD494F8EC
:1053B0003C30012BDBD0012384F83C300B68002605
:1053C000DB0758BF0B68514A5CBF43F001030B6019
:1053D0000B6823F400630B60222384F83D304023E4
:1053E00084F83E30BDF83C3026646385638D656289
:1053F0009BB2E26223856764C4F84880C4F84C908D
:105400002665002B62D0A06B40B3414A466382629E
:10541000404A1031C0E90B622A46FFF73BF80546C7
:10542000002847D123234246009339464B46204665
:10543000CDF804A0FFF76EFBE8B1A06BFFF788F88A
:10544000A36B9D6223681A6822F480621A606585E6
:105450001A68258522F001021A600AE0202384F8E8
:105460003D3084F83E00236C84F83C0043F0800318
:10547000236401207CE7228D2368012A0BBF1A6870
:105480005A6822F4806242F480520CBF1A605A605B
:105490000022049259690491996984F83C2004918E
:1054A00004995A6842F480725A605A6842F4006261
:1054B0005A605DE7202384F83D3084F83E60236C19
:1054C00084F83C6043F010032364D2E72323424670
:1054D000009339464B462046CDF804A0FFF71AFB4F
:1054E0000028C6D1236805905A6905929A690592E9
:1054F000059A1A6842F400721A60202384F83C006E
:1055000084F83D3034E700BF2C0000200000FFFF8E
:1055100013560008D9550008704770477047704708
:1055200070477047704790F83D2008B5036DD2B2C0
:1055300083B9C36C0268012B836C05D1DBB21361A4
:10554000036D0233036508BDC3F307231361036DC5
:105550000133F7E7036D012B03D1836C0268DBB2E3
:10556000F4E7036D022B2FD1222A05D102681368BC
:1055700043F480731360EAE7438D9BB263B1212A41
:105580000AD1436A026813F8011B11614362438D1B
:10559000013B9BB24385D6E7438D9BB2002BD2D112
:1055A000212AD0D10268516821F4E061516011686C
:1055B00041F4007111602022036380F83D2080F8DF
:1055C0003E30FFF7AFFFBEE703685A69120644BFDB
:1055D00000221A61B7E77047406A08B5436B0BB108
:1055E00000229A62836B0BB100229A6202681368F0
:1055F00023F48063136000232022438580F83D203C
:1056000080F83E30036C43F010030364FFF7E3FFC0
:1056100008BD70B5446A236894F83D2094F83E00B4
:10562000E16A5D68D2B225F440755D60656BC0B219
:105630000DB10026AE62A56B0DB10026AE6202F080
:105640002105212D05D002F02205222D23D120286D
:1056500021D15968292A21F4006159604FF00003D3
:1056600063850DD1212323632823204684F83D3010
:10567000FFF754FF2268536843F44073536070BDD2
:105680002A2AF7D1222323632823204684F83D3099
:10569000FFF745FFEEE794F83E20002AEFD0628D39
:1056A00092B2012A02BF1A6822F480621A605A6814
:1056B00011F5803F22F440725A6006D0082904D0C8
:1056C000B1F12A4F01D0202903D11A6842F40072A7
:1056D0001A605A6822F480525A605A6822F40062B2
:1056E0005A6000236385236C1BB12046FFF773FFCC
:1056F000C5E7202284F83D2094F83E2084F83E300F
:10570000402A04D120462363FCF7CEF8B7E71223E2
:1057100020462363FFF701FFB1E77047002337B549
:1057200046F2A81101932C4B406A1B6890F83D206B
:10573000B3FBF1F323214B4301930368D2B20199E8
:1057400041BB016C41F020010164446B0CB10021AC
:10575000A162816B09B100258D621D6825F4806509
:105760001D600025458504B1656301B14D6319686D
:1057700021F00101196090F83D10602911D120231A
:1057800080F83D30002380F83E300364FFF7C5FF0A
:1057900003B030BD01990139019119688905CED452
:1057A000D3E702F02802282A0ED1196841F001013E
:1057B0001960196841F4806119600023036380F85F
:1057C0003D20FFF708FFE3E7202380F83D3000236A
:1057D00080F83E30F5E700BF2C00002010B590F8AF
:1057E0003D2090F83E300446102BD9B2D2B2036867
:1057F00001D0402913D1222A11D1196821F4006166
:105800001960596811F4006106D1602A1EBF202278
:1058100084F83D2084F83E100022226307E002F065
:1058200028012829EDD10022226384F83D105A680E
:1058300012F400624FD05A68606B22F400625A6022
:1058400090F82130012B374B2BD04363FEF780FEBD
:1058500050B12268606B136823F0010313602023AA
:1058600084F83D30436B9847236C19071FBF2268AB
:10587000536823F4E063536094F83D30226CDBB24C
:1058800052070DD5282B0BD1274B2022E362002392
:105890002046236384F83D2084F83E30FFF741FE24
:1058A00010BDA06B4363FEF753FE0028DCD02368D5
:1058B0005A69510605D51A69636A1A70636A013319
:1058C00063622268A06B136823F001031360202336
:1058D00084F83D30C6E794F83D10602915D12021A9
:1058E00084F83D1022645A69520605D51A69636A24
:1058F0001A70636A0133636222682046136823F0DA
:1059000001031360FFF709FFAEE75A69500605D59A
:105910001A69636A1A70636A013363622046FFF78B
:105920005AFEA1E71D5700080000FFFFF0B504462E
:1059300003688FB05A68C66A90F83E0094F83D102C
:105940001028C5B2C9B202D0402D40F0D5829F695F
:10595000586910F0010F07D1B6F52A0F02D0B6F141
:105960002A4F51D10FB0F0BD96054DD5E26AB2F580
:105970002A0F0CD10122E26294F83E20402A11D174
:10598000226D52B9626C02F0FE021A61EAE7E26A25
:10599000B2F12A4FF0D10822EDE7626C42F0010229
:1059A000D2B2F2E72269B2F5804F1AD194F83D20C5
:1059B000212A626C11D102F0FE021A61626B0AB1F7
:1059C000926A2AB9A26B002ACCD0926A002AC9D066
:1059D0005A6842F400625A60C4E742F00102D2B24F
:1059E000EBE7226D32B9626CD21102F0060242F08E
:1059F000F002CAE7226D012AB4D1626CD21102F022
:105A0000060242F0F102C0E7060703D5960501D56C
:105A1000626CE4E7860740F1F080960540F1ED8086
:105A200094F83E10E26A256B94F83D00C9B2222832
:105A300040F0DB80206D40B9402906D100905A69C2
:105A400000929B690093009B8CE7216D89B92069C6
:105A5000B0F5404F0DD101915A6901929A690192B6
:105A6000019A1A6842F480721A60236D013323652B
:105A700078E7618D89B251B902915A6902929A69A7
:105A80000292029A1A6842F400721A6019E0618D5B
:105A900089B2012949D112F5803F1BD11A6822F43D
:105AA00080621A605A6812F400620CD01A6822F4FC
:105AB00080621A60002203925A6903929B690393E1
:105AC000039B0023D3E704925A6904929A690492D3
:105AD000049AD7E7082A1CD0202A1AD0122D0DD1FB
